{
  "_format": "hh-sol-artifact-1",
  "contractName": "AgentStaking",
  "sourceName": "contracts/AgentStaking.sol",
  "abi": [
    {
      "inputs": [
        {
          "internalType": "address",
          "name": "_aitbcToken",
          "type": "address"
        },
        {
          "internalType": "address",
          "name": "_performanceVerifier",
          "type": "address"
        }
      ],
      "stateMutability": "nonpayable",
      "type": "constructor"
    },
    {
      "anonymous": false,
      "inputs": [
        {
          "indexed": true,
          "internalType": "address",
          "name": "agentWallet",
          "type": "address"
        },
        {
          "indexed": false,
          "internalType": "enum AgentStaking.PerformanceTier",
          "name": "oldTier",
          "type": "uint8"
        },
        {
          "indexed": false,
          "internalType": "enum AgentStaking.PerformanceTier",
          "name": "newTier",
          "type": "uint8"
        },
        {
          "indexed": false,
          "internalType": "uint256",
          "name": "tierScore",
          "type": "uint256"
        }
      ],
      "name": "AgentTierUpdated",
      "type": "event"
    },
    {
      "anonymous": false,
      "inputs": [
        {
          "indexed": true,
          "internalType": "address",
          "name": "previousOwner",
          "type": "address"
        },
        {
          "indexed": true,
          "internalType": "address",
          "name": "newOwner",
          "type": "address"
        }
      ],
      "name": "OwnershipTransferred",
      "type": "event"
    },
    {
      "anonymous": false,
      "inputs": [
        {
          "indexed": false,
          "internalType": "address",
          "name": "account",
          "type": "address"
        }
      ],
      "name": "Paused",
      "type": "event"
    },
    {
      "anonymous": false,
      "inputs": [
        {
          "indexed": true,
          "internalType": "uint256",
          "name": "stakeId",
          "type": "uint256"
        },
        {
          "indexed": false,
          "internalType": "uint256",
          "name": "feeAmount",
          "type": "uint256"
        },
        {
          "indexed": true,
          "internalType": "address",
          "name": "collector",
          "type": "address"
        }
      ],
      "name": "PlatformFeeCollected",
      "type": "event"
    },
    {
      "anonymous": false,
      "inputs": [
        {
          "indexed": true,
          "internalType": "address",
          "name": "agentWallet",
          "type": "address"
        },
        {
          "indexed": false,
          "internalType": "uint256",
          "name": "totalRewards",
          "type": "uint256"
        },
        {
          "indexed": false,
          "internalType": "uint256",
          "name": "stakerCount",
          "type": "uint256"
        }
      ],
      "name": "PoolRewardsDistributed",
      "type": "event"
    },
    {
      "anonymous": false,
      "inputs": [
        {
          "indexed": true,
          "internalType": "uint256",
          "name": "stakeId",
          "type": "uint256"
        },
        {
          "indexed": true,
          "internalType": "address",
          "name": "staker",
          "type": "address"
        },
        {
          "indexed": false,
          "internalType": "uint256",
          "name": "rewardAmount",
          "type": "uint256"
        },
        {
          "indexed": false,
          "internalType": "uint256",
          "name": "platformFee",
          "type": "uint256"
        }
      ],
      "name": "RewardsDistributed",
      "type": "event"
    },
    {
      "anonymous": false,
      "inputs": [
        {
          "indexed": true,
          "internalType": "uint256",
          "name": "stakeId",
          "type": "uint256"
        },
        {
          "indexed": true,
          "internalType": "address",
          "name": "staker",
          "type": "address"
        },
        {
          "indexed": false,
          "internalType": "uint256",
          "name": "totalAmount",
          "type": "uint256"
        },
        {
          "indexed": false,
          "internalType": "uint256",
          "name": "totalRewards",
          "type": "uint256"
        }
      ],
      "name": "StakeCompleted",
      "type": "event"
    },
    {
      "anonymous": false,
      "inputs": [
        {
          "indexed": true,
          "internalType": "uint256",
          "name": "stakeId",
          "type": "uint256"
        },
        {
          "indexed": true,
          "internalType": "address",
          "name": "staker",
          "type": "address"
        },
        {
          "indexed": true,
          "internalType": "address",
          "name": "agentWallet",
          "type": "address"
        },
        {
          "indexed": false,
          "internalType": "uint256",
          "name": "amount",
          "type": "uint256"
        },
        {
          "indexed": false,
          "internalType": "uint256",
          "name": "lockPeriod",
          "type": "uint256"
        },
        {
          "indexed": false,
          "internalType": "uint256",
          "name": "apy",
          "type": "uint256"
        }
      ],
      "name": "StakeCreated",
      "type": "event"
    },
    {
      "anonymous": false,
      "inputs": [
        {
          "indexed": true,
          "internalType": "uint256",
          "name": "stakeId",
          "type": "uint256"
        },
        {
          "indexed": true,
          "internalType": "address",
          "name": "staker",
          "type": "address"
        },
        {
          "indexed": false,
          "internalType": "uint256",
          "name": "amount",
          "type": "uint256"
        },
        {
          "indexed": false,
          "internalType": "uint256",
          "name": "penalty",
          "type": "uint256"
        }
      ],
      "name": "StakeUnbonded",
      "type": "event"
    },
    {
      "anonymous": false,
      "inputs": [
        {
          "indexed": true,
          "internalType": "uint256",
          "name": "stakeId",
          "type": "uint256"
        },
        {
          "indexed": false,
          "internalType": "uint256",
          "name": "newAmount",
          "type": "uint256"
        },
        {
          "indexed": false,
          "internalType": "uint256",
          "name": "newAPY",
          "type": "uint256"
        }
      ],
      "name": "StakeUpdated",
      "type": "event"
    },
    {
      "anonymous": false,
      "inputs": [
        {
          "indexed": false,
          "internalType": "address",
          "name": "account",
          "type": "address"
        }
      ],
      "name": "Unpaused",
      "type": "event"
    },
    {
      "inputs": [
        {
          "internalType": "uint256",
          "name": "",
          "type": "uint256"
        }
      ],
      "name": "activeStakeIds",
      "outputs": [
        {
          "internalType": "uint256",
          "name": "",
          "type": "uint256"
        }
      ],
      "stateMutability": "view",
      "type": "function"
    },
    {
      "inputs": [
        {
          "internalType": "address",
          "name": "_agentWallet",
          "type": "address"
        },
        {
          "internalType": "enum AgentStaking.PerformanceTier",
          "name": "_initialTier",
          "type": "uint8"
        }
      ],
      "name": "addSupportedAgent",
      "outputs": [],
      "stateMutability": "nonpayable",
      "type": "function"
    },
    {
      "inputs": [
        {
          "internalType": "uint256",
          "name": "_stakeId",
          "type": "uint256"
        },
        {
          "internalType": "uint256",
          "name": "_additionalAmount",
          "type": "uint256"
        }
      ],
      "name": "addToStake",
      "outputs": [],
      "stateMutability": "nonpayable",
      "type": "function"
    },
    {
      "inputs": [
        {
          "internalType": "address",
          "name": "",
          "type": "address"
        }
      ],
      "name": "agentMetrics",
      "outputs": [
        {
          "internalType": "address",
          "name": "agentWallet",
          "type": "address"
        },
        {
          "internalType": "uint256",
          "name": "totalStaked",
          "type": "uint256"
        },
        {
          "internalType": "uint256",
          "name": "stakerCount",
          "type": "uint256"
        },
        {
          "internalType": "uint256",
          "name": "totalRewardsDistributed",
          "type": "uint256"
        },
        {
          "internalType": "uint256",
          "name": "averageAccuracy",
          "type": "uint256"
        },
        {
          "internalType": "uint256",
          "name": "totalSubmissions",
          "type": "uint256"
        },
        {
          "internalType": "uint256",
          "name": "successfulSubmissions",
          "type": "uint256"
        },
        {
          "internalType": "uint256",
          "name": "lastUpdateTime",
          "type": "uint256"
        },
        {
          "internalType": "enum AgentStaking.PerformanceTier",
          "name": "currentTier",
          "type": "uint8"
        },
        {
          "internalType": "uint256",
          "name": "tierScore",
          "type": "uint256"
        }
      ],
      "stateMutability": "view",
      "type": "function"
    },
    {
      "inputs": [
        {
          "internalType": "address",
          "name": "",
          "type": "address"
        },
        {
          "internalType": "uint256",
          "name": "",
          "type": "uint256"
        }
      ],
      "name": "agentStakes",
      "outputs": [
        {
          "internalType": "uint256",
          "name": "",
          "type": "uint256"
        }
      ],
      "stateMutability": "view",
      "type": "function"
    },
    {
      "inputs": [],
      "name": "aitbcToken",
      "outputs": [
        {
          "internalType": "contract IERC20",
          "name": "",
          "type": "address"
        }
      ],
      "stateMutability": "view",
      "type": "function"
    },
    {
      "inputs": [],
      "name": "baseAPY",
      "outputs": [
        {
          "internalType": "uint256",
          "name": "",
          "type": "uint256"
        }
      ],
      "stateMutability": "view",
      "type": "function"
    },
    {
      "inputs": [
        {
          "internalType": "address",
          "name": "_agentWallet",
          "type": "address"
        },
        {
          "internalType": "uint256",
          "name": "_lockPeriod",
          "type": "uint256"
        },
        {
          "internalType": "enum AgentStaking.PerformanceTier",
          "name": "_agentTier",
          "type": "uint8"
        }
      ],
      "name": "calculateAPY",
      "outputs": [
        {
          "internalType": "uint256",
          "name": "",
          "type": "uint256"
        }
      ],
      "stateMutability": "view",
      "type": "function"
    },
    {
      "inputs": [
        {
          "internalType": "uint256",
          "name": "_stakeId",
          "type": "uint256"
        }
      ],
      "name": "calculateRewards",
      "outputs": [
        {
          "internalType": "uint256",
          "name": "",
          "type": "uint256"
        }
      ],
      "stateMutability": "view",
      "type": "function"
    },
    {
      "inputs": [
        {
          "internalType": "uint256",
          "name": "_stakeId",
          "type": "uint256"
        }
      ],
      "name": "completeUnbonding",
      "outputs": [],
      "stateMutability": "nonpayable",
      "type": "function"
    },
    {
      "inputs": [
        {
          "internalType": "address",
          "name": "_agentWallet",
          "type": "address"
        },
        {
          "internalType": "uint256",
          "name": "_totalEarnings",
          "type": "uint256"
        }
      ],
      "name": "distributeAgentEarnings",
      "outputs": [],
      "stateMutability": "nonpayable",
      "type": "function"
    },
    {
      "inputs": [],
      "name": "earlyUnbondPenalty",
      "outputs": [
        {
          "internalType": "uint256",
          "name": "",
          "type": "uint256"
        }
      ],
      "stateMutability": "view",
      "type": "function"
    },
    {
      "inputs": [],
      "name": "getActiveStakes",
      "outputs": [
        {
          "internalType": "uint256[]",
          "name": "",
          "type": "uint256[]"
        }
      ],
      "stateMutability": "view",
      "type": "function"
    },
    {
      "inputs": [
        {
          "internalType": "address",
          "name": "_agentWallet",
          "type": "address"
        }
      ],
      "name": "getAgentMetrics",
      "outputs": [
        {
          "internalType": "uint256",
          "name": "totalStaked",
          "type": "uint256"
        },
        {
          "internalType": "uint256",
          "name": "stakerCount",
          "type": "uint256"
        },
        {
          "internalType": "uint256",
          "name": "totalRewardsDistributed",
          "type": "uint256"
        },
        {
          "internalType": "uint256",
          "name": "averageAccuracy",
          "type": "uint256"
        },
        {
          "internalType": "uint256",
          "name": "totalSubmissions",
          "type": "uint256"
        },
        {
          "internalType": "uint256",
          "name": "successfulSubmissions",
          "type": "uint256"
        },
        {
          "internalType": "enum AgentStaking.PerformanceTier",
          "name": "currentTier",
          "type": "uint8"
        },
        {
          "internalType": "uint256",
          "name": "tierScore",
          "type": "uint256"
        }
      ],
      "stateMutability": "view",
      "type": "function"
    },
    {
      "inputs": [
        {
          "internalType": "address",
          "name": "_agentWallet",
          "type": "address"
        }
      ],
      "name": "getAgentStakes",
      "outputs": [
        {
          "internalType": "uint256[]",
          "name": "",
          "type": "uint256[]"
        }
      ],
      "stateMutability": "view",
      "type": "function"
    },
    {
      "inputs": [
        {
          "internalType": "uint256",
          "name": "_stakeId",
          "type": "uint256"
        }
      ],
      "name": "getStake",
      "outputs": [
        {
          "internalType": "address",
          "name": "staker",
          "type": "address"
        },
        {
          "internalType": "address",
          "name": "agentWallet",
          "type": "address"
        },
        {
          "internalType": "uint256",
          "name": "amount",
          "type": "uint256"
        },
        {
          "internalType": "uint256",
          "name": "lockPeriod",
          "type": "uint256"
        },
        {
          "internalType": "uint256",
          "name": "startTime",
          "type": "uint256"
        },
        {
          "internalType": "uint256",
          "name": "endTime",
          "type": "uint256"
        },
        {
          "internalType": "enum AgentStaking.StakeStatus",
          "name": "status",
          "type": "uint8"
        },
        {
          "internalType": "uint256",
          "name": "accumulatedRewards",
          "type": "uint256"
        },
        {
          "internalType": "uint256",
          "name": "currentAPY",
          "type": "uint256"
        },
        {
          "internalType": "enum AgentStaking.PerformanceTier",
          "name": "agentTier",
          "type": "uint8"
        },
        {
          "internalType": "bool",
          "name": "autoCompound",
          "type": "bool"
        }
      ],
      "stateMutability": "view",
      "type": "function"
    },
    {
      "inputs": [
        {
          "internalType": "address",
          "name": "_staker",
          "type": "address"
        }
      ],
      "name": "getStakerStakes",
      "outputs": [
        {
          "internalType": "uint256[]",
          "name": "",
          "type": "uint256[]"
        }
      ],
      "stateMutability": "view",
      "type": "function"
    },
    {
      "inputs": [
        {
          "internalType": "address",
          "name": "_agentWallet",
          "type": "address"
        }
      ],
      "name": "getStakingPool",
      "outputs": [
        {
          "internalType": "uint256",
          "name": "totalStaked",
          "type": "uint256"
        },
        {
          "internalType": "uint256",
          "name": "totalRewards",
          "type": "uint256"
        },
        {
          "internalType": "uint256",
          "name": "poolAPY",
          "type": "uint256"
        },
        {
          "internalType": "uint256",
          "name": "stakerCount",
          "type": "uint256"
        }
      ],
      "stateMutability": "view",
      "type": "function"
    },
    {
      "inputs": [],
      "name": "getSupportedAgents",
      "outputs": [
        {
          "internalType": "address[]",
          "name": "",
          "type": "address[]"
        }
      ],
      "stateMutability": "view",
      "type": "function"
    },
    {
      "inputs": [
        {
          "internalType": "uint256",
          "name": "",
          "type": "uint256"
        }
      ],
      "name": "lockPeriodMultipliers",
      "outputs": [
        {
          "internalType": "uint256",
          "name": "",
          "type": "uint256"
        }
      ],
      "stateMutability": "view",
      "type": "function"
    },
    {
      "inputs": [],
      "name": "maxAPY",
      "outputs": [
        {
          "internalType": "uint256",
          "name": "",
          "type": "uint256"
        }
      ],
      "stateMutability": "view",
      "type": "function"
    },
    {
      "inputs": [],
      "name": "maxStakeAmount",
      "outputs": [
        {
          "internalType": "uint256",
          "name": "",
          "type": "uint256"
        }
      ],
      "stateMutability": "view",
      "type": "function"
    },
    {
      "inputs": [],
      "name": "minStakeAmount",
      "outputs": [
        {
          "internalType": "uint256",
          "name": "",
          "type": "uint256"
        }
      ],
      "stateMutability": "view",
      "type": "function"
    },
    {
      "inputs": [],
      "name": "owner",
      "outputs": [
        {
          "internalType": "address",
          "name": "",
          "type": "address"
        }
      ],
      "stateMutability": "view",
      "type": "function"
    },
    {
      "inputs": [],
      "name": "pause",
      "outputs": [],
      "stateMutability": "nonpayable",
      "type": "function"
    },
    {
      "inputs": [],
      "name": "paused",
      "outputs": [
        {
          "internalType": "bool",
          "name": "",
          "type": "bool"
        }
      ],
      "stateMutability": "view",
      "type": "function"
    },
    {
      "inputs": [],
      "name": "performanceVerifier",
      "outputs": [
        {
          "internalType": "contract PerformanceVerifier",
          "name": "",
          "type": "address"
        }
      ],
      "stateMutability": "view",
      "type": "function"
    },
    {
      "inputs": [],
      "name": "platformFeePercentage",
      "outputs": [
        {
          "internalType": "uint256",
          "name": "",
          "type": "uint256"
        }
      ],
      "stateMutability": "view",
      "type": "function"
    },
    {
      "inputs": [
        {
          "internalType": "address",
          "name": "_agentWallet",
          "type": "address"
        }
      ],
      "name": "removeSupportedAgent",
      "outputs": [],
      "stateMutability": "nonpayable",
      "type": "function"
    },
    {
      "inputs": [],
      "name": "renounceOwnership",
      "outputs": [],
      "stateMutability": "nonpayable",
      "type": "function"
    },
    {
      "inputs": [],
      "name": "rewardDistributionInterval",
      "outputs": [
        {
          "internalType": "uint256",
          "name": "",
          "type": "uint256"
        }
      ],
      "stateMutability": "view",
      "type": "function"
    },
    {
      "inputs": [],
      "name": "stakeCounter",
      "outputs": [
        {
          "internalType": "uint256",
          "name": "",
          "type": "uint256"
        }
      ],
      "stateMutability": "view",
      "type": "function"
    },
    {
      "inputs": [
        {
          "internalType": "address",
          "name": "_agentWallet",
          "type": "address"
        },
        {
          "internalType": "uint256",
          "name": "_amount",
          "type": "uint256"
        },
        {
          "internalType": "uint256",
          "name": "_lockPeriod",
          "type": "uint256"
        },
        {
          "internalType": "bool",
          "name": "_autoCompound",
          "type": "bool"
        }
      ],
      "name": "stakeOnAgent",
      "outputs": [
        {
          "internalType": "uint256",
          "name": "",
          "type": "uint256"
        }
      ],
      "stateMutability": "nonpayable",
      "type": "function"
    },
    {
      "inputs": [
        {
          "internalType": "address",
          "name": "",
          "type": "address"
        },
        {
          "internalType": "uint256",
          "name": "",
          "type": "uint256"
        }
      ],
      "name": "stakerStakes",
      "outputs": [
        {
          "internalType": "uint256",
          "name": "",
          "type": "uint256"
        }
      ],
      "stateMutability": "view",
      "type": "function"
    },
    {
      "inputs": [
        {
          "internalType": "uint256",
          "name": "",
          "type": "uint256"
        }
      ],
      "name": "stakes",
      "outputs": [
        {
          "internalType": "uint256",
          "name": "stakeId",
          "type": "uint256"
        },
        {
          "internalType": "address",
          "name": "staker",
          "type": "address"
        },
        {
          "internalType": "address",
          "name": "agentWallet",
          "type": "address"
        },
        {
          "internalType": "uint256",
          "name": "amount",
          "type": "uint256"
        },
        {
          "internalType": "uint256",
          "name": "lockPeriod",
          "type": "uint256"
        },
        {
          "internalType": "uint256",
          "name": "startTime",
          "type": "uint256"
        },
        {
          "internalType": "uint256",
          "name": "endTime",
          "type": "uint256"
        },
        {
          "internalType": "enum AgentStaking.StakeStatus",
          "name": "status",
          "type": "uint8"
        },
        {
          "internalType": "uint256",
          "name": "accumulatedRewards",
          "type": "uint256"
        },
        {
          "internalType": "uint256",
          "name": "lastRewardTime",
          "type": "uint256"
        },
        {
          "internalType": "uint256",
          "name": "currentAPY",
          "type": "uint256"
        },
        {
          "internalType": "enum AgentStaking.PerformanceTier",
          "name": "agentTier",
          "type": "uint8"
        },
        {
          "internalType": "bool",
          "name": "autoCompound",
          "type": "bool"
        }
      ],
      "stateMutability": "view",
      "type": "function"
    },
    {
      "inputs": [
        {
          "internalType": "address",
          "name": "",
          "type": "address"
        }
      ],
      "name": "stakingPools",
      "outputs": [
        {
          "internalType": "address",
          "name": "agentWallet",
          "type": "address"
        },
        {
          "internalType": "uint256",
          "name": "totalStaked",
          "type": "uint256"
        },
        {
          "internalType": "uint256",
          "name": "totalRewards",
          "type": "uint256"
        },
        {
          "internalType": "uint256",
          "name": "poolAPY",
          "type": "uint256"
        },
        {
          "internalType": "uint256",
          "name": "lastDistributionTime",
          "type": "uint256"
        }
      ],
      "stateMutability": "view",
      "type": "function"
    },
    {
      "inputs": [
        {
          "internalType": "uint256",
          "name": "",
          "type": "uint256"
        }
      ],
      "name": "supportedAgents",
      "outputs": [
        {
          "internalType": "address",
          "name": "",
          "type": "address"
        }
      ],
      "stateMutability": "view",
      "type": "function"
    },
    {
      "inputs": [
        {
          "internalType": "enum AgentStaking.PerformanceTier",
          "name": "",
          "type": "uint8"
        }
      ],
      "name": "tierMultipliers",
      "outputs": [
        {
          "internalType": "uint256",
          "name": "",
          "type": "uint256"
        }
      ],
      "stateMutability": "view",
      "type": "function"
    },
    {
      "inputs": [
        {
          "internalType": "address",
          "name": "newOwner",
          "type": "address"
        }
      ],
      "name": "transferOwnership",
      "outputs": [],
      "stateMutability": "nonpayable",
      "type": "function"
    },
    {
      "inputs": [
        {
          "internalType": "uint256",
          "name": "_stakeId",
          "type": "uint256"
        }
      ],
      "name": "unbondStake",
      "outputs": [],
      "stateMutability": "nonpayable",
      "type": "function"
    },
    {
      "inputs": [],
      "name": "unbondingPeriod",
      "outputs": [
        {
          "internalType": "uint256",
          "name": "",
          "type": "uint256"
        }
      ],
      "stateMutability": "view",
      "type": "function"
    },
    {
      "inputs": [],
      "name": "unpause",
      "outputs": [],
      "stateMutability": "nonpayable",
      "type": "function"
    },
    {
      "inputs": [
        {
          "internalType": "address",
          "name": "_agentWallet",
          "type": "address"
        },
        {
          "internalType": "uint256",
          "name": "_accuracy",
          "type": "uint256"
        },
        {
          "internalType": "bool",
          "name": "_successful",
          "type": "bool"
        }
      ],
      "name": "updateAgentPerformance",
      "outputs": [],
      "stateMutability": "nonpayable",
      "type": "function"
    },
    {
      "inputs": [
        {
          "internalType": "uint256",
          "name": "_baseAPY",
          "type": "uint256"
        },
        {
          "internalType": "uint256",
          "name": "_maxAPY",
          "type": "uint256"
        },
        {
          "internalType": "uint256",
          "name": "_platformFee",
          "type": "uint256"
        }
      ],
      "name": "updateConfiguration",
      "outputs": [],
      "stateMutability": "nonpayable",
      "type": "function"
    }
  ],
  "bytecode": "0x60803462000191576200308390601f38839003908101601f19168201906001600160401b038211838310176200019657808391604095869485528339810103126200019157816200005e60206200005684620001ac565b9301620001ac565b60008054336001600160a01b03198083168217845593959293916001600160a01b03919082167f8be0079c531659141344cd1fd0a4f28419497f9722a3daafe3b4186f6b6457e08680a360018055600254956101f46005556107d0968760065568056bc75e2d6310000060075569152d02c7e14af680000060085562093a8060095562015180600a556064600b556103e89485600c55610100600160a81b039060081b169060018060a81b0319161760025516906003541617600355818052601260205282822055600181526104b082822055600281526105dc808383205560038252838383205560048252610bb88383205562278d008252601360205261044c838320556276a70082526104e28383205562ed4e008252828220556301e133808152205551612ec19081620001c28239f35b600080fd5b634e487b7160e01b600052604160045260246000fd5b51906001600160a01b0382168203620001915756fe6080604052600436101561001257600080fd5b60e0600035811c9081630b1933c01461245f5781631371cbf81461242b578163214405a91461240d5781632475713b146123605781633133fb04146123425781633bdd6dbb1461227a5781633f4ba83a146121e65781634cdcd8d3146121b557816351dd75451461213a5781635820023c14611f105781635c975abb14611eed5781635d80ca3214611ecf5781636765174e14611e575781636cf6d67514611e39578163715018a614611de057816371f7266214611a6e57816372833f0b146118205781637658f9d6146113c25781638456cb591461132f5781638da5cb5b146113065781639e614e0e146112a7578163a2aadc0314611118578163a7061423146110ef578163a9f4939d14610ede578163aae38b0714610eb2578163ad935e9714610e49578163b2ab278214610dff578163b55f76af14610d6b578163b83ab8be14610d42578163bd3169ac1461078d578163bddabf5014610735578163c501651a14610635578163c8d759fe146105f3578163cdd78cfc146105d5578163ce325bf814610507578163d1a77893146104da578163d3ea4350146104a7578163d5a44f86146103cc57508063d6a4612e14610344578063e49eaee014610326578063e5de318314610308578063f1887684146102ea578063f2fde38b146102265763f7b17d101461020357600080fd5b34610221576000366003190112610221576020600454604051908152f35b600080fd5b346102215760203660031901126102215761023f612642565b610247612762565b6001600160a01b0390811690811561029657600054826001600160601b0360a01b821617600055167f8be0079c531659141344cd1fd0a4f28419497f9722a3daafe3b4186f6b6457e0600080a3005b60405162461bcd60e51b815260206004820152602660248201527f4f776e61626c653a206e6577206f776e657220697320746865207a65726f206160448201526564647265737360d01b6064820152608490fd5b34610221576000366003190112610221576020600754604051908152f35b34610221576000366003190112610221576020600a54604051908152f35b34610221576000366003190112610221576020600654604051908152f35b3461022157602080600319360112610221576001600160a01b03610366612642565b16600052600f8152604060002090604051908181845491828152019360005281600020916000905b8282106103b5576103b1856103a58189038261283f565b6040519182918261267e565b0390f35b83548652948501946001938401939091019061038e565b3461022157602036600319011261022157600435600052600d602052604060002090815491600160a01b60019003918260018301541692600283015416906003830154906004840154906005850154600686015490600787015460ff1693600888015495600989015497600a8a015499600b01549a6040519c8d5260208d015260408c015260608b015260808a015260a089015260c0880152860161047091612755565b610100850152610120840152610140830152610493610160830160ff8316612658565b60081c60ff1615156101808201526101a090f35b346102215760203660031901126102215760206104d26004356104cd60045482106129a9565b612aa9565b604051908152f35b346102215760003660031901126102215760025460405160089190911c6001600160a01b03168152602090f35b34610221576020366003190112610221576101609060043561052c60045482106129a9565b600052600d60205260ff60406000209160018060a01b03928360018201541693600282015416916003820154906105ae600484015460058501546006860154908860078801541692600888015496600b600a8a0154990154996040519c8d5260208d015260408c015260608b015260808a015260a089015260c0880190612755565b8501526101008401526105c76101208401838316612658565b60081c161515610140820152f35b34610221576000366003190112610221576020600b54604051908152f35b34610221576020366003190112610221576004356014548110156102215761061c6020916126b9565b905460405160039290921b1c6001600160a01b03168152f35b3461022157606036600319011261022157604435602435600435610657612762565b8181116106f05761138882116106b8576101f4831161067b57600555600655600b55005b60405162461bcd60e51b81526020600482015260156024820152740a0d8c2e8ccdee4da40cccaca40e8dede40d0d2ced605b1b6044820152606490fd5b60405162461bcd60e51b815260206004820152601060248201526f09ac2f04082a0b240e8dede40d0d2ced60831b6044820152606490fd5b60405162461bcd60e51b815260206004820152601e60248201527f42617365204150592063616e6e6f7420657863656564206d61782041505900006044820152606490fd5b346102215760403660031901126102215761074e612642565b6001600160a01b03166000908152600e60205260409020805460243591908210156102215760209161077f9161273d565b90546040519160031b1c8152f35b34610221576020366003190112610221576107ad600454600435106129a9565b600435600052600d6020526107d360018060a01b036001604060002001541633146129ec565b6107db612953565b600435600052600d6020526040600020600781015460ff81166004811015610d2c57600103610cf157600682015490610816600954836128b3565b4210610cac576003830154928360088201549260009462278d0081018111610c965762278d00014210610c6a575b90600260039260ff1916176007840155600283019060096108ad60ff61089860018060a01b0386541680600052601060205260406000209561088b60018801918254612a9c565b80915515610c5e57612c3c565b6108a66008860191826128c0565b5416612d30565b91015560018060a01b0390541691015490806000526011806020526040600020926108fa6005850191336000528260205260406000206108ee828254612a9c565b90556001860154612a9c565b60018501553360005260205260406000205415610b3e575b506001820154610b16575b505082610a6b575b8061099c575b60405190838252602082015233907f7bde163b84831ac8287c0f45346de97f3e2f758318eb44fc4bc17a6e0b58ef94604060043592a3604051918252602082015233907f504d3727923851528645a1cd3192f5ad4654cbcec16124e7e8ec2f78af168aa8604060043592a360018055005b60025460405163a9059cbb60e01b81523360048201526024810183905290602090829060081c6001600160a01b0316816000816044810103925af1908115610a5f57600091610a30575b5061092b5760405162461bcd60e51b815260206004820152601760248201527f52657761726473207472616e73666572206661696c65640000000000000000006044820152606490fd5b610a52915060203d602011610a58575b610a4a818361283f565b8101906128fd565b846109e6565b503d610a40565b6040513d6000823e3d90fd5b60025460405163a9059cbb60e01b81523360048201526024810185905290602090829060081c6001600160a01b0316816000816044810103925af1908115610a5f57600091610af7575b506109255760405162461bcd60e51b815260206004820152601560248201527414dd185ad9481d1c985b9cd9995c8819985a5b1959605a1b6044820152606490fd5b610b10915060203d602011610a5857610a4a818361283f565b84610ab5565b60005260106020526003610b3460ff60086040600020015416612b16565b910155838061091d565b9392919060005b600683015480821015610c5257610b5f826006860161273d565b905460039190911b1c6001600160a01b03163314610b865750610b81906128a4565b610b45565b9091929394956000198201918211610c3e575090610bc9610bad610be8936006870161273d565b905460039190911b1c6001600160a01b0316916006860161273d565b90919082549060031b9160018060a01b03809116831b921b1916179055565b60068201548015610c285760001901610c1c610c07826006860161273d565b81549060018060a01b039060031b1b19169055565b60068301555b85610912565b634e487b7160e01b600052603160045260246000fd5b634e487b7160e01b60005260045260246000fd5b50509091929350610c22565b60006002870155612c3c565b9493506003906002610c8c612710610c84600c5489612a69565b048097612a9c565b9691925050610844565b634e487b7160e01b600052601160045260246000fd5b60405162461bcd60e51b815260206004820152601a60248201527f556e626f6e64696e6720706572696f64206e6f7420656e6465640000000000006044820152606490fd5b60405162461bcd60e51b81526020600482015260136024820152725374616b65206e6f7420756e626f6e64696e6760681b6044820152606490fd5b634e487b7160e01b600052602160045260246000fd5b34610221576000366003190112610221576003546040516001600160a01b039091168152602090f35b3461022157602036600319011261022157610100906001600160a01b03610d90612642565b1660005260106020526040600020600181015491610dfa60028301549260038101546004820154600583015490600684015492600960ff60088701541695015497604051998a5260208a015260408901526060880152608087015260a086015260c0850190612658565b820152f35b3461022157604036600319011261022157610e18612642565b6001600160a01b03166000908152600f60205260409020805460243591908210156102215760209161077f9161273d565b346102215760203660031901126102215760a06001600160a01b0380610e6d612642565b16600052601160205260406000209081541690600181015490600281015460046003830154920154926040519485526020850152604084015260608301526080820152f35b346102215760203660031901126102215760043560005260136020526020604060002054604051908152f35b3461022157604036600319011261022157600435602435610f0260045483106129a9565b816000526020600d815260018060a01b0391610f29836001604060002001541633146129ec565b600754811015806110e3575b610f3e906127fc565b82826002546024604051809481936370a0823160e01b835233600484015260081c165afa8015610a5f5782906000906110b2575b610f7e92501015612861565b610f86612953565b83600052600d8252604060002060ff6007820154166004811015610d2c5761104583600096610fb6879415612a2a565b6110068260038701610ffc610fcc8383546128b3565b998960028c9b0193600a8886541692610ff1600482015460ff600b8401541690612b63565b9d8e93550155612d74565b8333915416612dc3565b6002546040516323b872dd60e01b815233600482015230602482015260448101939093529197889360089390931c919091169183919082906064820190565b03925af1928315610a5f576110866040947f3e2d801cabf80e21f37737b105feedef59585176ae82a611b6239e59fccaaea296600091611095575b50612915565b8351928352820152a260018055005b6110ac9150833d8511610a5857610a4a818361283f565b88611080565b50508281813d83116110dc575b6110c9818361283f565b810103126102215781610f7e9151610f72565b503d6110bf565b50600854811115610f35565b34610221576020366003190112610221576004356015548110156102215761077f602091612706565b346102215760203660031901126102215760043561113960045482106129a9565b80600052600d60205260019061115f60018060a01b0383604060002001541633146129ec565b611167612953565b80600052600d602052604060002090600782019160ff835416906004821015610d2c5761119660069215612a2a565b0154421061126a5782916111a982612b91565b805460ff1916831790556000825b6111c057505055005b6015805490818310156112635783916111d884612706565b939054600394851b1c146111f8575050506111f2906128a4565b826111b7565b919450925060001991828201918211610c965761122661121a61123f93612706565b905490871b1c91612706565b90919082549060031b91821b91600019901b1916179055565b81548015610c285781019261125384612706565b81939154921b1b19169055558055005b5050505055005b60405162461bcd60e51b8152602060048201526015602482015274131bd8dac81c195c9a5bd9081b9bdd08195b991959605a1b6044820152606490fd5b34610221576020366003190112610221576001600160a01b036112c8612642565b166000526011602052608060406000206001810154906002810154906006600382015491015491604051938452602084015260408301526060820152f35b34610221576000366003190112610221576000546040516001600160a01b039091168152602090f35b3461022157600036600319011261022157611348612762565b60025460ff811661138a5760019060ff1916176002557f62e78cea01bee320cd4e420270b5ea74000d11b0c9f74754ebdbfc544b05a2586020604051338152a1005b60405162461bcd60e51b815260206004820152601060248201526f14185d5cd8589b194e881c185d5cd95960821b6044820152606490fd5b34610221576040366003190112610221576113db612642565b6001600160a01b0381811660009081526010602052604090205460243591161580159061180f575b61140c906127ba565b611414612953565b80156117ca576001600160a01b03821660009081526011602052604090206001810154156117905761145661271061144e600b5485612a69565b048093612a9c565b91806116cf575b506002546040516323b872dd60e01b8152336004820152306024820152604481018490529060209082908160008160648101039260081c6001600160a01b03165af1908115610a5f576000916116b0575b501561166b5760009260005b6006830154811015611601576114d3816006850161273d565b90549060018060a01b03828260031b1c166000526005850160205261150b61150060406000205488612a69565b600187015490612a7c565b9081611523575b50505061151e906128a4565b6114ba565b919692949560018060a09693961b038216600052600f60205260406000209660005b88548110156115ec57611558818a61273d565b90549060031b1c600052600d602052604060002060018060a01b038b8760031b1c1660018060a01b0360018301541614806115d4575b6115a1575061159c906128a4565b611545565b905060089197995061151e959298506115cb9450959295016115c48382546128b3565b90556128b3565b94908680611512565b5060ff6007820154166004811015610d2c571561158e565b509597509550926115cb915061151e926128b3565b847f7d76ceb6ba710faa4e64cff28d02c6ff9a65576189f15c806d03deaee9dc008460408460068760018060a01b03831660005260106020526003846000200161164c8782546128b3565b90550154825194855260208501526001600160a01b031692a260018055005b60405162461bcd60e51b815260206004820152601860248201527f4561726e696e6773207472616e73666572206661696c656400000000000000006044820152606490fd5b6116c9915060203d602011610a5857610a4a818361283f565b846114ae565b600254600080546040516323b872dd60e01b81523360048201526001600160a01b03918216602482015260448101949094526020928492606492849260081c165af1908115610a5f57600091611771575b501561172c578361145d565b60405162461bcd60e51b815260206004820152601c60248201527f506c6174666f726d20666565207472616e73666572206661696c6564000000006044820152606490fd5b61178a915060203d602011610a5857610a4a818361283f565b84611720565b60405162461bcd60e51b8152602060048201526012602482015271139bc81cdd185ad95c9cc81a5b881c1bdbdb60721b6044820152606490fd5b60405162461bcd60e51b815260206004820152601960248201527f4e6f206561726e696e677320746f2064697374726962757465000000000000006044820152606490fd5b506001600160a01b03821615611403565b3461022157604036600319011261022157611839612642565b602491823560058110156102215761184f612762565b6001600160a01b03838116918215611a325782600052601060205281604060002054166119ee5761187f81612d30565b9060405192610140840184811067ffffffffffffffff8211176119d9576040528484526020840195600087526040850160008152606086016000815260808701906000825260a08801926000845260c0890194600086528901954287526101008a019788526101208a019889528a600052601060205260406000209951169a6001600160601b0360a01b9b8c8b5416178a555160018a0155516002890155516003880155516004870155516005860155516006850155516007840155519060058210156119c457611955600992600885016128c0565b519101558060005260116020526040600020918254161781556000600182015560006002820155600554600382015560044291015560145491600160401b8310156119b05750610bc98260016119ae94016014556126b9565b005b634e487b7160e01b60009081526041600452fd5b86634e487b7160e01b60005260216004526000fd5b88634e487b7160e01b60005260416004526000fd5b60405162461bcd60e51b8152602060048201526017818801527f4167656e7420616c726561647920737570706f727465640000000000000000006044820152606490fd5b60405162461bcd60e51b81526020600482015260158188015274496e76616c6964206167656e74206164647265737360581b6044820152606490fd5b3461022157608036600319011261022157611a87612642565b60243590604435606435928315158094036102215760018060a01b0393848416928360005260209560108752806040600020541615801590611dd8575b611acd906127ba565b60075484101580611dcc575b611ae2906127fc565b80876002546024604051809481936370a0823160e01b835233600484015260081c165afa8015610a5f578590600090611d9b575b611b2292501015612861565b611b2a612953565b620151808210611d5e576301e133808211611d2257611c178460045497611b50896128a4565b6004558760005260108a5260ff60086040600020015416611b718187612b63565b968a600052600d8c52611bf3600b60406000208d8155600181016001600160601b0360a01b9033828254161790558d6002830191825416179055866003820155896004820155426005820155611bc78a426128b3565b60068201556007810160ff198154169055600060088201554260098201558a600a8201550192836128c0565b61ff0082549160081b169061ff001916179055611c108282612d74565b3390612dc3565b33600052600e8752611c2d8660406000206128d8565b84600052600f8752611c438660406000206128d8565b601554600160401b811015611d0c5786611226826001611c669401601555612706565b6002546040516323b872dd60e01b8152336004820152306024820152604481018690529188918391606491839160009160081c165af18015610a5f57611cb391600091611cf55750612915565b604051928352858301526040820152827f5b881586126c13ae4f2e1c6fda21dd4a889e1d2d71ab6c98397c50998cf5b36160603393a460018055604051908152f35b6110ac9150883d8a11610a5857610a4a818361283f565b634e487b7160e01b600052604160045260246000fd5b60405162461bcd60e51b81526004810188905260146024820152734c6f636b20706572696f6420746f6f206c6f6e6760601b6044820152606490fd5b60405162461bcd60e51b8152600481018890526015602482015274131bd8dac81c195c9a5bd9081d1bdbc81cda1bdc9d605a1b6044820152606490fd5b50508781813d8311611dc5575b611db2818361283f565b810103126102215784611b229151611b16565b503d611da8565b50600854841115611ad9565b508415611ac4565b3461022157600036600319011261022157611df9612762565b600080546001600160a01b0319811682556001600160a01b03167f8be0079c531659141344cd1fd0a4f28419497f9722a3daafe3b4186f6b6457e08280a3005b34610221576000366003190112610221576020600954604051908152f35b3461022157602080600319360112610221576001600160a01b03611e79612642565b16600052600e8152604060002090604051908181845491828152019360005281600020916000905b828210611eb8576103b1856103a58189038261283f565b835486529485019460019384019390910190611ea1565b34610221576000366003190112610221576020600854604051908152f35b3461022157600036600319011261022157602060ff600254166040519015158152f35b3461022157606036600319011261022157611f29612642565b6044359081151582036102215760018060a01b03908181169182600052602090601082526040600020541615801590612132575b611f66906127ba565b611f6e612953565b82600052601081526040600020926005840194611f8b86546128a4565b80965561211d575b600484018054600019870196808811610c9657611fc0611fc592611fbb60249a8b3592612a69565b6128b3565b612a7c565b9055611fd76007934285870155612c3c565b916008850160ff928382541691600583101561210857600586101561210857828603612004575b60018055005b8561200e916128c0565b80600052600f835260406000209160005b83548110156120a857612032818561273d565b90549060031b1c600052600d85526040600020908689830154169160048310156120935788612068931561206d575b50506128a4565b61201f565b600b8261208183600461208c960154612b63565b600a820155016128c0565b8b88612061565b8b634e487b7160e01b60005260216004526000fd5b509491509650606094506120f491925060097f903fba22790fde21aaf43434c1aa27694b74b616d3be099b39fabfbfdb952508960154926120ec6040518096612658565b840190612658565b6040820152a2808080808080808080611ffe565b88634e487b7160e01b60005260216004526000fd5b6006840161212b81546128a4565b9055611f93565b508215611f5d565b3461022157600036600319011261022157604051806015549182815260208091019260156000527f55f448fdea98c4d29eb340757ef0a66cd03dbb9538908a6a81d96026b71ec475916000905b82821061219e576103b1856103a58189038261283f565b835486529485019460019384019390910190612187565b34610221576020366003190112610221576004356005811015610221576121dd602091612665565b54604051908152f35b34610221576000366003190112610221576121ff612762565b60025460ff81161561223e5760ff19166002557f5db9ee0a495bf2e6ff9c91a7834c1ba4fdd244a5e8aa4e537bd38aeae4b073aa6020604051338152a1005b60405162461bcd60e51b815260206004820152601460248201527314185d5cd8589b194e881b9bdd081c185d5cd95960621b6044820152606490fd5b3461022157600036600319011261022157604051806014548083526020809301809160146000527fce6d7b5282bd9a3661ae061feed1dbda4e52ab073b1f9285be6e155d9c38d4ec9060005b868282106123255786866122dc8288038361283f565b604051928392818401908285525180915260408401929160005b82811061230557505050500390f35b83516001600160a01b0316855286955093810193928101926001016122f6565b83546001600160a01b0316855290930192600192830192016122c6565b34610221576000366003190112610221576020600c54604051908152f35b3461022157602036600319011261022157610140906001600160a01b039081612387612642565b1660005260106020526124056040600020928354169260018101549260028201549060038301546004840154600585015490600686015492600787015495600960ff60088a015416980154996040519b8c5260208c015260408b015260608a0152608089015260a088015260c0870152850152610100840190612658565b610120820152f35b34610221576000366003190112610221576020600554604051908152f35b3461022157606036600319011261022157612444612642565b506044356005811015610221576104d2602091602435612b63565b346102215760208060031936011261022157612479612642565b90612482612762565b60018060a01b038092169081600052601081526124a7836040600020541615156127ba565b816000526010815260019182604060002001546125fd578293836000905b61256b575b5050909150600052601081526000600960408220828155828582015582600282015582600382015582600482015582600582015582600682015582600782015582600882015501556011815260066040600020600081556000848201556000600282015560006003820155600060048201550190815491600081558261254c57005b600052600020908101905b81811061256057005b600081558201612557565b60148054808310156125f657839085612583856126b9565b939054600394851b1c16146125a45750505061259e906128a4565b846124c5565b9092919495965060001993848201918211610c96576125d5936125c9610bc9936126b9565b9054911b1c16916126b9565b81548015610c285701906125eb610c07836126b9565b5590829184806124ca565b50506124ca565b60405162461bcd60e51b815260048101839052601760248201527f4167656e742068617320616374697665207374616b65730000000000000000006044820152606490fd5b600435906001600160a01b038216820361022157565b906005821015610d2c5752565b6005811015610d2c576000526012602052604060002090565b6020908160408183019282815285518094520193019160005b8281106126a5575050505090565b835185529381019392810192600101612697565b6014548110156126f05760146000527fce6d7b5282bd9a3661ae061feed1dbda4e52ab073b1f9285be6e155d9c38d4ec0190600090565b634e487b7160e01b600052603260045260246000fd5b6015548110156126f05760156000527f55f448fdea98c4d29eb340757ef0a66cd03dbb9538908a6a81d96026b71ec4750190600090565b80548210156126f05760005260206000200190600090565b906004821015610d2c5752565b6000546001600160a01b0316330361277657565b606460405162461bcd60e51b815260206004820152602060248201527f4f776e61626c653a2063616c6c6572206973206e6f7420746865206f776e65726044820152fd5b156127c157565b60405162461bcd60e51b81526020600482015260136024820152721059d95b9d081b9bdd081cdd5c1c1bdc9d1959606a1b6044820152606490fd5b1561280357565b60405162461bcd60e51b8152602060048201526014602482015273125b9d985b1a59081cdd185ad948185b5bdd5b9d60621b6044820152606490fd5b90601f8019910116810190811067ffffffffffffffff821117611d0c57604052565b1561286857565b60405162461bcd60e51b8152602060048201526014602482015273496e73756666696369656e742062616c616e636560601b6044820152606490fd5b6000198114610c965760010190565b91908201809211610c9657565b906005811015610d2c5760ff80198354169116179055565b90815491600160401b831015611d0c57826112269160016128fb9501815561273d565b565b90816020910312610221575180151581036102215790565b1561291c57565b60405162461bcd60e51b815260206004820152600f60248201526e151c985b9cd9995c8819985a5b1959608a1b6044820152606490fd5b600260015414612964576002600155565b60405162461bcd60e51b815260206004820152601f60248201527f5265656e7472616e637947756172643a207265656e7472616e742063616c6c006044820152606490fd5b156129b057565b60405162461bcd60e51b815260206004820152601460248201527314dd185ad948191bd95cc81b9bdd08195e1a5cdd60621b6044820152606490fd5b156129f357565b60405162461bcd60e51b815260206004820152600f60248201526e2737ba1039ba30b5b29037bbb732b960891b6044820152606490fd5b15612a3157565b60405162461bcd60e51b815260206004820152601060248201526f5374616b65206e6f742061637469766560801b6044820152606490fd5b81810292918115918404141715610c9657565b8115612a86570490565b634e487b7160e01b600052601260045260246000fd5b91908203918211610c9657565b600052600d602052604060002060ff6007820154166004811015610d2c57612b0f578060086301e13380612b03612ae76009612b0c96015442612a9c565b612710612afd6003870154600a88015490612a69565b04612a69565b049101546128b3565b90565b6008015490565b612b4b612b276305f5e10092612665565b5462278d006000526013602052612b4660406000205491600554612a69565b612a69565b0460065490818111600014612b5e575090565b905090565b612b4b90612b756305f5e10093612665565b54906000526013602052612b4660406000205491600554612a69565b600052600d602052604060002060ff6007820154166004811015610d2c57612c395760098101612bc2815442612a9c565b600383019060ff600b6301e13380612be7855494612710612afd600a8b015488612a69565b04956008810195612bf98888546128b3565b8755429055015460081c1680612c2d575b612c15575b50505050565b600093612c21916128b3565b90555538808080612c0f565b50600754841015612c0a565b50565b6001600160a01b0316600090815260106020526040812060058101548015612d26576006820154606481029080820460641490151715612d1257600491612c8291612a7c565b915b015490603282029180830460321490151715612cfe57603281029080820460321490151715612cfe5790606480612cbd930491046128b3565b605f811015612cf757605a811015612cf0576050811015612ce95760461115612ce35790565b50600190565b5050600290565b5050600390565b5050600490565b634e487b7160e01b83526011600452602483fd5b634e487b7160e01b84526011600452602484fd5b5060048291612c84565b6005811015610d2c5760048114612d6e5760038114612d685760028114612d6257600114612d5d57603c90565b604690565b50605090565b50605a90565b50605f90565b612db260ff61089860099360018060a01b038116600052601060205260406000209560018701612da58282546128b3565b80915514612db757612c3c565b910155565b60016002870155612c3c565b91909160018060a01b038091169160009183835260116020526040832094600586019181169081855282602052604085205415612e4a575b50835260205260408220612e108282546128b3565b9055612e21600185019182546128b3565b809155612e2d57505050565b60ff6008604083600395612db29552601060205220015416612b16565b60068701805490600160401b821015612e775781610bc9916001612e71959401815561273d565b38612dfb565b634e487b7160e01b87526041600452602487fdfea2646970667358221220c25ee549a9a2c35006f3fa9e1b1fb1b8881d7bc465aa442ca32022453e5ad3db64736f6c63430008130033",
  "linkReferences": {},
  "deployedLinkReferences": {}
}