{
  "_format": "hh-sol-artifact-1",
  "contractName": "KnowledgeGraphMarket",
  "sourceName": "contracts/KnowledgeGraphMarket.sol",
  "abi": [
    {
      "inputs": [
        {
          "internalType": "address",
          "name": "_aitbcToken",
          "type": "address"
        }
      ],
      "stateMutability": "nonpayable",
      "type": "constructor"
    },
    {
      "anonymous": false,
      "inputs": [
        {
          "indexed": true,
          "internalType": "uint256",
          "name": "id",
          "type": "uint256"
        },
        {
          "indexed": true,
          "internalType": "address",
          "name": "creator",
          "type": "address"
        },
        {
          "indexed": false,
          "internalType": "string",
          "name": "cid",
          "type": "string"
        },
        {
          "indexed": false,
          "internalType": "string",
          "name": "metadataURI",
          "type": "string"
        },
        {
          "indexed": false,
          "internalType": "uint256",
          "name": "price",
          "type": "uint256"
        }
      ],
      "name": "GraphListed",
      "type": "event"
    },
    {
      "anonymous": false,
      "inputs": [
        {
          "indexed": true,
          "internalType": "uint256",
          "name": "id",
          "type": "uint256"
        },
        {
          "indexed": true,
          "internalType": "address",
          "name": "buyer",
          "type": "address"
        },
        {
          "indexed": false,
          "internalType": "uint256",
          "name": "price",
          "type": "uint256"
        }
      ],
      "name": "GraphPurchased",
      "type": "event"
    },
    {
      "anonymous": false,
      "inputs": [
        {
          "indexed": true,
          "internalType": "uint256",
          "name": "id",
          "type": "uint256"
        },
        {
          "indexed": false,
          "internalType": "uint256",
          "name": "newPrice",
          "type": "uint256"
        },
        {
          "indexed": false,
          "internalType": "bool",
          "name": "isActive",
          "type": "bool"
        }
      ],
      "name": "GraphUpdated",
      "type": "event"
    },
    {
      "anonymous": false,
      "inputs": [
        {
          "indexed": true,
          "internalType": "uint256",
          "name": "id",
          "type": "uint256"
        },
        {
          "indexed": true,
          "internalType": "address",
          "name": "buyer",
          "type": "address"
        },
        {
          "indexed": false,
          "internalType": "string",
          "name": "encryptedKey",
          "type": "string"
        }
      ],
      "name": "KeyDelivered",
      "type": "event"
    },
    {
      "anonymous": false,
      "inputs": [
        {
          "indexed": true,
          "internalType": "address",
          "name": "previousOwner",
          "type": "address"
        },
        {
          "indexed": true,
          "internalType": "address",
          "name": "newOwner",
          "type": "address"
        }
      ],
      "name": "OwnershipTransferred",
      "type": "event"
    },
    {
      "inputs": [],
      "name": "aitbcToken",
      "outputs": [
        {
          "internalType": "contract IERC20",
          "name": "",
          "type": "address"
        }
      ],
      "stateMutability": "view",
      "type": "function"
    },
    {
      "inputs": [
        {
          "internalType": "uint256",
          "name": "_id",
          "type": "uint256"
        },
        {
          "internalType": "address",
          "name": "_buyer",
          "type": "address"
        },
        {
          "internalType": "string",
          "name": "_encryptedKey",
          "type": "string"
        }
      ],
      "name": "deliverDecryptionKey",
      "outputs": [],
      "stateMutability": "nonpayable",
      "type": "function"
    },
    {
      "inputs": [
        {
          "internalType": "uint256",
          "name": "_id",
          "type": "uint256"
        }
      ],
      "name": "getMyPurchaseKey",
      "outputs": [
        {
          "internalType": "string",
          "name": "",
          "type": "string"
        }
      ],
      "stateMutability": "view",
      "type": "function"
    },
    {
      "inputs": [],
      "name": "graphCounter",
      "outputs": [
        {
          "internalType": "uint256",
          "name": "",
          "type": "uint256"
        }
      ],
      "stateMutability": "view",
      "type": "function"
    },
    {
      "inputs": [
        {
          "internalType": "uint256",
          "name": "",
          "type": "uint256"
        }
      ],
      "name": "graphs",
      "outputs": [
        {
          "internalType": "uint256",
          "name": "id",
          "type": "uint256"
        },
        {
          "internalType": "address",
          "name": "creator",
          "type": "address"
        },
        {
          "internalType": "string",
          "name": "cid",
          "type": "string"
        },
        {
          "internalType": "string",
          "name": "metadataURI",
          "type": "string"
        },
        {
          "internalType": "uint256",
          "name": "price",
          "type": "uint256"
        },
        {
          "internalType": "uint256",
          "name": "totalSales",
          "type": "uint256"
        },
        {
          "internalType": "bool",
          "name": "isActive",
          "type": "bool"
        }
      ],
      "stateMutability": "view",
      "type": "function"
    },
    {
      "inputs": [
        {
          "internalType": "uint256",
          "name": "",
          "type": "uint256"
        },
        {
          "internalType": "address",
          "name": "",
          "type": "address"
        }
      ],
      "name": "hasPurchased",
      "outputs": [
        {
          "internalType": "bool",
          "name": "",
          "type": "bool"
        }
      ],
      "stateMutability": "view",
      "type": "function"
    },
    {
      "inputs": [
        {
          "internalType": "string",
          "name": "_cid",
          "type": "string"
        },
        {
          "internalType": "string",
          "name": "_metadataURI",
          "type": "string"
        },
        {
          "internalType": "uint256",
          "name": "_price",
          "type": "uint256"
        }
      ],
      "name": "listGraph",
      "outputs": [
        {
          "internalType": "uint256",
          "name": "",
          "type": "uint256"
        }
      ],
      "stateMutability": "nonpayable",
      "type": "function"
    },
    {
      "inputs": [],
      "name": "owner",
      "outputs": [
        {
          "internalType": "address",
          "name": "",
          "type": "address"
        }
      ],
      "stateMutability": "view",
      "type": "function"
    },
    {
      "inputs": [],
      "name": "platformFeePercentage",
      "outputs": [
        {
          "internalType": "uint256",
          "name": "",
          "type": "uint256"
        }
      ],
      "stateMutability": "view",
      "type": "function"
    },
    {
      "inputs": [
        {
          "internalType": "uint256",
          "name": "_id",
          "type": "uint256"
        }
      ],
      "name": "purchaseGraph",
      "outputs": [],
      "stateMutability": "nonpayable",
      "type": "function"
    },
    {
      "inputs": [
        {
          "internalType": "uint256",
          "name": "",
          "type": "uint256"
        },
        {
          "internalType": "uint256",
          "name": "",
          "type": "uint256"
        }
      ],
      "name": "purchases",
      "outputs": [
        {
          "internalType": "uint256",
          "name": "graphId",
          "type": "uint256"
        },
        {
          "internalType": "address",
          "name": "buyer",
          "type": "address"
        },
        {
          "internalType": "uint256",
          "name": "timestamp",
          "type": "uint256"
        },
        {
          "internalType": "string",
          "name": "encryptedKey",
          "type": "string"
        }
      ],
      "stateMutability": "view",
      "type": "function"
    },
    {
      "inputs": [],
      "name": "renounceOwnership",
      "outputs": [],
      "stateMutability": "nonpayable",
      "type": "function"
    },
    {
      "inputs": [
        {
          "internalType": "address",
          "name": "newOwner",
          "type": "address"
        }
      ],
      "name": "transferOwnership",
      "outputs": [],
      "stateMutability": "nonpayable",
      "type": "function"
    },
    {
      "inputs": [
        {
          "internalType": "uint256",
          "name": "_id",
          "type": "uint256"
        },
        {
          "internalType": "uint256",
          "name": "_newPrice",
          "type": "uint256"
        },
        {
          "internalType": "bool",
          "name": "_isActive",
          "type": "bool"
        }
      ],
      "name": "updateGraph",
      "outputs": [],
      "stateMutability": "nonpayable",
      "type": "function"
    }
  ],
  "bytecode": "0x6080346100b057601f61158b38819003918201601f19168301916001600160401b038311848410176100b5578084926020946040528339810103126100b057516001600160a01b0390818116908190036100b05760005460018060a01b0319903382821617600055604051933391167f8be0079c531659141344cd1fd0a4f28419497f9722a3daafe3b4186f6b6457e0600080a36001805560fa60045560025416176002556114bf90816100cc8239f35b600080fd5b634e487b7160e01b600052604160045260246000fdfe6080604052600436101561001257600080fd5b60003560e01c8063268bf6e414610e4657806343fad57414610dae57806350143b81146109ed578063715018a61461099457806373f7870e146107095780638da5cb5b146106e05780639ea06abf1461035f578063bf96f317146102db578063cdd78cfc146102bd578063d1a7789314610294578063d84d3a2514610276578063dc9da2f814610229578063e9dc2236146101815763f2fde38b146100b657600080fd5b3461017c57602036600319011261017c576004356001600160a01b038181169182900361017c576100e5611049565b811561012857600054826001600160601b0360a01b821617600055167f8be0079c531659141344cd1fd0a4f28419497f9722a3daafe3b4186f6b6457e0600080a3005b60405162461bcd60e51b815260206004820152602660248201527f4f776e61626c653a206e6577206f776e657220697320746865207a65726f206160448201526564647265737360d01b6064820152608490fd5b600080fd5b3461017c57602036600319011261017c576004356000908152600560205260409020805460018201546001600160a01b0316916101c060028201610fa3565b6101cc60038301610fa3565b9161021360048201549361020560ff6006600586015495015416946040519889988952602089015260e0604089015260e0880190610e75565b908682036060880152610e75565b92608085015260a0840152151560c08301520390f35b3461017c57604036600319011261017c57610242610eb5565b600435600052600660205260406000209060018060a01b0316600052602052602060ff604060002054166040519015158152f35b3461017c57600036600319011261017c576020600354604051908152f35b3461017c57600036600319011261017c576002546040516001600160a01b039091168152602090f35b3461017c57600036600319011261017c576020600454604051908152f35b3461017c57604036600319011261017c576024356004356000526007602052604060002090815481101561017c5761031291610ef9565b50805461035b60018060a01b0360018401541692610337600360028301549201610fa3565b90604051948594855260208501526040840152608060608401526080830190610e75565b0390f35b3461017c57606036600319011261017c5760043567ffffffffffffffff811161017c57610390903690600401610ecb565b9060243567ffffffffffffffff811161017c576103b1903690600401610ecb565b929091600354926103c1846110a1565b6003556040519460e0860186811067ffffffffffffffff8211176106595760405284865260208601923384526103f83686836110cc565b6040880190815261040a3684866110cc565b906060890191825260443560808a0152600060a08a0152600160c08a015287600052600560205260406000209589518755600187019060018060a01b039051166001600160601b0360a01b82541617905551805167ffffffffffffffff811161065957806002880192610487826104818654610f2b565b86611103565b602090601f831160011461067a5760009261066f575b50508160011b916000199060031b1c19161790555b519384519767ffffffffffffffff8911610659578888966104e560209b6104dc6003870154610f2b565b60038701611103565b8a90601f83116001146105b55793600660c061058695857f064e854e5e6567458b666f6db4ac84a3aeef95ded2139c16d38710fd92e5f5f69b9996610574966105939c9a6000926105aa575b50508160011b916000199060031b1c19161760038501555b6080810151600485015560a081015160058501550151151591019060ff801983541691151516179055565b60405197606089526060890191611157565b9186830389880152611157565b9260443560408201528033940390a3604051908152f35b015190503880610531565b90600385016000528b6000209160005b601f198516811061063f575060c061058695600186610574966105939c9a966006967f064e854e5e6567458b666f6db4ac84a3aeef95ded2139c16d38710fd92e5f5f69f9d9a601f19811610610626575b505050811b016003850155610549565b015160001960f88460031b161c19169055388080610616565b8183015184558c9a50600190930192918d01918d016105c5565b634e487b7160e01b600052604160045260246000fd5b015190508b8061049d565b6000858152602081209350601f198516905b8181106106c857509084600195949392106106af575b505050811b0190556104b2565b015160001960f88460031b161c191690558b80806106a2565b9293602060018192878601518155019501930161068c565b3461017c57600036600319011261017c576000546040516001600160a01b039091168152602090f35b3461017c57606036600319011261017c57600435610725610eb5565b9067ffffffffffffffff60443581811161017c57610747903690600401610ecb565b9190836000526020916005835260018060a01b0390600190610773838360406000200154163314611178565b866000526006855282604060002098169788600052855260ff604060002054161561094f579080929187600052600786526040600020896000946000965b610844575b50505050509050156107ff57906107fa7fa046beb847fc29cbd18b83683de4a4aaeb40401cda13b40803e3df363ccef7a89392604051938385948552840191611157565b0390a3005b60405162461bcd60e51b815260048101839052601960248201527f5075726368617365207265636f7264206e6f7420666f756e64000000000000006044820152606490fd5b825487101561094a5781818661085a8a87610ef9565b50015416146108755761086e8596976110a1565b96956107b1565b50506108849294919350610ef9565b506003809101918611610659576108a58661089f8454610f2b565b84611103565b856000601f82116001146108e3576000916108d8575b5086841b9187600019911b1c19161790555b8087808089816107b6565b9050840135896108bb565b9050601f198716918360005287876000209360005b89888383106109335750505010610919575b5050508185811b0190556108cd565b60f888600019921b161c199085013516905587808061090a565b868b0135885590960195948501948b9350016108f8565b6107b6565b60405162461bcd60e51b815260048101869052601760248201527f427579657220686173206e6f74207075726368617365640000000000000000006044820152606490fd5b3461017c57600036600319011261017c576109ad611049565b600080546001600160a01b0319811682556001600160a01b03167f8be0079c531659141344cd1fd0a4f28419497f9722a3daafe3b4186f6b6457e08280a3005b3461017c5760208060031936011261017c57600435906001906002825414610d6a5760028255826000526005815260406000209260ff60068501541615610d34578060005260068252604060002033600052825260ff60406000205416610cfb5783830180546001600160a01b0395919086163314610cbf5760048201918254600454808202908282041482151715610ca957612710900490818103908111610ca957600593610aa8610ab9938b60025416309033906111b2565b8980600254169154169033906111b2565b01610ac481546110a1565b90558160005260068352604060002033600052835260406000208460ff1982541617905581600052600783526040600020604051608081019667ffffffffffffffff978281108982111761065957604052848252858201338152604083019042825260405194610b3386610f65565b600086526060850195865280546801000000000000000081101561065957610b5f918b82018155610ef9565b939093610c93576003945184558984019151166001600160601b0360a01b82541617905551600282015501905195865190811161065957610ba48161089f8454610f2b565b84601f8211600114610c0d5781907fd2763e242cfd0663c3980a5c9a89ef2d9e43a5798a8c3de1d5bb732b133b0dcd95969798600092610c02575b5050600019600383901b1c191690871b1790555b54926040519384523393a38055005b015190508880610bdf565b601f1982169783600052866000209860005b818110610c7e575091889991847fd2763e242cfd0663c3980a5c9a89ef2d9e43a5798a8c3de1d5bb732b133b0dcd98999a959410610c65575b505050811b019055610bf3565b015160001960f88460031b161c19169055888080610c58565b838301518b5599890199928801928801610c1f565b634e487b7160e01b600052600060045260246000fd5b634e487b7160e01b600052601160045260246000fd5b60405162461bcd60e51b8152600481018590526014602482015273086c2dcdcdee840c4eaf240deeedc40cee4c2e0d60631b6044820152606490fd5b60405162461bcd60e51b8152600481018390526011602482015270105b1c9958591e481c1d5c98da185cd959607a1b6044820152606490fd5b60405162461bcd60e51b815260048101839052600e60248201526d477261706820696e61637469766560901b6044820152606490fd5b6064906040519062461bcd60e51b82526004820152601f60248201527f5265656e7472616e637947756172643a207265656e7472616e742063616c6c006044820152fd5b3461017c57606036600319011261017c576004356024356044358015159182820361017c577fdbd4f8a5c572e7a1be44b6a416e402cc2694c105d32e9b2850254f4b6cce704792610e39604093866000526005602052600685600020610e2160018060a01b036001830154163314611178565b856004820155019060ff801983541691151516179055565b82519182526020820152a2005b3461017c57602036600319011261017c5761035b610e656004356113be565b6040519182916020835260208301905b919082519283825260005b848110610ea1575050826000602080949584010152601f8019910116010190565b602081830181015184830182015201610e80565b602435906001600160a01b038216820361017c57565b9181601f8401121561017c5782359167ffffffffffffffff831161017c576020838186019501011161017c57565b8054821015610f155760005260206000209060021b0190600090565b634e487b7160e01b600052603260045260246000fd5b90600182811c92168015610f5b575b6020831014610f4557565b634e487b7160e01b600052602260045260246000fd5b91607f1691610f3a565b6020810190811067ffffffffffffffff82111761065957604052565b90601f8019910116810190811067ffffffffffffffff82111761065957604052565b9060405191826000825492610fb784610f2b565b9081845260019485811690816000146110265750600114610fe3575b5050610fe192500383610f81565b565b9093915060005260209081600020936000915b81831061100e575050610fe193508201013880610fd3565b85548884018501529485019487945091830191610ff6565b915050610fe194506020925060ff191682840152151560051b8201013880610fd3565b6000546001600160a01b0316330361105d57565b606460405162461bcd60e51b815260206004820152602060248201527f4f776e61626c653a2063616c6c6572206973206e6f7420746865206f776e65726044820152fd5b6000198114610ca95760010190565b67ffffffffffffffff811161065957601f01601f191660200190565b9291926110d8826110b0565b916110e66040519384610f81565b82948184528183011161017c578281602093846000960137010152565b90601f811161111157505050565b600091825260208220906020601f850160051c8301941061114d575b601f0160051c01915b82811061114257505050565b818155600101611136565b909250829061112d565b908060209392818452848401376000828201840152601f01601f1916010190565b1561117f57565b60405162461bcd60e51b815260206004820152600b60248201526a2737ba1031b932b0ba37b960a91b6044820152606490fd5b6040516323b872dd60e01b60208083019182526001600160a01b039485166024840152948416604483015260648083019690965294815292939267ffffffffffffffff9260a08201928484118385101761065957169060e08101938385109085111761065957611280936040528583527f5361666545524332303a206c6f772d6c6576656c2063616c6c206661696c656460c0820152600080958192519082855af13d1561131d573d91611265836110b0565b926112736040519485610f81565b83523d868885013e611321565b8051918215918483156112f2575b50505090501561129b5750565b6084906040519062461bcd60e51b82526004820152602a60248201527f5361666545524332303a204552433230206f7065726174696f6e20646964206e6044820152691bdd081cdd58d8d9595960b21b6064820152fd5b9193818094500103126113195782015190811515820361131657508038808461128e565b80fd5b5080fd5b6060915b919290156113835750815115611335575090565b3b1561133e5790565b60405162461bcd60e51b815260206004820152601d60248201527f416464726573733a2063616c6c20746f206e6f6e2d636f6e74726163740000006044820152606490fd5b8251909150156113965750805190602001fd5b60405162461bcd60e51b8152602060048201529081906113ba906024830190610e75565b0390fd5b60009080825260066020526040822033835260205260ff60408320541615611454578152600760205260408120805490825b82811061140c575050506040519061140782610f65565b815290565b6114168183610ef9565b50600101546001600160a01b0316331461143857611433906110a1565b6113f0565b61145193506003925061144a91610ef9565b5001610fa3565b90565b60405162461bcd60e51b815260206004820152600d60248201526c139bdd081c1d5c98da185cd959609a1b6044820152606490fdfea26469706673582212204feadb47bea36df464627bef510a060d1d4fd71f9483ab67e87676a8b0a4517964736f6c63430008130033",
  "linkReferences": {},
  "deployedLinkReferences": {}
}