{
  "_format": "hh-sol-artifact-1",
  "contractName": "DAOGovernance",
  "sourceName": "contracts/DAOGovernance.sol",
  "abi": [
    {
      "inputs": [
        {
          "internalType": "address",
          "name": "_governanceToken",
          "type": "address"
        },
        {
          "internalType": "uint256",
          "name": "_minStakeAmount",
          "type": "uint256"
        }
      ],
      "stateMutability": "nonpayable",
      "type": "constructor"
    },
    {
      "anonymous": false,
      "inputs": [
        {
          "indexed": true,
          "internalType": "address",
          "name": "previousOwner",
          "type": "address"
        },
        {
          "indexed": true,
          "internalType": "address",
          "name": "newOwner",
          "type": "address"
        }
      ],
      "name": "OwnershipTransferred",
      "type": "event"
    },
    {
      "anonymous": false,
      "inputs": [
        {
          "indexed": true,
          "internalType": "uint256",
          "name": "id",
          "type": "uint256"
        },
        {
          "indexed": false,
          "internalType": "address",
          "name": "proposer",
          "type": "address"
        },
        {
          "indexed": false,
          "internalType": "string",
          "name": "region",
          "type": "string"
        },
        {
          "indexed": false,
          "internalType": "string",
          "name": "descriptionHash",
          "type": "string"
        }
      ],
      "name": "ProposalCreated",
      "type": "event"
    },
    {
      "anonymous": false,
      "inputs": [
        {
          "indexed": true,
          "internalType": "uint256",
          "name": "id",
          "type": "uint256"
        }
      ],
      "name": "ProposalExecuted",
      "type": "event"
    },
    {
      "anonymous": false,
      "inputs": [
        {
          "indexed": true,
          "internalType": "address",
          "name": "user",
          "type": "address"
        },
        {
          "indexed": false,
          "internalType": "uint256",
          "name": "amount",
          "type": "uint256"
        }
      ],
      "name": "Staked",
      "type": "event"
    },
    {
      "anonymous": false,
      "inputs": [
        {
          "indexed": true,
          "internalType": "address",
          "name": "user",
          "type": "address"
        },
        {
          "indexed": false,
          "internalType": "uint256",
          "name": "amount",
          "type": "uint256"
        }
      ],
      "name": "Unstaked",
      "type": "event"
    },
    {
      "anonymous": false,
      "inputs": [
        {
          "indexed": true,
          "internalType": "address",
          "name": "voter",
          "type": "address"
        },
        {
          "indexed": true,
          "internalType": "uint256",
          "name": "proposalId",
          "type": "uint256"
        },
        {
          "indexed": false,
          "internalType": "bool",
          "name": "support",
          "type": "bool"
        },
        {
          "indexed": false,
          "internalType": "uint256",
          "name": "weight",
          "type": "uint256"
        }
      ],
      "name": "VoteCast",
      "type": "event"
    },
    {
      "inputs": [
        {
          "internalType": "uint256",
          "name": "_proposalId",
          "type": "uint256"
        },
        {
          "internalType": "bool",
          "name": "_support",
          "type": "bool"
        }
      ],
      "name": "castVote",
      "outputs": [],
      "stateMutability": "nonpayable",
      "type": "function"
    },
    {
      "inputs": [],
      "name": "completeUnstake",
      "outputs": [],
      "stateMutability": "nonpayable",
      "type": "function"
    },
    {
      "inputs": [
        {
          "internalType": "string",
          "name": "_region",
          "type": "string"
        },
        {
          "internalType": "string",
          "name": "_descriptionHash",
          "type": "string"
        },
        {
          "internalType": "uint256",
          "name": "_votingPeriod",
          "type": "uint256"
        }
      ],
      "name": "createProposal",
      "outputs": [
        {
          "internalType": "uint256",
          "name": "",
          "type": "uint256"
        }
      ],
      "stateMutability": "nonpayable",
      "type": "function"
    },
    {
      "inputs": [
        {
          "internalType": "uint256",
          "name": "_proposalId",
          "type": "uint256"
        }
      ],
      "name": "executeProposal",
      "outputs": [],
      "stateMutability": "nonpayable",
      "type": "function"
    },
    {
      "inputs": [],
      "name": "governanceToken",
      "outputs": [
        {
          "internalType": "contract IERC20",
          "name": "",
          "type": "address"
        }
      ],
      "stateMutability": "view",
      "type": "function"
    },
    {
      "inputs": [
        {
          "internalType": "uint256",
          "name": "_amount",
          "type": "uint256"
        }
      ],
      "name": "initiateUnstake",
      "outputs": [],
      "stateMutability": "nonpayable",
      "type": "function"
    },
    {
      "inputs": [
        {
          "internalType": "string",
          "name": "",
          "type": "string"
        },
        {
          "internalType": "address",
          "name": "",
          "type": "address"
        }
      ],
      "name": "isRegionalCouncilMember",
      "outputs": [
        {
          "internalType": "bool",
          "name": "",
          "type": "bool"
        }
      ],
      "stateMutability": "view",
      "type": "function"
    },
    {
      "inputs": [],
      "name": "minStakeAmount",
      "outputs": [
        {
          "internalType": "uint256",
          "name": "",
          "type": "uint256"
        }
      ],
      "stateMutability": "view",
      "type": "function"
    },
    {
      "inputs": [],
      "name": "owner",
      "outputs": [
        {
          "internalType": "address",
          "name": "",
          "type": "address"
        }
      ],
      "stateMutability": "view",
      "type": "function"
    },
    {
      "inputs": [],
      "name": "proposalCount",
      "outputs": [
        {
          "internalType": "uint256",
          "name": "",
          "type": "uint256"
        }
      ],
      "stateMutability": "view",
      "type": "function"
    },
    {
      "inputs": [
        {
          "internalType": "uint256",
          "name": "",
          "type": "uint256"
        }
      ],
      "name": "proposals",
      "outputs": [
        {
          "internalType": "uint256",
          "name": "id",
          "type": "uint256"
        },
        {
          "internalType": "address",
          "name": "proposer",
          "type": "address"
        },
        {
          "internalType": "string",
          "name": "region",
          "type": "string"
        },
        {
          "internalType": "string",
          "name": "descriptionHash",
          "type": "string"
        },
        {
          "internalType": "uint256",
          "name": "forVotes",
          "type": "uint256"
        },
        {
          "internalType": "uint256",
          "name": "againstVotes",
          "type": "uint256"
        },
        {
          "internalType": "uint256",
          "name": "startTime",
          "type": "uint256"
        },
        {
          "internalType": "uint256",
          "name": "endTime",
          "type": "uint256"
        },
        {
          "internalType": "bool",
          "name": "executed",
          "type": "bool"
        },
        {
          "internalType": "bool",
          "name": "canceled",
          "type": "bool"
        }
      ],
      "stateMutability": "view",
      "type": "function"
    },
    {
      "inputs": [
        {
          "internalType": "string",
          "name": "",
          "type": "string"
        },
        {
          "internalType": "uint256",
          "name": "",
          "type": "uint256"
        }
      ],
      "name": "regionalCouncilMembers",
      "outputs": [
        {
          "internalType": "address",
          "name": "",
          "type": "address"
        }
      ],
      "stateMutability": "view",
      "type": "function"
    },
    {
      "inputs": [],
      "name": "renounceOwnership",
      "outputs": [],
      "stateMutability": "nonpayable",
      "type": "function"
    },
    {
      "inputs": [
        {
          "internalType": "string",
          "name": "_region",
          "type": "string"
        },
        {
          "internalType": "address",
          "name": "_member",
          "type": "address"
        },
        {
          "internalType": "bool",
          "name": "_status",
          "type": "bool"
        }
      ],
      "name": "setRegionalCouncilMember",
      "outputs": [],
      "stateMutability": "nonpayable",
      "type": "function"
    },
    {
      "inputs": [
        {
          "internalType": "uint256",
          "name": "_amount",
          "type": "uint256"
        }
      ],
      "name": "stake",
      "outputs": [],
      "stateMutability": "nonpayable",
      "type": "function"
    },
    {
      "inputs": [
        {
          "internalType": "address",
          "name": "",
          "type": "address"
        }
      ],
      "name": "stakers",
      "outputs": [
        {
          "internalType": "uint256",
          "name": "amount",
          "type": "uint256"
        },
        {
          "internalType": "uint256",
          "name": "unbondingAmount",
          "type": "uint256"
        },
        {
          "internalType": "uint256",
          "name": "unbondingCompleteTime",
          "type": "uint256"
        },
        {
          "internalType": "uint256",
          "name": "lastStakeTime",
          "type": "uint256"
        }
      ],
      "stateMutability": "view",
      "type": "function"
    },
    {
      "inputs": [],
      "name": "totalStaked",
      "outputs": [
        {
          "internalType": "uint256",
          "name": "",
          "type": "uint256"
        }
      ],
      "stateMutability": "view",
      "type": "function"
    },
    {
      "inputs": [
        {
          "internalType": "address",
          "name": "newOwner",
          "type": "address"
        }
      ],
      "name": "transferOwnership",
      "outputs": [],
      "stateMutability": "nonpayable",
      "type": "function"
    },
    {
      "inputs": [],
      "name": "unbondingPeriod",
      "outputs": [
        {
          "internalType": "uint256",
          "name": "",
          "type": "uint256"
        }
      ],
      "stateMutability": "view",
      "type": "function"
    }
  ],
  "bytecode": "0x6080346100ba57601f61178138819003918201601f19168301916001600160401b038311848410176100bf5780849260409485528339810103126100ba5780516001600160a01b0391828216918290036100ba57602001519060005460018060a01b0319903382821617600055604051943391167f8be0079c531659141344cd1fd0a4f28419497f9722a3daafe3b4186f6b6457e0600080a36001805562093a8060045560025416176002556003556116ab90816100d68239f35b600080fd5b634e487b7160e01b600052604160045260246000fdfe6080604052600436101561001257600080fd5b60003560e01c8063013cf08b1461107e5780630ce0ebf414610c7d5780630d61b51914610b2757806315373e3d146108d25780633851561c1461085357806363803b2314610718578063642e20f9146106945780636cf6d67514610676578063715018a61461061d578063817b1cd2146105ff5780638da5cb5b146105d65780639168ae721461057a578063960476a61461049a578063a694fc3a1461031f578063ae5ac92114610220578063da35c66414610202578063f1887684146101e4578063f2fde38b1461011b5763f96dae0a146100ed57600080fd5b34610116576000366003190112610116576002546040516001600160a01b039091168152602090f35b600080fd5b3461011657602036600319011261011657610134611338565b61013c61137c565b6001600160a01b0390811690811561019057600054826bffffffffffffffffffffffff60a01b821617600055167f8be0079c531659141344cd1fd0a4f28419497f9722a3daafe3b4186f6b6457e0600080a3005b60405162461bcd60e51b815260206004820152602660248201527f4f776e61626c653a206e6577206f776e657220697320746865207a65726f206160448201526564647265737360d01b6064820152608490fd5b34610116576000366003190112610116576020600354604051908152f35b34610116576000366003190112610116576020600754604051908152f35b346101165760203660031901126101165760043561023c6113e1565b33600052600560205260406000209080151580610314575b156102de5760018201918254610299578161029093610274828454611604565b8355556002610285600454426113d4565b910155600654611604565b60065560018055005b60405162461bcd60e51b815260206004820152601d60248201527f556e626f6e64696e6720616c726561647920696e2070726f67726573730000006044820152606490fd5b60405162461bcd60e51b815260206004820152600e60248201526d125b9d985b1a5908185b5bdd5b9d60921b6044820152606490fd5b508082541015610254565b3461011657602080600319360112610116576004359061033d6113e1565b8115610465576002546040516323b872dd60e01b838201523360248201523060448201526064808201859052815260a08101916001600160a01b03166001600160401b0383118284101761044f5761039792604052611437565b336000526005815260406000206103af8382546113d4565b90553360005260058152426003604060002001556103cf826006546113d4565b600655336000526005815260406000205460035411610419577f9e71bc8eea02a63969f509818f2dafb9254532904319f9dbda79b67bd34a5f3d906040519283523392a260018055005b6064906040519062461bcd60e51b82526004820152600f60248201526e42656c6f77206d696e207374616b6560881b6044820152fd5b634e487b7160e01b600052604160045260246000fd5b6064906040519062461bcd60e51b82526004820152600e60248201526d043616e6e6f74207374616b6520360941b6044820152fd5b34610116576060366003190112610116576004356001600160401b038111610116576104ca903690600401611293565b906104d3611322565b916044359182151592838103610116576104eb61137c565b6040518383823760208185810160098152030190209360018060a01b03809616948560005260205260406000209060ff8019835416911617905561052b57005b6020908260405193849283378101600a81520301902080546801000000000000000081101561044f576105639160018201815561134e565b909283549160031b92831b921b1916179055600080f35b34610116576020366003190112610116576001600160a01b0361059b611338565b166000526005602052608060406000208054906001810154906003600282015491015491604051938452602084015260408301526060820152f35b34610116576000366003190112610116576000546040516001600160a01b039091168152602090f35b34610116576000366003190112610116576020600654604051908152f35b346101165760003660031901126101165761063661137c565b600080546001600160a01b0319811682556001600160a01b03167f8be0079c531659141344cd1fd0a4f28419497f9722a3daafe3b4186f6b6457e08280a3005b34610116576000366003190112610116576020600454604051908152f35b34610116576040366003190112610116576004356001600160401b038111610116576106c49036906004016112db565b6106e0602060243592816040519382858094519384920161124b565b8101600a8152030190208054821015610116576020916106ff9161134e565b905460405160039290921b1c6001600160a01b03168152f35b34610116576000366003190112610116576107316113e1565b3360005260056020526040600020600181018054918215610819576002015442106107db576000905560025460405163a9059cbb60e01b60208201523360248201526044808201849052815260808101916001600160a01b03166001600160401b0383118284101761044f576107a992604052611437565b6040519081527f0f5bb82176feb1b5e747e28471aa92156a04d9f3ab9f45f28e2d704232b93f7560203392a260018055005b60405162461bcd60e51b8152602060048201526016602482015275556e626f6e64696e67206e6f7420636f6d706c65746560501b6044820152606490fd5b60405162461bcd60e51b81526020600482015260126024820152714e6f7468696e6720746f20756e7374616b6560701b6044820152606490fd5b34610116576040366003190112610116576004356001600160401b038111610116576108839036906004016112db565b6108a46020610890611322565b92816040519382858094519384920161124b565b810160098152030190209060018060a01b0316600052602052602060ff604060002054166040519015158152f35b34610116576040366003190112610116576004356024358015159081810361011657826000526020600881526040600020600681015442101580610b19575b15610ae45760098101923360005283835260ff60406000205416610aaf573360005260058352604060002054938415610a7757600283018054906109548261114a565b6109cf575b50503360005283526040600020600160ff198254161790556000146109ba576004016109868382546113d4565b90555b6040519283528201527f877856338e13f63d0c36822ff0ef736b80934cd90574a3a5bc9262c39d217c4660403392a3005b6005016109c88382546113d4565b9055610989565b909195508460405180926000906109e58661114a565b906001968781169081600014610a605750600114610a27575b50506009815203019020336000528452610a1f60ff60406000205416611611565b938780610959565b90915060005282600020856000915b838310610a495750505081018b806109fe565b8054878401528a9587955090920191879101610a36565b60ff19168552505080151502820190508b806109fe565b60405162461bcd60e51b815260048101859052601060248201526f139bc81d9bdd1a5b99c81dd95a59da1d60821b6044820152606490fd5b60405162461bcd60e51b815260048101849052600d60248201526c105b1c9958591e481d9bdd1959609a1b6044820152606490fd5b60405162461bcd60e51b815260048101839052600d60248201526c159bdd1a5b99c818db1bdcd959609a1b6044820152606490fd5b506007810154421115610911565b3461011657602036600319011261011657600435610b436113e1565b80600052600860205260406000206007810154421115610c4557600881019081549060ff82161580610c37575b15610bf257600560048201549101541015610bb95760ff191660011790557f712ae1383f79ac853f8d882153778e0260ef8f03b504e2866e0593e04d2b291f600080a260018055005b60405162461bcd60e51b8152602060048201526011602482015270141c9bdc1bdcd85b0819195999585d1959607a1b6044820152606490fd5b60405162461bcd60e51b815260206004820152601c60248201527f416c7265616479206578656375746564206f722063616e63656c6564000000006044820152606490fd5b5060ff8260081c1615610b70565b60405162461bcd60e51b815260206004820152601060248201526f159bdd1a5b99c81b9bdd08195b99195960821b6044820152606490fd5b34610116576060366003190112610116576004356001600160401b03811161011657610cad903690600401611293565b906024356001600160401b03811161011657610ccd903690600401611293565b336000526005602052604060002054600354116110395783611007575b6007546000198114610ff1576001019283600755836000526008602052604060002093845560018401336bffffffffffffffffffffffff60a01b8254161790556001600160401b03851161044f57610d45600285015461114a565b601f8111610faa575b50846000601f8211600114610f3c57600091610f31575b508560011b906000198760031b1c19161760028501555b6001600160401b03821161044f57610d97600385015461114a565b94601f8611610ee6575b602095506000601f8411600114610e55578394957fe1a39bb955c12c02b24074e4d2e09a80ed84a64ce9b4454b47456e8a26f96e7594610e3f92600091610e4a575b508660011b906000198860031b1c19161760038201555b426006820155610e0c604435426113d4565b600782015554958695610e3160405195869533875260608c8801526060870191611654565b918483036040860152611654565b0390a2604051908152f35b905087013589610de3565b601f1984169060038701600052876000209160005b818110610ecf575091859697917fe1a39bb955c12c02b24074e4d2e09a80ed84a64ce9b4454b47456e8a26f96e7596610e3f9410610eb5575b5050600186811b016003820155610dfa565b880135600019600389901b60f8161c191690558880610ea3565b91928960018192868b013581550194019201610e6a565b600385016000526020600020601f840160051c81019660208510610f27575b601f0160051c01955b868110610f1b5750610da1565b60008155600101610f0e565b9096508690610f05565b905081013586610d65565b9050601f19861690600286016000528660206000209260005b818110610f8f575010610f75575b5050600185811b016002850155610d7c565b820135600019600388901b60f8161c191690558580610f63565b8584013585556001909401936020938401938a935001610f55565b600285016000526020600020601f870160051c810160208810610fea575b601f830160051c82018110610fde575050610d4e565b60008155600101610fc8565b5080610fc8565b634e487b7160e01b600052601160045260246000fd5b6040518484823760208186810160098152030190203360005260205261103460ff60406000205416611611565b610cea565b60405162461bcd60e51b815260206004820152601960248201527f4d757374206265207374616b656420746f2070726f706f7365000000000000006044820152606490fd5b34610116576020366003190112610116576004356000908152600860205260409020805460018201546001600160a01b03169160ff6110bf600283016111a5565b6110cb600384016111a5565b92600481015493600582015461111a60068401549261110c60086007870154960154966040519b8c9b8c5260208c01526101408060408d01528b019061126e565b9089820360608b015261126e565b95608088015260a087015260c086015260e0850152818116151561010085015260081c1615156101208301520390f35b90600182811c9216801561117a575b602083101461116457565b634e487b7160e01b600052602260045260246000fd5b91607f1691611159565b90601f801991011681019081106001600160401b0382111761044f57604052565b90604051918260008254926111b98461114a565b90818452600194858116908160001461122857506001146111e5575b50506111e392500383611184565b565b9093915060005260209081600020936000915b8183106112105750506111e3935082010138806111d5565b855488840185015294850194879450918301916111f8565b9150506111e394506020925060ff191682840152151560051b82010138806111d5565b60005b83811061125e5750506000910152565b818101518382015260200161124e565b906020916112878151809281855285808601910161124b565b601f01601f1916010190565b9181601f84011215610116578235916001600160401b038311610116576020838186019501011161011657565b6001600160401b03811161044f57601f01601f191660200190565b81601f82011215610116578035906112f2826112c0565b926113006040519485611184565b8284526020838301011161011657816000926020809301838601378301015290565b602435906001600160a01b038216820361011657565b600435906001600160a01b038216820361011657565b80548210156113665760005260206000200190600090565b634e487b7160e01b600052603260045260246000fd5b6000546001600160a01b0316330361139057565b606460405162461bcd60e51b815260206004820152602060248201527f4f776e61626c653a2063616c6c6572206973206e6f7420746865206f776e65726044820152fd5b91908201809211610ff157565b6002600154146113f2576002600155565b60405162461bcd60e51b815260206004820152601f60248201527f5265656e7472616e637947756172643a207265656e7472616e742063616c6c006044820152606490fd5b60018060a01b03169060405160408101908082106001600160401b0383111761044f576114c6916040526020938482527f5361666545524332303a206c6f772d6c6576656c2063616c6c206661696c6564858301526000808587829751910182855af13d15611563573d916114ab836112c0565b926114b96040519485611184565b83523d868885013e611567565b805191821591848315611538575b5050509050156114e15750565b6084906040519062461bcd60e51b82526004820152602a60248201527f5361666545524332303a204552433230206f7065726174696f6e20646964206e6044820152691bdd081cdd58d8d9595960b21b6064820152fd5b91938180945001031261155f5782015190811515820361155c5750803880846114d4565b80fd5b5080fd5b6060915b919290156115c9575081511561157b575090565b3b156115845790565b60405162461bcd60e51b815260206004820152601d60248201527f416464726573733a2063616c6c20746f206e6f6e2d636f6e74726163740000006044820152606490fd5b8251909150156115dc5750805190602001fd5b60405162461bcd60e51b81526020600482015290819061160090602483019061126e565b0390fd5b91908203918211610ff157565b1561161857565b60405162461bcd60e51b81526020600482015260146024820152732737ba10309031b7bab731b4b61036b2b6b132b960611b6044820152606490fd5b908060209392818452848401376000828201840152601f01601f191601019056fea26469706673582212201ca273d81c7503a9316db55fc8550387e8e92eaa928c7b6900eca5abad215fe864736f6c63430008130033",
  "linkReferences": {},
  "deployedLinkReferences": {}
}