{
  "_format": "hh-sol-artifact-1",
  "contractName": "DisputeResolution",
  "sourceName": "contracts/DisputeResolution.sol",
  "abi": [
    {
      "inputs": [
        {
          "internalType": "address",
          "name": "_aiPowerRental",
          "type": "address"
        },
        {
          "internalType": "address",
          "name": "_paymentProcessor",
          "type": "address"
        },
        {
          "internalType": "address",
          "name": "_performanceVerifier",
          "type": "address"
        }
      ],
      "stateMutability": "nonpayable",
      "type": "constructor"
    },
    {
      "anonymous": false,
      "inputs": [
        {
          "indexed": true,
          "internalType": "uint256",
          "name": "disputeId",
          "type": "uint256"
        },
        {
          "indexed": false,
          "internalType": "uint256",
          "name": "feeAmount",
          "type": "uint256"
        },
        {
          "indexed": true,
          "internalType": "address",
          "name": "collector",
          "type": "address"
        }
      ],
      "name": "ArbitrationFeeCollected",
      "type": "event"
    },
    {
      "anonymous": false,
      "inputs": [
        {
          "indexed": true,
          "internalType": "uint256",
          "name": "disputeId",
          "type": "uint256"
        },
        {
          "indexed": true,
          "internalType": "address",
          "name": "arbitrator",
          "type": "address"
        },
        {
          "indexed": false,
          "internalType": "bool",
          "name": "voteInFavorOfInitiator",
          "type": "bool"
        },
        {
          "indexed": false,
          "internalType": "uint256",
          "name": "confidence",
          "type": "uint256"
        }
      ],
      "name": "ArbitrationVoteSubmitted",
      "type": "event"
    },
    {
      "anonymous": false,
      "inputs": [
        {
          "indexed": true,
          "internalType": "uint256",
          "name": "disputeId",
          "type": "uint256"
        },
        {
          "indexed": true,
          "internalType": "address",
          "name": "arbitrator",
          "type": "address"
        },
        {
          "indexed": false,
          "internalType": "uint256",
          "name": "escalationLevel",
          "type": "uint256"
        }
      ],
      "name": "ArbitratorAssigned",
      "type": "event"
    },
    {
      "anonymous": false,
      "inputs": [
        {
          "indexed": true,
          "internalType": "address",
          "name": "arbitrator",
          "type": "address"
        },
        {
          "indexed": false,
          "internalType": "uint256",
          "name": "reputationScore",
          "type": "uint256"
        }
      ],
      "name": "ArbitratorAuthorized",
      "type": "event"
    },
    {
      "anonymous": false,
      "inputs": [
        {
          "indexed": true,
          "internalType": "address",
          "name": "arbitrator",
          "type": "address"
        },
        {
          "indexed": false,
          "internalType": "string",
          "name": "reason",
          "type": "string"
        }
      ],
      "name": "ArbitratorRevoked",
      "type": "event"
    },
    {
      "anonymous": false,
      "inputs": [
        {
          "indexed": true,
          "internalType": "uint256",
          "name": "disputeId",
          "type": "uint256"
        },
        {
          "indexed": false,
          "internalType": "uint256",
          "name": "escalationLevel",
          "type": "uint256"
        },
        {
          "indexed": true,
          "internalType": "address",
          "name": "escalatedBy",
          "type": "address"
        },
        {
          "indexed": false,
          "internalType": "string",
          "name": "escalationReason",
          "type": "string"
        }
      ],
      "name": "DisputeEscalated",
      "type": "event"
    },
    {
      "anonymous": false,
      "inputs": [
        {
          "indexed": true,
          "internalType": "uint256",
          "name": "disputeId",
          "type": "uint256"
        },
        {
          "indexed": true,
          "internalType": "uint256",
          "name": "agreementId",
          "type": "uint256"
        },
        {
          "indexed": true,
          "internalType": "address",
          "name": "initiator",
          "type": "address"
        },
        {
          "indexed": false,
          "internalType": "address",
          "name": "respondent",
          "type": "address"
        },
        {
          "indexed": false,
          "internalType": "enum DisputeResolution.DisputeType",
          "name": "disputeType",
          "type": "uint8"
        },
        {
          "indexed": false,
          "internalType": "string",
          "name": "reason",
          "type": "string"
        }
      ],
      "name": "DisputeFiled",
      "type": "event"
    },
    {
      "anonymous": false,
      "inputs": [
        {
          "indexed": true,
          "internalType": "uint256",
          "name": "disputeId",
          "type": "uint256"
        },
        {
          "indexed": true,
          "internalType": "address",
          "name": "winner",
          "type": "address"
        },
        {
          "indexed": false,
          "internalType": "uint256",
          "name": "resolutionAmount",
          "type": "uint256"
        },
        {
          "indexed": false,
          "internalType": "string",
          "name": "resolutionReason",
          "type": "string"
        }
      ],
      "name": "DisputeResolved",
      "type": "event"
    },
    {
      "anonymous": false,
      "inputs": [
        {
          "indexed": true,
          "internalType": "uint256",
          "name": "disputeId",
          "type": "uint256"
        },
        {
          "indexed": true,
          "internalType": "uint256",
          "name": "evidenceId",
          "type": "uint256"
        },
        {
          "indexed": true,
          "internalType": "address",
          "name": "submitter",
          "type": "address"
        },
        {
          "indexed": false,
          "internalType": "string",
          "name": "evidenceType",
          "type": "string"
        },
        {
          "indexed": false,
          "internalType": "bytes32",
          "name": "evidenceHash",
          "type": "bytes32"
        }
      ],
      "name": "EvidenceSubmitted",
      "type": "event"
    },
    {
      "anonymous": false,
      "inputs": [
        {
          "indexed": true,
          "internalType": "uint256",
          "name": "disputeId",
          "type": "uint256"
        },
        {
          "indexed": true,
          "internalType": "uint256",
          "name": "evidenceId",
          "type": "uint256"
        },
        {
          "indexed": false,
          "internalType": "bool",
          "name": "isValid",
          "type": "bool"
        },
        {
          "indexed": false,
          "internalType": "uint256",
          "name": "verificationScore",
          "type": "uint256"
        }
      ],
      "name": "EvidenceVerified",
      "type": "event"
    },
    {
      "anonymous": false,
      "inputs": [
        {
          "indexed": true,
          "internalType": "address",
          "name": "previousOwner",
          "type": "address"
        },
        {
          "indexed": true,
          "internalType": "address",
          "name": "newOwner",
          "type": "address"
        }
      ],
      "name": "OwnershipTransferred",
      "type": "event"
    },
    {
      "anonymous": false,
      "inputs": [
        {
          "indexed": false,
          "internalType": "address",
          "name": "account",
          "type": "address"
        }
      ],
      "name": "Paused",
      "type": "event"
    },
    {
      "anonymous": false,
      "inputs": [
        {
          "indexed": false,
          "internalType": "address",
          "name": "account",
          "type": "address"
        }
      ],
      "name": "Unpaused",
      "type": "event"
    },
    {
      "inputs": [
        {
          "internalType": "uint256",
          "name": "",
          "type": "uint256"
        }
      ],
      "name": "activeDisputes",
      "outputs": [
        {
          "internalType": "uint256",
          "name": "",
          "type": "uint256"
        }
      ],
      "stateMutability": "view",
      "type": "function"
    },
    {
      "inputs": [
        {
          "internalType": "uint256",
          "name": "",
          "type": "uint256"
        }
      ],
      "name": "agreementDisputes",
      "outputs": [
        {
          "internalType": "uint256",
          "name": "",
          "type": "uint256"
        }
      ],
      "stateMutability": "view",
      "type": "function"
    },
    {
      "inputs": [],
      "name": "aiPowerRental",
      "outputs": [
        {
          "internalType": "contract AIPowerRental",
          "name": "",
          "type": "address"
        }
      ],
      "stateMutability": "view",
      "type": "function"
    },
    {
      "inputs": [],
      "name": "arbitrationFeePercentage",
      "outputs": [
        {
          "internalType": "uint256",
          "name": "",
          "type": "uint256"
        }
      ],
      "stateMutability": "view",
      "type": "function"
    },
    {
      "inputs": [],
      "name": "arbitrationPeriod",
      "outputs": [
        {
          "internalType": "uint256",
          "name": "",
          "type": "uint256"
        }
      ],
      "stateMutability": "view",
      "type": "function"
    },
    {
      "inputs": [
        {
          "internalType": "uint256",
          "name": "",
          "type": "uint256"
        },
        {
          "internalType": "uint256",
          "name": "",
          "type": "uint256"
        }
      ],
      "name": "arbitrationVotes",
      "outputs": [
        {
          "internalType": "uint256",
          "name": "disputeId",
          "type": "uint256"
        },
        {
          "internalType": "address",
          "name": "arbitrator",
          "type": "address"
        },
        {
          "internalType": "bool",
          "name": "voteInFavorOfInitiator",
          "type": "bool"
        },
        {
          "internalType": "uint256",
          "name": "confidence",
          "type": "uint256"
        },
        {
          "internalType": "string",
          "name": "reasoning",
          "type": "string"
        },
        {
          "internalType": "uint256",
          "name": "voteTime",
          "type": "uint256"
        },
        {
          "internalType": "bool",
          "name": "isValid",
          "type": "bool"
        }
      ],
      "stateMutability": "view",
      "type": "function"
    },
    {
      "inputs": [
        {
          "internalType": "address",
          "name": "",
          "type": "address"
        },
        {
          "internalType": "uint256",
          "name": "",
          "type": "uint256"
        }
      ],
      "name": "arbitratorDisputes",
      "outputs": [
        {
          "internalType": "uint256",
          "name": "",
          "type": "uint256"
        }
      ],
      "stateMutability": "view",
      "type": "function"
    },
    {
      "inputs": [
        {
          "internalType": "address",
          "name": "",
          "type": "address"
        }
      ],
      "name": "arbitrators",
      "outputs": [
        {
          "internalType": "address",
          "name": "arbitratorAddress",
          "type": "address"
        },
        {
          "internalType": "bool",
          "name": "isAuthorized",
          "type": "bool"
        },
        {
          "internalType": "uint256",
          "name": "reputationScore",
          "type": "uint256"
        },
        {
          "internalType": "uint256",
          "name": "totalDisputes",
          "type": "uint256"
        },
        {
          "internalType": "uint256",
          "name": "successfulResolutions",
          "type": "uint256"
        },
        {
          "internalType": "uint256",
          "name": "lastActiveTime",
          "type": "uint256"
        },
        {
          "internalType": "enum DisputeResolution.ArbitratorStatus",
          "name": "status",
          "type": "uint8"
        }
      ],
      "stateMutability": "view",
      "type": "function"
    },
    {
      "inputs": [
        {
          "internalType": "uint256",
          "name": "_disputeId",
          "type": "uint256"
        },
        {
          "internalType": "address[]",
          "name": "_arbitrators",
          "type": "address[]"
        }
      ],
      "name": "assignArbitrators",
      "outputs": [],
      "stateMutability": "nonpayable",
      "type": "function"
    },
    {
      "inputs": [
        {
          "internalType": "address",
          "name": "_arbitrator",
          "type": "address"
        },
        {
          "internalType": "uint256",
          "name": "_reputationScore",
          "type": "uint256"
        }
      ],
      "name": "authorizeArbitrator",
      "outputs": [],
      "stateMutability": "nonpayable",
      "type": "function"
    },
    {
      "inputs": [
        {
          "internalType": "uint256",
          "name": "",
          "type": "uint256"
        }
      ],
      "name": "authorizedArbitratorList",
      "outputs": [
        {
          "internalType": "address",
          "name": "",
          "type": "address"
        }
      ],
      "stateMutability": "view",
      "type": "function"
    },
    {
      "inputs": [
        {
          "internalType": "address",
          "name": "",
          "type": "address"
        }
      ],
      "name": "authorizedArbitrators",
      "outputs": [
        {
          "internalType": "bool",
          "name": "",
          "type": "bool"
        }
      ],
      "stateMutability": "view",
      "type": "function"
    },
    {
      "inputs": [],
      "name": "disputeCounter",
      "outputs": [
        {
          "internalType": "uint256",
          "name": "",
          "type": "uint256"
        }
      ],
      "stateMutability": "view",
      "type": "function"
    },
    {
      "inputs": [
        {
          "internalType": "uint256",
          "name": "",
          "type": "uint256"
        },
        {
          "internalType": "uint256",
          "name": "",
          "type": "uint256"
        }
      ],
      "name": "disputeEvidence",
      "outputs": [
        {
          "internalType": "uint256",
          "name": "evidenceId",
          "type": "uint256"
        },
        {
          "internalType": "uint256",
          "name": "disputeId",
          "type": "uint256"
        },
        {
          "internalType": "address",
          "name": "submitter",
          "type": "address"
        },
        {
          "internalType": "string",
          "name": "evidenceType",
          "type": "string"
        },
        {
          "internalType": "string",
          "name": "evidenceData",
          "type": "string"
        },
        {
          "internalType": "bytes32",
          "name": "evidenceHash",
          "type": "bytes32"
        },
        {
          "internalType": "uint256",
          "name": "submissionTime",
          "type": "uint256"
        },
        {
          "internalType": "bool",
          "name": "isValid",
          "type": "bool"
        },
        {
          "internalType": "uint256",
          "name": "verificationScore",
          "type": "uint256"
        },
        {
          "internalType": "address",
          "name": "verifiedBy",
          "type": "address"
        }
      ],
      "stateMutability": "view",
      "type": "function"
    },
    {
      "inputs": [
        {
          "internalType": "uint256",
          "name": "",
          "type": "uint256"
        }
      ],
      "name": "disputes",
      "outputs": [
        {
          "internalType": "uint256",
          "name": "disputeId",
          "type": "uint256"
        },
        {
          "internalType": "uint256",
          "name": "agreementId",
          "type": "uint256"
        },
        {
          "internalType": "address",
          "name": "initiator",
          "type": "address"
        },
        {
          "internalType": "address",
          "name": "respondent",
          "type": "address"
        },
        {
          "internalType": "enum DisputeResolution.DisputeStatus",
          "name": "status",
          "type": "uint8"
        },
        {
          "internalType": "enum DisputeResolution.DisputeType",
          "name": "disputeType",
          "type": "uint8"
        },
        {
          "internalType": "string",
          "name": "reason",
          "type": "string"
        },
        {
          "internalType": "bytes32",
          "name": "evidenceHash",
          "type": "bytes32"
        },
        {
          "internalType": "uint256",
          "name": "filingTime",
          "type": "uint256"
        },
        {
          "internalType": "uint256",
          "name": "evidenceDeadline",
          "type": "uint256"
        },
        {
          "internalType": "uint256",
          "name": "arbitrationDeadline",
          "type": "uint256"
        },
        {
          "internalType": "uint256",
          "name": "resolutionAmount",
          "type": "uint256"
        },
        {
          "internalType": "address",
          "name": "winner",
          "type": "address"
        },
        {
          "internalType": "string",
          "name": "resolutionReason",
          "type": "string"
        },
        {
          "internalType": "uint256",
          "name": "arbitratorCount",
          "type": "uint256"
        },
        {
          "internalType": "bool",
          "name": "isEscalated",
          "type": "bool"
        },
        {
          "internalType": "uint256",
          "name": "escalationLevel",
          "type": "uint256"
        }
      ],
      "stateMutability": "view",
      "type": "function"
    },
    {
      "inputs": [
        {
          "internalType": "uint256",
          "name": "_disputeId",
          "type": "uint256"
        },
        {
          "internalType": "string",
          "name": "_escalationReason",
          "type": "string"
        }
      ],
      "name": "escalateDispute",
      "outputs": [],
      "stateMutability": "nonpayable",
      "type": "function"
    },
    {
      "inputs": [],
      "name": "escalationThreshold",
      "outputs": [
        {
          "internalType": "uint256",
          "name": "",
          "type": "uint256"
        }
      ],
      "stateMutability": "view",
      "type": "function"
    },
    {
      "inputs": [
        {
          "internalType": "uint256",
          "name": "",
          "type": "uint256"
        }
      ],
      "name": "escalations",
      "outputs": [
        {
          "internalType": "uint256",
          "name": "disputeId",
          "type": "uint256"
        },
        {
          "internalType": "uint256",
          "name": "escalationLevel",
          "type": "uint256"
        },
        {
          "internalType": "address",
          "name": "escalatedBy",
          "type": "address"
        },
        {
          "internalType": "string",
          "name": "escalationReason",
          "type": "string"
        },
        {
          "internalType": "uint256",
          "name": "escalationTime",
          "type": "uint256"
        }
      ],
      "stateMutability": "view",
      "type": "function"
    },
    {
      "inputs": [],
      "name": "evidenceSubmissionPeriod",
      "outputs": [
        {
          "internalType": "uint256",
          "name": "",
          "type": "uint256"
        }
      ],
      "stateMutability": "view",
      "type": "function"
    },
    {
      "inputs": [
        {
          "internalType": "uint256",
          "name": "_agreementId",
          "type": "uint256"
        },
        {
          "internalType": "address",
          "name": "_respondent",
          "type": "address"
        },
        {
          "internalType": "enum DisputeResolution.DisputeType",
          "name": "_disputeType",
          "type": "uint8"
        },
        {
          "internalType": "string",
          "name": "_reason",
          "type": "string"
        },
        {
          "internalType": "bytes32",
          "name": "_evidenceHash",
          "type": "bytes32"
        }
      ],
      "name": "fileDispute",
      "outputs": [
        {
          "internalType": "uint256",
          "name": "",
          "type": "uint256"
        }
      ],
      "stateMutability": "nonpayable",
      "type": "function"
    },
    {
      "inputs": [],
      "name": "getActiveDisputes",
      "outputs": [
        {
          "internalType": "uint256[]",
          "name": "",
          "type": "uint256[]"
        }
      ],
      "stateMutability": "view",
      "type": "function"
    },
    {
      "inputs": [
        {
          "internalType": "uint256",
          "name": "_disputeId",
          "type": "uint256"
        }
      ],
      "name": "getArbitrationVotes",
      "outputs": [
        {
          "components": [
            {
              "internalType": "uint256",
              "name": "disputeId",
              "type": "uint256"
            },
            {
              "internalType": "address",
              "name": "arbitrator",
              "type": "address"
            },
            {
              "internalType": "bool",
              "name": "voteInFavorOfInitiator",
              "type": "bool"
            },
            {
              "internalType": "uint256",
              "name": "confidence",
              "type": "uint256"
            },
            {
              "internalType": "string",
              "name": "reasoning",
              "type": "string"
            },
            {
              "internalType": "uint256",
              "name": "voteTime",
              "type": "uint256"
            },
            {
              "internalType": "bool",
              "name": "isValid",
              "type": "bool"
            }
          ],
          "internalType": "struct DisputeResolution.ArbitrationVote[]",
          "name": "",
          "type": "tuple[]"
        }
      ],
      "stateMutability": "view",
      "type": "function"
    },
    {
      "inputs": [
        {
          "internalType": "address",
          "name": "_arbitrator",
          "type": "address"
        }
      ],
      "name": "getArbitrator",
      "outputs": [
        {
          "components": [
            {
              "internalType": "address",
              "name": "arbitratorAddress",
              "type": "address"
            },
            {
              "internalType": "bool",
              "name": "isAuthorized",
              "type": "bool"
            },
            {
              "internalType": "uint256",
              "name": "reputationScore",
              "type": "uint256"
            },
            {
              "internalType": "uint256",
              "name": "totalDisputes",
              "type": "uint256"
            },
            {
              "internalType": "uint256",
              "name": "successfulResolutions",
              "type": "uint256"
            },
            {
              "internalType": "uint256",
              "name": "lastActiveTime",
              "type": "uint256"
            },
            {
              "internalType": "enum DisputeResolution.ArbitratorStatus",
              "name": "status",
              "type": "uint8"
            }
          ],
          "internalType": "struct DisputeResolution.Arbitrator",
          "name": "",
          "type": "tuple"
        }
      ],
      "stateMutability": "view",
      "type": "function"
    },
    {
      "inputs": [
        {
          "internalType": "address",
          "name": "_arbitrator",
          "type": "address"
        }
      ],
      "name": "getArbitratorDisputes",
      "outputs": [
        {
          "internalType": "uint256[]",
          "name": "",
          "type": "uint256[]"
        }
      ],
      "stateMutability": "view",
      "type": "function"
    },
    {
      "inputs": [],
      "name": "getAuthorizedArbitrators",
      "outputs": [
        {
          "internalType": "address[]",
          "name": "",
          "type": "address[]"
        }
      ],
      "stateMutability": "view",
      "type": "function"
    },
    {
      "inputs": [
        {
          "internalType": "uint256",
          "name": "_disputeId",
          "type": "uint256"
        }
      ],
      "name": "getDispute",
      "outputs": [
        {
          "components": [
            {
              "internalType": "uint256",
              "name": "disputeId",
              "type": "uint256"
            },
            {
              "internalType": "uint256",
              "name": "agreementId",
              "type": "uint256"
            },
            {
              "internalType": "address",
              "name": "initiator",
              "type": "address"
            },
            {
              "internalType": "address",
              "name": "respondent",
              "type": "address"
            },
            {
              "internalType": "enum DisputeResolution.DisputeStatus",
              "name": "status",
              "type": "uint8"
            },
            {
              "internalType": "enum DisputeResolution.DisputeType",
              "name": "disputeType",
              "type": "uint8"
            },
            {
              "internalType": "string",
              "name": "reason",
              "type": "string"
            },
            {
              "internalType": "bytes32",
              "name": "evidenceHash",
              "type": "bytes32"
            },
            {
              "internalType": "uint256",
              "name": "filingTime",
              "type": "uint256"
            },
            {
              "internalType": "uint256",
              "name": "evidenceDeadline",
              "type": "uint256"
            },
            {
              "internalType": "uint256",
              "name": "arbitrationDeadline",
              "type": "uint256"
            },
            {
              "internalType": "uint256",
              "name": "resolutionAmount",
              "type": "uint256"
            },
            {
              "internalType": "address",
              "name": "winner",
              "type": "address"
            },
            {
              "internalType": "string",
              "name": "resolutionReason",
              "type": "string"
            },
            {
              "internalType": "uint256",
              "name": "arbitratorCount",
              "type": "uint256"
            },
            {
              "internalType": "bool",
              "name": "isEscalated",
              "type": "bool"
            },
            {
              "internalType": "uint256",
              "name": "escalationLevel",
              "type": "uint256"
            }
          ],
          "internalType": "struct DisputeResolution.Dispute",
          "name": "",
          "type": "tuple"
        }
      ],
      "stateMutability": "view",
      "type": "function"
    },
    {
      "inputs": [
        {
          "internalType": "uint256",
          "name": "_disputeId",
          "type": "uint256"
        }
      ],
      "name": "getDisputeEvidence",
      "outputs": [
        {
          "components": [
            {
              "internalType": "uint256",
              "name": "evidenceId",
              "type": "uint256"
            },
            {
              "internalType": "uint256",
              "name": "disputeId",
              "type": "uint256"
            },
            {
              "internalType": "address",
              "name": "submitter",
              "type": "address"
            },
            {
              "internalType": "string",
              "name": "evidenceType",
              "type": "string"
            },
            {
              "internalType": "string",
              "name": "evidenceData",
              "type": "string"
            },
            {
              "internalType": "bytes32",
              "name": "evidenceHash",
              "type": "bytes32"
            },
            {
              "internalType": "uint256",
              "name": "submissionTime",
              "type": "uint256"
            },
            {
              "internalType": "bool",
              "name": "isValid",
              "type": "bool"
            },
            {
              "internalType": "uint256",
              "name": "verificationScore",
              "type": "uint256"
            },
            {
              "internalType": "address",
              "name": "verifiedBy",
              "type": "address"
            }
          ],
          "internalType": "struct DisputeResolution.Evidence[]",
          "name": "",
          "type": "tuple[]"
        }
      ],
      "stateMutability": "view",
      "type": "function"
    },
    {
      "inputs": [
        {
          "internalType": "address",
          "name": "_user",
          "type": "address"
        }
      ],
      "name": "getUserDisputes",
      "outputs": [
        {
          "internalType": "uint256[]",
          "name": "",
          "type": "uint256[]"
        }
      ],
      "stateMutability": "view",
      "type": "function"
    },
    {
      "inputs": [
        {
          "internalType": "uint256",
          "name": "",
          "type": "uint256"
        },
        {
          "internalType": "address",
          "name": "",
          "type": "address"
        }
      ],
      "name": "hasVoted",
      "outputs": [
        {
          "internalType": "bool",
          "name": "",
          "type": "bool"
        }
      ],
      "stateMutability": "view",
      "type": "function"
    },
    {
      "inputs": [],
      "name": "maxArbitrators",
      "outputs": [
        {
          "internalType": "uint256",
          "name": "",
          "type": "uint256"
        }
      ],
      "stateMutability": "view",
      "type": "function"
    },
    {
      "inputs": [],
      "name": "minArbitrators",
      "outputs": [
        {
          "internalType": "uint256",
          "name": "",
          "type": "uint256"
        }
      ],
      "stateMutability": "view",
      "type": "function"
    },
    {
      "inputs": [],
      "name": "owner",
      "outputs": [
        {
          "internalType": "address",
          "name": "",
          "type": "address"
        }
      ],
      "stateMutability": "view",
      "type": "function"
    },
    {
      "inputs": [],
      "name": "pause",
      "outputs": [],
      "stateMutability": "nonpayable",
      "type": "function"
    },
    {
      "inputs": [],
      "name": "paused",
      "outputs": [
        {
          "internalType": "bool",
          "name": "",
          "type": "bool"
        }
      ],
      "stateMutability": "view",
      "type": "function"
    },
    {
      "inputs": [],
      "name": "paymentProcessor",
      "outputs": [
        {
          "internalType": "contract AITBCPaymentProcessor",
          "name": "",
          "type": "address"
        }
      ],
      "stateMutability": "view",
      "type": "function"
    },
    {
      "inputs": [],
      "name": "performanceVerifier",
      "outputs": [
        {
          "internalType": "contract PerformanceVerifier",
          "name": "",
          "type": "address"
        }
      ],
      "stateMutability": "view",
      "type": "function"
    },
    {
      "inputs": [],
      "name": "renounceOwnership",
      "outputs": [],
      "stateMutability": "nonpayable",
      "type": "function"
    },
    {
      "inputs": [
        {
          "internalType": "address",
          "name": "_arbitrator",
          "type": "address"
        },
        {
          "internalType": "string",
          "name": "_reason",
          "type": "string"
        }
      ],
      "name": "revokeArbitrator",
      "outputs": [],
      "stateMutability": "nonpayable",
      "type": "function"
    },
    {
      "inputs": [
        {
          "internalType": "uint256",
          "name": "_disputeId",
          "type": "uint256"
        },
        {
          "internalType": "bool",
          "name": "_voteInFavorOfInitiator",
          "type": "bool"
        },
        {
          "internalType": "uint256",
          "name": "_confidence",
          "type": "uint256"
        },
        {
          "internalType": "string",
          "name": "_reasoning",
          "type": "string"
        }
      ],
      "name": "submitArbitrationVote",
      "outputs": [],
      "stateMutability": "nonpayable",
      "type": "function"
    },
    {
      "inputs": [
        {
          "internalType": "uint256",
          "name": "_disputeId",
          "type": "uint256"
        },
        {
          "internalType": "string",
          "name": "_evidenceType",
          "type": "string"
        },
        {
          "internalType": "string",
          "name": "_evidenceData",
          "type": "string"
        }
      ],
      "name": "submitEvidence",
      "outputs": [],
      "stateMutability": "nonpayable",
      "type": "function"
    },
    {
      "inputs": [
        {
          "internalType": "address",
          "name": "newOwner",
          "type": "address"
        }
      ],
      "name": "transferOwnership",
      "outputs": [],
      "stateMutability": "nonpayable",
      "type": "function"
    },
    {
      "inputs": [],
      "name": "unpause",
      "outputs": [],
      "stateMutability": "nonpayable",
      "type": "function"
    },
    {
      "inputs": [
        {
          "internalType": "address",
          "name": "",
          "type": "address"
        },
        {
          "internalType": "uint256",
          "name": "",
          "type": "uint256"
        }
      ],
      "name": "userDisputes",
      "outputs": [
        {
          "internalType": "uint256",
          "name": "",
          "type": "uint256"
        }
      ],
      "stateMutability": "view",
      "type": "function"
    },
    {
      "inputs": [
        {
          "internalType": "uint256",
          "name": "_disputeId",
          "type": "uint256"
        },
        {
          "internalType": "uint256",
          "name": "_evidenceId",
          "type": "uint256"
        },
        {
          "internalType": "bool",
          "name": "_isValid",
          "type": "bool"
        },
        {
          "internalType": "uint256",
          "name": "_verificationScore",
          "type": "uint256"
        }
      ],
      "name": "verifyEvidence",
      "outputs": [],
      "stateMutability": "nonpayable",
      "type": "function"
    }
  ],
  "bytecode": "0x6080346200012757601f620040a638819003918201601f19168301916001600160401b038311848410176200012c5780849260609460405283398101031262000127576200004d8162000142565b620000696040620000616020850162000142565b930162000142565b600080546001600160a01b03198082163390811784556040519691956001600160a01b03959486949192918516907f8be0079c531659141344cd1fd0a4f28419497f9722a3daafe3b4186f6b6457e09080a3600180556002549060646006556203f48060075562093a8060085560036009556003600a556005600b55610100600160a81b039060081b169060018060a81b0319161760025516836003541617600355169060045416176004556000600555613f4e9081620001588239f35b600080fd5b634e487b7160e01b600052604160045260246000fd5b51906001600160a01b0382168203620001275756fe6080604052600436101561001257600080fd5b60003560e01c806303a09d18146135c15780630e6597bc1461357f57806316b4f529146135615780632a8e366114612ff15780632b9ec47b14612f455780632d5db63014612e4a5780633172262c14612dd2578063388b0c0214612cc75780633dc0415914612c7d5780633f4ba83a14612be957806341e6bdc61461233057806343859632146122e35780634857f039146122ba57806351d0ea3714612230578063564a565d146120c25780635c975abb1461209f57806361bb029d146120815780636203a26d14611e7d578063655a841614611df55780636abcd85d14611c05578063703f08a61461197a578063715018a6146119215780637ab9f794146117f35780637d36f4d3146117d55780637f81262f146116af5780638456cb59146116555780638b4b5b34146116165780638da5cb5b146115ed5780638e817f62146115c057806395281eae14611594578063a11bad66146111d2578063a46fb4251461117a578063acccb08f1461115c578063b629188c1461113e578063b83ab8be14611115578063bfb0a55b1461108d578063c48de3f11461106f578063c67db2a314610fa0578063c6cdb23514610f82578063d11b996e14610dec578063e3a96cbd14610b1f578063e5b283c3146102f2578063f1c6bdf8146102c95763f2fde38b1461020057600080fd5b346102c45760203660031901126102c457610219613a51565b610221613abb565b6001600160a01b0390811690811561027057600054826001600160601b0360a01b821617600055167f8be0079c531659141344cd1fd0a4f28419497f9722a3daafe3b4186f6b6457e0600080a3005b60405162461bcd60e51b815260206004820152602660248201527f4f776e61626c653a206e6577206f776e657220697320746865207a65726f206160448201526564647265737360d01b6064820152608490fd5b600080fd5b346102c45760003660031901126102c4576003546040516001600160a01b039091168152602090f35b346102c45760a03660031901126102c45761030b613a67565b600560443510156102c4576064356001600160401b0381116102c4576103359036906004016138a4565b9061033e613d61565b610346613d1d565b6001600160a01b03811615610ae5576001600160a01b0381163314610aa057815115610a69576002546040516318a8a6cf60e01b81526004803590820152906000908290602490829060081c6001600160a01b03165afa908115610a5d57600091610a3a575b506020810180516001600160a01b031615610a015780516001600160a01b0316331480156109eb575b156109a657516001600160a01b031633810361099f5750604001516001600160a01b03165b6001600160a01b039081169082160361095a576005549061041a82613ca3565b6005556007546104406104376104308342613cc8565b9242613cc8565b60085490613cc8565b6040519161044d83613816565b84835260043560208401523360408401526001600160a01b03841660608401526000608084015261048360443560a08501613cd5565b8560c084015260843560e084015242610100840152610120830152610140820152600061016082015260006101808201526040516104c08161384d565b600081526101a082015260006101c082015260006101e0820152600161020082015282600052600c60205260406000209080518255602081015160018301556002820160018060a01b036040830151166001600160601b0360a01b82541617905560018060a01b0360608201511660038301549060808301519060088210156109445760a084015160058110156109445760ff60a81b9060a81b169269ffffffffffffffffffff60b01b16179060ff60a01b9060a01b161717600383015560c08101518051906001600160401b0382116107bb5781906105a3600486015461391d565b601f811161090f575b50602090601f831160011461089d57600092610892575b50508160011b916000199060031b1c19161760048301555b60e081015160058301556101008101516006830155610120810151600783015561014081015160088301556101608101516009830155600a820160018060a01b03610180830151166001600160601b0360a01b8254161790556101a08101518051906001600160401b0382116107bb57610658600b85015461391d565b601f8111610852575b50602090601f83116001146107dc579180600e9492610200946000926107d1575b50508160011b916000199060031b1c191617600b8501555b6101c0810151600c8501556106c56101e08201511515600d86019060ff801983541691151516179055565b01519101553360005260126020526106e1826040600020613cf8565b60018060a01b0381166000526012602052610700826040600020613cf8565b60043560005260136020528160406000205560175492600160401b8410156107bb576107518361073886600160209801601755613728565b90919082549060031b91821b91600019901b1916179055565b6040516001600160a01b03909216825261076f848301604435613a97565b60606040830152827f65ba9be6d18824e972fd81145fe27f822f89bbec1a210061ab959b069d15f7f73393806107ac600435956060830190613a10565b0390a460018055604051908152f35b634e487b7160e01b600052604160045260246000fd5b015190508980610682565b90600b850160005260206000209160005b601f198516811061083a575092600e94926001926102009583601f19811610610821575b505050811b01600b85015561069a565b015160001960f88460031b161c19169055898080610811565b919260206001819286850151815501940192016107ed565b61088290600b86016000526020600020601f850160051c81019160208610610888575b601f0160051c0190613ce1565b87610661565b9091508190610875565b0151905087806105c3565b9250600485016000526020600020906000935b601f19841685106108f4576001945083601f198116106108db575b505050811b0160048301556105db565b015160001960f88460031b161c191690558780806108cb565b818101518355602094850194600190930192909101906108b0565b61093e90600487016000526020600020601f850160051c8101916020861061088857601f0160051c0190613ce1565b886105ac565b634e487b7160e01b600052602160045260246000fd5b60405162461bcd60e51b815260206004820152601b60248201527f526573706f6e64656e74206e6f7420696e2061677265656d656e7400000000006044820152606490fd5b90506103fa565b60405162461bcd60e51b815260206004820152601960248201527f4e6f742061677265656d656e74207061727469636970616e74000000000000006044820152606490fd5b5060408201516001600160a01b031633146103d5565b60405162461bcd60e51b8152602060048201526011602482015270125b9d985b1a59081859dc99595b595b9d607a1b6044820152606490fd5b610a5791503d806000833e610a4f8183613868565b810190613b27565b836103ac565b6040513d6000823e3d90fd5b60405162461bcd60e51b815260206004820152600f60248201526e1499585cdbdb881c995c5d5a5c9959608a1b6044820152606490fd5b60405162461bcd60e51b815260206004820152601760248201527f43616e6e6f74206469737075746520796f757273656c660000000000000000006044820152606490fd5b60405162461bcd60e51b8152602060048201526012602482015271125b9d985b1a59081c995cdc1bdb99195b9d60721b6044820152606490fd5b346102c45760203660031901126102c4576000610200604051610b4181613816565b8281528260208201528260408201528260608201528260808201528260a0820152606060c08201528260e0820152826101008201528261012082015282610140820152826101608201528261018082015260606101a0820152826101c0820152826101e08201520152600554610bbb600435918210613db7565b600052600c602052604060002060405190610bd582613816565b805482526001810154602083015260028101546001600160a01b0390811660408401526003820154908116606084015290600860a083901c60ff16101561094457610c3660ff8381600e9560a01c16608087015260a81c1660a08501613cd5565b604051610c5181610c4a8160048601613957565b0382613868565b60c0840152600581015460e08401526006810154610100840152600781015461012084015260088101546101408401526009810154610160840152600a8101546001600160a01b0316610180840152604051610cb481610c4a81600b8601613957565b6101a0840152600c8101546101c084015260ff600d8201541615156101e08401520154610200820152604051809160208252805160208301526020810151604083015260018060a01b03604082015116606083015260018060a01b036060820151166080830152610d2d608082015160a0840190613a8a565b610d3f60a082015160c0840190613a97565b610200610dc7610d6060c084015161022060e0870152610240860190613a10565b60e084015161010086015261010084015161012086015261012084015161014086015261014084015161016086015261016084015161018086015260018060a01b03610180850151166101a08601526101a0840151601f19868303016101c0870152613a10565b916101c08101516101e08501526101e081015115158285015201516102208301520390f35b346102c4576020806003193601126102c45760043590600591610e1183548210613db7565b600052600e81526040600020805491610e2983613aa4565b92610e376040519485613868565b8084528184018093600052826000206000915b838310610eff5750505050604051928184019082855251809152604081818601961b85010192916000955b828710610e825785850386f35b909192938280600192603f1989820301855287519081518152848060a01b0383830151168382015260408201511515604082015260608083015190820152610ed9608060e0818501519184015260e0830190613a10565b9160a0808201519083015260c08091015115159101529601920196019592919092610e75565b600685600192604099979951610f14816137e0565b8554815284860154858060a01b0381168483015260ff908160a091821c161515604084015260028801546060840152604051610f5781610c4a8160038d01613957565b60808401526004880154908301528c87015416151560c0820152815201920192019190959395610e4a565b346102c45760003660031901126102c4576020600654604051908152f35b346102c45760403660031901126102c457610fb9613a51565b6024356001600160401b0381116102c45761106a610ffc7ff81a1cee493afb199d36fd19dd8ce63adc4b53e75a7f1c01effd8b2303bd2ce39236906004016138a4565b92611005613abb565b60018060a01b03169283600052601460205261102860ff60406000205416613e9a565b836000526014602052604060002060ff199081815416905560106020526002600560406000200191825416179055604051918291602083526020830190613a10565b0390a2005b346102c45760003660031901126102c4576020600954604051908152f35b346102c4576020806003193601126102c4576001600160a01b036110af613a51565b1660005260128152604060002090604051908181845491828152019360005281600020916000905b8282106110fe576110fa856110ee81890382613868565b604051918291826136ed565b0390f35b8354865294850194600193840193909101906110d7565b346102c45760003660031901126102c4576004546040516001600160a01b039091168152602090f35b346102c45760003660031901126102c4576020600854604051908152f35b346102c45760003660031901126102c4576020600754604051908152f35b346102c45760403660031901126102c457611193613a51565b6001600160a01b03166000908152601160205260409020805460243591908210156102c4576020916111c4916137ac565b90546040519160031b1c8152f35b346102c45760403660031901126102c4576024356001600160401b0381116102c4576112029036906004016138a4565b61120a613abb565b61121960055460043510613db7565b611221613d61565b600435600052600c60205260406000209060038201549160ff8360a01c1660088110156109445760040361154457600e81015460038110156114ff5761126690613ca3565b600e8201819055600d8201805460ff1916600117905560ff60a01b19909316600560a01b1760038201556040519261129d8461384d565b60008452604051936112ae856137fb565b60043585526020850191825260408501338152606086019185835242608088015260a0870152600435600052600f60205260406000209286518455516001840155600283019060018060a01b039051166001600160601b0360a01b825416179055518051906001600160401b0382116107bb5761132e600384015461391d565b601f81116114ca575b50602090601f831160011461145557918060a0949260059460009261144a575b50508160011b916000199060031b1c19161760038201555b60808601516004820155019301518051906001600160401b0382116107bb57600160401b82116107bb57602090855483875580841061142d575b500193600052602060002060005b8281106114105784600e85015490604051918252604060208301527f8b15efe546160d84781e29ef75499558df9ed2b3177e71e61ef7340e7b3254cf339280611407600435946040830190613a10565b0390a360018055005b85516001600160a01b0316818301556020909501946001016113b7565b611444908760005284846000209182019101613ce1565b866113a9565b015190508880611357565b906003840160005260206000209160005b601f19851681106114b257509260a0949260019260059583601f19811610611499575b505050811b01600382015561136f565b015160001960f88460031b161c19169055888080611489565b91926020600181928685015181550194019201611466565b6114f990600385016000526020600020601f850160051c8101916020861061088857601f0160051c0190613ce1565b86611337565b60405162461bcd60e51b815260206004820152601c60248201527f4d617820657363616c6174696f6e206c6576656c2072656163686564000000006044820152606490fd5b60405162461bcd60e51b815260206004820152602260248201527f43616e6e6f7420657363616c61746520756e7265736f6c766564206469737075604482015261746560f01b6064820152608490fd5b346102c45760203660031901126102c45760043560005260136020526020604060002054604051908152f35b346102c45760003660031901126102c45760025460405160089190911c6001600160a01b03168152602090f35b346102c45760003660031901126102c4576000546040516001600160a01b039091168152602090f35b346102c45760203660031901126102c4576001600160a01b03611637613a51565b166000526014602052602060ff604060002054166040519015158152f35b346102c45760003660031901126102c45761166e613abb565b611676613d1d565b600160ff1960025416176002557f62e78cea01bee320cd4e420270b5ea74000d11b0c9f74754ebdbfc544b05a2586020604051338152a1005b346102c45760003660031901126102c4576016546116cc81613ee6565b9060009060005b81811061176a5750506116e581613ee6565b9160005b82811061173d5783604051809160208083018184528251809152816040850193019160005b82811061171d57505050500390f35b83516001600160a01b03168552869550938101939281019260010161170e565b611765906001600160a01b036117538285613e86565b511661175f8287613e86565b52613ca3565b6116e9565b61177381613775565b60018060a01b03809254600392831b1c16600052601460205260ff604060002054166117aa575b50506117a590613ca3565b6116d3565b936117cd9183956117bd6117a595613775565b9054911b1c1661175f8288613e86565b92908561179a565b346102c45760003660031901126102c4576020600554604051908152f35b346102c45760803660031901126102c45760243560043560443580151581036102c45760643533600052601460205261183360ff60406000205416613e3a565b6118406005548410613db7565b611848613d61565b82600052600d6020526040600020548410156118e6577fa534c924fb73b9c796091ea130c6550a4a8ad97e5e318b1dddbcd760712316469183600052600d6020526009611899866040600020613a35565b506118b383600783019060ff801983541691151516179055565b600881018490550180546001600160a01b0319163317905560408051911515825260208201929092529081908101611407565b60405162461bcd60e51b8152602060048201526013602482015272125b9d985b1a5908195d9a59195b98d9481251606a1b6044820152606490fd5b346102c45760003660031901126102c45761193a613abb565b600080546001600160a01b0319811682556001600160a01b03167f8be0079c531659141344cd1fd0a4f28419497f9722a3daafe3b4186f6b6457e08280a3005b346102c45760403660031901126102c45760043560248035916001600160401b0383116102c457366023840112156102c4578260040135916119bb83613aa4565b936119c96040519586613868565b838552602093828587019160051b830101913683116102c4578301905b828210611be6575050506119f8613abb565b611a056005548310613db7565b611a0d613d61565b81600052600c83526040600020938051600a548110159081611bd9575b5015611b9557600285015492946001600160a01b039384169360005b8351811015611af45781611a5a8286613e86565b51166000526014808852611a7560ff60406000205416613e9a565b8683611a818488613e86565b5116141580611ad8575b15611a9f5750611a9a90613ca3565b611a46565b87606491876040519262461bcd60e51b845260048401528201527310dbdb999b1a58dd081bd9881a5b9d195c995cdd60621b6044820152fd5b5082611ae48387613e86565b5116836003860154161415611a8b565b508251600c83015560038201805460ff60a01b1916600360a01b179055918591600e0190879060005b8151811015611b8f578086611b35611b8a9385613e86565b511660005260118652611b4c846040600020613cf8565b86611b578285613e86565b5116847f47c18e2f2caff495cf9c2ee4dc9de78b6d5bf1160dd87a27ffee599a519774cf888854604051908152a3613ca3565b611b1d565b60018055005b60405162461bcd60e51b8152600481018590526018818401527f496e76616c69642061726269747261746f7220636f756e7400000000000000006044820152606490fd5b9050600b54101586611a2a565b81356001600160a01b03811681036102c45781529085019085016119e6565b346102c4576020806003193601126102c45760043590600591611c2a83548210613db7565b600052600d81526040600020805491611c4283613aa4565b92611c506040519485613868565b8084528184018093600052826000206000915b838310611d465750505050604051928184019082855251809152604081818601961b85010192916000955b828710611c9b5785850386f35b909192938280600192603f19898203018552875190815181528282015183820152848060a01b0391826040820151166040830152611cff611cec606080840151906101408091870152850190613a10565b6080808401519085830390860152613a10565b9260a0808301519084015260c0808301519084015260e0820151151560e0840152610100808301519084015261012080920151169101529601920196019592919092611c8e565b600a85600192604099979951611d5b816137c4565b855481528486015483820152848060a01b03806002880154166040830152604051611d8d81610c4a8160038c01613957565b6060830152604051611da681610c4a8160048c01613957565b60808301528c87015460a0830152600687015460c083015260ff600788015416151560e08301526008870154610100830152600987015416610120820152815201920192019190959395611c63565b346102c45760203660031901126102c457600435600052600f60205260406000208054600182015491611e7360018060a01b0360028301541691600460405191611e4d83611e468160038501613957565b0384613868565b01549260405195869586526020860152604085015260a0606085015260a0840190613a10565b9060808301520390f35b346102c45760403660031901126102c457611e96613a51565b60243590611ea2613abb565b6001600160a01b0390811691821561203c57826000526020906014825260ff60406000205416611ff757836000526014825260406000209260ff1993600185825416179055601654600160401b8110156107bb57806001611f069201601655613775565b81549060031b908388831b921b19161790556005604051611f26816137e0565b86815284810160018152604082018581526060830160008152608084019160008352611f9e60a086019442865260c087019860008a528d60005260108c5260406000209751166001600160601b0360a01b885416178755511515869081549060ff60a01b90151560a01b169060ff60a01b1916179055565b51600185015551600284015551600383015551600482015501905160048110156109445760ff7f882e7422bb4142afff5f45d9c60cdebb09193c1210ca422dcc55725ac5e56177958354169116179055604051908152a2005b60405162461bcd60e51b815260048101839052601d60248201527f41726269747261746f7220616c726561647920617574686f72697a65640000006044820152606490fd5b60405162461bcd60e51b815260206004820152601a60248201527f496e76616c69642061726269747261746f7220616464726573730000000000006044820152606490fd5b346102c45760003660031901126102c4576020600a54604051908152f35b346102c45760003660031901126102c457602060ff600254166040519015158152f35b346102c45760203660031901126102c457600435600052600c6020526040600020805490600181015490600160a01b600190036002820154166003820154916040518080600484019061211491613957565b0361211f9082613868565b60058201546006830154600784015460088501546009860154600a870154604051966001600160a01b0390911694919391908761215f81600b8c01613957565b0361216a9089613868565b600c8901549a600d8a015460ff1699600e01549a6040519e8f9e8f9182526020820152604001528c600160a01b600190038216906060015260808d018160a01c60ff16906121b791613a8a565b60a08d019060a81c60ff16906121cc91613a97565b8b61022060c0819201528c016121e191613a10565b9560e08c01526101008b01526101208a01526101408901526101608801526101808701528581036101a087015261221791613a10565b926101c085015215156101e08401526102008301520390f35b346102c45760203660031901126102c45760e06001600160a01b0380612254613a51565b1660005260106020526122b860406000208054906001810154600282015460038301549160ff80600560048701549601541695604051988116895260a01c161515602088015260408701526060860152608085015260a084015260c0830190613a7d565bf35b346102c45760203660031901126102c4576004356017548110156102c4576111c4602091613728565b346102c45760403660031901126102c4576122fc613a67565b600435600052601560205260406000209060018060a01b0316600052602052602060ff604060002054166040519015158152f35b346102c45760803660031901126102c4576024351515602435036102c4576064356001600160401b0381116102c45761236d9036906004016138a4565b33600052601460205261238760ff60406000205416613e3a565b61239660055460043510613db7565b600435600052600c60205260ff60036040600020015460a01c16600881101561094457600303612bab57600435600052601560205260406000203360005260205260ff60406000205416612b7657600435600052600c602052612403600860406000200154421115613dfc565b61240b613d61565b600435600052600c602052604060002060009060005b33600052601160205260406000208054821015612b6e5781612442916137ac565b60043591549060031b1c1461245f5761245a90613ca3565b612421565b50905060015b15612b2957600435600052600e602052604060002060405192612487846137e0565b600435845233602085015260243515156040850152604435606085015260808401524260a0840152600160c08401528054600160401b8110156107bb576124d391600182018155613901565b612b1357825181556020830151600182018054604086015160ff60a01b90151560a01b166001600160a01b039093166001600160a81b0319909116179190911790556060830151600282015560808301519283516001600160401b0381116107bb57612542600384015461391d565b601f8111612ade575b506020601f8211600114612a6657918160c0926005946125a79798600092612a5b575b50508160011b916000199060031b1c19161760038501555b60a081015160048501550151151591019060ff801983541691151516179055565b60043560005260156020526040600020336000526020526040600020600160ff1982541617905560106020526040600020600281016125e68154613ca3565b90554260049182015560408051602435151581526044356020820152339235917f7d8fc3550a6b9ad08040885fe9264ccea1de78145f336bf1a2ab468452c1496c91a3600435600052600e602052600c6040600020549101541461264a5760018055005b600c6020526040600020600e6020526040600020906000806000916000916000908654905b8183106129ef57505050508160011c81116000146129dc5760028301546001600160a01b03165b600a840180546001600160a01b0319166001600160a01b0392831617905560038401805460ff60a01b1916600160a21b17905560025460018501546040516318a8a6cf60e01b81526004810191909152916000918391602491839160089190911c165afa908115610a5d576000916129c1575b508260011c82116000146129b4576080015160098401555b60005b84548110156127bd5780600161273d6127799388613901565b5001546001600160a01b03811660009081526010602052604090209060a01c60ff1680806127af575b8115612793575b5061277e575b50613ca3565b612724565b60030161278b8154613ca3565b905586612773565b905015806127a2575b8861276d565b508460011c84111561279c565b90508560011c851190612766565b5091925060011c1015612966576040516127d681613832565b602881527f45766964656e636520616e6420726561736f6e696e6720737570706f727420696020820152673734ba34b0ba37b960c11b6040820152905b600b810182516001600160401b0381116107bb57612831825461391d565b601f8111612934575b506020601f82116001146128ce57819293946000926128c3575b50508160011b916000199060031b1c19161781555b7fa84b1d4c001dd9ee7e029c42bfd0c0043b5472537230d9b3bc4a3baccff78ad8600960018060a01b03600a8501541693015460405190815260406020820152806128bb600435946040830190613957565b0390a3611b8f565b015190508480612854565b601f198216908360005260206000209160005b81811061291c57509583600195969710612903575b505050811b018155612869565b015160001960f88460031b161c191690558480806128f6565b9192602060018192868b0151815501940192016128e1565b61296090836000526020600020601f840160051c8101916020851061088857601f0160051c0190613ce1565b8461283a565b60405161297281613832565b602981527f45766964656e636520616e6420726561736f6e696e6720737570706f72742072602082015268195cdc1bdb99195b9d60ba1b604082015290612813565b5060006009840155612721565b6129d691503d806000833e610a4f8183613868565b85612709565b60038301546001600160a01b0316612696565b9092946129ff8389969496613901565b509560ff6001612a1460028a01548095613cc8565b98015460a01c1615612a4457612a3c91612a30612a3692613ca3565b94613cc8565b94613ca3565b91929061266f565b929491612a3c9150612a5590613ca3565b91613ca3565b01519050888061256e565b6003840160005260206000209560005b601f1984168110612ac65750826125a796976005959360019360c096601f19811610612aad575b505050811b016003850155612586565b015160001960f88460031b161c19169055888080612a9d565b82820151885560019097019660209283019201612a76565b612b0d90600385016000526020600020601f840160051c8101916020851061088857601f0160051c0190613ce1565b8561254b565b634e487b7160e01b600052600060045260246000fd5b60405162461bcd60e51b815260206004820152601760248201527f41726269747261746f72206e6f742061737369676e65640000000000000000006044820152606490fd5b505090612465565b60405162461bcd60e51b815260206004820152600d60248201526c105b1c9958591e481d9bdd1959609a1b6044820152606490fd5b60405162461bcd60e51b8152602060048201526016602482015275496e76616c696420646973707574652073746174757360501b6044820152606490fd5b346102c45760003660031901126102c457612c02613abb565b60025460ff811615612c415760ff19166002557f5db9ee0a495bf2e6ff9c91a7834c1ba4fdd244a5e8aa4e537bd38aeae4b073aa6020604051338152a1005b60405162461bcd60e51b815260206004820152601460248201527314185d5cd8589b194e881b9bdd081c185d5cd95960621b6044820152606490fd5b346102c45760403660031901126102c457612c96613a51565b6001600160a01b03166000908152601260205260409020805460243591908210156102c4576020916111c4916137ac565b346102c45760203660031901126102c457612ce0613a51565b600060c0604051612cf0816137e0565b8281528260208201528260408201528260608201528260808201528260a0820152015260018060a01b038091166000526010602052604060002060405190612d37826137e0565b8054838116835260ff602084019160a01c1615158152600182015491604084019283526002810154606085019081526003820154906080860191825260ff600560048501549460a089019586520154169460c087019460048710156109445760e0986122b8978752604051985116885251151560208801525160408701525160608601525160808501525160a08401525160c0830190613a7d565b346102c4576020806003193601126102c4576001600160a01b03612df4613a51565b1660005260118152604060002090604051908181845491828152019360005281600020916000905b828210612e33576110fa856110ee81890382613868565b835486529485019460019384019390910190612e1c565b346102c457612e58366138eb565b90600052600d60205260406000209081548110156102c457612e7991613a35565b5080546001820154600283015460405191936001600160a01b0391821691612eaf84612ea88160038601613957565b0385613868565b60405193612ecb85612ec48160048701613957565b0386613868565b612f23600584015495612f1560068601549360ff600788015416956009600889015498015416976040519b8c9b8c5260208c015260408b01526101408060608c01528a0190613a10565b9088820360808a0152613a10565b9460a087015260c0860152151560e08501526101008401526101208301520390f35b346102c457612f53366138eb565b90600052600e60205260406000209081548110156102c457612f7491613901565b5080546001820154916002810154612fe0604051612f9981610c4a8160038801613957565b60ff60056004860154950154169260ff604051978897885260018060a01b038116602089015260a01c1615156040870152606086015260e0608086015260e0850190613a10565b9160a0840152151560c08301520390f35b346102c45760603660031901126102c4576024356001600160401b0381116102c4576130219036906004016138a4565b6044356001600160401b0381116102c4576130409036906004016138a4565b61304f60055460043510613db7565b600435600052600c602052604060002060018060a01b03600282015416331490811561354a575b501561350557600435600052600c60205261309b600760406000200154421115613dfc565b6130a3613d61565b600435600052600c60205260036040600020019060ff825460a01c1660088110156109445780159081156134fa575b50156134bc57600435600052600d6020526040600020549160405160208101906131276054828651613108818760208b016139ed565b81013360601b6020820152426034820152036034810184520182613868565b51902091600435600052600d602052604060002060405191613148836137c4565b858352600435602084015233604084015286606084015260808301528360a08301524260c0830152600060e0830152600061010083015260006101208301528054600160401b8110156107bb576131a491600182018155613a35565b612b135781518155602082015160018201556002810160018060a01b036040840151166001600160601b0360a01b82541617905560608201518051906001600160401b0382116107bb5781906131fd600385015461391d565b601f8111613487575b50602090601f83116001146134155760009261340a575b50508160011b916000199060031b1c19161760038201555b60808201518051906001600160401b0382116107bb57613258600484015461391d565b601f81116133d5575b50602090601f831160011461336257600993929160009183613357575b50508160011b916000199060031b1c19161760048201555b60a0830151600582015560c083015160068201556132c960e08401511515600783019060ff801983541691151516179055565b610100830151600882015561012090920151910180546001600160a01b0319166001600160a01b0392909216919091179055805460ff60a01b1916600160a01b179055604080518181529361332091850190613a10565b9060208401527fc7bf49cba5d7aa2f4644c94c4685851ae6221695a1da7f01fe733b40ec19f7de339380600435930390a460018055005b01519050898061327e565b906004840160005260206000209160005b601f19851681106133bd575091839160019360099695601f198116106133a4575b505050811b016004820155613296565b015160001960f88460031b161c19169055898080613394565b91926020600181928685015181550194019201613373565b61340490600485016000526020600020601f850160051c8101916020861061088857601f0160051c0190613ce1565b88613261565b01519050888061321d565b9250600384016000526020600020906000935b601f198416851061346c576001945083601f19811610613453575b505050811b016003820155613235565b015160001960f88460031b161c19169055888080613443565b81810151835560209485019460019093019290910190613428565b6134b690600386016000526020600020601f850160051c8101916020861061088857601f0160051c0190613ce1565b89613206565b60405162461bcd60e51b815260206004820152601660248201527543616e6e6f74207375626d69742065766964656e636560501b6044820152606490fd5b6001915014846130d2565b60405162461bcd60e51b815260206004820152601760248201527f4e6f742064697370757465207061727469636970616e740000000000000000006044820152606490fd5b600301546001600160a01b03163314905083613076565b346102c45760003660031901126102c4576020600b54604051908152f35b346102c45760203660031901126102c4576004356016548110156102c4576135a8602091613775565b905460405160039290921b1c6001600160a01b03168152f35b346102c45760003660031901126102c4576017546135de81613ee6565b9060009060005b81811061362e5750506135f781613ee6565b9160005b82811061361057604051806110fa86826136ed565b8061361e6136299284613e86565b5161175f8287613e86565b6135fb565b61363781613728565b9054600391821b1c600052600c60209080825260ff83604060002001548160a091821c169260089384811015610944576004141594856136b3575b505050505061368b575b5061368690613ca3565b6135e5565b81936136ac9161369d61368694613728565b9054911b1c61175f8288613e86565b929061367c565b9091929394506136c287613728565b905490871b1c600052528360406000200154901c169081101561094457600614158680808080613672565b6020908160408183019282815285518094520193019160005b828110613714575050505090565b835185529381019392810192600101613706565b60175481101561375f5760176000527fc624b66cc0138b8fabc209247f72d758e1cf3343756d543badbf24212bed8c150190600090565b634e487b7160e01b600052603260045260246000fd5b60165481101561375f5760166000527fd833147d7dc355ba459fc788f669e58cfaf9dc25ddcd0702e87d69c7b51242890190600090565b805482101561375f5760005260206000200190600090565b61014081019081106001600160401b038211176107bb57604052565b60e081019081106001600160401b038211176107bb57604052565b60c081019081106001600160401b038211176107bb57604052565b61022081019081106001600160401b038211176107bb57604052565b606081019081106001600160401b038211176107bb57604052565b602081019081106001600160401b038211176107bb57604052565b90601f801991011681019081106001600160401b038211176107bb57604052565b6001600160401b0381116107bb57601f01601f191660200190565b81601f820112156102c4578035906138bb82613889565b926138c96040519485613868565b828452602083830101116102c457816000926020809301838601378301015290565b60409060031901126102c4576004359060243590565b805482101561375f576000526006602060002091020190600090565b90600182811c9216801561394d575b602083101461393757565b634e487b7160e01b600052602260045260246000fd5b91607f169161392c565b90600092918054916139688361391d565b9182825260019384811690816000146139ca575060011461398a575b50505050565b90919394506000526020928360002092846000945b8386106139b6575050505001019038808080613984565b80548587018301529401938590820161399f565b9294505050602093945060ff191683830152151560051b01019038808080613984565b60005b838110613a005750506000910152565b81810151838201526020016139f0565b90602091613a29815180928185528580860191016139ed565b601f01601f1916010190565b805482101561375f57600052600a602060002091020190600090565b600435906001600160a01b03821682036102c457565b602435906001600160a01b03821682036102c457565b9060048210156109445752565b9060088210156109445752565b9060058210156109445752565b6001600160401b0381116107bb5760051b60200190565b6000546001600160a01b03163303613acf57565b606460405162461bcd60e51b815260206004820152602060248201527f4f776e61626c653a2063616c6c6572206973206e6f7420746865206f776e65726044820152fd5b51906001600160a01b03821682036102c457565b60209182828203126102c45781516001600160401b03928382116102c457018082039261024084126102c45760408051956101a095868801888110858211176107bb57835284518852613b7b828601613b13565b82890152613b8a838601613b13565b83890152606085015160608901526080850151608089015260a085015160a089015260c085015160c089015260e085015160e0890152610100908186015160068110156102c45760c0928a015261011f1901126102c457815190613bed826137fb565b61012093848601518352610140928387015183820152610160958688015186830152610180998a890151606084015288015180151581036102c45760808301526101c088015160a08301528a01526101e08601519081116102c45785019580601f880112156102c457865190613c6e613c6583613889565b95519586613868565b8185528282890101116102c4576102209682613c8d93860191016139ed565b8601526102008201519085015201519082015290565b6000198114613cb25760010190565b634e487b7160e01b600052601160045260246000fd5b91908201809211613cb257565b60058210156109445752565b818110613cec575050565b60008155600101613ce1565b90815491600160401b8310156107bb5782610738916001613d1b950181556137ac565b565b60ff60025416613d2957565b60405162461bcd60e51b815260206004820152601060248201526f14185d5cd8589b194e881c185d5cd95960821b6044820152606490fd5b600260015414613d72576002600155565b60405162461bcd60e51b815260206004820152601f60248201527f5265656e7472616e637947756172643a207265656e7472616e742063616c6c006044820152606490fd5b15613dbe57565b60405162461bcd60e51b8152602060048201526016602482015275111a5cdc1d5d1948191bd95cc81b9bdd08195e1a5cdd60521b6044820152606490fd5b15613e0357565b60405162461bcd60e51b815260206004820152600f60248201526e111958591b1a5b99481c185cdcd959608a1b6044820152606490fd5b15613e4157565b60405162461bcd60e51b815260206004820152601960248201527f4e6f7420617574686f72697a65642061726269747261746f72000000000000006044820152606490fd5b805182101561375f5760209160051b010190565b15613ea157565b60405162461bcd60e51b815260206004820152601960248201527f41726269747261746f72206e6f7420617574686f72697a6564000000000000006044820152606490fd5b90613ef082613aa4565b613efd6040519182613868565b8281528092613f0e601f1991613aa4565b019060203691013756fea2646970667358221220c1be4ceeb62b04e219437fcec897189de5d3fc3022aa7b4a0da63a6366c7cc9364736f6c63430008130033",
  "linkReferences": {},
  "deployedLinkReferences": {}
}