{
  "_format": "hh-sol-artifact-1",
  "contractName": "ZKReceiptVerifier",
  "sourceName": "contracts/ZKReceiptVerifier.sol",
  "abi": [
    {
      "inputs": [],
      "stateMutability": "nonpayable",
      "type": "constructor"
    },
    {
      "anonymous": false,
      "inputs": [
        {
          "indexed": true,
          "internalType": "bytes32",
          "name": "receiptHash",
          "type": "bytes32"
        },
        {
          "indexed": false,
          "internalType": "string",
          "name": "reason",
          "type": "string"
        }
      ],
      "name": "ProofVerificationFailed",
      "type": "event"
    },
    {
      "anonymous": false,
      "inputs": [
        {
          "indexed": true,
          "internalType": "bytes32",
          "name": "receiptHash",
          "type": "bytes32"
        },
        {
          "indexed": false,
          "internalType": "uint256",
          "name": "settlementAmount",
          "type": "uint256"
        },
        {
          "indexed": false,
          "internalType": "uint256",
          "name": "timestamp",
          "type": "uint256"
        },
        {
          "indexed": true,
          "internalType": "address",
          "name": "verifier",
          "type": "address"
        }
      ],
      "name": "ProofVerified",
      "type": "event"
    },
    {
      "inputs": [],
      "name": "CIRCUIT_VERSION",
      "outputs": [
        {
          "internalType": "uint256",
          "name": "",
          "type": "uint256"
        }
      ],
      "stateMutability": "view",
      "type": "function"
    },
    {
      "inputs": [],
      "name": "MAX_TIMESTAMP_DRIFT",
      "outputs": [
        {
          "internalType": "uint256",
          "name": "",
          "type": "uint256"
        }
      ],
      "stateMutability": "view",
      "type": "function"
    },
    {
      "inputs": [],
      "name": "MIN_SETTLEMENT_AMOUNT",
      "outputs": [
        {
          "internalType": "uint256",
          "name": "",
          "type": "uint256"
        }
      ],
      "stateMutability": "view",
      "type": "function"
    },
    {
      "inputs": [
        {
          "internalType": "address",
          "name": "verifier",
          "type": "address"
        }
      ],
      "name": "addAuthorizedVerifier",
      "outputs": [],
      "stateMutability": "nonpayable",
      "type": "function"
    },
    {
      "inputs": [
        {
          "internalType": "address",
          "name": "",
          "type": "address"
        }
      ],
      "name": "authorizedVerifiers",
      "outputs": [
        {
          "internalType": "bool",
          "name": "",
          "type": "bool"
        }
      ],
      "stateMutability": "view",
      "type": "function"
    },
    {
      "inputs": [
        {
          "components": [
            {
              "internalType": "uint256[2]",
              "name": "a",
              "type": "uint256[2]"
            },
            {
              "internalType": "uint256[2][2]",
              "name": "b",
              "type": "uint256[2][2]"
            },
            {
              "internalType": "uint256[2]",
              "name": "c",
              "type": "uint256[2]"
            },
            {
              "internalType": "uint256[1]",
              "name": "publicSignals",
              "type": "uint256[1]"
            }
          ],
          "internalType": "struct ZKReceiptVerifier.BatchProof[]",
          "name": "proofs",
          "type": "tuple[]"
        }
      ],
      "name": "batchVerify",
      "outputs": [
        {
          "internalType": "bool[]",
          "name": "results",
          "type": "bool[]"
        }
      ],
      "stateMutability": "view",
      "type": "function"
    },
    {
      "inputs": [
        {
          "internalType": "bytes32",
          "name": "receiptHash",
          "type": "bytes32"
        }
      ],
      "name": "isReceiptVerified",
      "outputs": [
        {
          "internalType": "bool",
          "name": "verified",
          "type": "bool"
        }
      ],
      "stateMutability": "view",
      "type": "function"
    },
    {
      "inputs": [
        {
          "internalType": "address",
          "name": "verifier",
          "type": "address"
        }
      ],
      "name": "removeAuthorizedVerifier",
      "outputs": [],
      "stateMutability": "nonpayable",
      "type": "function"
    },
    {
      "inputs": [
        {
          "internalType": "address",
          "name": "_settlementContract",
          "type": "address"
        }
      ],
      "name": "setSettlementContract",
      "outputs": [],
      "stateMutability": "nonpayable",
      "type": "function"
    },
    {
      "inputs": [],
      "name": "settlementContract",
      "outputs": [
        {
          "internalType": "address",
          "name": "",
          "type": "address"
        }
      ],
      "stateMutability": "view",
      "type": "function"
    },
    {
      "inputs": [
        {
          "internalType": "bytes32",
          "name": "",
          "type": "bytes32"
        }
      ],
      "name": "verifiedReceipts",
      "outputs": [
        {
          "internalType": "bool",
          "name": "",
          "type": "bool"
        }
      ],
      "stateMutability": "view",
      "type": "function"
    },
    {
      "inputs": [
        {
          "internalType": "uint256[2]",
          "name": "a",
          "type": "uint256[2]"
        },
        {
          "internalType": "uint256[2][2]",
          "name": "b",
          "type": "uint256[2][2]"
        },
        {
          "internalType": "uint256[2]",
          "name": "c",
          "type": "uint256[2]"
        },
        {
          "internalType": "uint256[1]",
          "name": "publicSignals",
          "type": "uint256[1]"
        },
        {
          "internalType": "uint256",
          "name": "settlementAmount",
          "type": "uint256"
        }
      ],
      "name": "verifyAndRecord",
      "outputs": [
        {
          "internalType": "bool",
          "name": "success",
          "type": "bool"
        }
      ],
      "stateMutability": "nonpayable",
      "type": "function"
    },
    {
      "inputs": [
        {
          "internalType": "uint256",
          "name": "agreementId",
          "type": "uint256"
        },
        {
          "internalType": "uint256",
          "name": "responseTime",
          "type": "uint256"
        },
        {
          "internalType": "uint256",
          "name": "accuracy",
          "type": "uint256"
        },
        {
          "internalType": "uint256",
          "name": "availability",
          "type": "uint256"
        },
        {
          "internalType": "uint256",
          "name": "computePower",
          "type": "uint256"
        },
        {
          "internalType": "bytes",
          "name": "zkProof",
          "type": "bytes"
        }
      ],
      "name": "verifyPerformanceProof",
      "outputs": [
        {
          "internalType": "bool",
          "name": "valid",
          "type": "bool"
        }
      ],
      "stateMutability": "pure",
      "type": "function"
    },
    {
      "inputs": [
        {
          "internalType": "uint256[2]",
          "name": "_pA",
          "type": "uint256[2]"
        },
        {
          "internalType": "uint256[2][2]",
          "name": "_pB",
          "type": "uint256[2][2]"
        },
        {
          "internalType": "uint256[2]",
          "name": "_pC",
          "type": "uint256[2]"
        },
        {
          "internalType": "uint256[1]",
          "name": "_pubSignals",
          "type": "uint256[1]"
        }
      ],
      "name": "verifyProof",
      "outputs": [
        {
          "internalType": "bool",
          "name": "",
          "type": "bool"
        }
      ],
      "stateMutability": "view",
      "type": "function"
    },
    {
      "inputs": [
        {
          "internalType": "uint256[2]",
          "name": "a",
          "type": "uint256[2]"
        },
        {
          "internalType": "uint256[2][2]",
          "name": "b",
          "type": "uint256[2][2]"
        },
        {
          "internalType": "uint256[2]",
          "name": "c",
          "type": "uint256[2]"
        },
        {
          "internalType": "uint256[1]",
          "name": "publicSignals",
          "type": "uint256[1]"
        }
      ],
      "name": "verifyReceiptProof",
      "outputs": [
        {
          "internalType": "bool",
          "name": "valid",
          "type": "bool"
        }
      ],
      "stateMutability": "view",
      "type": "function"
    }
  ],
  "bytecode": "0x6080806040523461002f573360005260016020526040600020600160ff19825416179055610e9f90816100358239f35b600080fdfe6080604052600436101561001257600080fd5b60003560e01c80622f13e1146101015780633719fd05146100fc57806341644908146100f757806343753b4d146100f25780635c1158d7146100ed5780636a55926b146100c05780636e607fa7146100e857806381321efc146100e35780638a6f19ec146100de5780639a891716146100d9578063a65a2c3e146100d4578063b637469f146100cf578063d5dd91ea146100ca578063ea42418b146100c55763fc61a1b9146100c057600080fd5b610241565b610543565b6104bb565b610454565b6103cf565b61039b565b61037f565b610300565b610272565b61021b565b610204565b61018f565b610145565b3461011e57600036600319011261011e576020604051610e108152f35b600080fd5b602090600319011261011e576004356001600160a01b038116810361011e5790565b3461011e5761015336610123565b33600052600160205261016d60ff6040600020541661095d565b600280546001600160a01b0319166001600160a01b0392909216919091179055005b3461011e57600036600319011261011e57602060405160008152f35b9060c4916101041161011e57565b90610104916101241161011e57565b9061012060031983011261011e578160441161011e576004918060c41161011e5760449161010482811161011e5760c4926101241161011e5790565b3461011e57610212366101c8565b929190916105fd565b3461011e57602061023761022e366101c8565b92919091610942565b6040519015158152f35b3461011e57602036600319011261011e576004356000526000602052602060ff604060002054166040519015158152f35b3461011e5761028036610123565b600090338252600160205261029b60ff60408420541661095d565b6001600160a01b031681526001602081905260408220805460ff1916909117905580f35b634e487b7160e01b600052604160045260246000fd5b6040519190601f01601f1916820167ffffffffffffffff8111838210176102fb57604052565b6102bf565b3461011e5760c036600319011261011e5767ffffffffffffffff60a43581811161011e573660238201121561011e5780600401359182116102fb5761034e601f8301601f19166020016102d5565b91808352366024828401011161011e57600092816024602094018483013701015260405160018152602090f35b0390f35b3461011e57600036600319011261011e57602060405160018152f35b3461011e576001600160a01b036103b136610123565b166000526001602052602060ff604060002054166040519015158152f35b3461011e576103dd36610123565b60009033825260016020526103f860ff60408420541661095d565b6001600160a01b03168152600160205260408120805460ff1916905580f35b6020908160408183019282815285518094520193019160005b82811061043e575050505090565b8351151585529381019392810192600101610430565b3461011e57602036600319011261011e5767ffffffffffffffff60043581811161011e573660238201121561011e57806004013591821161011e5736602461012084028301011161011e5761037b9160246104af9201610df4565b60405191829182610417565b3461011e5761014036600319011261011e573660441161011e573660c41161011e5761037b61051d6104ec366101ab565b6104f5366101b9565b9033600052600160205260ff60406000205416801561052f575b6105189061095d565b6109a9565b60405190151581529081906020820190565b506002546001600160a01b0316331461050f565b3461011e57600036600319011261011e576002546040516001600160a01b039091168152602090f35b604080517f16e9d0c8e48f418e16d30aa7c4dff9c9182a452ea19d542ed21deca2eb9fd69c81527f0ca33629e4011f3ce7bb2966ea097b4c2c276a092b495a56afef964b940a259d60208201528082019384526107cf1991816060816007865a01fa156105f357600660809260409585519052602085015160608401525a01fa156105f357565b6000805260206000f35b9260405190610380820160405235907f30644e72e131a029b85045b68181585d2833e84879b9709143e1f593f00000018210156105f357606094608082019485937f10fd9fe9f9d06c7260361031fd0cfdb24a524688b1b60765d39aab04381b240b845260209788968794610698868801947f0f4a00a42f1c4bc7a7e5fce63a6943e72e831a0fb1bdfaf6d8e2d297ea8189e786528861056c565b80358852857f30644e72e131a029b85045b68181585d97816a916871ca8d3c208c16d87cfd4791013581030660a0870152803560c08701528481013560e0870152604081013561010087015201356101208501527f12b45017fc09d6bec10f9c63241c322ea20d0ba724eb1f4c7075fb09c530ed926101408501527f28c7a027e61ccad216198266dea8f0deaa2963fc9879e6957da3ed36cb4dea346101608501527f17c83079aaad7ca9a94a9d06936ff803c5563f6ac550e6bc5d77803303a844db6101808501527f0e535efba8994139543982498b9a913a25c177af7ca7f6fc44739f324fbd5c3d6101a08501527f2d2169ee67bd90ff0d75b6ef0b7788b85c22a8a41e34474bb9b840be7d21a2546101c08501527f1fd4a06926de99c88626c16748fc368f08c5038d492beec9a0b7b35f3d6ca5496101e08501528351610200850152516102208401527f198e9393920d483a7260bfb731fb5d25f1aa493335a9e71297e485b7aef312c26102408401527f1800deef121f1e76426a00665e5c4479674322d4f75edadd46debd5cd992f6ed6102608401527f090689d0585ff075ec9e99ad690c3395bc4b313370b38ef355acdadcd122975b6102808401527f12c85ea5db8c6deb4aab71808dcb408fe3d1e7690c43d37b4ce6cc0166fa7daa6102a084015280356102c084015201356102e08201527f21f299d211b1a1ebae7fe664c4d3cb536bab3db6e86a2eb0863e97429d3167c9610360610300927f094244ae6daa7a6a573927acd1fb34373ab33c2b7f43bac21a249abf1b3e0d78848201527f0f1f96667e8b89eb39e989c36bccf7ec69652a1776fe4e85f927d80fae72a82a6103208201527f2410b14432e9cca63f4a5094b0e33cefd6e2cd986c9dca7a3ac3ab565cd1aeca61034082015201528160086107cf195a01fa9051166000526000f35b9091929384351561095357506105fd565b9350505050600090565b1561096457565b60405162461bcd60e51b815260206004820152601f60248201527f5a4b5265636569707456657269666965723a20556e617574686f72697a6564006044820152606490fd5b6000913580835260209383855260409060ff8286205416610d5a578215610d085750908185925190610380820190527f30644e72e131a029b85045b68181585d2833e84879b9709143e1f593f0000001821015610d015782608082019485937f10fd9fe9f9d06c7260361031fd0cfdb24a524688b1b60765d39aab04381b240b8452610a5b838501917f0f4a00a42f1c4bc7a7e5fce63a6943e72e831a0fb1bdfaf6d8e2d297ea8189e783528561056c565b60043585527f30644e72e131a029b85045b68181585d97816a916871ca8d3c208c16d87cfd4760243581030660a085015260443560c085015260643560e085015260843561010085015260a4356101208501527f12b45017fc09d6bec10f9c63241c322ea20d0ba724eb1f4c7075fb09c530ed926101408501527f28c7a027e61ccad216198266dea8f0deaa2963fc9879e6957da3ed36cb4dea346101608501527f17c83079aaad7ca9a94a9d06936ff803c5563f6ac550e6bc5d77803303a844db6101808501527f0e535efba8994139543982498b9a913a25c177af7ca7f6fc44739f324fbd5c3d6101a08501527f2d2169ee67bd90ff0d75b6ef0b7788b85c22a8a41e34474bb9b840be7d21a2546101c08501527f1fd4a06926de99c88626c16748fc368f08c5038d492beec9a0b7b35f3d6ca5496101e08501528351610200850152516102208401527f198e9393920d483a7260bfb731fb5d25f1aa493335a9e71297e485b7aef312c26102408401527f1800deef121f1e76426a00665e5c4479674322d4f75edadd46debd5cd992f6ed6102608401527f090689d0585ff075ec9e99ad690c3395bc4b313370b38ef355acdadcd122975b6102808401527f12c85ea5db8c6deb4aab71808dcb408fe3d1e7690c43d37b4ce6cc0166fa7daa6102a084015280356102c084015201356102e08201527f21f299d211b1a1ebae7fe664c4d3cb536bab3db6e86a2eb0863e97429d3167c9610360610300927f094244ae6daa7a6a573927acd1fb34373ab33c2b7f43bac21a249abf1b3e0d78848201527f0f1f96667e8b89eb39e989c36bccf7ec69652a1776fe4e85f927d80fae72a82a6103208201527f2410b14432e9cca63f4a5094b0e33cefd6e2cd986c9dca7a3ac3ab565cd1aeca61034082015201528160086107cf195a01fa9051168152f35b8285808052f35b947f911feaa0ba40e59005c9f64e1cb704c9706eb41e553dc4419af540ce4094b80992935073092dcecc2d8d2c840e4cac6cad2e0e840d0c2e6d60631b8260146060945193808552840152820152a290565b947f911feaa0ba40e59005c9f64e1cb704c9706eb41e553dc4419af540ce4094b8099293507f5265636569707420616c726561647920766572696669656400000000000000008260186060945193808552840152820152a290565b67ffffffffffffffff81116102fb5760051b60200190565b9190811015610dde57610120020190565b634e487b7160e01b600052603260045260246000fd5b9190610e07610e0282610db5565b6102d5565b818152601f19610e1683610db5565b0136602083013792600091808310610e2d57505050565b610100610e62610e3e858486610dcd565b946040610e4c828688610dcd565b019360c0610e5b838389610dcd565b0195610dcd565b01926105fd56fea264697066735822122065b3aad696f937d45f0be15d176bff7df88431213f33d3645fa6983db6f0bdce64736f6c63430008130033",
  "linkReferences": {},
  "deployedLinkReferences": {}
}