{
  "_format": "hh-sol-artifact-1",
  "contractName": "StakingPoolFactory",
  "sourceName": "contracts/StakingPoolFactory.sol",
  "abi": [
    {
      "inputs": [
        {
          "internalType": "address",
          "name": "_stakingToken",
          "type": "address"
        }
      ],
      "stateMutability": "nonpayable",
      "type": "constructor"
    },
    {
      "inputs": [
        {
          "internalType": "uint256",
          "name": "requested",
          "type": "uint256"
        },
        {
          "internalType": "uint256",
          "name": "available",
          "type": "uint256"
        }
      ],
      "name": "InsufficientBalance",
      "type": "error"
    },
    {
      "inputs": [
        {
          "internalType": "uint256",
          "name": "apy",
          "type": "uint256"
        }
      ],
      "name": "InvalidAPY",
      "type": "error"
    },
    {
      "inputs": [
        {
          "internalType": "uint256",
          "name": "amount",
          "type": "uint256"
        }
      ],
      "name": "InvalidAmount",
      "type": "error"
    },
    {
      "inputs": [
        {
          "internalType": "uint256",
          "name": "period",
          "type": "uint256"
        }
      ],
      "name": "InvalidLockPeriod",
      "type": "error"
    },
    {
      "inputs": [
        {
          "internalType": "uint256",
          "name": "positionId",
          "type": "uint256"
        }
      ],
      "name": "LockPeriodNotEnded",
      "type": "error"
    },
    {
      "inputs": [
        {
          "internalType": "uint256",
          "name": "poolId",
          "type": "uint256"
        }
      ],
      "name": "MaxStakeReached",
      "type": "error"
    },
    {
      "inputs": [],
      "name": "NotAuthorized",
      "type": "error"
    },
    {
      "inputs": [
        {
          "internalType": "uint256",
          "name": "poolId",
          "type": "uint256"
        }
      ],
      "name": "PoolNotActive",
      "type": "error"
    },
    {
      "inputs": [
        {
          "internalType": "uint256",
          "name": "poolId",
          "type": "uint256"
        }
      ],
      "name": "PoolNotFound",
      "type": "error"
    },
    {
      "inputs": [
        {
          "internalType": "uint256",
          "name": "positionId",
          "type": "uint256"
        }
      ],
      "name": "PositionNotActive",
      "type": "error"
    },
    {
      "inputs": [
        {
          "internalType": "uint256",
          "name": "positionId",
          "type": "uint256"
        }
      ],
      "name": "PositionNotFound",
      "type": "error"
    },
    {
      "inputs": [],
      "name": "RegistryNotSet",
      "type": "error"
    },
    {
      "anonymous": false,
      "inputs": [
        {
          "indexed": true,
          "internalType": "address",
          "name": "previousOwner",
          "type": "address"
        },
        {
          "indexed": true,
          "internalType": "address",
          "name": "newOwner",
          "type": "address"
        }
      ],
      "name": "OwnershipTransferred",
      "type": "event"
    },
    {
      "anonymous": false,
      "inputs": [
        {
          "indexed": false,
          "internalType": "address",
          "name": "account",
          "type": "address"
        }
      ],
      "name": "Paused",
      "type": "event"
    },
    {
      "anonymous": false,
      "inputs": [
        {
          "indexed": true,
          "internalType": "uint256",
          "name": "poolId",
          "type": "uint256"
        },
        {
          "indexed": false,
          "internalType": "uint256",
          "name": "newAPY",
          "type": "uint256"
        }
      ],
      "name": "PerformanceUpdated",
      "type": "event"
    },
    {
      "anonymous": false,
      "inputs": [
        {
          "indexed": true,
          "internalType": "uint256",
          "name": "poolId",
          "type": "uint256"
        },
        {
          "indexed": false,
          "internalType": "string",
          "name": "poolName",
          "type": "string"
        },
        {
          "indexed": false,
          "internalType": "uint256",
          "name": "baseAPY",
          "type": "uint256"
        },
        {
          "indexed": false,
          "internalType": "uint256",
          "name": "lockPeriod",
          "type": "uint256"
        }
      ],
      "name": "PoolCreated",
      "type": "event"
    },
    {
      "anonymous": false,
      "inputs": [
        {
          "indexed": true,
          "internalType": "uint256",
          "name": "poolId",
          "type": "uint256"
        }
      ],
      "name": "PoolDeactivated",
      "type": "event"
    },
    {
      "anonymous": false,
      "inputs": [
        {
          "indexed": true,
          "internalType": "uint256",
          "name": "poolId",
          "type": "uint256"
        },
        {
          "indexed": false,
          "internalType": "uint256",
          "name": "newAPY",
          "type": "uint256"
        }
      ],
      "name": "PoolUpdated",
      "type": "event"
    },
    {
      "anonymous": false,
      "inputs": [
        {
          "indexed": true,
          "internalType": "uint256",
          "name": "poolId",
          "type": "uint256"
        },
        {
          "indexed": false,
          "internalType": "uint256",
          "name": "totalAmount",
          "type": "uint256"
        }
      ],
      "name": "RewardsDistributed",
      "type": "event"
    },
    {
      "anonymous": false,
      "inputs": [
        {
          "indexed": true,
          "internalType": "uint256",
          "name": "positionId",
          "type": "uint256"
        },
        {
          "indexed": true,
          "internalType": "uint256",
          "name": "poolId",
          "type": "uint256"
        },
        {
          "indexed": true,
          "internalType": "address",
          "name": "staker",
          "type": "address"
        },
        {
          "indexed": false,
          "internalType": "uint256",
          "name": "amount",
          "type": "uint256"
        }
      ],
      "name": "Staked",
      "type": "event"
    },
    {
      "anonymous": false,
      "inputs": [
        {
          "indexed": false,
          "internalType": "address",
          "name": "account",
          "type": "address"
        }
      ],
      "name": "Unpaused",
      "type": "event"
    },
    {
      "anonymous": false,
      "inputs": [
        {
          "indexed": true,
          "internalType": "uint256",
          "name": "positionId",
          "type": "uint256"
        },
        {
          "indexed": true,
          "internalType": "address",
          "name": "staker",
          "type": "address"
        },
        {
          "indexed": false,
          "internalType": "uint256",
          "name": "amount",
          "type": "uint256"
        },
        {
          "indexed": false,
          "internalType": "uint256",
          "name": "rewards",
          "type": "uint256"
        }
      ],
      "name": "Unstaked",
      "type": "event"
    },
    {
      "inputs": [],
      "name": "BASIS_POINTS",
      "outputs": [
        {
          "internalType": "uint256",
          "name": "",
          "type": "uint256"
        }
      ],
      "stateMutability": "view",
      "type": "function"
    },
    {
      "inputs": [],
      "name": "DEFAULT_LOCK_PERIOD",
      "outputs": [
        {
          "internalType": "uint256",
          "name": "",
          "type": "uint256"
        }
      ],
      "stateMutability": "view",
      "type": "function"
    },
    {
      "inputs": [],
      "name": "DEFAULT_MAX_STAKE",
      "outputs": [
        {
          "internalType": "uint256",
          "name": "",
          "type": "uint256"
        }
      ],
      "stateMutability": "view",
      "type": "function"
    },
    {
      "inputs": [],
      "name": "DEFAULT_MIN_STAKE",
      "outputs": [
        {
          "internalType": "uint256",
          "name": "",
          "type": "uint256"
        }
      ],
      "stateMutability": "view",
      "type": "function"
    },
    {
      "inputs": [],
      "name": "MAX_BASE_APY",
      "outputs": [
        {
          "internalType": "uint256",
          "name": "",
          "type": "uint256"
        }
      ],
      "stateMutability": "view",
      "type": "function"
    },
    {
      "inputs": [],
      "name": "MAX_LOCK_PERIOD",
      "outputs": [
        {
          "internalType": "uint256",
          "name": "",
          "type": "uint256"
        }
      ],
      "stateMutability": "view",
      "type": "function"
    },
    {
      "inputs": [],
      "name": "MIN_BASE_APY",
      "outputs": [
        {
          "internalType": "uint256",
          "name": "",
          "type": "uint256"
        }
      ],
      "stateMutability": "view",
      "type": "function"
    },
    {
      "inputs": [],
      "name": "PERFORMANCE_UPDATE_INTERVAL",
      "outputs": [
        {
          "internalType": "uint256",
          "name": "",
          "type": "uint256"
        }
      ],
      "stateMutability": "view",
      "type": "function"
    },
    {
      "inputs": [
        {
          "internalType": "uint256",
          "name": "",
          "type": "uint256"
        }
      ],
      "name": "activePoolIds",
      "outputs": [
        {
          "internalType": "uint256",
          "name": "",
          "type": "uint256"
        }
      ],
      "stateMutability": "view",
      "type": "function"
    },
    {
      "inputs": [
        {
          "internalType": "string",
          "name": "poolName",
          "type": "string"
        },
        {
          "internalType": "uint256",
          "name": "baseAPY",
          "type": "uint256"
        },
        {
          "internalType": "uint256",
          "name": "lockPeriod",
          "type": "uint256"
        }
      ],
      "name": "createPool",
      "outputs": [
        {
          "internalType": "uint256",
          "name": "",
          "type": "uint256"
        }
      ],
      "stateMutability": "nonpayable",
      "type": "function"
    },
    {
      "inputs": [
        {
          "internalType": "string",
          "name": "poolName",
          "type": "string"
        },
        {
          "internalType": "uint256",
          "name": "baseAPY",
          "type": "uint256"
        },
        {
          "internalType": "uint256",
          "name": "lockPeriod",
          "type": "uint256"
        },
        {
          "internalType": "uint256",
          "name": "minStakeAmount",
          "type": "uint256"
        },
        {
          "internalType": "uint256",
          "name": "maxStakeAmount",
          "type": "uint256"
        },
        {
          "internalType": "string",
          "name": "description",
          "type": "string"
        }
      ],
      "name": "createPoolWithParameters",
      "outputs": [],
      "stateMutability": "nonpayable",
      "type": "function"
    },
    {
      "inputs": [
        {
          "internalType": "uint256",
          "name": "poolId",
          "type": "uint256"
        }
      ],
      "name": "deactivatePool",
      "outputs": [],
      "stateMutability": "nonpayable",
      "type": "function"
    },
    {
      "inputs": [
        {
          "internalType": "address",
          "name": "token",
          "type": "address"
        },
        {
          "internalType": "uint256",
          "name": "amount",
          "type": "uint256"
        }
      ],
      "name": "emergencyWithdraw",
      "outputs": [],
      "stateMutability": "nonpayable",
      "type": "function"
    },
    {
      "inputs": [],
      "name": "getActivePoolIds",
      "outputs": [
        {
          "internalType": "uint256[]",
          "name": "",
          "type": "uint256[]"
        }
      ],
      "stateMutability": "view",
      "type": "function"
    },
    {
      "inputs": [],
      "name": "getFactoryStats",
      "outputs": [
        {
          "internalType": "uint256",
          "name": "totalPools",
          "type": "uint256"
        },
        {
          "internalType": "uint256",
          "name": "activePools",
          "type": "uint256"
        },
        {
          "internalType": "uint256",
          "name": "totalStaked",
          "type": "uint256"
        },
        {
          "internalType": "uint256",
          "name": "totalStakers",
          "type": "uint256"
        },
        {
          "internalType": "uint256",
          "name": "totalPositions",
          "type": "uint256"
        }
      ],
      "stateMutability": "view",
      "type": "function"
    },
    {
      "inputs": [
        {
          "internalType": "string",
          "name": "poolName",
          "type": "string"
        }
      ],
      "name": "getPoolByName",
      "outputs": [
        {
          "internalType": "uint256",
          "name": "",
          "type": "uint256"
        }
      ],
      "stateMutability": "view",
      "type": "function"
    },
    {
      "inputs": [
        {
          "internalType": "uint256",
          "name": "poolId",
          "type": "uint256"
        }
      ],
      "name": "getPoolDetails",
      "outputs": [
        {
          "internalType": "string",
          "name": "poolName",
          "type": "string"
        },
        {
          "internalType": "uint256",
          "name": "baseAPY",
          "type": "uint256"
        },
        {
          "internalType": "uint256",
          "name": "currentAPY",
          "type": "uint256"
        },
        {
          "internalType": "uint256",
          "name": "totalStaked",
          "type": "uint256"
        },
        {
          "internalType": "uint256",
          "name": "lockPeriod",
          "type": "uint256"
        },
        {
          "internalType": "uint256",
          "name": "totalStakers",
          "type": "uint256"
        },
        {
          "internalType": "bool",
          "name": "isActive",
          "type": "bool"
        },
        {
          "internalType": "string",
          "name": "description",
          "type": "string"
        }
      ],
      "stateMutability": "view",
      "type": "function"
    },
    {
      "inputs": [
        {
          "internalType": "uint256",
          "name": "poolId",
          "type": "uint256"
        }
      ],
      "name": "getPoolPerformance",
      "outputs": [
        {
          "internalType": "uint256",
          "name": "",
          "type": "uint256"
        }
      ],
      "stateMutability": "view",
      "type": "function"
    },
    {
      "inputs": [
        {
          "internalType": "uint256",
          "name": "poolId",
          "type": "uint256"
        }
      ],
      "name": "getPoolStakers",
      "outputs": [
        {
          "internalType": "uint256[]",
          "name": "",
          "type": "uint256[]"
        }
      ],
      "stateMutability": "view",
      "type": "function"
    },
    {
      "inputs": [
        {
          "internalType": "uint256",
          "name": "positionId",
          "type": "uint256"
        }
      ],
      "name": "getPositionDetails",
      "outputs": [
        {
          "internalType": "uint256",
          "name": "poolId",
          "type": "uint256"
        },
        {
          "internalType": "address",
          "name": "staker",
          "type": "address"
        },
        {
          "internalType": "uint256",
          "name": "amount",
          "type": "uint256"
        },
        {
          "internalType": "uint256",
          "name": "lockStart",
          "type": "uint256"
        },
        {
          "internalType": "uint256",
          "name": "lockEnd",
          "type": "uint256"
        },
        {
          "internalType": "uint256",
          "name": "apyAtStake",
          "type": "uint256"
        },
        {
          "internalType": "uint256",
          "name": "accumulatedRewards",
          "type": "uint256"
        },
        {
          "internalType": "bool",
          "name": "isActive",
          "type": "bool"
        },
        {
          "internalType": "bool",
          "name": "isWithdrawn",
          "type": "bool"
        }
      ],
      "stateMutability": "view",
      "type": "function"
    },
    {
      "inputs": [
        {
          "internalType": "address",
          "name": "user",
          "type": "address"
        }
      ],
      "name": "getUserPositions",
      "outputs": [
        {
          "internalType": "uint256[]",
          "name": "",
          "type": "uint256[]"
        }
      ],
      "stateMutability": "view",
      "type": "function"
    },
    {
      "inputs": [],
      "name": "getVersion",
      "outputs": [
        {
          "internalType": "uint256",
          "name": "",
          "type": "uint256"
        }
      ],
      "stateMutability": "view",
      "type": "function"
    },
    {
      "inputs": [
        {
          "internalType": "address",
          "name": "_registry",
          "type": "address"
        }
      ],
      "name": "initialize",
      "outputs": [],
      "stateMutability": "nonpayable",
      "type": "function"
    },
    {
      "inputs": [],
      "name": "owner",
      "outputs": [
        {
          "internalType": "address",
          "name": "",
          "type": "address"
        }
      ],
      "stateMutability": "view",
      "type": "function"
    },
    {
      "inputs": [],
      "name": "pause",
      "outputs": [],
      "stateMutability": "nonpayable",
      "type": "function"
    },
    {
      "inputs": [],
      "name": "paused",
      "outputs": [
        {
          "internalType": "bool",
          "name": "",
          "type": "bool"
        }
      ],
      "stateMutability": "view",
      "type": "function"
    },
    {
      "inputs": [],
      "name": "performanceAggregator",
      "outputs": [
        {
          "internalType": "contract IPerformanceAggregator",
          "name": "",
          "type": "address"
        }
      ],
      "stateMutability": "view",
      "type": "function"
    },
    {
      "inputs": [],
      "name": "poolCounter",
      "outputs": [
        {
          "internalType": "uint256",
          "name": "",
          "type": "uint256"
        }
      ],
      "stateMutability": "view",
      "type": "function"
    },
    {
      "inputs": [
        {
          "internalType": "string",
          "name": "",
          "type": "string"
        }
      ],
      "name": "poolNameToId",
      "outputs": [
        {
          "internalType": "uint256",
          "name": "",
          "type": "uint256"
        }
      ],
      "stateMutability": "view",
      "type": "function"
    },
    {
      "inputs": [
        {
          "internalType": "uint256",
          "name": "",
          "type": "uint256"
        }
      ],
      "name": "poolPerformance",
      "outputs": [
        {
          "internalType": "uint256",
          "name": "totalRewardsGenerated",
          "type": "uint256"
        },
        {
          "internalType": "uint256",
          "name": "averageStakingDuration",
          "type": "uint256"
        },
        {
          "internalType": "uint256",
          "name": "retentionRate",
          "type": "uint256"
        },
        {
          "internalType": "uint256",
          "name": "utilizationRate",
          "type": "uint256"
        },
        {
          "internalType": "uint256",
          "name": "distributedRewards",
          "type": "uint256"
        },
        {
          "internalType": "uint256",
          "name": "lastUpdated",
          "type": "uint256"
        }
      ],
      "stateMutability": "view",
      "type": "function"
    },
    {
      "inputs": [
        {
          "internalType": "uint256",
          "name": "",
          "type": "uint256"
        },
        {
          "internalType": "uint256",
          "name": "",
          "type": "uint256"
        }
      ],
      "name": "poolStakers",
      "outputs": [
        {
          "internalType": "uint256",
          "name": "",
          "type": "uint256"
        }
      ],
      "stateMutability": "view",
      "type": "function"
    },
    {
      "inputs": [],
      "name": "positionCounter",
      "outputs": [
        {
          "internalType": "uint256",
          "name": "",
          "type": "uint256"
        }
      ],
      "stateMutability": "view",
      "type": "function"
    },
    {
      "inputs": [],
      "name": "registry",
      "outputs": [
        {
          "internalType": "contract ContractRegistry",
          "name": "",
          "type": "address"
        }
      ],
      "stateMutability": "view",
      "type": "function"
    },
    {
      "inputs": [],
      "name": "renounceOwnership",
      "outputs": [],
      "stateMutability": "nonpayable",
      "type": "function"
    },
    {
      "inputs": [],
      "name": "rewardDistributor",
      "outputs": [
        {
          "internalType": "contract IRewardDistributor",
          "name": "",
          "type": "address"
        }
      ],
      "stateMutability": "view",
      "type": "function"
    },
    {
      "inputs": [
        {
          "internalType": "uint256",
          "name": "poolId",
          "type": "uint256"
        },
        {
          "internalType": "uint256",
          "name": "amount",
          "type": "uint256"
        }
      ],
      "name": "stakeInPool",
      "outputs": [],
      "stateMutability": "nonpayable",
      "type": "function"
    },
    {
      "inputs": [
        {
          "internalType": "address",
          "name": "",
          "type": "address"
        },
        {
          "internalType": "uint256",
          "name": "",
          "type": "uint256"
        }
      ],
      "name": "stakerPositions",
      "outputs": [
        {
          "internalType": "uint256",
          "name": "",
          "type": "uint256"
        }
      ],
      "stateMutability": "view",
      "type": "function"
    },
    {
      "inputs": [
        {
          "internalType": "uint256",
          "name": "",
          "type": "uint256"
        }
      ],
      "name": "stakingPools",
      "outputs": [
        {
          "internalType": "uint256",
          "name": "poolId",
          "type": "uint256"
        },
        {
          "internalType": "string",
          "name": "poolName",
          "type": "string"
        },
        {
          "internalType": "uint256",
          "name": "baseAPY",
          "type": "uint256"
        },
        {
          "internalType": "uint256",
          "name": "currentAPY",
          "type": "uint256"
        },
        {
          "internalType": "uint256",
          "name": "totalStaked",
          "type": "uint256"
        },
        {
          "internalType": "uint256",
          "name": "lockPeriod",
          "type": "uint256"
        },
        {
          "internalType": "uint256",
          "name": "minStakeAmount",
          "type": "uint256"
        },
        {
          "internalType": "uint256",
          "name": "maxStakeAmount",
          "type": "uint256"
        },
        {
          "internalType": "uint256",
          "name": "totalStakers",
          "type": "uint256"
        },
        {
          "internalType": "uint256",
          "name": "createdRewards",
          "type": "uint256"
        },
        {
          "internalType": "uint256",
          "name": "distributedRewards",
          "type": "uint256"
        },
        {
          "internalType": "bool",
          "name": "isActive",
          "type": "bool"
        },
        {
          "internalType": "uint256",
          "name": "createdAt",
          "type": "uint256"
        },
        {
          "internalType": "address",
          "name": "creator",
          "type": "address"
        },
        {
          "internalType": "string",
          "name": "description",
          "type": "string"
        }
      ],
      "stateMutability": "view",
      "type": "function"
    },
    {
      "inputs": [
        {
          "internalType": "uint256",
          "name": "",
          "type": "uint256"
        }
      ],
      "name": "stakingPositions",
      "outputs": [
        {
          "internalType": "uint256",
          "name": "positionId",
          "type": "uint256"
        },
        {
          "internalType": "uint256",
          "name": "poolId",
          "type": "uint256"
        },
        {
          "internalType": "address",
          "name": "staker",
          "type": "address"
        },
        {
          "internalType": "uint256",
          "name": "amount",
          "type": "uint256"
        },
        {
          "internalType": "uint256",
          "name": "lockStart",
          "type": "uint256"
        },
        {
          "internalType": "uint256",
          "name": "lockEnd",
          "type": "uint256"
        },
        {
          "internalType": "uint256",
          "name": "apyAtStake",
          "type": "uint256"
        },
        {
          "internalType": "uint256",
          "name": "accumulatedRewards",
          "type": "uint256"
        },
        {
          "internalType": "uint256",
          "name": "lastRewardTime",
          "type": "uint256"
        },
        {
          "internalType": "bool",
          "name": "isActive",
          "type": "bool"
        },
        {
          "internalType": "bool",
          "name": "isWithdrawn",
          "type": "bool"
        }
      ],
      "stateMutability": "view",
      "type": "function"
    },
    {
      "inputs": [],
      "name": "stakingToken",
      "outputs": [
        {
          "internalType": "contract IERC20",
          "name": "",
          "type": "address"
        }
      ],
      "stateMutability": "view",
      "type": "function"
    },
    {
      "inputs": [
        {
          "internalType": "address",
          "name": "newOwner",
          "type": "address"
        }
      ],
      "name": "transferOwnership",
      "outputs": [],
      "stateMutability": "nonpayable",
      "type": "function"
    },
    {
      "inputs": [],
      "name": "unpause",
      "outputs": [],
      "stateMutability": "nonpayable",
      "type": "function"
    },
    {
      "inputs": [
        {
          "internalType": "uint256",
          "name": "poolId",
          "type": "uint256"
        },
        {
          "internalType": "uint256",
          "name": "amount",
          "type": "uint256"
        }
      ],
      "name": "unstakeFromPool",
      "outputs": [],
      "stateMutability": "nonpayable",
      "type": "function"
    },
    {
      "inputs": [
        {
          "internalType": "uint256",
          "name": "poolId",
          "type": "uint256"
        },
        {
          "internalType": "uint256",
          "name": "newAPY",
          "type": "uint256"
        }
      ],
      "name": "updatePoolAPY",
      "outputs": [],
      "stateMutability": "nonpayable",
      "type": "function"
    },
    {
      "inputs": [
        {
          "internalType": "address",
          "name": "newImplementation",
          "type": "address"
        }
      ],
      "name": "upgrade",
      "outputs": [],
      "stateMutability": "nonpayable",
      "type": "function"
    },
    {
      "inputs": [],
      "name": "version",
      "outputs": [
        {
          "internalType": "uint256",
          "name": "",
          "type": "uint256"
        }
      ],
      "stateMutability": "view",
      "type": "function"
    }
  ],
  "bytecode": "0x608034620000c057601f6200356838819003918201601f19168301916001600160401b03831184841017620000c557808492602094604052833981010312620000c057516001600160a01b039081811690819003620000c05760005460018060a01b0319903382821617600055604051933391167f8be0079c531659141344cd1fd0a4f28419497f9722a3daafe3b4186f6b6457e0600080a36001805560ff19600254166002556001600355600454161760045561348c9081620000dc8239f35b600080fd5b634e487b7160e01b600052604160045260246000fdfe6080604052600436101561001257600080fd5b6000803560e01c80630900f01014612ab65780630d8e6e2c146127bb5780631f913f12146129b65780631f9c324e1461298b5780632a6bc2dd1461291857806331a73f9b1461286e5780633f4ba83a146127d95780634b29c02d1461227257806354fd4d50146127bb5780635aad6cf0146126bb5780635c975abb146126985780635fc2c07914612633578063611af2261461260157806363d5ab8d146125e35780636458d21c14612399578063704e84c91461237b578063715018a61461232157806372f702f3146122f85780637b103999146122cf5780637e680266146122725780637f6ced7d1461224d5780638456cb59146121f25780638da5cb5b146121cb57806395ccea67146121705780639abd9b0514611fdc5780639b6c528314611a5e5780639e3079cb14611a405780639ecceb5e146119a6578063acc2166a1461197d578063b4324d1b14611961578063b4b2b8ac14611377578063b7fe351214610fed578063b8764c3914610ea5578063c045c63514610e43578063c4d66de814610c00578063c922644514610aad578063cad67fbb14610488578063d53ef13014610432578063dd1699de14610409578063dff3ece9146103e5578063e1f1c4a7146103c8578063f2fde38b14610302578063f39c0119146102e4578063f5540162146102c5578063f700d6f9146102a85763fe96e4ff1461021757600080fd5b346102a557806003193601126102a557604051809182601054808452602080940190601084527f1b6847dc741a1b0cd08d278845f9d819d87b734759afb55fe2de5cb82a9ae672935b8582821061028f5750505061027792500383612c30565b61028b604051928284938452830190612b7b565b0390f35b8554845260019586019588955093019201610260565b80fd5b50346102a557806003193601126102a55760206040516113888152f35b50346102a557806003193601126102a55760206040516301e133808152f35b50346102a557806003193601126102a557602060405162278d008152f35b50346102a55760203660031901126102a55761031c612aea565b610324612ddb565b6001600160a01b0390811690811561037457600054826001600160601b0360a01b821617600055167f8be0079c531659141344cd1fd0a4f28419497f9722a3daafe3b4186f6b6457e0600080a380f35b60405162461bcd60e51b815260206004820152602660248201527f4f776e61626c653a206e6577206f776e657220697320746865207a65726f206160448201526564647265737360d01b6064820152608490fd5b50346102a557806003193601126102a55760206040516127108152f35b50346102a557806003193601126102a557602060405168056bc75e2d631000008152f35b50346102a557806003193601126102a5576006546040516001600160a01b039091168152602090f35b50346102a55760403660031901126102a55761044c612aea565b6001600160a01b03168152600b60205260408120805460243592908310156102a557602061047a8484612b63565b90546040519160031b1c8152f35b50346102a55760c03660031901126102a5576004356001600160401b038111610aa9576104b9903690600401612c6c565b60a4356001600160401b038111610aa5576104d8903690600401612c6c565b9060018060a01b0383541633141580610a90575b610a7e576104f8612e77565b6064602435108015610a71575b610a585762278d00604435108015610a49575b610a2f57610524612fad565b61053081511515612ebb565b61055960405160208184516105488183858901612cb3565b8101600d8152030190205415612ef9565b606435151580610a21575b156109e457610574600e54612e52565b9182600e556040519061058682612baf565b8382528260208301526024356040830152602435606083015284608083015260443560a083015260643560c083015260843560e0830152846101008301528461012083015284610140830152600161016083015242610180830152336101a08301526101c0820152828452600860205260408420908051825560208101518051906001600160401b0382116109d0576106226001850154612cd6565b601f811161098b575b50602090601f831160011461091a576101c093929188918361090f575b50508160011b916000199060031b1c19161760018401555b60408101516002840155606081015160038401556080810151600484015560a0810151600584015560c0810151600684015560e0810151600784015561010081015160088401556101208101516009840155610140810151600a8401556106dd6101608201511515600b85019060ff801983541691151516179055565b610180810151600c840155600d830160018060a01b036101a0830151166001600160601b0360a01b82541617905501518051906001600160401b0382116108fb5761072b600e840154612cd6565b601f81116108b2575b50602090601f83116001146108315782600080516020613437833981519152959361081c9593600e938a92610826575b50508160011b916000199060031b1c1916179101555b8360405160208184516107908183858901612cb3565b8101600d815203019020556107a484612f45565b6040516107b081612bcb565b8581526005602082018781526040830161271081526060840189815260808501918a835260a08601934285528a8c52600c60205260408c209651875551600187015551600286015551600385015551600484015551910155604051918291604435906024359084612f8b565b0390a26001805580f35b015190503880610764565b90600e840187526020872091875b601f198516811061089a57508361081c9593600e936001936000805160206134378339815191529997601f19811610610881575b505050811b0191015561077a565b015160001960f88460031b161c19169055388080610873565b9192602060018192868501518155019401920161083f565b600e8401875260208720601f840160051c810191602085106108f1575b601f0160051c01905b8181106108e55750610734565b600081556001016108d8565b90915081906108cf565b634e487b7160e01b86526041600452602486fd5b015190503880610648565b906001850188526020882091885b601f198516811061097357509183916001936101c09695601f1981161061095a575b505050811b016001840155610660565b015160001960f88460031b161c1916905538808061094a565b91926020600181928685015181550194019201610928565b60018501885260208820601f840160051c8101602085106109c9575b601f830160051c820181106109bd57505061062b565b600081556001016109a7565b50806109a7565b634e487b7160e01b87526041600452602487fd5b60405162461bcd60e51b8152602060048201526015602482015274496e76616c6964207374616b6520616d6f756e747360581b6044820152606490fd5b506084356064351115610564565b604051633063b63560e01b81526044356004820152602490fd5b506301e1338060443511610518565b604051633f0b7e7f60e11b815260248035600483015290fd5b5061138860243511610505565b60405163ea8e4eb560e01b8152600490fd5b506007546001600160a01b03163314156104ec565b8280fd5b5080fd5b50346102a557806003193601126102a557601054819081805b828110610af6575060a09350600e5492600f54926040519485526020850152604084015260608301526080820152f35b90610bf5610bfb91610bed604096610b0d86612b16565b9054600391821b1c8a52896101c0610be3600e60089c8d946020958652209c8d9560405195610b3b87612baf565b87548752610b4b60018901612d10565b90870152600287015460408701528601546060860152600486015460808601908152600587015460a0870152600687015460c087015260079096015460e08601528d0154610100850190815260098e0154610120860152600a8e0154610140860152600b8e015460ff161515610160860152600c8e0154610180860152600d8e01546001600160a01b03166101a08601529c01612d10565b9101525190613003565b955190613003565b91612e52565b610ac6565b50346102a557602080600319360112610aa957610c1b612aea565b600554916001600160a01b0391828416610e085782859116936001600160601b0360a01b9480868316176005558260405185810190715374616b696e67506f6f6c466163746f727960701b825260128152610c7581612c15565b51902092161790813b15610aa557829160448392604051948593849263322e37d760e11b845260048401523060248401525af18015610dfd57610de5575b5050816005541660405182810190742832b93337b936b0b731b2a0b3b3b932b3b0ba37b960591b825260158152610ce981612c15565b51902060405190631c2d8fb360e31b9081835260048301528382602481865afa918215610dda57849286918991610dbd575b5016866006541617600655602460405183810190702932bbb0b9322234b9ba3934b13aba37b960791b825260118152610d5381612c15565b519020916040519485938492835260048301525afa918215610db2578592610d85575b50501690600754161760075580f35b610da49250803d10610dab575b610d9c8183612c30565b810190612e33565b3880610d76565b503d610d92565b6040513d87823e3d90fd5b610dd49150843d8611610dab57610d9c8183612c30565b38610d1b565b6040513d89823e3d90fd5b610dee90612be6565b610df9578338610cb3565b8380fd5b6040513d84823e3d90fd5b60405162461bcd60e51b8152600481018390526013602482015272105b1c9958591e481a5b9a5d1a585b1a5e9959606a1b6044820152606490fd5b50346102a55760203660031901126102a557604060c0916004358152600c6020522080549060018101549060028101546003820154906005600484015493015493604051958652602086015260408501526060840152608083015260a0820152f35b50346102a55760203660031901126102a5576040906004358152600860205220604051610ed181612baf565b8154815261028b610ee460018401612d10565b92602083019384526101c0600282015494604085019586526003830154926060860193845260048101549160808701928352600582015460a08801908152600683015460c0890152600783015460e0890152600883015491610100988981019384526009850154610120820152600a850154610140820152610f98600e60ff600b880154169661016084019715158852600c81015461018085015260018060a01b03600d820154166101a085015201612d10565b968791015251985195519351905191519251151593610fc16040519a8a8c9b8c528b0190612db6565b9660208a015260408901526060880152608087015260a086015260c085015283820360e0850152612db6565b50346102a557610ffc36612b00565b90611005612e77565b8083526008602081815260408520541561135e5782855281815260ff600b604087200154161561134657831561132d5761103d612fad565b8285528181526040852060068101548510611314576004810192611062868554613003565b6007830154106112fb5760018060a01b03916024848460045416604051928380926370a0823160e01b82523360048301525afa9081156112f05789916112be575b508088116112a05750600f546110b890612e52565b9485600f558486898b8a600587015442906110d291613003565b600388015490604051946110e586612bf9565b868652878601938452604086019033825260608701908152608087019142835260a0880193845260c0880194855260e08801958787526101008901974289526101208a019b60018d526101408b019b828d5282526009905260409020985189555160018901558d600289019151166001600160601b0360a01b8254161790555160038701555160048601555160058501555160068401555160078301555186820155600901915115156111a490839060ff801983541691151516179055565b511515815490851b61ff00169061ff001916179055878154906111c691613003565b90550180546111d490612e52565b9055838652600a82528260408720906111ec91612f68565b338652600b825282604087209061120291612f68565b61120b846132e4565b60045416906040516323b872dd60e01b828201523360248201523060448201528560648201526064815260a08101908082106001600160401b0383111761128a577fc49cabe9d2bbfea8d9f51b0961c30a1081ff6fd3c4d6a9182cd65de8cea2df009361127a92604052613010565b6040519485523394a46001805580f35b634e487b7160e01b600052604160045260246000fd5b876044916040519163cf47918160e01b835260048301526024820152fd5b90508481813d83116112e9575b6112d58183612c30565b810103126112e45751386110a3565b600080fd5b503d6112cb565b6040513d8b823e3d90fd5b604051638e402b2160e01b815260048101869052602490fd5b604051633728b83d60e01b815260048101869052602490fd5b604051633728b83d60e01b815260048101859052602490fd5b6040516268d63360e21b815260048101849052602490fd5b6040516302ad881560e41b815260048101849052602490fd5b50346102a55761138636612b00565b61138e612e77565b818352600860205260408320541561194857818352600860205260ff80600b604086200154161561134657811561192f576113c7612fad565b338452600b60205260408420926040518085602082975493848152019088526020882092885b81811061191657505061140292500385612c30565b849384805b825181101561190a5761141a81846131c4565b51885260098060205260019086868360408d2001541491826118e6575b826118c0575b5050611452575061144d90612e52565b611407565b9596509190506114639293506131c4565b51915b156118a757818452600960205260408420906005820154421061188e5760038201549182851161131457611499816131d8565b610100908664496cebb8006114db6114b48585015142613263565b6114c2608086015142613263565b506114d6606086015160c0870151906132b1565b6132b1565b600654919004928a916001600160a01b03169081611770575b50506115039061151a93613003565b9560078501611513888254613003565b9055613263565b8060038401551561175b575b5081865260086020526003604087209160048301611545888254613263565b905501541561172e575b50611559906132e4565b60045461157290849033906001600160a01b0316613270565b8015158061171a575b6115b8575b60405192835260208301527fffdaf13b1d96bfc2213355f353f84c19493e0681eb0df26f83d862acd266750a60403393a36001805580f35b6007546004805460405163551b389760e01b81526001600160a01b0391821692810192909252602482018490529091602091839160449183918a91165af18015610db2576116ef575b50600754604051906001600160a01b031661161b82612c15565b6001808352602083019060203683376040519061163782612c15565b80825260203681840137833b156116eb576040516319d6a88d60e01b8152600481018290526060602482015294516064860181905289948694909360848601939092875b8181106116c757505050508361169f81938793600319848303016044850152612b7b565b03925af18015610db2576116b4575b50611580565b6116c090949194612be6565b92386116ae565b83516001600160a01b031686528d985089975060209586019590930192820161167b565b8880fd5b602090813d8311611713575b6117058183612c30565b81010312610df95738611601565b503d6116fb565b506007546001600160a01b0316151561157b565b600801805480156117475760001901905561155961154f565b634e487b7160e01b87526011600452602487fd5b600982019061ffff1982541617905538611526565b6040908101519051631d699f5760e21b81526001600160a01b0390911660048201529092509050602081602481855afa8015611883578a9061184c575b602091506024604051809481936309d460ef60e21b835260048301525afa9081156112f057899161181a575b5061270f19810190811161180657611503826127106117fc8b9461151a966132b1565b04918194506114f4565b634e487b7160e01b89526011600452602489fd5b90506020813d602011611844575b8161183560209383612c30565b810103126116eb5751386117d9565b3d9150611828565b506020813d60201161187b575b8161186660209383612c30565b8101031261187757602090516117ad565b8980fd5b3d9150611859565b6040513d8c823e3d90fd5b604051631c8ea79360e21b815260048101849052602490fd5b60405163f715480760e01b815260048101839052602490fd5b9091506118cd84876131c4565b518b528060205260408b20015460081c1615863861143d565b9150506118f383866131c4565b518a528060205286808260408d2001541691611437565b50939491925050611466565b84548352600194850194899450602090930192016113ed565b604051633728b83d60e01b815260048101839052602490fd5b6040516302ad881560e41b815260048101839052602490fd5b50346102a557806003193601126102a557602060405160648152f35b50346102a557806003193601126102a5576007546040516001600160a01b039091168152602090f35b50346102a55760203660031901126102a55760406119ce9160043581526009602052206131d8565b602081015160018060a01b03604083015116606083015192608081015160a082015160c08301519060e08401519261012097610140898701511515960151151596604051988952602089015260408801526060870152608086015260a085015260c084015260e0830152610100820152f35b50346102a557806003193601126102a5576020600e54604051908152f35b50346102a55760603660031901126102a5576004356001600160401b038111610aa957611a8f903690600401612c6c565b9060018060a01b0381541633141580611fc7575b610a7e57611aaf612e77565b6064602435108015611fba575b610a585762278d00604435108015611fab575b610a2f57611adb612fad565b611ae782511515612ebb565b611aff60405160208185516105488183858a01612cb3565b611b0a600e54612e52565b80600e5560405192611b1b84612baf565b8184528060208501526024356040850152602435606085015282608085015260443560a085015268056bc75e2d6310000060c085015269d3c21bcecceda100000060e0850152826101008501528261012085015282610140850152600161016085015242610180850152336101a08501526040518060208101106001600160401b03602083011117611f9757602081016040528381526101c0850152818352600860205260408320938051855560208101518051906001600160401b0382116108fb57611beb6001880154612cd6565b601f8111611f53575b50602090601f8311600114611ee2576101c0939291879183611ed7575b50508160011b916000199060031b1c19161760018701555b60408101516002870155606081015160038701556080810151600487015560a0810151600587015560c0810151600687015560e0810151600787015561010081015160088701556101208101516009870155610140810151600a870155611ca66101608201511515600b88019060ff801983541691151516179055565b610180810151600c870155600d860160018060a01b036101a0830151166001600160601b0360a01b82541617905501519384516001600160401b038111611ec357611cf4600e830154612cd6565b95601f8711611e7b575b602096508690601f8311600114611dff57826000805160206134378339815191529593611de59593600e938a92611df4575b50508160011b916000199060031b1c1916179101555b8360405187818451611d5b8183858901612cb3565b8101600d81520301902055611d6f84612f45565b604051611d7b81612bcb565b85815260058782018781526040830161271081526060840189815260808501918a835260a08601934285528a8c52600c8d5260408c209651875551600187015551600286015551600385015551600484015551910155604051918291604435906024359084612f8b565b0390a260018055604051908152f35b015190503880611d30565b600e840187528787209190601f198416885b818110611e64575093611de59593600e93600193836000805160206134378339815191529a9810611e4b575b505050811b01910155611d46565b015160001960f88460031b161c19169055388080611e3d565b92938a600181928786015181550195019301611e11565b600e8301865260208620601f830160051c81019760208410611eb9575b601f0160051c01965b878110611eae5750611cfe565b868155600101611ea1565b9097508790611e98565b634e487b7160e01b85526041600452602485fd5b015190503880611c11565b906001880187526020872091875b601f1985168110611f3b57509183916001936101c09695601f19811610611f22575b505050811b016001870155611c29565b015160001960f88460031b161c19169055388080611f12565b91926020600181928685015181550194019201611ef0565b60018801875260208720601f840160051c810160208510611f90575b601f830160051c82018110611f85575050611bf4565b888155600101611f6f565b5080611f6f565b634e487b7160e01b84526041600452602484fd5b506301e1338060443511611acf565b5061138860243511611abc565b506007546001600160a01b0316331415611aa3565b50346102a55760203660031901126102a557805460043590336001600160a01b0391821614159081612161575b50610a7e57808252600860205260408220541561214957808252600860205260ff600b604084200154161561213257808252600860205260408220600b01805460ff1916905580825b60108054808310156121295761206783612b16565b949054600395861b1c146120885750506120819150612e52565b8190612052565b90916000199182810190811161174757906120b46120a86120cd93612b16565b905490871b1c91612b16565b90919082549060031b91821b91600019901b1916179055565b81548015612115578101926120e184612b16565b81939154921b1b19169055555b7ff924dd04accfc1837d0eeddb10bc7732e2057f5d916c0b5a21e8372393b244a28280a280f35b634e487b7160e01b86526031600452602486fd5b505050506120ee565b602490604051906268d63360e21b82526004820152fd5b602490604051906302ad881560e41b82526004820152fd5b90506007541633141538612009565b50346102a55760403660031901126102a55761218a612aea565b602435612195612ddb565b6004546001600160a01b0392831690831681036121bf57506121bc91600454163390613270565b80f35b6121bc92503390613270565b50346102a557806003193601126102a557546040516001600160a01b039091168152602090f35b50346102a557806003193601126102a55761220b612ddb565b612213612e77565b600160ff1960025416176002557f62e78cea01bee320cd4e420270b5ea74000d11b0c9f74754ebdbfc544b05a2586020604051338152a180f35b50346102a557806003193601126102a557602060405169d3c21bcecceda10000008152f35b50346102a55760203660031901126102a557600435906001600160401b0382116102a55760206122bc816122a93660048701612c6c565b8160405193828580945193849201612cb3565b8101600d81520301902054604051908152f35b50346102a557806003193601126102a5576005546040516001600160a01b039091168152602090f35b50346102a557806003193601126102a5576004546040516001600160a01b039091168152602090f35b50346102a557806003193601126102a55761233a612ddb565b80546001600160a01b03198116825581906001600160a01b03167f8be0079c531659141344cd1fd0a4f28419497f9722a3daafe3b4186f6b6457e08280a380f35b50346102a557806003193601126102a5576020604051620151808152f35b50346102a557602090816003193601126102a557600435908181526008835260408120604051926123c984612baf565b815484526123d960018301612d10565b85850152600282015460408501526003820154606085015260048201549360808101948552600583015460a0820152600683015460c08201526101c061247c600e60078601549560e0850196875260088101546101008601526009810154610120860152600a81015461014086015260ff600b820154161515610160860152600c81015461018086015260018060a01b03600d820154166101a086015201612d10565b9101528252600c845260408220906040519061249782612bcb565b825482526001830154868301526002830154604083019081526003840154606084015260048401546080840190815260059094015460a08401529451908115806125d9576127108084029384041417156125c557516124f5916132c4565b935b518151909290156125ba575190612710918281029281840414901517156125a65751612522916132c4565b925b60288102908082046028149015171561259257601e820291808304601e1490151715612592579061255491613003565b90601e830292808404601e149015171561257e575060649161257591613003565b04604051908152f35b634e487b7160e01b81526011600452602490fd5b634e487b7160e01b83526011600452602483fd5b634e487b7160e01b84526011600452602484fd5b505061271092612524565b634e487b7160e01b85526011600452602485fd5b50505082936124f7565b50346102a557806003193601126102a5576020600f54604051908152f35b50346102a55761261036612b00565b91908152600a602052604081209081548310156102a557602061047a8484612b63565b50346102a557602080600319360112610aa9576004358252600a81526040822091604051809384918482549182815201918452848420935b858282106126825750505061027792500383612c30565b855484526001958601958895509301920161266b565b50346102a557806003193601126102a557602060ff600254166040519015158152f35b50346102a55760203660031901126102a55760043581526008602052604090208054906126ea60018201612d10565b90600281015460038201549160048101546005820154600683015460078401546008850154600986015491600a87015493600b88015460ff1695600c89015497600160a01b60019003600d8b01541699600e0161274690612d10565b9b6040519e8f9e8f9182526101e0806020840152820161276591612db6565b9c60408201526060015260808d015260a08c015260c08b015260e08a015261010089015261012088015261014087015215156101608601526101808501526101a08401528281036101c084015261028b91612db6565b50346102a557806003193601126102a5576020600354604051908152f35b50346102a557806003193601126102a5576127f2612ddb565b60025460ff8116156128325760ff19166002557f5db9ee0a495bf2e6ff9c91a7834c1ba4fdd244a5e8aa4e537bd38aeae4b073aa6020604051338152a180f35b60405162461bcd60e51b815260206004820152601460248201527314185d5cd8589b194e881b9bdd081c185d5cd95960621b6044820152606490fd5b50346102a55760203660031901126102a557604061016091600435815260096020522060ff81549160018101549060018060a01b036002820154166003820154600483015460058401549060068501549260078601549460096008880154970154976040519a8b5260208b015260408a01526060890152608088015260a087015260c086015260e0850152610100840152818116151561012084015260081c161515610140820152f35b50346102a557602080600319360112610aa9576001600160a01b0361293b612aea565b168252600b81526040822091604051809384918482549182815201918452848420935b858282106129755750505061027792500383612c30565b855484526001958601958895509301920161295e565b50346102a55760203660031901126102a557600435906010548210156102a557602061047a83612b16565b50346102a5576129c536612b00565b8254336001600160a01b0391821614159081612aa7575b50610a7e576129e9612e77565b818352600860205260408320541561194857818352600860205260ff600b6040852001541615612a8f57606481108015612a84575b612a6c5760207f7fa9647ec1cc14e3822b46d05a2b9d4e019bde8875c0088c46b6503d71bf172291612a4e612fad565b83855260088252806003604087200155604051908152a26001805580f35b60249060405190633f0b7e7f60e11b82526004820152fd5b506113888111612a1e565b6040516268d63360e21b815260048101839052602490fd5b905060075416331415386129dc565b50346102a55760203660031901126102a557612ad0612aea565b50612ad9612ddb565b612ae4600354612e52565b60035580f35b600435906001600160a01b03821682036112e457565b60409060031901126112e4576004359060243590565b601054811015612b4d5760106000527f1b6847dc741a1b0cd08d278845f9d819d87b734759afb55fe2de5cb82a9ae6720190600090565b634e487b7160e01b600052603260045260246000fd5b8054821015612b4d5760005260206000200190600090565b90815180825260208080930193019160005b828110612b9b575050505090565b835185529381019392810192600101612b8d565b6101e081019081106001600160401b0382111761128a57604052565b60c081019081106001600160401b0382111761128a57604052565b6001600160401b03811161128a57604052565b61016081019081106001600160401b0382111761128a57604052565b604081019081106001600160401b0382111761128a57604052565b90601f801991011681019081106001600160401b0382111761128a57604052565b6001600160401b03811161128a57601f01601f191660200190565b81601f820112156112e457803590612c8382612c51565b92612c916040519485612c30565b828452602083830101116112e457816000926020809301838601378301015290565b60005b838110612cc65750506000910152565b8181015183820152602001612cb6565b90600182811c92168015612d06575b6020831014612cf057565b634e487b7160e01b600052602260045260246000fd5b91607f1691612ce5565b9060405191826000825492612d2484612cd6565b908184526001948581169081600014612d935750600114612d50575b5050612d4e92500383612c30565b565b9093915060005260209081600020936000915b818310612d7b575050612d4e93508201013880612d40565b85548884018501529485019487945091830191612d63565b915050612d4e94506020925060ff191682840152151560051b8201013880612d40565b90602091612dcf81518092818552858086019101612cb3565b601f01601f1916010190565b6000546001600160a01b03163303612def57565b606460405162461bcd60e51b815260206004820152602060248201527f4f776e61626c653a2063616c6c6572206973206e6f7420746865206f776e65726044820152fd5b908160209103126112e457516001600160a01b03811681036112e45790565b6000198114612e615760010190565b634e487b7160e01b600052601160045260246000fd5b60ff60025416612e8357565b60405162461bcd60e51b815260206004820152601060248201526f14185d5cd8589b194e881c185d5cd95960821b6044820152606490fd5b15612ec257565b60405162461bcd60e51b815260206004820152600f60248201526e456d70747920706f6f6c206e616d6560881b6044820152606490fd5b15612f0057565b60405162461bcd60e51b815260206004820152601860248201527f506f6f6c206e616d6520616c72656164792065786973747300000000000000006044820152606490fd5b60105490600160401b82101561128a576120b4826001612d4e9401601055612b16565b90815491600160401b83101561128a57826120b4916001612d4e95018155612b63565b612fa360409295949395606083526060830190612db6565b9460208201520152565b600260015414612fbe576002600155565b60405162461bcd60e51b815260206004820152601f60248201527f5265656e7472616e637947756172643a207265656e7472616e742063616c6c006044820152606490fd5b91908201809211612e6157565b60018060a01b03169061308d60405161302881612c15565b6020938482527f5361666545524332303a206c6f772d6c6576656c2063616c6c206661696c6564858301526000808587829751910182855af13d15613123573d9161307283612c51565b926130806040519485612c30565b83523d868885013e613127565b8051918215918483156130ff575b5050509050156130a85750565b6084906040519062461bcd60e51b82526004820152602a60248201527f5361666545524332303a204552433230206f7065726174696f6e20646964206e6044820152691bdd081cdd58d8d9595960b21b6064820152fd5b919381809450010312610aa9578201519081151582036102a557508038808461309b565b6060915b91929015613189575081511561313b575090565b3b156131445790565b60405162461bcd60e51b815260206004820152601d60248201527f416464726573733a2063616c6c20746f206e6f6e2d636f6e74726163740000006044820152606490fd5b82519091501561319c5750805190602001fd5b60405162461bcd60e51b8152602060048201529081906131c0906024830190612db6565b0390fd5b8051821015612b4d5760209160051b010190565b906040516131e581612bf9565b61014060ff60098395805485526001810154602086015260018060a01b0360028201541660408601526003810154606086015260048101546080860152600581015460a0860152600681015460c0860152600781015460e086015260088101546101008601520154818116151561012085015260081c161515910152565b91908203918211612e6157565b60405163a9059cbb60e01b60208201526001600160a01b03929092166024830152604480830193909352918152612d4e916132ac606483612c30565b613010565b81810292918115918404141715612e6157565b81156132ce570490565b634e487b7160e01b600052601260045260246000fd5b6000818152602090600c8252604092838220936008845280832060048101548015801560001461342b576127108083029283041417156125c557906133306008926007830154906132c4565b600388015501549283613352575b505050505080546004820155600542910155565b9193958295919395948352600a875283832091845180848a82965493848152019087528a872092875b8c8282106134155750505061339292500384612c30565b835b83518110156133df576133a781856131c4565b51855260ff6009808b528787200154166133ca575b6133c590612e52565b613394565b956133d76133c591612e52565b9690506133bc565b50959493509550506127109182810292818404149015171561257e575090613406916132c4565b6002820155388080808061333e565b855484526001958601958995509301920161337b565b50506008908461333056fed6a5afaab19aa08059d2a773896ae3716587b8cb7dd9ffa3989de36e7ce8d6a3a2646970667358221220003c6d21a46ce81a2de3b345b52b01c890812348e3c735da554fc6fe3c24c84064736f6c63430008130033",
  "linkReferences": {},
  "deployedLinkReferences": {}
}