{
  "_format": "hh-sol-artifact-1",
  "contractName": "AITBCPaymentProcessor",
  "sourceName": "contracts/AITBCPaymentProcessor.sol",
  "abi": [
    {
      "inputs": [
        {
          "internalType": "address",
          "name": "_aitbcToken",
          "type": "address"
        },
        {
          "internalType": "address",
          "name": "_aiPowerRental",
          "type": "address"
        }
      ],
      "stateMutability": "nonpayable",
      "type": "constructor"
    },
    {
      "anonymous": false,
      "inputs": [
        {
          "indexed": true,
          "internalType": "uint256",
          "name": "paymentId",
          "type": "uint256"
        },
        {
          "indexed": true,
          "internalType": "address",
          "name": "initiator",
          "type": "address"
        },
        {
          "indexed": false,
          "internalType": "string",
          "name": "reason",
          "type": "string"
        }
      ],
      "name": "DisputeInitiated",
      "type": "event"
    },
    {
      "anonymous": false,
      "inputs": [
        {
          "indexed": true,
          "internalType": "uint256",
          "name": "paymentId",
          "type": "uint256"
        },
        {
          "indexed": false,
          "internalType": "uint256",
          "name": "resolutionAmount",
          "type": "uint256"
        },
        {
          "indexed": false,
          "internalType": "bool",
          "name": "resolvedInFavorOfPayer",
          "type": "bool"
        }
      ],
      "name": "DisputeResolved",
      "type": "event"
    },
    {
      "anonymous": false,
      "inputs": [
        {
          "indexed": true,
          "internalType": "uint256",
          "name": "escrowId",
          "type": "uint256"
        },
        {
          "indexed": true,
          "internalType": "address",
          "name": "depositor",
          "type": "address"
        },
        {
          "indexed": true,
          "internalType": "address",
          "name": "beneficiary",
          "type": "address"
        },
        {
          "indexed": false,
          "internalType": "uint256",
          "name": "amount",
          "type": "uint256"
        },
        {
          "indexed": false,
          "internalType": "enum AITBCPaymentProcessor.EscrowType",
          "name": "escrowType",
          "type": "uint8"
        }
      ],
      "name": "EscrowCreated",
      "type": "event"
    },
    {
      "anonymous": false,
      "inputs": [
        {
          "indexed": true,
          "internalType": "uint256",
          "name": "escrowId",
          "type": "uint256"
        },
        {
          "indexed": true,
          "internalType": "address",
          "name": "depositor",
          "type": "address"
        },
        {
          "indexed": false,
          "internalType": "uint256",
          "name": "amount",
          "type": "uint256"
        },
        {
          "indexed": false,
          "internalType": "string",
          "name": "reason",
          "type": "string"
        }
      ],
      "name": "EscrowRefunded",
      "type": "event"
    },
    {
      "anonymous": false,
      "inputs": [
        {
          "indexed": true,
          "internalType": "uint256",
          "name": "escrowId",
          "type": "uint256"
        },
        {
          "indexed": false,
          "internalType": "uint256",
          "name": "amount",
          "type": "uint256"
        },
        {
          "indexed": false,
          "internalType": "bytes32",
          "name": "conditionHash",
          "type": "bytes32"
        }
      ],
      "name": "EscrowReleased",
      "type": "event"
    },
    {
      "anonymous": false,
      "inputs": [
        {
          "indexed": true,
          "internalType": "address",
          "name": "previousOwner",
          "type": "address"
        },
        {
          "indexed": true,
          "internalType": "address",
          "name": "newOwner",
          "type": "address"
        }
      ],
      "name": "OwnershipTransferred",
      "type": "event"
    },
    {
      "anonymous": false,
      "inputs": [
        {
          "indexed": false,
          "internalType": "address",
          "name": "account",
          "type": "address"
        }
      ],
      "name": "Paused",
      "type": "event"
    },
    {
      "anonymous": false,
      "inputs": [
        {
          "indexed": true,
          "internalType": "uint256",
          "name": "paymentId",
          "type": "uint256"
        },
        {
          "indexed": false,
          "internalType": "uint256",
          "name": "confirmedTime",
          "type": "uint256"
        },
        {
          "indexed": false,
          "internalType": "bytes32",
          "name": "transactionHash",
          "type": "bytes32"
        }
      ],
      "name": "PaymentConfirmed",
      "type": "event"
    },
    {
      "anonymous": false,
      "inputs": [
        {
          "indexed": true,
          "internalType": "uint256",
          "name": "paymentId",
          "type": "uint256"
        },
        {
          "indexed": true,
          "internalType": "address",
          "name": "from",
          "type": "address"
        },
        {
          "indexed": true,
          "internalType": "address",
          "name": "to",
          "type": "address"
        },
        {
          "indexed": false,
          "internalType": "uint256",
          "name": "amount",
          "type": "uint256"
        },
        {
          "indexed": false,
          "internalType": "bytes32",
          "name": "agreementId",
          "type": "bytes32"
        },
        {
          "indexed": false,
          "internalType": "string",
          "name": "paymentPurpose",
          "type": "string"
        }
      ],
      "name": "PaymentCreated",
      "type": "event"
    },
    {
      "anonymous": false,
      "inputs": [
        {
          "indexed": true,
          "internalType": "uint256",
          "name": "paymentId",
          "type": "uint256"
        },
        {
          "indexed": true,
          "internalType": "address",
          "name": "to",
          "type": "address"
        },
        {
          "indexed": false,
          "internalType": "uint256",
          "name": "amount",
          "type": "uint256"
        },
        {
          "indexed": false,
          "internalType": "string",
          "name": "reason",
          "type": "string"
        }
      ],
      "name": "PaymentRefunded",
      "type": "event"
    },
    {
      "anonymous": false,
      "inputs": [
        {
          "indexed": true,
          "internalType": "uint256",
          "name": "paymentId",
          "type": "uint256"
        },
        {
          "indexed": true,
          "internalType": "address",
          "name": "to",
          "type": "address"
        },
        {
          "indexed": false,
          "internalType": "uint256",
          "name": "amount",
          "type": "uint256"
        },
        {
          "indexed": false,
          "internalType": "uint256",
          "name": "platformFee",
          "type": "uint256"
        }
      ],
      "name": "PaymentReleased",
      "type": "event"
    },
    {
      "anonymous": false,
      "inputs": [
        {
          "indexed": true,
          "internalType": "uint256",
          "name": "paymentId",
          "type": "uint256"
        },
        {
          "indexed": false,
          "internalType": "uint256",
          "name": "feeAmount",
          "type": "uint256"
        },
        {
          "indexed": true,
          "internalType": "address",
          "name": "collector",
          "type": "address"
        }
      ],
      "name": "PlatformFeeCollected",
      "type": "event"
    },
    {
      "anonymous": false,
      "inputs": [
        {
          "indexed": true,
          "internalType": "uint256",
          "name": "scheduleId",
          "type": "uint256"
        },
        {
          "indexed": true,
          "internalType": "uint256",
          "name": "paymentId",
          "type": "uint256"
        },
        {
          "indexed": false,
          "internalType": "uint256",
          "name": "nextReleaseTime",
          "type": "uint256"
        },
        {
          "indexed": false,
          "internalType": "uint256",
          "name": "releaseInterval",
          "type": "uint256"
        }
      ],
      "name": "ScheduledPaymentCreated",
      "type": "event"
    },
    {
      "anonymous": false,
      "inputs": [
        {
          "indexed": true,
          "internalType": "uint256",
          "name": "scheduleId",
          "type": "uint256"
        },
        {
          "indexed": true,
          "internalType": "uint256",
          "name": "paymentId",
          "type": "uint256"
        },
        {
          "indexed": false,
          "internalType": "uint256",
          "name": "releaseCount",
          "type": "uint256"
        }
      ],
      "name": "ScheduledPaymentReleased",
      "type": "event"
    },
    {
      "anonymous": false,
      "inputs": [
        {
          "indexed": false,
          "internalType": "address",
          "name": "account",
          "type": "address"
        }
      ],
      "name": "Unpaused",
      "type": "event"
    },
    {
      "inputs": [
        {
          "internalType": "bytes32",
          "name": "",
          "type": "bytes32"
        }
      ],
      "name": "agreementPayments",
      "outputs": [
        {
          "internalType": "uint256",
          "name": "",
          "type": "uint256"
        }
      ],
      "stateMutability": "view",
      "type": "function"
    },
    {
      "inputs": [],
      "name": "aiPowerRental",
      "outputs": [
        {
          "internalType": "contract AIPowerRental",
          "name": "",
          "type": "address"
        }
      ],
      "stateMutability": "view",
      "type": "function"
    },
    {
      "inputs": [],
      "name": "aitbcToken",
      "outputs": [
        {
          "internalType": "contract IERC20",
          "name": "",
          "type": "address"
        }
      ],
      "stateMutability": "view",
      "type": "function"
    },
    {
      "inputs": [
        {
          "internalType": "address",
          "name": "_payee",
          "type": "address"
        }
      ],
      "name": "authorizePayee",
      "outputs": [],
      "stateMutability": "nonpayable",
      "type": "function"
    },
    {
      "inputs": [
        {
          "internalType": "address",
          "name": "_payer",
          "type": "address"
        }
      ],
      "name": "authorizePayer",
      "outputs": [],
      "stateMutability": "nonpayable",
      "type": "function"
    },
    {
      "inputs": [
        {
          "internalType": "address",
          "name": "",
          "type": "address"
        }
      ],
      "name": "authorizedPayees",
      "outputs": [
        {
          "internalType": "bool",
          "name": "",
          "type": "bool"
        }
      ],
      "stateMutability": "view",
      "type": "function"
    },
    {
      "inputs": [
        {
          "internalType": "address",
          "name": "",
          "type": "address"
        }
      ],
      "name": "authorizedPayers",
      "outputs": [
        {
          "internalType": "bool",
          "name": "",
          "type": "bool"
        }
      ],
      "stateMutability": "view",
      "type": "function"
    },
    {
      "inputs": [
        {
          "internalType": "uint256",
          "name": "_paymentId",
          "type": "uint256"
        }
      ],
      "name": "claimPlatformFee",
      "outputs": [],
      "stateMutability": "nonpayable",
      "type": "function"
    },
    {
      "inputs": [
        {
          "internalType": "uint256",
          "name": "_paymentId",
          "type": "uint256"
        },
        {
          "internalType": "bytes32",
          "name": "_transactionHash",
          "type": "bytes32"
        }
      ],
      "name": "confirmPayment",
      "outputs": [],
      "stateMutability": "nonpayable",
      "type": "function"
    },
    {
      "inputs": [
        {
          "internalType": "address",
          "name": "_beneficiary",
          "type": "address"
        },
        {
          "internalType": "uint256",
          "name": "_amount",
          "type": "uint256"
        },
        {
          "internalType": "uint256",
          "name": "_releaseTime",
          "type": "uint256"
        },
        {
          "internalType": "enum AITBCPaymentProcessor.EscrowType",
          "name": "_escrowType",
          "type": "uint8"
        },
        {
          "internalType": "bytes32",
          "name": "_releaseCondition",
          "type": "bytes32"
        }
      ],
      "name": "createEscrow",
      "outputs": [
        {
          "internalType": "uint256",
          "name": "",
          "type": "uint256"
        }
      ],
      "stateMutability": "nonpayable",
      "type": "function"
    },
    {
      "inputs": [
        {
          "internalType": "address",
          "name": "_to",
          "type": "address"
        },
        {
          "internalType": "uint256",
          "name": "_amount",
          "type": "uint256"
        },
        {
          "internalType": "bytes32",
          "name": "_agreementId",
          "type": "bytes32"
        },
        {
          "internalType": "string",
          "name": "_paymentPurpose",
          "type": "string"
        },
        {
          "internalType": "enum AITBCPaymentProcessor.ReleaseCondition",
          "name": "_releaseCondition",
          "type": "uint8"
        }
      ],
      "name": "createPayment",
      "outputs": [
        {
          "internalType": "uint256",
          "name": "",
          "type": "uint256"
        }
      ],
      "stateMutability": "nonpayable",
      "type": "function"
    },
    {
      "inputs": [],
      "name": "disputeResolutionFee",
      "outputs": [
        {
          "internalType": "uint256",
          "name": "",
          "type": "uint256"
        }
      ],
      "stateMutability": "view",
      "type": "function"
    },
    {
      "inputs": [
        {
          "internalType": "uint256",
          "name": "",
          "type": "uint256"
        }
      ],
      "name": "escrowAccounts",
      "outputs": [
        {
          "internalType": "uint256",
          "name": "escrowId",
          "type": "uint256"
        },
        {
          "internalType": "address",
          "name": "depositor",
          "type": "address"
        },
        {
          "internalType": "address",
          "name": "beneficiary",
          "type": "address"
        },
        {
          "internalType": "uint256",
          "name": "amount",
          "type": "uint256"
        },
        {
          "internalType": "uint256",
          "name": "releaseTime",
          "type": "uint256"
        },
        {
          "internalType": "bool",
          "name": "isReleased",
          "type": "bool"
        },
        {
          "internalType": "bool",
          "name": "isRefunded",
          "type": "bool"
        },
        {
          "internalType": "bytes32",
          "name": "releaseCondition",
          "type": "bytes32"
        },
        {
          "internalType": "uint256",
          "name": "createdTime",
          "type": "uint256"
        },
        {
          "internalType": "enum AITBCPaymentProcessor.EscrowType",
          "name": "escrowType",
          "type": "uint8"
        }
      ],
      "stateMutability": "view",
      "type": "function"
    },
    {
      "inputs": [
        {
          "internalType": "bytes32",
          "name": "_agreementId",
          "type": "bytes32"
        }
      ],
      "name": "getAgreementPayment",
      "outputs": [
        {
          "internalType": "uint256",
          "name": "",
          "type": "uint256"
        }
      ],
      "stateMutability": "view",
      "type": "function"
    },
    {
      "inputs": [
        {
          "internalType": "uint256",
          "name": "_escrowId",
          "type": "uint256"
        }
      ],
      "name": "getEscrowAccount",
      "outputs": [
        {
          "components": [
            {
              "internalType": "uint256",
              "name": "escrowId",
              "type": "uint256"
            },
            {
              "internalType": "address",
              "name": "depositor",
              "type": "address"
            },
            {
              "internalType": "address",
              "name": "beneficiary",
              "type": "address"
            },
            {
              "internalType": "uint256",
              "name": "amount",
              "type": "uint256"
            },
            {
              "internalType": "uint256",
              "name": "releaseTime",
              "type": "uint256"
            },
            {
              "internalType": "bool",
              "name": "isReleased",
              "type": "bool"
            },
            {
              "internalType": "bool",
              "name": "isRefunded",
              "type": "bool"
            },
            {
              "internalType": "bytes32",
              "name": "releaseCondition",
              "type": "bytes32"
            },
            {
              "internalType": "uint256",
              "name": "createdTime",
              "type": "uint256"
            },
            {
              "internalType": "enum AITBCPaymentProcessor.EscrowType",
              "name": "escrowType",
              "type": "uint8"
            }
          ],
          "internalType": "struct AITBCPaymentProcessor.EscrowAccount",
          "name": "",
          "type": "tuple"
        }
      ],
      "stateMutability": "view",
      "type": "function"
    },
    {
      "inputs": [
        {
          "internalType": "uint256",
          "name": "_paymentId",
          "type": "uint256"
        }
      ],
      "name": "getPayment",
      "outputs": [
        {
          "components": [
            {
              "internalType": "uint256",
              "name": "paymentId",
              "type": "uint256"
            },
            {
              "internalType": "address",
              "name": "from",
              "type": "address"
            },
            {
              "internalType": "address",
              "name": "to",
              "type": "address"
            },
            {
              "internalType": "uint256",
              "name": "amount",
              "type": "uint256"
            },
            {
              "internalType": "uint256",
              "name": "platformFee",
              "type": "uint256"
            },
            {
              "internalType": "uint256",
              "name": "disputeFee",
              "type": "uint256"
            },
            {
              "internalType": "enum AITBCPaymentProcessor.PaymentStatus",
              "name": "status",
              "type": "uint8"
            },
            {
              "internalType": "uint256",
              "name": "releaseTime",
              "type": "uint256"
            },
            {
              "internalType": "uint256",
              "name": "createdTime",
              "type": "uint256"
            },
            {
              "internalType": "uint256",
              "name": "confirmedTime",
              "type": "uint256"
            },
            {
              "internalType": "bytes32",
              "name": "agreementId",
              "type": "bytes32"
            },
            {
              "internalType": "string",
              "name": "paymentPurpose",
              "type": "string"
            },
            {
              "internalType": "enum AITBCPaymentProcessor.ReleaseCondition",
              "name": "releaseCondition",
              "type": "uint8"
            },
            {
              "internalType": "bytes32",
              "name": "conditionHash",
              "type": "bytes32"
            }
          ],
          "internalType": "struct AITBCPaymentProcessor.Payment",
          "name": "",
          "type": "tuple"
        }
      ],
      "stateMutability": "view",
      "type": "function"
    },
    {
      "inputs": [
        {
          "internalType": "address",
          "name": "_recipient",
          "type": "address"
        }
      ],
      "name": "getRecipientPayments",
      "outputs": [
        {
          "internalType": "uint256[]",
          "name": "",
          "type": "uint256[]"
        }
      ],
      "stateMutability": "view",
      "type": "function"
    },
    {
      "inputs": [
        {
          "internalType": "address",
          "name": "_sender",
          "type": "address"
        }
      ],
      "name": "getSenderPayments",
      "outputs": [
        {
          "internalType": "uint256[]",
          "name": "",
          "type": "uint256[]"
        }
      ],
      "stateMutability": "view",
      "type": "function"
    },
    {
      "inputs": [
        {
          "internalType": "address",
          "name": "_user",
          "type": "address"
        }
      ],
      "name": "getUserEscrowBalance",
      "outputs": [
        {
          "internalType": "uint256",
          "name": "",
          "type": "uint256"
        }
      ],
      "stateMutability": "view",
      "type": "function"
    },
    {
      "inputs": [
        {
          "internalType": "uint256",
          "name": "_paymentId",
          "type": "uint256"
        },
        {
          "internalType": "string",
          "name": "_reason",
          "type": "string"
        }
      ],
      "name": "initiateDispute",
      "outputs": [],
      "stateMutability": "nonpayable",
      "type": "function"
    },
    {
      "inputs": [],
      "name": "maxPaymentAmount",
      "outputs": [
        {
          "internalType": "uint256",
          "name": "",
          "type": "uint256"
        }
      ],
      "stateMutability": "view",
      "type": "function"
    },
    {
      "inputs": [],
      "name": "minPaymentAmount",
      "outputs": [
        {
          "internalType": "uint256",
          "name": "",
          "type": "uint256"
        }
      ],
      "stateMutability": "view",
      "type": "function"
    },
    {
      "inputs": [],
      "name": "owner",
      "outputs": [
        {
          "internalType": "address",
          "name": "",
          "type": "address"
        }
      ],
      "stateMutability": "view",
      "type": "function"
    },
    {
      "inputs": [],
      "name": "pause",
      "outputs": [],
      "stateMutability": "nonpayable",
      "type": "function"
    },
    {
      "inputs": [],
      "name": "paused",
      "outputs": [
        {
          "internalType": "bool",
          "name": "",
          "type": "bool"
        }
      ],
      "stateMutability": "view",
      "type": "function"
    },
    {
      "inputs": [],
      "name": "paymentCounter",
      "outputs": [
        {
          "internalType": "uint256",
          "name": "",
          "type": "uint256"
        }
      ],
      "stateMutability": "view",
      "type": "function"
    },
    {
      "inputs": [
        {
          "internalType": "uint256",
          "name": "",
          "type": "uint256"
        }
      ],
      "name": "payments",
      "outputs": [
        {
          "internalType": "uint256",
          "name": "paymentId",
          "type": "uint256"
        },
        {
          "internalType": "address",
          "name": "from",
          "type": "address"
        },
        {
          "internalType": "address",
          "name": "to",
          "type": "address"
        },
        {
          "internalType": "uint256",
          "name": "amount",
          "type": "uint256"
        },
        {
          "internalType": "uint256",
          "name": "platformFee",
          "type": "uint256"
        },
        {
          "internalType": "uint256",
          "name": "disputeFee",
          "type": "uint256"
        },
        {
          "internalType": "enum AITBCPaymentProcessor.PaymentStatus",
          "name": "status",
          "type": "uint8"
        },
        {
          "internalType": "uint256",
          "name": "releaseTime",
          "type": "uint256"
        },
        {
          "internalType": "uint256",
          "name": "createdTime",
          "type": "uint256"
        },
        {
          "internalType": "uint256",
          "name": "confirmedTime",
          "type": "uint256"
        },
        {
          "internalType": "bytes32",
          "name": "agreementId",
          "type": "bytes32"
        },
        {
          "internalType": "string",
          "name": "paymentPurpose",
          "type": "string"
        },
        {
          "internalType": "enum AITBCPaymentProcessor.ReleaseCondition",
          "name": "releaseCondition",
          "type": "uint8"
        },
        {
          "internalType": "bytes32",
          "name": "conditionHash",
          "type": "bytes32"
        }
      ],
      "stateMutability": "view",
      "type": "function"
    },
    {
      "inputs": [],
      "name": "platformFeePercentage",
      "outputs": [
        {
          "internalType": "uint256",
          "name": "",
          "type": "uint256"
        }
      ],
      "stateMutability": "view",
      "type": "function"
    },
    {
      "inputs": [
        {
          "internalType": "address",
          "name": "",
          "type": "address"
        },
        {
          "internalType": "uint256",
          "name": "",
          "type": "uint256"
        }
      ],
      "name": "recipientPayments",
      "outputs": [
        {
          "internalType": "uint256",
          "name": "",
          "type": "uint256"
        }
      ],
      "stateMutability": "view",
      "type": "function"
    },
    {
      "inputs": [
        {
          "internalType": "uint256",
          "name": "_escrowId",
          "type": "uint256"
        },
        {
          "internalType": "string",
          "name": "_reason",
          "type": "string"
        }
      ],
      "name": "refundEscrow",
      "outputs": [],
      "stateMutability": "nonpayable",
      "type": "function"
    },
    {
      "inputs": [
        {
          "internalType": "uint256",
          "name": "_escrowId",
          "type": "uint256"
        }
      ],
      "name": "releaseEscrow",
      "outputs": [],
      "stateMutability": "nonpayable",
      "type": "function"
    },
    {
      "inputs": [
        {
          "internalType": "uint256",
          "name": "_paymentId",
          "type": "uint256"
        }
      ],
      "name": "releasePayment",
      "outputs": [],
      "stateMutability": "nonpayable",
      "type": "function"
    },
    {
      "inputs": [],
      "name": "renounceOwnership",
      "outputs": [],
      "stateMutability": "nonpayable",
      "type": "function"
    },
    {
      "inputs": [
        {
          "internalType": "uint256",
          "name": "_paymentId",
          "type": "uint256"
        },
        {
          "internalType": "uint256",
          "name": "_resolutionAmount",
          "type": "uint256"
        },
        {
          "internalType": "bool",
          "name": "_resolveInFavorOfPayer",
          "type": "bool"
        }
      ],
      "name": "resolveDispute",
      "outputs": [],
      "stateMutability": "nonpayable",
      "type": "function"
    },
    {
      "inputs": [
        {
          "internalType": "address",
          "name": "_payee",
          "type": "address"
        }
      ],
      "name": "revokePayee",
      "outputs": [],
      "stateMutability": "nonpayable",
      "type": "function"
    },
    {
      "inputs": [
        {
          "internalType": "address",
          "name": "_payer",
          "type": "address"
        }
      ],
      "name": "revokePayer",
      "outputs": [],
      "stateMutability": "nonpayable",
      "type": "function"
    },
    {
      "inputs": [
        {
          "internalType": "uint256",
          "name": "",
          "type": "uint256"
        }
      ],
      "name": "scheduledPayments",
      "outputs": [
        {
          "internalType": "uint256",
          "name": "scheduleId",
          "type": "uint256"
        },
        {
          "internalType": "uint256",
          "name": "paymentId",
          "type": "uint256"
        },
        {
          "internalType": "uint256",
          "name": "nextReleaseTime",
          "type": "uint256"
        },
        {
          "internalType": "uint256",
          "name": "releaseInterval",
          "type": "uint256"
        },
        {
          "internalType": "uint256",
          "name": "totalReleases",
          "type": "uint256"
        },
        {
          "internalType": "uint256",
          "name": "releasedCount",
          "type": "uint256"
        },
        {
          "internalType": "bool",
          "name": "isActive",
          "type": "bool"
        }
      ],
      "stateMutability": "view",
      "type": "function"
    },
    {
      "inputs": [
        {
          "internalType": "address",
          "name": "",
          "type": "address"
        },
        {
          "internalType": "uint256",
          "name": "",
          "type": "uint256"
        }
      ],
      "name": "senderPayments",
      "outputs": [
        {
          "internalType": "uint256",
          "name": "",
          "type": "uint256"
        }
      ],
      "stateMutability": "view",
      "type": "function"
    },
    {
      "inputs": [
        {
          "internalType": "address",
          "name": "newOwner",
          "type": "address"
        }
      ],
      "name": "transferOwnership",
      "outputs": [],
      "stateMutability": "nonpayable",
      "type": "function"
    },
    {
      "inputs": [],
      "name": "unpause",
      "outputs": [],
      "stateMutability": "nonpayable",
      "type": "function"
    },
    {
      "inputs": [
        {
          "internalType": "uint256",
          "name": "_newFee",
          "type": "uint256"
        }
      ],
      "name": "updatePlatformFee",
      "outputs": [],
      "stateMutability": "nonpayable",
      "type": "function"
    },
    {
      "inputs": [
        {
          "internalType": "address",
          "name": "",
          "type": "address"
        }
      ],
      "name": "userEscrowBalance",
      "outputs": [
        {
          "internalType": "uint256",
          "name": "",
          "type": "uint256"
        }
      ],
      "stateMutability": "view",
      "type": "function"
    }
  ],
  "bytecode": "0x6080346200010b57601f620030df38819003918201601f19168301916001600160401b03831184841017620001105780849260409485528339810103126200010b576200005a6020620000528362000126565b920162000126565b600080546001600160a01b03198082163390811784556040519591946001600160a01b039490938516907f8be0079c531659141344cd1fd0a4f28419497f9722a3daafe3b4186f6b6457e09080a3600180556002549060fa600555606460065566038d7ea4c6800060075569021e19e0c9bab2400000600855610100600160a81b039060081b169060018060a81b03191617600255169060035416176003556000600455612fa390816200013c8239f35b600080fd5b634e487b7160e01b600052604160045260246000fd5b51906001600160a01b03821682036200010b5756fe6080604052600436101561001257600080fd5b60003560e01c806265f3fa1461265a57806308513d6e146125e25780631d23dc791461059e578063216184a61461259d578063241eee4f14610ad05780633280a8361461237657806336c47f5f1461204b57806339e9170914611e285780633c25852014611db65780633f4ba83a14611d2257806342e9fdbc14611b3a57806347a04c571461178e57806348f1e4b5146117065780635442f221146115925780635c975abb1461156f57806361d9b12814611551578063715018a6146114f857806376840b60146114da5780637dd6eb34146114bc5780638456cb591461146257806387d817891461136a57806388685cd9146112155780638da5cb5b146111ec5780638e817f62146111c3578063981cfc1014610b0a578063987e2b9914610ad0578063a40d32fe14610ab2578063a9185e7514610920578063a936ed5e146108c8578063aa0b59881461086a578063af7604e91461082b578063b8adec6a146107e9578063cdd78cfc146107cb578063d1a778931461079e578063d495b5ff14610759578063d919ff8a146105ca578063e0331f9d1461059e578063ed653164146103df578063f222381f1461039d578063f2fde38b146102d9578063f413b1291461022d5763f993602a146101e957600080fd5b34610228576020366003190112610228576001600160a01b0361020a6126a4565b166000526011602052602060ff604060002054166040519015158152f35b600080fd5b3461022857602036600319011261022857600435600052600a60205261014060406000206102d781549160018060a01b0390816001820154169160028201541660ff60038301546004840154600585015491600686015494846008600789015498015416976040519a8b5260208b015260408a015260608901526080880152818116151560a088015260081c16151560c086015260e0850152610100840152610120830190612863565bf35b34610228576020366003190112610228576102f26126a4565b6102fa612950565b6001600160a01b0390811690811561034957600054826001600160601b0360a01b821617600055167f8be0079c531659141344cd1fd0a4f28419497f9722a3daafe3b4186f6b6457e0600080a3005b60405162461bcd60e51b815260206004820152602660248201527f4f776e61626c653a206e6577206f776e657220697320746865207a65726f206160448201526564647265737360d01b6064820152608490fd5b34610228576020366003190112610228576103b66126a4565b6103be612950565b6001600160a01b03166000908152601160205260409020805460ff19169055005b346102285760208060031936011261022857600435906103fd612b1f565b81600052600a8152604060002090600582016001815461042060ff821615612cdc565b61043060ff8260081c1615612d28565b61044860048601548015908115610593575b50612c84565b60ff1916179055600382016104c982825460018060a01b039081600188015416600052600f835261047f6040600020918254612d74565b90556002805490870154855460405163a9059cbb60e01b81529184166001600160a01b03166004830152602482015293849260089290921c90911690829060009082906044820190565b03925af19081156105875760009161055a575b501561051d575460069092015460408051938452918301527ff1961825fe573857f9da90e2d8a79b0c9b4addd7e11b958094199fe7ef891c8591a260018055005b60405162461bcd60e51b8152600481018390526015602482015274115cd8dc9bddc81c995b19585cd94819985a5b1959605a1b6044820152606490fd5b61057a9150833d8511610580575b61057281836127b7565b810190612bdb565b856104dc565b503d610568565b6040513d6000823e3d90fd5b905042101588610442565b3461022857602036600319011261022857600435600052600e6020526020604060002054604051908152f35b34610228576105d836612830565b906105e66004548210612c3f565b6105ee612b1f565b8060005260096020526040600020600681019081549060ff821660078110156107435760018114908115610738575b50156106f3576001810154336001600160a01b03918216149182156106e2575b50501561068f5760059060ff19161790557f4c196d81c015a26ba0d0a677cab391ededa1ff786f26357d47ac370fd24f17a9604051602081528061068633956020830190612730565b0390a360018055005b60405162461bcd60e51b815260206004820152602560248201527f4f6e6c79207061796d656e74207061727469636970616e74732063616e206469604482015264737075746560d81b6064820152608490fd5b60029192500154163314858061063d565b60405162461bcd60e51b815260206004820152601b60248201527f43616e6e6f7420646973707574652074686973207061796d656e7400000000006044820152606490fd5b60029150148661061d565b634e487b7160e01b600052602160045260246000fd5b34610228576020366003190112610228576107726126a4565b61077a612950565b6001600160a01b03166000908152601060205260409020805460ff19166001179055005b346102285760003660031901126102285760025460405160089190911c6001600160a01b03168152602090f35b34610228576000366003190112610228576020600554604051908152f35b34610228576020366003190112610228576108026126a4565b61080a612950565b6001600160a01b03166000908152601060205260409020805460ff19169055005b34610228576020366003190112610228576001600160a01b0361084c6126a4565b166000526010602052602060ff604060002054166040519015158152f35b3461022857602036600319011261022857600435610886612950565b6103e8811161089457600555005b60405162461bcd60e51b815260206004820152600c60248201526b08ccaca40e8dede40d0d2ced60a31b6044820152606490fd5b34610228576040366003190112610228576108e16126a4565b6001600160a01b03166000908152600d602052604090208054602435919082101561022857602091610912916126ba565b90546040519160031b1c8152f35b34610228576020806003193601126102285760043561093d612950565b61094a6004548210612c3f565b610952612b1f565b8060005260098252604060002060ff600682015416600781101561074357600303610a7657600401918254928315610a3157600090819055600254815460405163a9059cbb60e01b81526001600160a01b039182166004820152602481018790529392909183918591604491839160081c86165af1928315610587577f9ce77a9eafd97b4290e298123f4a3aef59ee854d8ab143903dea35773841a54193610a0291600091610a14575b50612d81565b6000541693604051908152a360018055005b610a2b9150843d86116105805761057281836127b7565b876109fc565b60405162461bcd60e51b815260048101839052601860248201527f4e6f20706c6174666f726d2066656520746f20636c61696d00000000000000006044820152606490fd5b60405162461bcd60e51b815260048101849052601460248201527314185e5b595b9d081b9bdd081c995b19585cd95960621b6044820152606490fd5b34610228576000366003190112610228576020600754604051908152f35b34610228576020366003190112610228576001600160a01b03610af16126a4565b16600052600f6020526020604060002054604051908152f35b346102285760a036600319011261022857610b236126a4565b60643567ffffffffffffffff811161022857610b439036906004016127d9565b906005608435101561022857336000526011602052610b6960ff604060002054166129a8565b6002546040516370a0823160e01b815233600482015260089190911c6001600160a01b031690602081602481855afa80156105875760009061118f575b610bb5915060243511156129eb565b604051636eb1769f60e11b815233600482015230602482015290602090829060449082905afa80156105875760009061115b575b610bf891506024351115612a2e565b610c00612b1f565b610c08612adb565b610c186007546024351015612a73565b6008546024351161111f576001600160a01b038116156110e6576001600160a01b03811660009081526010602052604090205460ff16156110a15760045490610c6082612ab6565b600455612710610c74600554602435612b75565b0492612710610c87600654602435612b75565b0460405194610c958661277d565b8486523360208701526001600160a01b03841660408701526024356060870152608086015260a0850152600060c0850181905260e08501819052426101008601526101208501526044356101408501526101608401819052610cfd6084356101808601612b88565b60006101a08501528260005260096020526040600020845181556001810160018060a01b03602087015116906001600160601b0360a01b9182825416179055600282019060018060a01b0360408801511690825416179055606085015160038201556080850151600482015560a085015160058201556006810160c086015160078110156107435760ff8019835416911617905560e0850151600782015561010085015160088201556101208501516009820155610140850151600a82015561016085015180519067ffffffffffffffff821161108b578190610de3600b850154612870565b601f8111611038575b50602090601f8311600114610fc657600092610fbb575b50508160011b916000199060031b1c191617600b8201555b610180850151946005861015610743576101a0600d91600097600c85019060ff801983541691161790550151910155338452600c602052610e5f8360408620612b94565b6001600160a01b0382168452600d60205260408420610e7f908490612b94565b604435610fa6575b6020610f08610ec4612710610ea0600554602435612b75565b04610ebf612710610eb5600654602435612b75565b0491602435612bce565b612bce565b6002546040516323b872dd60e01b815233600482015230602482015260448101929092529096879260089290921c6001600160a01b03169183919082906064820190565b03925af193841561058757602094610f2891600091610f89575b50612bf3565b827fe7e2e0b0b8980fb08e7859038a48e05fd740d866f400a56c8f14f604b0ae6f4a604051936024358552604435878601526060604086015260018060a01b03169380610f7a33956060830190612730565b0390a460018055604051908152f35b610fa09150863d88116105805761057281836127b7565b86610f22565b6044358452600e602052826040852055610e87565b015190508780610e03565b9250600b84016000526020600020906000935b601f198416851061101d576001945083601f19811610611004575b505050811b01600b820155610e1b565b015160001960f88460031b161c19169055878080610ff4565b81810151835560209485019460019093019290910190610fd9565b909150600b84016000526020600020601f840160051c810160208510611084575b90849392915b601f830160051c82018110611075575050610dec565b6000815585945060010161105f565b5080611059565b634e487b7160e01b600052604160045260246000fd5b60405162461bcd60e51b815260206004820152601860248201527f526563697069656e74206e6f7420617574686f72697a656400000000000000006044820152606490fd5b60405162461bcd60e51b8152602060048201526011602482015270125b9d985b1a59081c9958da5c1a595b9d607a1b6044820152606490fd5b60405162461bcd60e51b8152602060048201526014602482015273416d6f756e742061626f7665206d6178696d756d60601b6044820152606490fd5b506020813d602011611187575b81611175602093836127b7565b8101031261022857610bf89051610be9565b3d9150611168565b506020813d6020116111bb575b816111a9602093836127b7565b8101031261022857610bb59051610ba6565b3d915061119c565b34610228576000366003190112610228576003546040516001600160a01b039091168152602090f35b34610228576000366003190112610228576000546040516001600160a01b039091168152602090f35b34610228576020366003190112610228576004356112366004548210612c3f565b61123e612b1f565b806000526009602052604060002060ff6006820154166007811015610743576001811490811561135f575b501561131a5760ff600c82015416600581101561074357600181036112f05750600101546001600160a01b031633036112ab576112a590612dcd565b60018055005b60405162461bcd60e51b815260206004820152601f60248201527f4f6e6c792070617965722063616e2072656c65617365206d616e75616c6c79006044820152606490fd5b9060036112a5939214611304575b50612dcd565b6007611314910154421015612c84565b826112fe565b60405162461bcd60e51b815260206004820152601d60248201527f5061796d656e74206e6f7420726561647920666f722072656c656173650000006044820152606490fd5b600291501483611269565b3461022857602036600319011261022857600435600052600960205260406000208054600160a01b60019003918260018201541692600282015416600382015460048301546005840154600685015460ff166007860154600887015491600988015493600a89015495600b8a016113e0906128aa565b97600c8b015460ff169a600d0154996040519d8e809e81526020015260408d015260608c015260808b015260a08a015260c0890161141d91612723565b60e08801526101008701526101208601526101408501526101c080610160860152840161144991612730565b91610180840161145891612770565b6101a08301520390f35b346102285760003660031901126102285761147b612950565b611483612adb565b600160ff1960025416176002557f62e78cea01bee320cd4e420270b5ea74000d11b0c9f74754ebdbfc544b05a2586020604051338152a1005b34610228576000366003190112610228576020600854604051908152f35b34610228576000366003190112610228576020600454604051908152f35b3461022857600036600319011261022857611511612950565b600080546001600160a01b0319811682556001600160a01b03167f8be0079c531659141344cd1fd0a4f28419497f9722a3daafe3b4186f6b6457e08280a3005b34610228576000366003190112610228576020600654604051908152f35b3461022857600036600319011261022857602060ff600254166040519015158152f35b346102285760203660031901126102285760006101206040516115b48161279a565b8281528260208201528260408201528260608201528260808201528260a08201528260c08201528260e0820152826101008201520152600435600052600a602052610140604060002061168560ff6008604051936116118561279a565b8054855260018101546001600160a01b039081166020870152600282015416604086015260038101546060860152600481015460808601526005810154808416151560a0870152821c8316151560c0860152600681015460e086015260078101546101008601520154166101208301612cd0565b6102d7610120604051928051845260018060a01b03602082015116602085015260018060a01b036040820151166040850152606081015160608501526080810151608085015260a0810151151560a085015260c0810151151560c085015260e081015160e08501526101008101516101008501520151610120830190612863565b3461022857602080600319360112610228576001600160a01b036117286126a4565b16600052600d8152604060002090604051908181845491828152019360005281600020916000905b8282106117775761177385611767818903826127b7565b604051918291826126e8565b0390f35b835486529485019460019384019390910190611750565b346102285760a0366003190112610228576117a76126a4565b6024359060643560048110156102285733600052602092601184526117d360ff604060002054166129a8565b6002546040516370a0823160e01b81523360048201526001600160a01b039460089290921c851691908681602481865afa8015610587578490600090611b09575b611820925010156129eb565b604051636eb1769f60e11b8152336004820152306024820152918690839060449082905afa9182156105875785928491600091611ad3575b5090611865911015612a2e565b61186d612b1f565b611875612adb565b16918215611a985761188b600754831015612a73565b6004549361189885612ab6565b6004558160086040516118aa8161279a565b878152878980830133815260408401908a8252606085018a81526080860190604435825260a08701936000855260c088019360008552600a60e08a019760843589526101008b0199428b526119046101208d019e8f612cd0565b600052526040600020985189558b60018a01915116906001600160601b0360a01b91828254161790558b60028a019251169082541617905551600387015551600486015560058501915115159060ff61ff00845492511515891b1692169061ffff191617179055516006830155516007820155019051600481101561074357815460ff191660ff919091161790556002546040516323b872dd60e01b8152336004820152306024820152604481018590529187918391606491839160009160081c165af190811561058757600091611a7b575b5015611a3d57611a0a9033600052600f865260406000206119f9848254612bce565b905560405192835285830190612863565b827f6bfda7c2fe251c2081c84368c83dc8b079a795bbcf960665b2e20f59713de29e60403393a460018055604051908152f35b60405162461bcd60e51b8152600481018690526016602482015275115cd8dc9bddc81d1c985b9cd9995c8819985a5b195960521b6044820152606490fd5b611a929150863d88116105805761057281836127b7565b866119d7565b60405162461bcd60e51b8152600481018690526013602482015272496e76616c69642062656e656669636961727960681b6044820152606490fd5b935050508582813d8311611b02575b611aec81836127b7565b8101031261022857611865838693519091611858565b503d611ae2565b50508681813d8311611b33575b611b2081836127b7565b8101031261022857836118209151611814565b503d611b16565b3461022857611b4836612830565b90611b51612b1f565b806000526020600a815260406000209260058401805494611b7560ff871615612cdc565b611b8560ff8760081c1615612d28565b600181019060018060a01b039283835416978833148015611d15575b15611cc557906101006003939261ff0019161790550195865490600052600f8552611bd26040600020918254612d74565b90556002548154875460405163a9059cbb60e01b81529185166001600160a01b031660048301526024820152908590829060081c8516816000816044810103925af190811561058757600091611ca8575b5015611c6c577f8281fc162cc8f7289c343bac51d2b4d5371475fb2697b021984736e22a37a68f9392916106869154169554916040805194859485528401526040830190612730565b60405162461bcd60e51b8152600481018590526014602482015273115cd8dc9bddc81c99599d5b990819985a5b195960621b6044820152606490fd5b611cbf9150853d87116105805761057281836127b7565b87611c23565b60405162461bcd60e51b815260048101889052602260248201527f4f6e6c79206465706f7369746f72206f72206f776e65722063616e20726566756044820152611b9960f21b6064820152608490fd5b5084600054163314611ba1565b3461022857600036600319011261022857611d3b612950565b60025460ff811615611d7a5760ff19166002557f5db9ee0a495bf2e6ff9c91a7834c1ba4fdd244a5e8aa4e537bd38aeae4b073aa6020604051338152a1005b60405162461bcd60e51b815260206004820152601460248201527314185d5cd8589b194e881b9bdd081c185d5cd95960621b6044820152606490fd5b3461022857602036600319011261022857600435600052600b60205260e060406000208054906001810154906002810154600382015460048301549160ff600660058601549501541694604051968752602087015260408601526060850152608084015260a0830152151560c0820152f35b34610228576040366003190112610228576004356024803590611e4e6004548410612c3f565b82600052600960205260ff60066040600020015416600781101561203657611ff957611e78612b1f565b600083815260096020526040902060018101546001600160a01b03163303611fbc576006810160ff198082541660018117835542600985015585600d85015560ff600c850154166005811015611fa75780611f125750505050505060407f7c8151e3a29f181e50dfdbabd10c64e4751e0842842166d544d6c7fae54c6c4091611f0084612dcd565b8151904282526020820152a260018055005b600303611f735750600290825416179055610e10420191824211611f5f5750600701557f7c8151e3a29f181e50dfdbabd10c64e4751e0842842166d544d6c7fae54c6c4090604090611f00565b634e487b7160e01b60009081526011600452fd5b604094507f7c8151e3a29f181e50dfdbabd10c64e4751e0842842166d544d6c7fae54c6c4095935060029150179055611f00565b85634e487b7160e01b60005260216004526000fd5b60405162461bcd60e51b815260206004820152601681840152754f6e6c792070617965722063616e20636f6e6669726d60501b6044820152606490fd5b60649060166040519162461bcd60e51b83526020600484015282015275496e76616c6964207061796d656e742073746174757360501b6044820152fd5b50634e487b7160e01b60009081526021600452fd5b3461022857606036600319011261022857600435602480359060443590811515918281036102285761207b612950565b6120886004548610612c3f565b612090612b1f565b8460005260209160098352604060002091600683019260ff845416600781101561236157600503612326576003810154908188116122e257876120fd91846000146122ce5760018101546001600160a01b0316945b156122bb57600201546001600160a01b031692612d74565b91858880612201575b50505081612151575b877fc84a77110774854ab237145b108e924962dbaa5191275eb044a6cb09621c4a94604089898989600360ff198254161790558351928352820152a260018055005b60025460405163a9059cbb60e01b81526001600160a01b03928316600482015260248101939093528591839160081c16816000816044810103925af1908115610587576000916121e4575b50156121a957808061210f565b8260156064926040519262461bcd60e51b84526004840152820152741499599d5b99081c185e5b595b9d0819985a5b1959605a1b6044820152fd5b6121fb9150843d86116105805761057281836127b7565b8761219c565b60025460405163a9059cbb60e01b81526001600160a01b03948516600482015260248101929092529092839160081c16816000816044810103925af19081156105875760009161229e575b501561225a57888588612106565b60405162461bcd60e51b8152600481018690526019818501527f5265736f6c7574696f6e207061796d656e74206661696c6564000000000000006044820152606490fd5b6122b59150863d88116105805761057281836127b7565b8961224c565b600101546001600160a01b031692612d74565b60028101546001600160a01b0316946120e5565b60405162461bcd60e51b815260048101879052601a818601527f5265736f6c7574696f6e20616d6f756e7420746f6f20686967680000000000006044820152606490fd5b60405162461bcd60e51b8152600481018690526014818501527314185e5b595b9d081b9bdd08191a5cdc1d5d195960621b6044820152606490fd5b83634e487b7160e01b60005260216004526000fd5b346102285760203660031901126102285760043560006101a060405161239b8161277d565b8281528260208201528260408201528260608201528260808201528260a08201528260c08201528260e082015282610100820152826101208201528261014082015260606101608201528261018082015201526123fb6004548210612c3f565b60005260096020526040600020604051906124158261277d565b8054825260018101546001600160a01b03908116602084015260028201541660408301526003810154606083015260048101546080830152600581015460a0830152600681015460ff1690600782101561074357600d9160c0840152600781015460e084015260088101546101008401526009810154610120840152600a8101546101408401526124a8600b82016128aa565b6101608401526124c360ff600c830154166101808501612b88565b01546101a08201526040518091602082528051602083015260018060a01b03602082015116604083015260018060a01b03604082015116606083015260608101516080830152608081015160a083015260a081015160c083015261252f60c082015160e0840190612723565b60e08101516101008301526101008101516101208301526101208101516101408301526101408101516101608301526101608101516101a06125806101c092836101808701526101e0860190612730565b9261259361018082015183870190612770565b0151908301520390f35b34610228576020366003190112610228576125b66126a4565b6125be612950565b6001600160a01b03166000908152601160205260409020805460ff19166001179055005b3461022857602080600319360112610228576001600160a01b036126046126a4565b16600052600c8152604060002090604051908181845491828152019360005281600020916000905b8282106126435761177385611767818903826127b7565b83548652948501946001938401939091019061262c565b34610228576040366003190112610228576126736126a4565b6001600160a01b03166000908152600c602052604090208054602435919082101561022857602091610912916126ba565b600435906001600160a01b038216820361022857565b80548210156126d25760005260206000200190600090565b634e487b7160e01b600052603260045260246000fd5b6020908160408183019282815285518094520193019160005b82811061270f575050505090565b835185529381019392810192600101612701565b9060078210156107435752565b919082519283825260005b84811061275c575050826000602080949584010152601f8019910116010190565b60208183018101518483018201520161273b565b9060058210156107435752565b6101c0810190811067ffffffffffffffff82111761108b57604052565b610140810190811067ffffffffffffffff82111761108b57604052565b90601f8019910116810190811067ffffffffffffffff82111761108b57604052565b81601f820112156102285780359067ffffffffffffffff821161108b576040519261280e601f8401601f1916602001856127b7565b8284526020838301011161022857816000926020809301838601378301015290565b90604060031983011261022857600435916024359067ffffffffffffffff821161022857612860916004016127d9565b90565b9060048210156107435752565b90600182811c921680156128a0575b602083101461288a57565b634e487b7160e01b600052602260045260246000fd5b91607f169161287f565b90604051918260008254926128be84612870565b90818452600194858116908160001461292d57506001146128ea575b50506128e8925003836127b7565b565b9093915060005260209081600020936000915b8183106129155750506128e8935082010138806128da565b855488840185015294850194879450918301916128fd565b9150506128e894506020925060ff191682840152151560051b82010138806128da565b6000546001600160a01b0316330361296457565b606460405162461bcd60e51b815260206004820152602060248201527f4f776e61626c653a2063616c6c6572206973206e6f7420746865206f776e65726044820152fd5b156129af57565b60405162461bcd60e51b81526020600482015260146024820152732737ba1030baba3437b934bd32b2103830bcb2b960611b6044820152606490fd5b156129f257565b60405162461bcd60e51b8152602060048201526014602482015273496e73756666696369656e742062616c616e636560601b6044820152606490fd5b15612a3557565b60405162461bcd60e51b8152602060048201526016602482015275496e73756666696369656e7420616c6c6f77616e636560501b6044820152606490fd5b15612a7a57565b60405162461bcd60e51b8152602060048201526014602482015273416d6f756e742062656c6f77206d696e696d756d60601b6044820152606490fd5b6000198114612ac55760010190565b634e487b7160e01b600052601160045260246000fd5b60ff60025416612ae757565b60405162461bcd60e51b815260206004820152601060248201526f14185d5cd8589b194e881c185d5cd95960821b6044820152606490fd5b600260015414612b30576002600155565b60405162461bcd60e51b815260206004820152601f60248201527f5265656e7472616e637947756172643a207265656e7472616e742063616c6c006044820152606490fd5b81810292918115918404141715612ac557565b60058210156107435752565b80546801000000000000000081101561108b57612bb6916001820181556126ba565b819291549060031b91821b91600019901b1916179055565b91908201809211612ac557565b90816020910312610228575180151581036102285790565b15612bfa57565b60405162461bcd60e51b815260206004820152601760248201527f5061796d656e74207472616e73666572206661696c65640000000000000000006044820152606490fd5b15612c4657565b60405162461bcd60e51b815260206004820152601660248201527514185e5b595b9d08191bd95cc81b9bdd08195e1a5cdd60521b6044820152606490fd5b15612c8b57565b60405162461bcd60e51b815260206004820152601860248201527f52656c656173652074696d65206e6f74207265616368656400000000000000006044820152606490fd5b60048210156107435752565b15612ce357565b60405162461bcd60e51b815260206004820152601760248201527f457363726f7720616c72656164792072656c65617365640000000000000000006044820152606490fd5b15612d2f57565b60405162461bcd60e51b815260206004820152601760248201527f457363726f7720616c726561647920726566756e6465640000000000000000006044820152606490fd5b91908203918211612ac557565b15612d8857565b60405162461bcd60e51b815260206004820152601c60248201527f506c6174666f726d20666565207472616e73666572206661696c6564000000006044820152606490fd5b600081815260096020908152604080832060068101805460ff191660039081179091556002805490830180549284018054865163a9059cbb60e01b8082526001600160a01b0396871660048301526024820192909252989a999198919790959094939091908590829060449082908f9060081c89165af1908115612f635760049291612e5f918d91612f465750612bf3565b019384549081612ea4575b50507f8cdc8dc08e54a4e57f52077ecf1b4c508758513439cae2aa325dcc85b922fca89596979850541695549154908351928352820152a3565b6002548b54885192835285166001600160a01b031660048301526024820192909252908490829060449082908e9060081c88165af1908115612f3c5790612f15917f8cdc8dc08e54a4e57f52077ecf1b4c508758513439cae2aa325dcc85b922fca898999a9b91612f1f5750612d81565b8897969538612e6a565b612f369150853d87116105805761057281836127b7565b386109fc565b86513d8c823e3d90fd5b612f5d9150873d89116105805761057281836127b7565b38610f22565b87513d8d823e3d90fdfea2646970667358221220cf28f681344cbab8830329d5c0e5de1dc1e0d60564f3308408bdef91c7c00f4164736f6c63430008130033",
  "linkReferences": {},
  "deployedLinkReferences": {}
}