{
  "_format": "hh-sol-artifact-1",
  "contractName": "ContractRegistry",
  "sourceName": "contracts/ContractRegistry.sol",
  "abi": [
    {
      "inputs": [],
      "stateMutability": "nonpayable",
      "type": "constructor"
    },
    {
      "inputs": [
        {
          "internalType": "bytes32",
          "name": "contractId",
          "type": "bytes32"
        }
      ],
      "name": "ContractAlreadyRegistered",
      "type": "error"
    },
    {
      "inputs": [
        {
          "internalType": "bytes32",
          "name": "contractId",
          "type": "bytes32"
        }
      ],
      "name": "ContractNotFound",
      "type": "error"
    },
    {
      "inputs": [
        {
          "internalType": "address",
          "name": "contractAddress",
          "type": "address"
        }
      ],
      "name": "InvalidAddress",
      "type": "error"
    },
    {
      "inputs": [],
      "name": "NotAuthorized",
      "type": "error"
    },
    {
      "inputs": [],
      "name": "RegistryPausedError",
      "type": "error"
    },
    {
      "anonymous": false,
      "inputs": [
        {
          "indexed": true,
          "internalType": "bytes32",
          "name": "contractId",
          "type": "bytes32"
        },
        {
          "indexed": true,
          "internalType": "address",
          "name": "contractAddress",
          "type": "address"
        }
      ],
      "name": "ContractDeregistered",
      "type": "event"
    },
    {
      "anonymous": false,
      "inputs": [
        {
          "indexed": true,
          "internalType": "bytes32",
          "name": "contractId",
          "type": "bytes32"
        },
        {
          "indexed": true,
          "internalType": "address",
          "name": "contractAddress",
          "type": "address"
        },
        {
          "indexed": false,
          "internalType": "uint256",
          "name": "version",
          "type": "uint256"
        }
      ],
      "name": "ContractRegistered",
      "type": "event"
    },
    {
      "anonymous": false,
      "inputs": [
        {
          "indexed": true,
          "internalType": "bytes32",
          "name": "contractId",
          "type": "bytes32"
        },
        {
          "indexed": true,
          "internalType": "address",
          "name": "oldAddress",
          "type": "address"
        },
        {
          "indexed": true,
          "internalType": "address",
          "name": "newAddress",
          "type": "address"
        }
      ],
      "name": "ContractUpdated",
      "type": "event"
    },
    {
      "anonymous": false,
      "inputs": [
        {
          "indexed": true,
          "internalType": "address",
          "name": "previousOwner",
          "type": "address"
        },
        {
          "indexed": true,
          "internalType": "address",
          "name": "newOwner",
          "type": "address"
        }
      ],
      "name": "OwnershipTransferred",
      "type": "event"
    },
    {
      "anonymous": false,
      "inputs": [
        {
          "indexed": false,
          "internalType": "address",
          "name": "account",
          "type": "address"
        }
      ],
      "name": "Paused",
      "type": "event"
    },
    {
      "anonymous": false,
      "inputs": [
        {
          "indexed": true,
          "internalType": "address",
          "name": "pausedBy",
          "type": "address"
        }
      ],
      "name": "RegistryPaused",
      "type": "event"
    },
    {
      "anonymous": false,
      "inputs": [
        {
          "indexed": true,
          "internalType": "address",
          "name": "unpausedBy",
          "type": "address"
        }
      ],
      "name": "RegistryUnpaused",
      "type": "event"
    },
    {
      "anonymous": false,
      "inputs": [
        {
          "indexed": false,
          "internalType": "address",
          "name": "account",
          "type": "address"
        }
      ],
      "name": "Unpaused",
      "type": "event"
    },
    {
      "inputs": [
        {
          "internalType": "address",
          "name": "",
          "type": "address"
        }
      ],
      "name": "addressToId",
      "outputs": [
        {
          "internalType": "bytes32",
          "name": "",
          "type": "bytes32"
        }
      ],
      "stateMutability": "view",
      "type": "function"
    },
    {
      "inputs": [
        {
          "internalType": "bytes32[]",
          "name": "_contractIds",
          "type": "bytes32[]"
        },
        {
          "internalType": "address[]",
          "name": "_contractAddresses",
          "type": "address[]"
        }
      ],
      "name": "batchRegisterContracts",
      "outputs": [],
      "stateMutability": "nonpayable",
      "type": "function"
    },
    {
      "inputs": [
        {
          "internalType": "bytes32",
          "name": "",
          "type": "bytes32"
        }
      ],
      "name": "contractAddresses",
      "outputs": [
        {
          "internalType": "address",
          "name": "",
          "type": "address"
        }
      ],
      "stateMutability": "view",
      "type": "function"
    },
    {
      "inputs": [
        {
          "internalType": "uint256",
          "name": "",
          "type": "uint256"
        }
      ],
      "name": "contractIds",
      "outputs": [
        {
          "internalType": "bytes32",
          "name": "",
          "type": "bytes32"
        }
      ],
      "stateMutability": "view",
      "type": "function"
    },
    {
      "inputs": [
        {
          "internalType": "bytes32",
          "name": "",
          "type": "bytes32"
        }
      ],
      "name": "contractVersions",
      "outputs": [
        {
          "internalType": "uint256",
          "name": "",
          "type": "uint256"
        }
      ],
      "stateMutability": "view",
      "type": "function"
    },
    {
      "inputs": [
        {
          "internalType": "bytes32",
          "name": "contractId",
          "type": "bytes32"
        }
      ],
      "name": "deregisterContract",
      "outputs": [],
      "stateMutability": "nonpayable",
      "type": "function"
    },
    {
      "inputs": [
        {
          "internalType": "bytes32",
          "name": "contractId",
          "type": "bytes32"
        }
      ],
      "name": "getContract",
      "outputs": [
        {
          "internalType": "address",
          "name": "",
          "type": "address"
        }
      ],
      "stateMutability": "view",
      "type": "function"
    },
    {
      "inputs": [
        {
          "internalType": "address",
          "name": "contractAddress",
          "type": "address"
        }
      ],
      "name": "getContractId",
      "outputs": [
        {
          "internalType": "bytes32",
          "name": "",
          "type": "bytes32"
        }
      ],
      "stateMutability": "view",
      "type": "function"
    },
    {
      "inputs": [
        {
          "internalType": "bytes32",
          "name": "contractId",
          "type": "bytes32"
        }
      ],
      "name": "getContractVersion",
      "outputs": [
        {
          "internalType": "uint256",
          "name": "",
          "type": "uint256"
        }
      ],
      "stateMutability": "view",
      "type": "function"
    },
    {
      "inputs": [],
      "name": "getRegistryStats",
      "outputs": [
        {
          "internalType": "uint256",
          "name": "totalContracts",
          "type": "uint256"
        },
        {
          "internalType": "uint256",
          "name": "totalVersion",
          "type": "uint256"
        },
        {
          "internalType": "bool",
          "name": "isPaused",
          "type": "bool"
        },
        {
          "internalType": "address",
          "name": "owner",
          "type": "address"
        }
      ],
      "stateMutability": "view",
      "type": "function"
    },
    {
      "inputs": [],
      "name": "getVersion",
      "outputs": [
        {
          "internalType": "uint256",
          "name": "",
          "type": "uint256"
        }
      ],
      "stateMutability": "view",
      "type": "function"
    },
    {
      "inputs": [
        {
          "internalType": "address",
          "name": "",
          "type": "address"
        }
      ],
      "name": "initialize",
      "outputs": [],
      "stateMutability": "pure",
      "type": "function"
    },
    {
      "inputs": [
        {
          "internalType": "address",
          "name": "contractAddress",
          "type": "address"
        }
      ],
      "name": "isRegisteredContract",
      "outputs": [
        {
          "internalType": "bool",
          "name": "",
          "type": "bool"
        }
      ],
      "stateMutability": "view",
      "type": "function"
    },
    {
      "inputs": [],
      "name": "listContracts",
      "outputs": [
        {
          "internalType": "bytes32[]",
          "name": "",
          "type": "bytes32[]"
        },
        {
          "internalType": "address[]",
          "name": "",
          "type": "address[]"
        }
      ],
      "stateMutability": "view",
      "type": "function"
    },
    {
      "inputs": [],
      "name": "owner",
      "outputs": [
        {
          "internalType": "address",
          "name": "",
          "type": "address"
        }
      ],
      "stateMutability": "view",
      "type": "function"
    },
    {
      "inputs": [],
      "name": "pause",
      "outputs": [],
      "stateMutability": "nonpayable",
      "type": "function"
    },
    {
      "inputs": [],
      "name": "paused",
      "outputs": [
        {
          "internalType": "bool",
          "name": "",
          "type": "bool"
        }
      ],
      "stateMutability": "view",
      "type": "function"
    },
    {
      "inputs": [
        {
          "internalType": "bytes32",
          "name": "contractId",
          "type": "bytes32"
        },
        {
          "internalType": "address",
          "name": "contractAddress",
          "type": "address"
        }
      ],
      "name": "registerContract",
      "outputs": [],
      "stateMutability": "nonpayable",
      "type": "function"
    },
    {
      "inputs": [],
      "name": "renounceOwnership",
      "outputs": [],
      "stateMutability": "nonpayable",
      "type": "function"
    },
    {
      "inputs": [
        {
          "internalType": "address",
          "name": "newOwner",
          "type": "address"
        }
      ],
      "name": "transferOwnership",
      "outputs": [],
      "stateMutability": "nonpayable",
      "type": "function"
    },
    {
      "inputs": [],
      "name": "unpause",
      "outputs": [],
      "stateMutability": "nonpayable",
      "type": "function"
    },
    {
      "inputs": [
        {
          "internalType": "bytes32",
          "name": "contractId",
          "type": "bytes32"
        },
        {
          "internalType": "address",
          "name": "newAddress",
          "type": "address"
        }
      ],
      "name": "updateContract",
      "outputs": [],
      "stateMutability": "nonpayable",
      "type": "function"
    },
    {
      "inputs": [
        {
          "internalType": "address",
          "name": "",
          "type": "address"
        }
      ],
      "name": "upgrade",
      "outputs": [],
      "stateMutability": "nonpayable",
      "type": "function"
    },
    {
      "inputs": [],
      "name": "version",
      "outputs": [
        {
          "internalType": "uint256",
          "name": "",
          "type": "uint256"
        }
      ],
      "stateMutability": "view",
      "type": "function"
    }
  ],
  "bytecode": "0x60803461016a5760008054336001600160a01b031980831682178455929392916001600160a01b03167f8be0079c531659141344cd1fd0a4f28419497f9722a3daafe3b4186f6b6457e08580a36001805560ff196002541660025560016003556020808301936f436f6e7472616374526567697374727960801b8552601084526040948585019480861060018060401b038711176101565785875251902092838252600483528582209030908254161790556003546005835285822055308152600682528285822055600754906801000000000000000082101561014257600182018060075582101561012e5782917fc5351ad620ffa6286a9a3c70acf2450c36ada1d3544d5ffde5a2c0cc9c7311999382600787945220015560035484523093a35161119f90816101708239f35b634e487b7160e01b81526032600452602490fd5b634e487b7160e01b81526041600452602490fd5b634e487b7160e01b83526041600452602483fd5b600080fdfe6040608081526004908136101561001557600080fd5b600091823560e01c9081630900f01014610f195781630d8e6e2c14610c5a578163184c2d9514610d6d5781633f4ba83a14610cb2578163438c3aff14610c795781634e0bb85914610a9d57816354fd4d5014610c5a5781635c975abb14610c36578163645c6fae14610ac557816365f3bb5d14610a9d578163697c936e14610805578163715018a6146107ab5781638456cb59146106f25781638da5cb5b146106ca578163956138ed1461059f5781639de0963d146104e3578163c4d66de814610480578163cb0e0d7d14610458578163e16c7d9814610405578163e931d7b5146102a4578163f1052af51461025e578163f2fde38b1461019b578163f689e89214610165575063ffde492d1461012b57600080fd5b346101615760203660031901126101615760209181906001600160a01b03610151610fb4565b1681526006845220549051908152f35b5080fd5b90503461019757602036600319011261019757803583526020908152918190205490516001600160a01b039091168152f35b8280fd5b905034610197576020366003190112610197576101b6610fb4565b906101bf611082565b6001600160a01b0391821692831561020c57505082546001600160a01b0319811683178455167f8be0079c531659141344cd1fd0a4f28419497f9722a3daafe3b4186f6b6457e08380a380f35b906020608492519162461bcd60e51b8352820152602660248201527f4f776e61626c653a206e6577206f776e657220697320746865207a65726f206160448201526564647265737360d01b6064820152fd5b905034610197576020366003190112610197576020926001600160a01b039183919083610289610fb4565b16825260068652828220548252855220541615159051908152f35b919050346101975782600319360112610197579190600754916102c68361106a565b926102d385519485611032565b8084526102df8161106a565b601f1993602086810193909286013685376102f98161106a565b9161030689519384611032565b8183526103128261106a565b8385019701368837855b82811061039e57505050865196879681880191885251809152606087019390855b81811061038757505050858303868301525180835291810193925b82811061036757505050500390f35b83516001600160a01b031685528695509381019392810192600101610358565b82518652899850948401949184019160010161033d565b80808a6103c76103b86103f8959e98999b9a9c9d9e610fe5565b939054600394851b1c92611155565b526103d182610fe5565b9054911b1c8752828852848720546001600160a01b03166103f28288611155565b526110da565b989796949593929861031c565b83915034610161576020366003190112610161578035808352602082905291839020546001600160a01b0316918215610442576020838551908152f35b835163094b60cd60e21b81529182015260249150fd5b5050346101615760203660031901126101615760209181906001600160a01b03610151610fb4565b905082346104e05760203660031901126104e0575060206064926104a2610fb4565b505162461bcd60e51b815291820152601f60248201527f53656c662d696e697469616c697a6174696f6e206e6f7420616c6c6f776564006044820152fd5b80fd5b9050346101975782600319360112610197576007549160035460ff6002541690602083518095638da5cb5b60e01b825281305afa93841561059557869461054a575b50825194855260208501521515908301526001600160a01b0316606082015260809150f35b9093506020813d821161058d575b8161056560209383611032565b8101031261058957516001600160a01b038116810361058957608095509238610525565b8580fd5b3d9150610558565b83513d88823e3d90fd5b90503461019757816003193601126101975780356105bb610fcf565b84546001600160a01b039491908516331415806106c1575b6106b15760ff600254166106a157841693841561068a576105f26110ff565b82865283602052818620541692831561067557908291828752602052808620856001600160601b0360a01b825416179055600560205280862061063581546110da565b9055838652600660205285818120558486528520557ff8a6175bca1ba37d682089187edc5e20a859989727f10ca6bd9a5bc0de8caf948480a46001805580f35b82602492519163094b60cd60e21b8352820152fd5b8151634726455360e11b8152808501869052602490fd5b815163292efb9560e01b81528490fd5b815163ea8e4eb560e01b81528490fd5b50333b156105d3565b505034610161578160031936011261016157905490516001600160a01b039091168152602090f35b90503461019757826003193601126101975761070c611082565b6002549060ff8216610775575060ff1916600117600255513381527f62e78cea01bee320cd4e420270b5ea74000d11b0c9f74754ebdbfc544b05a25890602090a1337f0791e63d77b61bb6580956f9ccd39556c860ae1c97847fe2ee766e1d361b6baf8280a280f35b606490602084519162461bcd60e51b8352820152601060248201526f14185d5cd8589b194e881c185d5cd95960821b6044820152fd5b83346104e057806003193601126104e0576107c4611082565b80546001600160a01b03198116825581906001600160a01b03167f8be0079c531659141344cd1fd0a4f28419497f9722a3daafe3b4186f6b6457e08280a380f35b83833461016157806003193601126101615782359267ffffffffffffffff90818511610a995736602386011215610a995784810135946108448661106a565b9461085185519687611032565b868652602091828701906024918260059a8b1b83010191368311610a855783869101915b838310610a895750505050803594851161016157366023860112156101615784840135946108a28661106a565b956108af88519788611032565b80875282858801918b1b83010191368311610a85578301905b828210610a6657505082546001600160a01b03929150821633141580610a5d575b610a4d5760ff60025416610a3d578751865103610a045750815b8751811015610a0057808261091b61092e9389611155565b51161515806109e3575b610933576110da565b610903565b8261093e8289611155565b511661094a828b611155565b51855286865288852080546001600160a01b031916909117905561096e818a611155565b51845289855260018089862055610985828b611155565b5184610991848b611155565b5116865260068752898620556109a7828b611155565b517fc5351ad620ffa6286a9a3c70acf2450c36ada1d3544d5ffde5a2c0cc9c73119987866109d5868d611155565b5116938c51908152a36110da565b506109ee818a611155565b51845285855282888520541615610925565b8280f35b846015606492868a519362461bcd60e51b855284015282015274082e4e4c2f240d8cadccee8d040dad2e6dac2e8c6d605b1b6044820152fd5b865163292efb9560e01b81528590fd5b865163ea8e4eb560e01b81528590fd5b50333b156108e9565b81356001600160a01b03811681036105895781529085019085016108c8565b8480fd5b8235815291810191869101610875565b8380fd5b9050346101975760203660031901126101975760209282913581526005845220549051908152f35b91905034610197578060031936011261019757813590610ae3610fcf565b84546001600160a01b03949190851633141580610c2d575b610c1e5760ff60025416610c0f578416938415610bf957610b1a6110ff565b838652816020528286205416610be55782855280602052818520846001600160601b0360a01b8254161790556005602052600182862055838552600660205282828620556007549068010000000000000000821015610bd257507fc5351ad620ffa6286a9a3c70acf2450c36ada1d3544d5ffde5a2c0cc9c7311999183610bc3610bac84600160209601600755610fe5565b819391549060031b91821b91600019901b19161790565b90555160018152a36001805580f35b634e487b7160e01b865260419052602485fd5b826024925191629aed4360e11b8352820152fd5b50836024925191634726455360e11b8352820152fd5b50905163292efb9560e01b8152fd5b50905163ea8e4eb560e01b8152fd5b50333b15610afb565b50503461016157816003193601126101615760209060ff6002541690519015158152f35b5050346101615781600319360112610161576020906003549051908152f35b9050346101975760203660031901126101975735916007548310156104e05750610ca4602092610fe5565b91905490519160031b1c8152f35b905034610197578260031936011261019757610ccc611082565b6002549060ff821615610d33575060ff1916600255513381527f5db9ee0a495bf2e6ff9c91a7834c1ba4fdd244a5e8aa4e537bd38aeae4b073aa90602090a1337f9ba7d7851c953f6a5f0aad8bccc53ba3ecfe15944a69b407b3be74189f4698188280a280f35b606490602084519162461bcd60e51b8352820152601460248201527314185d5cd8589b194e881b9bdd081c185d5cd95960621b6044820152fd5b919050346101975760203660031901126101975782548235906001600160a01b0390811633141580610f10575b610f015760ff60025416610ef257610db06110ff565b818552836020528285205416918215610edd578490828252846020528082206001600160601b0360a01b8154169055600560205281818120558382526006602052812055835b6007805480831015610ed257908391610e0e84610fe5565b939054600394851b1c14610e2d57505050610e28906110da565b610df6565b91939495909260001992838101908111610ebf57610bac610e50610e5c92610fe5565b905490881b1c92610fe5565b90558254908115610eac5750810192610e7484610fe5565b81939154921b1b19169055555b7f23603681ff6a56fec85f34878fbd19865539d41bc8c3e9c9cae5c5ede2512d698380a36001805580f35b634e487b7160e01b885260319052602487fd5b634e487b7160e01b895260118352602489fd5b505050909150610e81565b5163094b60cd60e21b81529283015250602490fd5b50505163292efb9560e01b8152fd5b50505163ea8e4eb560e01b8152fd5b50333b15610d9a565b90503461019757602036600319011261019757610f34610fb4565b50610f3d611082565b610f486003546110da565b60035581519060208201926f436f6e7472616374526567697374727960801b8452601083528083019183831067ffffffffffffffff841117610bd2575052519020309030907ff8a6175bca1ba37d682089187edc5e20a859989727f10ca6bd9a5bc0de8caf948480a480f35b600435906001600160a01b0382168203610fca57565b600080fd5b602435906001600160a01b0382168203610fca57565b60075481101561101c5760076000527fa66cc928b5edb82af9bd49922954155ab7b0942694bea4ce44661d9a8736c6880190600090565b634e487b7160e01b600052603260045260246000fd5b90601f8019910116810190811067ffffffffffffffff82111761105457604052565b634e487b7160e01b600052604160045260246000fd5b67ffffffffffffffff81116110545760051b60200190565b6000546001600160a01b0316330361109657565b606460405162461bcd60e51b815260206004820152602060248201527f4f776e61626c653a2063616c6c6572206973206e6f7420746865206f776e65726044820152fd5b60001981146110e95760010190565b634e487b7160e01b600052601160045260246000fd5b600260015414611110576002600155565b60405162461bcd60e51b815260206004820152601f60248201527f5265656e7472616e637947756172643a207265656e7472616e742063616c6c006044820152606490fd5b805182101561101c5760209160051b01019056fea264697066735822122000a8925878702aa83898e8aac387cadeeae921401c27e4dff146b8f15e7069d364736f6c63430008130033",
  "linkReferences": {},
  "deployedLinkReferences": {}
}