{
  "_format": "hh-sol-artifact-1",
  "contractName": "MemoryVerifier",
  "sourceName": "contracts/MemoryVerifier.sol",
  "abi": [
    {
      "inputs": [
        {
          "internalType": "address",
          "name": "_zkVerifier",
          "type": "address"
        }
      ],
      "stateMutability": "nonpayable",
      "type": "constructor"
    },
    {
      "anonymous": false,
      "inputs": [
        {
          "indexed": true,
          "internalType": "address",
          "name": "agent",
          "type": "address"
        },
        {
          "indexed": false,
          "internalType": "string",
          "name": "cid",
          "type": "string"
        },
        {
          "indexed": false,
          "internalType": "bool",
          "name": "isValid",
          "type": "bool"
        }
      ],
      "name": "MemoryVerified",
      "type": "event"
    },
    {
      "anonymous": false,
      "inputs": [
        {
          "indexed": true,
          "internalType": "address",
          "name": "previousOwner",
          "type": "address"
        },
        {
          "indexed": true,
          "internalType": "address",
          "name": "newOwner",
          "type": "address"
        }
      ],
      "name": "OwnershipTransferred",
      "type": "event"
    },
    {
      "inputs": [],
      "name": "owner",
      "outputs": [
        {
          "internalType": "address",
          "name": "",
          "type": "address"
        }
      ],
      "stateMutability": "view",
      "type": "function"
    },
    {
      "inputs": [],
      "name": "renounceOwnership",
      "outputs": [],
      "stateMutability": "nonpayable",
      "type": "function"
    },
    {
      "inputs": [
        {
          "internalType": "address",
          "name": "newOwner",
          "type": "address"
        }
      ],
      "name": "transferOwnership",
      "outputs": [],
      "stateMutability": "nonpayable",
      "type": "function"
    },
    {
      "inputs": [
        {
          "internalType": "address",
          "name": "_agent",
          "type": "address"
        },
        {
          "internalType": "string",
          "name": "_cid",
          "type": "string"
        },
        {
          "internalType": "bytes",
          "name": "_zkProof",
          "type": "bytes"
        }
      ],
      "name": "verifyMemoryIntegrity",
      "outputs": [],
      "stateMutability": "nonpayable",
      "type": "function"
    },
    {
      "inputs": [],
      "name": "zkVerifier",
      "outputs": [
        {
          "internalType": "contract ZKReceiptVerifier",
          "name": "",
          "type": "address"
        }
      ],
      "stateMutability": "view",
      "type": "function"
    }
  ],
  "bytecode": "0x6080346100a757601f61042338819003918201601f19168301916001600160401b038311848410176100ac578084926020946040528339810103126100a757516001600160a01b0390818116908190036100a75760005460018060a01b0319903382821617600055604051933391167f8be0079c531659141344cd1fd0a4f28419497f9722a3daafe3b4186f6b6457e0600080a3600154161760015561036090816100c38239f35b600080fd5b634e487b7160e01b600052604160045260246000fdfe60806040818152600436101561001457600080fd5b600091823560e01c9081632b588c7d146101c857508063715018a61461016b5780638da5cb5b14610144578063d6df096d1461011c5763f2fde38b1461005957600080fd5b3461011857602036600319011261011857610072610289565b61007a6102d2565b6001600160a01b039081169182156100c6575082546001600160a01b0319811683178455167f8be0079c531659141344cd1fd0a4f28419497f9722a3daafe3b4186f6b6457e08380a380f35b5162461bcd60e51b815260206004820152602660248201527f4f776e61626c653a206e6577206f776e657220697320746865207a65726f206160448201526564647265737360d01b6064820152608490fd5b5080fd5b503461011857816003193601126101185760015490516001600160a01b039091168152602090f35b5034610118578160031936011261011857905490516001600160a01b039091168152602090f35b82346101c557806003193601126101c5576101846102d2565b80546001600160a01b03198116825581906001600160a01b03167f8be0079c531659141344cd1fd0a4f28419497f9722a3daafe3b4186f6b6457e08280a380f35b80fd5b91905034610285576060366003190112610285576101e4610289565b9167ffffffffffffffff602435818111610281576102069036906004016102a4565b9460443592831161027d577f64900d306228a519d0a64dd57fb79b507267b82998c0e88a2e202154dad1b4cf948685938161024760609736906004016102a4565b948091508752860152858501378287018401889052151560208301526001600160a01b031694601f01601f19168101030190a280f35b8680fd5b8580fd5b8280fd5b600435906001600160a01b038216820361029f57565b600080fd5b9181601f8401121561029f5782359167ffffffffffffffff831161029f576020838186019501011161029f57565b6000546001600160a01b031633036102e657565b606460405162461bcd60e51b815260206004820152602060248201527f4f776e61626c653a2063616c6c6572206973206e6f7420746865206f776e65726044820152fdfea2646970667358221220b772e68a80c26c872a99d794f413a189caab45c72bfe19a38d14c3acd9d01c3f64736f6c63430008130033",
  "linkReferences": {},
  "deployedLinkReferences": {}
}