{
  "_format": "hh-sol-artifact-1",
  "contractName": "AgentCommunication",
  "sourceName": "contracts/AgentCommunication.sol",
  "abi": [
    {
      "anonymous": false,
      "inputs": [
        {
          "indexed": true,
          "internalType": "address",
          "name": "sender",
          "type": "address"
        },
        {
          "indexed": true,
          "internalType": "address",
          "name": "recipient",
          "type": "address"
        }
      ],
      "name": "MessageSent",
      "type": "event"
    },
    {
      "anonymous": false,
      "inputs": [
        {
          "indexed": true,
          "internalType": "address",
          "name": "previousOwner",
          "type": "address"
        },
        {
          "indexed": true,
          "internalType": "address",
          "name": "newOwner",
          "type": "address"
        }
      ],
      "name": "OwnershipTransferred",
      "type": "event"
    },
    {
      "inputs": [],
      "name": "getMessages",
      "outputs": [
        {
          "components": [
            {
              "internalType": "address",
              "name": "sender",
              "type": "address"
            },
            {
              "internalType": "address",
              "name": "recipient",
              "type": "address"
            },
            {
              "internalType": "string",
              "name": "encryptedContent",
              "type": "string"
            },
            {
              "internalType": "uint256",
              "name": "timestamp",
              "type": "uint256"
            }
          ],
          "internalType": "struct AgentCommunication.Message[]",
          "name": "",
          "type": "tuple[]"
        }
      ],
      "stateMutability": "view",
      "type": "function"
    },
    {
      "inputs": [
        {
          "internalType": "address",
          "name": "",
          "type": "address"
        },
        {
          "internalType": "uint256",
          "name": "",
          "type": "uint256"
        }
      ],
      "name": "inbox",
      "outputs": [
        {
          "internalType": "address",
          "name": "sender",
          "type": "address"
        },
        {
          "internalType": "address",
          "name": "recipient",
          "type": "address"
        },
        {
          "internalType": "string",
          "name": "encryptedContent",
          "type": "string"
        },
        {
          "internalType": "uint256",
          "name": "timestamp",
          "type": "uint256"
        }
      ],
      "stateMutability": "view",
      "type": "function"
    },
    {
      "inputs": [],
      "name": "owner",
      "outputs": [
        {
          "internalType": "address",
          "name": "",
          "type": "address"
        }
      ],
      "stateMutability": "view",
      "type": "function"
    },
    {
      "inputs": [],
      "name": "renounceOwnership",
      "outputs": [],
      "stateMutability": "nonpayable",
      "type": "function"
    },
    {
      "inputs": [
        {
          "internalType": "address",
          "name": "_recipient",
          "type": "address"
        },
        {
          "internalType": "string",
          "name": "_encryptedContent",
          "type": "string"
        }
      ],
      "name": "sendMessage",
      "outputs": [],
      "stateMutability": "nonpayable",
      "type": "function"
    },
    {
      "inputs": [
        {
          "internalType": "address",
          "name": "newOwner",
          "type": "address"
        }
      ],
      "name": "transferOwnership",
      "outputs": [],
      "stateMutability": "nonpayable",
      "type": "function"
    }
  ],
  "bytecode": "0x6080806040523461005b5760008054336001600160a01b0319821681178355916001600160a01b03909116907f8be0079c531659141344cd1fd0a4f28419497f9722a3daafe3b4186f6b6457e09080a361087890816100618239f35b600080fdfe6040608081526004908136101561001557600080fd5b600091823560e01c80634d622e7a146105985780635ff6cbf314610438578063715018a6146103db5780638da5cb5b146103b3578063de6f24bb146101285763f2fde38b1461006357600080fd5b346101245760203660031901126101245761007c610629565b906100856107ea565b6001600160a01b039182169283156100d257505082546001600160a01b0319811683178455167f8be0079c531659141344cd1fd0a4f28419497f9722a3daafe3b4186f6b6457e08380a380f35b906020608492519162461bcd60e51b8352820152602660248201527f4f776e61626c653a206e6577206f776e657220697320746865207a65726f206160448201526564647265737360d01b6064820152fd5b8280fd5b509190346103af57806003193601126103af57610143610629565b6024359167ffffffffffffffff948584116103ab57366023850112156103ab5783810135908682116103a75736602483870101116103a757600160a01b60019003809416948587526001916020838152858920958051976101a3896106b0565b338952828901918a83528b8482519980601f19998c848c601f850116016101c9916106e2565b818d52602401838d01378a01015289019687526060890197428952805490680100000000000000008210156103945790610207918882018155610644565b9990996103825781905116906bffffffffffffffffffffffff60a01b91828b5416178a55868a01925116908254161790556002870194519182519a8b1161036f57506102538554610676565b601f8111610329575b508092601f8b116001146102c65750509780928192899a600398999a946102bb575b50501b9160001990861b1c19161790555b51910155337f921d068ef716f8cffdc14d917b9e3b77c957cd11d308c2c4f92732cc0190f8618380a380f35b01519250388061027e565b8a9391929a1699858a52828a20928a905b8c821061031257505083600398999a9b106102fa575b505050811b01905561028f565b015160001983881b60f8161c191690553880806102ed565b8087859682949686015181550195019301906102d7565b858a52818a20601f8c0160051c810191838d10610365575b601f0160051c019085905b82811061035a57505061025c565b8b815501859061034c565b9091508190610341565b634e487b7160e01b8a5260419052602489fd5b634e487b7160e01b8c528b855260248cfd5b634e487b7160e01b8d526041865260248dfd5b8580fd5b8480fd5b5080fd5b5050346103af57816003193601126103af57905490516001600160a01b039091168152602090f35b83346104355780600319360112610435576103f46107ea565b80546001600160a01b03198116825581906001600160a01b03167f8be0079c531659141344cd1fd0a4f28419497f9722a3daafe3b4186f6b6457e08280a380f35b80fd5b5034610124578260031936011261012457338352600190602082815283852093845467ffffffffffffffff8111610585578685858893855191610480888360051b01846106e2565b8183528783018096865288862086915b84831061052957505050505084519586958187019282885251809352808701818460051b8901019695915b8483106104c85788880389f35b9193959750919384808298603f198c82030186528a519060018060a01b0380835116825283830151168382015261050b86830151608080898501528301906107aa565b916060809101519101529901930193019092889796949295936104bb565b95838b8b97999c98839b9c5161053e816106b0565b85546001600160a01b03908116825285870154168382015261056260028701610704565b8a8201526003860154606082015281520192019201919099969498979599610490565b634e487b7160e01b875260418452602487fd5b8284346104355781600319360112610435576105b2610629565b6001600160a01b039081168252600160205282822080549192602435928310156104355750906105e191610644565b509161061f8284541692600185015416936080600361060260028401610704565b9201549380519687968752602087015285015260808401906107aa565b9060608301520390f35b600435906001600160a01b038216820361063f57565b600080fd5b80548210156106605760005260206000209060021b0190600090565b634e487b7160e01b600052603260045260246000fd5b90600182811c921680156106a6575b602083101461069057565b634e487b7160e01b600052602260045260246000fd5b91607f1691610685565b6080810190811067ffffffffffffffff8211176106cc57604052565b634e487b7160e01b600052604160045260246000fd5b90601f8019910116810190811067ffffffffffffffff8211176106cc57604052565b906040519182600082549261071884610676565b9081845260019485811690816000146107875750600114610744575b5050610742925003836106e2565b565b9093915060005260209081600020936000915b81831061076f57505061074293508201013880610734565b85548884018501529485019487945091830191610757565b91505061074294506020925060ff191682840152151560051b8201013880610734565b919082519283825260005b8481106107d6575050826000602080949584010152601f8019910116010190565b6020818301810151848301820152016107b5565b6000546001600160a01b031633036107fe57565b606460405162461bcd60e51b815260206004820152602060248201527f4f776e61626c653a2063616c6c6572206973206e6f7420746865206f776e65726044820152fdfea2646970667358221220186227e944a6d3e6ec50cd21d5f4fefba461c35691fa5e5d008ead10afc767c164736f6c63430008130033",
  "linkReferences": {},
  "deployedLinkReferences": {}
}