{
  "_format": "hh-sol-artifact-1",
  "contractName": "CrossChainBridge",
  "sourceName": "contracts/CrossChainBridge.sol",
  "abi": [
    {
      "inputs": [
        {
          "internalType": "address",
          "name": "_feeRecipient",
          "type": "address"
        }
      ],
      "stateMutability": "nonpayable",
      "type": "constructor"
    },
    {
      "anonymous": false,
      "inputs": [
        {
          "indexed": true,
          "internalType": "uint256",
          "name": "requestId",
          "type": "uint256"
        }
      ],
      "name": "BridgeCancelled",
      "type": "event"
    },
    {
      "anonymous": false,
      "inputs": [
        {
          "indexed": true,
          "internalType": "uint256",
          "name": "requestId",
          "type": "uint256"
        },
        {
          "indexed": false,
          "internalType": "bytes32",
          "name": "unlockTxHash",
          "type": "bytes32"
        }
      ],
      "name": "BridgeCompleted",
      "type": "event"
    },
    {
      "anonymous": false,
      "inputs": [
        {
          "indexed": true,
          "internalType": "uint256",
          "name": "requestId",
          "type": "uint256"
        },
        {
          "indexed": true,
          "internalType": "address",
          "name": "validator",
          "type": "address"
        },
        {
          "indexed": false,
          "internalType": "bytes32",
          "name": "lockTxHash",
          "type": "bytes32"
        }
      ],
      "name": "BridgeConfirmed",
      "type": "event"
    },
    {
      "anonymous": false,
      "inputs": [
        {
          "indexed": true,
          "internalType": "uint256",
          "name": "requestId",
          "type": "uint256"
        },
        {
          "indexed": false,
          "internalType": "string",
          "name": "reason",
          "type": "string"
        }
      ],
      "name": "BridgeFailed",
      "type": "event"
    },
    {
      "anonymous": false,
      "inputs": [
        {
          "indexed": true,
          "internalType": "uint256",
          "name": "requestId",
          "type": "uint256"
        },
        {
          "indexed": true,
          "internalType": "address",
          "name": "sender",
          "type": "address"
        },
        {
          "indexed": true,
          "internalType": "address",
          "name": "recipient",
          "type": "address"
        },
        {
          "indexed": false,
          "internalType": "address",
          "name": "sourceToken",
          "type": "address"
        },
        {
          "indexed": false,
          "internalType": "uint256",
          "name": "amount",
          "type": "uint256"
        },
        {
          "indexed": false,
          "internalType": "uint256",
          "name": "sourceChainId",
          "type": "uint256"
        },
        {
          "indexed": false,
          "internalType": "uint256",
          "name": "targetChainId",
          "type": "uint256"
        }
      ],
      "name": "BridgeInitiated",
      "type": "event"
    },
    {
      "anonymous": false,
      "inputs": [
        {
          "indexed": true,
          "internalType": "uint256",
          "name": "chainId",
          "type": "uint256"
        },
        {
          "indexed": false,
          "internalType": "string",
          "name": "name",
          "type": "string"
        },
        {
          "indexed": false,
          "internalType": "enum CrossChainBridge.ChainType",
          "name": "chainType",
          "type": "uint8"
        }
      ],
      "name": "ChainSupported",
      "type": "event"
    },
    {
      "anonymous": false,
      "inputs": [
        {
          "indexed": true,
          "internalType": "address",
          "name": "previousOwner",
          "type": "address"
        },
        {
          "indexed": true,
          "internalType": "address",
          "name": "newOwner",
          "type": "address"
        }
      ],
      "name": "OwnershipTransferred",
      "type": "event"
    },
    {
      "anonymous": false,
      "inputs": [
        {
          "indexed": false,
          "internalType": "address",
          "name": "account",
          "type": "address"
        }
      ],
      "name": "Paused",
      "type": "event"
    },
    {
      "anonymous": false,
      "inputs": [
        {
          "indexed": true,
          "internalType": "address",
          "name": "token",
          "type": "address"
        },
        {
          "indexed": false,
          "internalType": "uint256",
          "name": "bridgeLimit",
          "type": "uint256"
        },
        {
          "indexed": false,
          "internalType": "uint256",
          "name": "fee",
          "type": "uint256"
        }
      ],
      "name": "TokenSupported",
      "type": "event"
    },
    {
      "anonymous": false,
      "inputs": [
        {
          "indexed": false,
          "internalType": "address",
          "name": "account",
          "type": "address"
        }
      ],
      "name": "Unpaused",
      "type": "event"
    },
    {
      "anonymous": false,
      "inputs": [
        {
          "indexed": true,
          "internalType": "address",
          "name": "validator",
          "type": "address"
        },
        {
          "indexed": false,
          "internalType": "uint256",
          "name": "weight",
          "type": "uint256"
        }
      ],
      "name": "ValidatorAdded",
      "type": "event"
    },
    {
      "anonymous": false,
      "inputs": [
        {
          "indexed": true,
          "internalType": "address",
          "name": "validator",
          "type": "address"
        }
      ],
      "name": "ValidatorRemoved",
      "type": "event"
    },
    {
      "inputs": [],
      "name": "BASIS_POINTS",
      "outputs": [
        {
          "internalType": "uint256",
          "name": "",
          "type": "uint256"
        }
      ],
      "stateMutability": "view",
      "type": "function"
    },
    {
      "inputs": [],
      "name": "BRIDGE_FEE_PERCENTAGE",
      "outputs": [
        {
          "internalType": "uint256",
          "name": "",
          "type": "uint256"
        }
      ],
      "stateMutability": "view",
      "type": "function"
    },
    {
      "inputs": [],
      "name": "BRIDGE_TIMEOUT",
      "outputs": [
        {
          "internalType": "uint256",
          "name": "",
          "type": "uint256"
        }
      ],
      "stateMutability": "view",
      "type": "function"
    },
    {
      "inputs": [],
      "name": "MAX_BRIDGE_AMOUNT",
      "outputs": [
        {
          "internalType": "uint256",
          "name": "",
          "type": "uint256"
        }
      ],
      "stateMutability": "view",
      "type": "function"
    },
    {
      "inputs": [],
      "name": "MAX_FEE",
      "outputs": [
        {
          "internalType": "uint256",
          "name": "",
          "type": "uint256"
        }
      ],
      "stateMutability": "view",
      "type": "function"
    },
    {
      "inputs": [],
      "name": "MIN_CONFIRMATIONS",
      "outputs": [
        {
          "internalType": "uint256",
          "name": "",
          "type": "uint256"
        }
      ],
      "stateMutability": "view",
      "type": "function"
    },
    {
      "inputs": [
        {
          "internalType": "uint256",
          "name": "",
          "type": "uint256"
        }
      ],
      "name": "activeValidators",
      "outputs": [
        {
          "internalType": "address",
          "name": "",
          "type": "address"
        }
      ],
      "stateMutability": "view",
      "type": "function"
    },
    {
      "inputs": [
        {
          "internalType": "uint256",
          "name": "chainId",
          "type": "uint256"
        },
        {
          "internalType": "enum CrossChainBridge.ChainType",
          "name": "chainType",
          "type": "uint8"
        },
        {
          "internalType": "string",
          "name": "name",
          "type": "string"
        },
        {
          "internalType": "address",
          "name": "bridgeContract",
          "type": "address"
        },
        {
          "internalType": "uint256",
          "name": "minConfirmations",
          "type": "uint256"
        },
        {
          "internalType": "uint256",
          "name": "avgBlockTime",
          "type": "uint256"
        }
      ],
      "name": "addSupportedChain",
      "outputs": [],
      "stateMutability": "nonpayable",
      "type": "function"
    },
    {
      "inputs": [
        {
          "internalType": "address",
          "name": "tokenAddress",
          "type": "address"
        },
        {
          "internalType": "uint256",
          "name": "bridgeLimit",
          "type": "uint256"
        },
        {
          "internalType": "uint256",
          "name": "feePercentage",
          "type": "uint256"
        },
        {
          "internalType": "bool",
          "name": "requiresWhitelist",
          "type": "bool"
        }
      ],
      "name": "addSupportedToken",
      "outputs": [],
      "stateMutability": "nonpayable",
      "type": "function"
    },
    {
      "inputs": [
        {
          "internalType": "address",
          "name": "validatorAddress",
          "type": "address"
        },
        {
          "internalType": "uint256",
          "name": "weight",
          "type": "uint256"
        }
      ],
      "name": "addValidator",
      "outputs": [],
      "stateMutability": "nonpayable",
      "type": "function"
    },
    {
      "inputs": [
        {
          "internalType": "uint256",
          "name": "",
          "type": "uint256"
        }
      ],
      "name": "bridgeRequests",
      "outputs": [
        {
          "internalType": "uint256",
          "name": "requestId",
          "type": "uint256"
        },
        {
          "internalType": "address",
          "name": "sourceToken",
          "type": "address"
        },
        {
          "internalType": "address",
          "name": "targetToken",
          "type": "address"
        },
        {
          "internalType": "uint256",
          "name": "amount",
          "type": "uint256"
        },
        {
          "internalType": "uint256",
          "name": "sourceChainId",
          "type": "uint256"
        },
        {
          "internalType": "uint256",
          "name": "targetChainId",
          "type": "uint256"
        },
        {
          "internalType": "address",
          "name": "recipient",
          "type": "address"
        },
        {
          "internalType": "address",
          "name": "sender",
          "type": "address"
        },
        {
          "internalType": "uint256",
          "name": "fee",
          "type": "uint256"
        },
        {
          "internalType": "bytes32",
          "name": "lockTxHash",
          "type": "bytes32"
        },
        {
          "internalType": "bytes32",
          "name": "unlockTxHash",
          "type": "bytes32"
        },
        {
          "internalType": "enum CrossChainBridge.BridgeStatus",
          "name": "status",
          "type": "uint8"
        },
        {
          "internalType": "uint256",
          "name": "createdAt",
          "type": "uint256"
        },
        {
          "internalType": "uint256",
          "name": "confirmedAt",
          "type": "uint256"
        },
        {
          "internalType": "uint256",
          "name": "completedAt",
          "type": "uint256"
        },
        {
          "internalType": "uint256",
          "name": "confirmations",
          "type": "uint256"
        }
      ],
      "stateMutability": "view",
      "type": "function"
    },
    {
      "inputs": [
        {
          "internalType": "uint256",
          "name": "requestId",
          "type": "uint256"
        },
        {
          "internalType": "string",
          "name": "reason",
          "type": "string"
        }
      ],
      "name": "cancelBridge",
      "outputs": [],
      "stateMutability": "nonpayable",
      "type": "function"
    },
    {
      "inputs": [
        {
          "internalType": "uint256",
          "name": "",
          "type": "uint256"
        },
        {
          "internalType": "uint256",
          "name": "",
          "type": "uint256"
        }
      ],
      "name": "chainValidators",
      "outputs": [
        {
          "internalType": "address",
          "name": "",
          "type": "address"
        }
      ],
      "stateMutability": "view",
      "type": "function"
    },
    {
      "inputs": [
        {
          "internalType": "uint256",
          "name": "requestId",
          "type": "uint256"
        },
        {
          "internalType": "bytes32",
          "name": "unlockTxHash",
          "type": "bytes32"
        },
        {
          "internalType": "bytes32[]",
          "name": "proof",
          "type": "bytes32[]"
        }
      ],
      "name": "completeBridge",
      "outputs": [],
      "stateMutability": "nonpayable",
      "type": "function"
    },
    {
      "inputs": [
        {
          "internalType": "uint256",
          "name": "requestId",
          "type": "uint256"
        },
        {
          "internalType": "bytes32",
          "name": "lockTxHash",
          "type": "bytes32"
        },
        {
          "internalType": "bytes",
          "name": "signature",
          "type": "bytes"
        }
      ],
      "name": "confirmBridge",
      "outputs": [],
      "stateMutability": "nonpayable",
      "type": "function"
    },
    {
      "inputs": [],
      "name": "emergencyPause",
      "outputs": [],
      "stateMutability": "nonpayable",
      "type": "function"
    },
    {
      "inputs": [
        {
          "internalType": "address",
          "name": "token",
          "type": "address"
        },
        {
          "internalType": "uint256",
          "name": "amount",
          "type": "uint256"
        }
      ],
      "name": "emergencyWithdraw",
      "outputs": [],
      "stateMutability": "nonpayable",
      "type": "function"
    },
    {
      "inputs": [],
      "name": "feeRecipient",
      "outputs": [
        {
          "internalType": "address",
          "name": "",
          "type": "address"
        }
      ],
      "stateMutability": "view",
      "type": "function"
    },
    {
      "inputs": [
        {
          "internalType": "uint256",
          "name": "requestId",
          "type": "uint256"
        }
      ],
      "name": "getBridgeRequest",
      "outputs": [
        {
          "internalType": "uint256",
          "name": "sourceChainId",
          "type": "uint256"
        },
        {
          "internalType": "uint256",
          "name": "targetChainId",
          "type": "uint256"
        },
        {
          "internalType": "address",
          "name": "sourceToken",
          "type": "address"
        },
        {
          "internalType": "uint256",
          "name": "amount",
          "type": "uint256"
        },
        {
          "internalType": "address",
          "name": "recipient",
          "type": "address"
        },
        {
          "internalType": "enum CrossChainBridge.BridgeStatus",
          "name": "status",
          "type": "uint8"
        },
        {
          "internalType": "uint256",
          "name": "createdAt",
          "type": "uint256"
        }
      ],
      "stateMutability": "view",
      "type": "function"
    },
    {
      "inputs": [
        {
          "internalType": "address",
          "name": "user",
          "type": "address"
        }
      ],
      "name": "getUserBridgeHistory",
      "outputs": [
        {
          "internalType": "uint256[]",
          "name": "requestIds",
          "type": "uint256[]"
        }
      ],
      "stateMutability": "view",
      "type": "function"
    },
    {
      "inputs": [
        {
          "internalType": "address",
          "name": "sourceToken",
          "type": "address"
        },
        {
          "internalType": "address",
          "name": "targetToken",
          "type": "address"
        },
        {
          "internalType": "uint256",
          "name": "amount",
          "type": "uint256"
        },
        {
          "internalType": "uint256",
          "name": "targetChainId",
          "type": "uint256"
        },
        {
          "internalType": "address",
          "name": "recipient",
          "type": "address"
        }
      ],
      "name": "initiateBridge",
      "outputs": [
        {
          "internalType": "uint256",
          "name": "requestId",
          "type": "uint256"
        }
      ],
      "stateMutability": "nonpayable",
      "type": "function"
    },
    {
      "inputs": [],
      "name": "merkleRoot",
      "outputs": [
        {
          "internalType": "bytes32",
          "name": "",
          "type": "bytes32"
        }
      ],
      "stateMutability": "view",
      "type": "function"
    },
    {
      "inputs": [],
      "name": "owner",
      "outputs": [
        {
          "internalType": "address",
          "name": "",
          "type": "address"
        }
      ],
      "stateMutability": "view",
      "type": "function"
    },
    {
      "inputs": [],
      "name": "pause",
      "outputs": [],
      "stateMutability": "nonpayable",
      "type": "function"
    },
    {
      "inputs": [],
      "name": "paused",
      "outputs": [
        {
          "internalType": "bool",
          "name": "",
          "type": "bool"
        }
      ],
      "stateMutability": "view",
      "type": "function"
    },
    {
      "inputs": [
        {
          "internalType": "bytes32",
          "name": "",
          "type": "bytes32"
        }
      ],
      "name": "processedTxHashes",
      "outputs": [
        {
          "internalType": "bool",
          "name": "",
          "type": "bool"
        }
      ],
      "stateMutability": "view",
      "type": "function"
    },
    {
      "inputs": [
        {
          "internalType": "address",
          "name": "validatorAddress",
          "type": "address"
        }
      ],
      "name": "removeValidator",
      "outputs": [],
      "stateMutability": "nonpayable",
      "type": "function"
    },
    {
      "inputs": [],
      "name": "renounceOwnership",
      "outputs": [],
      "stateMutability": "nonpayable",
      "type": "function"
    },
    {
      "inputs": [],
      "name": "requestCounter",
      "outputs": [
        {
          "internalType": "uint256",
          "name": "",
          "type": "uint256"
        }
      ],
      "stateMutability": "view",
      "type": "function"
    },
    {
      "inputs": [
        {
          "internalType": "address",
          "name": "newFeeRecipient",
          "type": "address"
        }
      ],
      "name": "setFeeRecipient",
      "outputs": [],
      "stateMutability": "nonpayable",
      "type": "function"
    },
    {
      "inputs": [
        {
          "internalType": "uint256",
          "name": "",
          "type": "uint256"
        }
      ],
      "name": "supportedChainIds",
      "outputs": [
        {
          "internalType": "uint256",
          "name": "",
          "type": "uint256"
        }
      ],
      "stateMutability": "view",
      "type": "function"
    },
    {
      "inputs": [
        {
          "internalType": "uint256",
          "name": "",
          "type": "uint256"
        }
      ],
      "name": "supportedChains",
      "outputs": [
        {
          "internalType": "uint256",
          "name": "chainId",
          "type": "uint256"
        },
        {
          "internalType": "enum CrossChainBridge.ChainType",
          "name": "chainType",
          "type": "uint8"
        },
        {
          "internalType": "string",
          "name": "name",
          "type": "string"
        },
        {
          "internalType": "bool",
          "name": "isActive",
          "type": "bool"
        },
        {
          "internalType": "address",
          "name": "bridgeContract",
          "type": "address"
        },
        {
          "internalType": "uint256",
          "name": "minConfirmations",
          "type": "uint256"
        },
        {
          "internalType": "uint256",
          "name": "avgBlockTime",
          "type": "uint256"
        }
      ],
      "stateMutability": "view",
      "type": "function"
    },
    {
      "inputs": [
        {
          "internalType": "uint256",
          "name": "",
          "type": "uint256"
        }
      ],
      "name": "supportedTokenAddresses",
      "outputs": [
        {
          "internalType": "address",
          "name": "",
          "type": "address"
        }
      ],
      "stateMutability": "view",
      "type": "function"
    },
    {
      "inputs": [
        {
          "internalType": "address",
          "name": "",
          "type": "address"
        }
      ],
      "name": "supportedTokens",
      "outputs": [
        {
          "internalType": "address",
          "name": "tokenAddress",
          "type": "address"
        },
        {
          "internalType": "bool",
          "name": "isActive",
          "type": "bool"
        },
        {
          "internalType": "uint256",
          "name": "bridgeLimit",
          "type": "uint256"
        },
        {
          "internalType": "uint256",
          "name": "feePercentage",
          "type": "uint256"
        },
        {
          "internalType": "bool",
          "name": "requiresWhitelist",
          "type": "bool"
        }
      ],
      "stateMutability": "view",
      "type": "function"
    },
    {
      "inputs": [],
      "name": "totalBridgedAmount",
      "outputs": [
        {
          "internalType": "uint256",
          "name": "",
          "type": "uint256"
        }
      ],
      "stateMutability": "view",
      "type": "function"
    },
    {
      "inputs": [],
      "name": "totalFeesCollected",
      "outputs": [
        {
          "internalType": "uint256",
          "name": "",
          "type": "uint256"
        }
      ],
      "stateMutability": "view",
      "type": "function"
    },
    {
      "inputs": [
        {
          "internalType": "address",
          "name": "newOwner",
          "type": "address"
        }
      ],
      "name": "transferOwnership",
      "outputs": [],
      "stateMutability": "nonpayable",
      "type": "function"
    },
    {
      "inputs": [],
      "name": "unpause",
      "outputs": [],
      "stateMutability": "nonpayable",
      "type": "function"
    },
    {
      "inputs": [
        {
          "internalType": "bytes32",
          "name": "newMerkleRoot",
          "type": "bytes32"
        }
      ],
      "name": "updateMerkleRoot",
      "outputs": [],
      "stateMutability": "nonpayable",
      "type": "function"
    },
    {
      "inputs": [
        {
          "internalType": "address",
          "name": "",
          "type": "address"
        },
        {
          "internalType": "uint256",
          "name": "",
          "type": "uint256"
        }
      ],
      "name": "userBridgeHistory",
      "outputs": [
        {
          "internalType": "uint256",
          "name": "",
          "type": "uint256"
        }
      ],
      "stateMutability": "view",
      "type": "function"
    },
    {
      "inputs": [
        {
          "internalType": "uint256",
          "name": "requestId",
          "type": "uint256"
        },
        {
          "internalType": "bytes32",
          "name": "lockTxHash",
          "type": "bytes32"
        },
        {
          "internalType": "bytes",
          "name": "signature",
          "type": "bytes"
        }
      ],
      "name": "validateBridgeRequest",
      "outputs": [
        {
          "internalType": "bool",
          "name": "isValid",
          "type": "bool"
        }
      ],
      "stateMutability": "view",
      "type": "function"
    },
    {
      "inputs": [
        {
          "internalType": "address",
          "name": "",
          "type": "address"
        }
      ],
      "name": "validators",
      "outputs": [
        {
          "internalType": "address",
          "name": "validatorAddress",
          "type": "address"
        },
        {
          "internalType": "bool",
          "name": "isActive",
          "type": "bool"
        },
        {
          "internalType": "uint256",
          "name": "weight",
          "type": "uint256"
        },
        {
          "internalType": "uint256",
          "name": "lastValidation",
          "type": "uint256"
        },
        {
          "internalType": "uint256",
          "name": "totalValidations",
          "type": "uint256"
        }
      ],
      "stateMutability": "view",
      "type": "function"
    }
  ],
  "bytecode": "0x608034620003e757601f62002e4538819003918201601f19168301926001600160401b0392909183851183861017620002c8578160209284926040978852833981010312620003e757516001600160a01b039081811690819003620003e75760005460018060a01b03199233848316176000553391167f8be0079c531659141344cd1fd0a4f28419497f9722a3daafe3b4186f6b6457e0600080a36001805560ff19918260025416600255600654161760065582519183830183811082821117620002c85784526008835267457468657265756d60c01b602084015283519060e0820182811082821117620002c8578552600182526020820160008152858301908582526001606085015260006080850152600c60a0850152600c60c08501526001600052600a602052866000209484518655600186019151906006821015620003d15760ff908354169116179055518051918211620002c8576002840154600181811c91168015620003c6575b6020821014620003b057601f811162000364575b50602090601f8311600114620002ea5791806005949260c094600092620002de575b50508160011b916000199060031b1c19161760028501555b6003840160608201511515815460ff610100600160a81b03608086015160081b1692169060018060a81b0319161717905560a08101516004850155015191015560105468010000000000000000811015620002c8576001810180601055811015620002b257600190601060005260206000200155815190828252805190818484015260005b8281106200029b578460017f7f8c5e179185d394dbaf409ad4a3a9aa1cd82347aa54256a80fd6d3007d6ad7c8660608188600083828401015260006020830152601f80199101168101030190a251612a589081620003ed8239f35b806020809284010151606082870101520162000240565b634e487b7160e01b600052603260045260246000fd5b634e487b7160e01b600052604160045260246000fd5b015190503880620001a3565b906002850160005260206000209160005b601f19851681106200034b5750926005949260019260c09583601f1981161062000331575b505050811b016002850155620001bb565b015160001960f88460031b161c1916905538808062000320565b91926020600181928685015181550194019201620002fb565b600285016000526020600020601f840160051c810160208510620003a8575b601f830160051c820181106200039b57505062000181565b6000815560010162000383565b508062000383565b634e487b7160e01b600052602260045260246000fd5b90607f16906200016d565b634e487b7160e01b600052602160045260246000fd5b600080fdfe60a0604052600436101561001257600080fd5b60003560e01c80630ed61188146121f657806314f64c78146121cd5780632e2f605214611e9f5780632eb4a7ab14611e815780632f76464414611e505780633008afed14611daa5780633c1f269214611d4f5780633f4ba83a14611cbb57806340a141ff14611b4c5780634690484014611b235780634783f0ef14611b025780634cf2ab3214611ab157806351858e271461129c578063548d496f1461197b5780635afe46af146115f85780635c975abb146115d557806360c6d8ae146115b757806367a4f5f61461159b57806368c4ac261461152d57806370a9017b14611333578063715018a6146112da5780637fce0002146112b55780638456cb591461129c5780638da5cb5b1461127357806395ccea6714611234578063973a814e146112165780639a7c91d9146111f85780639aa6188f146111445780639ca2634c14610f695780639e42509e14610f4d5780639f89c8a214610e32578063bae4185a14610dc2578063bc063e1a14610da5578063c9f6472714610d53578063dcdd3c7314610a31578063e096d643146105bf578063e1f1c4a7146105a2578063e33be64c14610584578063e74b981b14610505578063f2fde38b14610441578063fa52c7d8146103d75763fc6c1f02146101ea57600080fd5b346103d25760403660031901126103d25761020361224e565b60243561020e612453565b6001600160a01b038281169290831561038d5783600052600b60205260ff60406000205460a01c1661034857600360405191610249836122f7565b8583526020830160018152604084018681526102b36060860192600084526080870194600086528a600052600b60205260406000209751166001600160601b0360a01b885416178755511515869081549060ff60a01b90151560a01b169060ff60a01b1916179055565b51600185015551600284015551910155600f5491600160401b8310156103325761032960209261030a8560017f9000b209805850a65058f21361a9978cb30f1413ed555553ab52a59b440b5d999701600f55612264565b90919082549060031b9160018060a01b03809116831b921b1916179055565b604051908152a2005b634e487b7160e01b600052604160045260246000fd5b60405162461bcd60e51b815260206004820152601860248201527f56616c696461746f7220616c72656164792065786973747300000000000000006044820152606490fd5b60405162461bcd60e51b815260206004820152601960248201527f496e76616c69642076616c696461746f722061646472657373000000000000006044820152606490fd5b600080fd5b346103d25760203660031901126103d25760a06001600160a01b03806103fb61224e565b16600052600b6020526040600020805490600181015460ff60036002840154930154936040519581168652861c1615156020850152604084015260608301526080820152f35b346103d25760203660031901126103d25761045a61224e565b610462612453565b6001600160a01b039081169081156104b157600054826001600160601b0360a01b821617600055167f8be0079c531659141344cd1fd0a4f28419497f9722a3daafe3b4186f6b6457e0600080a3005b60405162461bcd60e51b815260206004820152602660248201527f4f776e61626c653a206e6577206f776e657220697320746865207a65726f206160448201526564647265737360d01b6064820152608490fd5b346103d25760203660031901126103d25761051e61224e565b610526612453565b6001600160a01b0316801561054d576001600160601b0360a01b6006541617600655600080f35b60405162461bcd60e51b815260206004820152600f60248201526e496e76616c6964206164647265737360881b6044820152606490fd5b346103d25760003660031901126103d2576020600454604051908152f35b346103d25760003660031901126103d25760206040516127108152f35b346103d25760a03660031901126103d2576105d861224e565b6001600160a01b0390602480358381169291908390036103d2576044938435606491823592608435958287168097036103d257829061061561250b565b61061d6124c7565b16948560005260209860098a5260ff60406000205460a01c16156109fb5785600052600a8a5260ff60036040600020015416156109c5578660005260098a52600160406000200154851161098557861561094e5788156109175787156108e35784156108a357468614610863578660005260098a52600260406000200154808602908682040361084e57906127106106ec9204936106bb85886124ab565b6040516323b872dd60e01b8e820152338682015230938101939093528183015281526106e6816122f7565b876125a1565b6106f76003546124b8565b97886003558860005260088a5260406000209089825560018201906001600160601b0360a01b91898382541617905560028301908282541617905585600383015546600483015586600583015560068201898282541617905560078201903390825416179055826008820155600b810160ff198154169055600c42910155610781846004546124ab565b600455610790826005546124ab565b60055533600052600e89526040600020805491600160401b83101561083a5750906107c09160018201815561229b565b81549060031b9089821b91600019901b191617905580610825575b5050604051928352858301524660408301526060820152827f49b6f8b6d782441d10d61193be9872e36513d03f017cfd885db0a15045f3576a60803393a460018055604051908152f35b610833916006541685612561565b86806107db565b634e487b7160e01b60009081526041600452fd5b82634e487b7160e01b60005260116004526000fd5b7f53616d6520636861696e206272696467696e67206e6f7420616c6c6f7765640090601f8b936040519462461bcd60e51b86526004860152840152820152fd5b7f416d6f756e74206d7573742062652067726561746572207468616e203000000090601d8b936040519462461bcd60e51b86526004860152840152820152fd5b70125b9d985b1a59081c9958da5c1a595b9d607a1b9060118b936040519462461bcd60e51b86526004860152840152820152fd5b7324b73b30b634b2103a30b933b2ba103a37b5b2b760611b9060148b936040519462461bcd60e51b86526004860152840152820152fd5b7324b73b30b634b21039b7bab931b2903a37b5b2b760611b9060148b936040519462461bcd60e51b86526004860152840152820152fd5b7f416d6f756e74206578636565647320627269646765206c696d6974000000000090601b8b936040519462461bcd60e51b86526004860152840152820152fd5b7210da185a5b881b9bdd081cdd5c1c1bdc9d1959606a1b9060138b936040519462461bcd60e51b86526004860152840152820152fd5b72151bdad95b881b9bdd081cdd5c1c1bdc9d1959606a1b9060138b936040519462461bcd60e51b86526004860152840152820152fd5b346103d257610a3f3661240f565b91336000526020600b815260ff60406000205460a01c1615610d0f5781151580610d03575b610a6d9061276f565b81600052600881526040600020600b8101610a9560ff825416610a8f816122b3565b156127b0565b60108201953360005286845260ff60406000205416610cca57600c830154620151808101809111610cb4574211610c765760405184810190610afb81610aed468b8b8791606093918352602083015260408201520190565b03601f19810183528261232f565b51902060405191858301917f19457468657265756d205369676e6564204d6573736167653a0a3332000000008352603c840152603c8352606083019183831067ffffffffffffffff84111761033257610b6593610b5d93604052519020612912565b9190916127f2565b336001600160a01b0390911603610c3d577f281e6e9079171b57eee7df5228ee09882ad9ad3b98ab8f3ade6347384c0c96a0939495336000528352604060002060ff1990600182825416179055600f8301610bc081546124b8565b815587600985015533600052600b85526003604060002042600282015501610be881546124b8565b90556004848101546000908152600a87526040902001548015610c3457905b541015610c1d575b5050506040519384523393a3005b600190825416179055600d42910155848080610c0f565b50600390610c07565b60405162461bcd60e51b8152600481018490526011602482015270496e76616c6964207369676e617475726560781b6044820152606490fd5b60405162461bcd60e51b8152600481018590526016602482015275109c9a5919d9481c995c5d595cdd08195e1c1a5c995960521b6044820152606490fd5b634e487b7160e01b600052601160045260246000fd5b60405162461bcd60e51b8152600481018590526011602482015270105b1c9958591e4818dbdb999a5c9b5959607a1b6044820152606490fd5b50600354821115610a64565b6064906040519062461bcd60e51b82526004820152601760248201527f4e6f7420616e206163746976652076616c696461746f720000000000000000006044820152fd5b346103d25760403660031901126103d257602435600435600052600c602052604060002080548210156103d257602091610d8c9161229b565b905460405160039290921b1c6001600160a01b03168152f35b346103d25760003660031901126103d25760206040516101f48152f35b346103d257610e0a610b5d610aed610e02610ddc3661240f565b604080516020810194855290810192909252466060830152939192909182906080820190565b519020612912565b60018060a01b0316600052600b602052602060ff60406000205460a01c166040519015158152f35b346103d25760203660031901126103d2576004356000526008602052604060002080549080600160a01b6001900380600183015416908060028401541690600384015490600485015490600586015490806006880154169060078801541690600888015492600989015494600a8a015496600b8b015460ff1698600c8c01549a600d8d01549c600e01549d600f01549e60405180608052526080516020015260805160400152608051606001526080516080015260805160a0015260805160c0015260805160e00152608051610100015260805161012001526080516101400152610f1c816122b3565b608051610160015260805161018001526080516101a001526080516101c001526080516101e0015260805161020090f35b346103d25760003660031901126103d257602060405160038152f35b346103d25760403660031901126103d25760043560243567ffffffffffffffff81116103d257610f9d9036906004016123f1565b610fa561250b565b81151580611138575b610fb79061276f565b816000526008602052604060002090600b820190610fdc60ff835416610a8f816122b3565b60078301546001600160a01b039081169290338414801561112b575b156110e657600c850154620151808101809111610cb4574211156110ac57846110a39461105e92600161105560037f9ba01adcddf5dd41fc24d9566109e871357037efc96c065f7267bbc0e9f016ab9a01546008860154906124ab565b93015416612561565b805460ff19166004179055604051918291857f7572778277c1f1e55f1b1cf640ce09d1765dbaa401ec8399ad3827b776be4f0e600080a260208352602083019061235e565b0390a260018055005b60405162461bcd60e51b8152602060048201526012602482015271109c9a5919d9481b9bdd08195e1c1a5c995960721b6044820152606490fd5b60405162461bcd60e51b815260206004820152601860248201527f4e6f7420617574686f72697a656420746f2063616e63656c00000000000000006044820152606490fd5b5080600054163314610ff8565b50600354821115610fae565b346103d2576020806003193601126103d2576001600160a01b0361116661224e565b16600052600e8152604060002060405190818382549182815201908192600052846000209060005b868282106111e45786866111a48288038361232f565b604051928392818401908285525180915260408401929160005b8281106111cd57505050500390f35b8351855286955093810193928101926001016111be565b83548552909301926001928301920161118e565b346103d25760003660031901126103d2576020604051620151808152f35b346103d25760003660031901126103d2576020600354604051908152f35b346103d25760403660031901126103d25761127161125061224e565b611258612453565b600054602435916001600160a01b039182169116612561565b005b346103d25760003660031901126103d2576000546040516001600160a01b039091168152602090f35b346103d25760003660031901126103d2576112716129d9565b346103d25760003660031901126103d257602060405169d3c21bcecceda10000008152f35b346103d25760003660031901126103d2576112f3612453565b600080546001600160a01b0319811682556001600160a01b03167f8be0079c531659141344cd1fd0a4f28419497f9722a3daafe3b4186f6b6457e08280a3005b346103d25760803660031901126103d25761134c61224e565b60243590604435606435928315158094036103d257611369612453565b6001600160a01b039283169384156114f0576101f483116114bc5761142690600360405191611397836122f7565b878352600160208085019182526040808601888152606087018a81526080880195865260008d815260099094529190922095518654935160ff60a01b90151560a01b166001600160a81b03199094169a1660ff60a01b1916999099179190911784556001600160a01b0319979051600185015551600284015551151591019060ff801983541691151516179055565b60115491600160401b8310156103325760018301806011558310156114a6577fab37265069a9fb56421aaa91a9c209f5f0636ccb1b4d03810244fefa1b67611b938560409460116000527f31ecc21a745e3968a04e9570e4425bc18fa8019c68028196b546d1669c200c68019182541617905582519182526020820152a2005b634e487b7160e01b600052603260045260246000fd5b60405162461bcd60e51b815260206004820152600c60248201526b08ccaca40e8dede40d0d2ced60a31b6044820152606490fd5b60405162461bcd60e51b8152602060048201526015602482015274496e76616c696420746f6b656e206164647265737360581b6044820152606490fd5b346103d25760203660031901126103d25760a06001600160a01b038061155161224e565b1660005260096020526040600020805490600181015460ff806003600285015494015416936040519581168652861c16151560208501526040840152606083015215156080820152f35b346103d25760003660031901126103d257602060405160328152f35b346103d25760003660031901126103d2576020600554604051908152f35b346103d25760003660031901126103d257602060ff600254166040519015158152f35b346103d25760c03660031901126103d25760243560068110156103d25767ffffffffffffffff6044358181116103d2576116369036906004016123f1565b906064356001600160a01b03811691908290036103d257611655612453565b600435156119435746600435146118fe576040519060e08201828110828211176103325760405260043582526020820192858452604083019085825260016060850152608084015260843560a084015260a43560c0840152600435600052600a6020526040600020938351855560018501905160068110156118e85760ff80198354169116179055518051918211610332576116f460028501546122bd565b601f81116118a1575b50602090601f831160011461182e5791806005949260c094600092611823575b50508160011b916000199060031b1c19161760028501555b6003840161175560608301511515829060ff801983541691151516179055565b60808201518154610100600160a81b03191660089190911b610100600160a81b031617905560a08101516004850155015191015560105490600160401b8210156103325760018201806010558210156114a6577f7f8c5e179185d394dbaf409ad4a3a9aa1cd82347aa54256a80fd6d3007d6ad7c916010600052600435907f1b6847dc741a1b0cd08d278845f9d819d87b734759afb55fe2de5cb82a9ae672015561181961180e6040519260408452604084019061235e565b936020830190612351565b80600435930390a2005b01519050888061171d565b90601f198316916002860160005260206000209260005b818110611889575092600192859260c0966005989610611870575b505050811b016002850155611735565b015160001960f88460031b161c19169055888080611860565b92936020600181928786015181550195019301611845565b600285016000526020600020601f840160051c8101602085106118e1575b601f830160051c820181106118d55750506116fd565b600081556001016118bf565b50806118bf565b634e487b7160e01b600052602160045260246000fd5b60405162461bcd60e51b815260206004820152601860248201527f43616e6e6f74206164642063757272656e7420636861696e00000000000000006044820152606490fd5b60405162461bcd60e51b815260206004820152601060248201526f125b9d985b1a590818da185a5b88125160821b6044820152606490fd5b346103d2576020806003193601126103d257600435600052600a8152604060002080549060019060ff82820154169084600282016040519485916000918154916119c4836122bd565b80865292828116908115611a8e5750600114611a4f575b5050506119ea9250038461232f565b611a22600382015493611a1160056004850154940154946040519889988952880190612351565b60e0604087015260e086019061235e565b60ff84161515606086015260089390931c6001600160a01b0316608085015260a084015260c08301520390f35b600090815285812095935091905b818310611a765750899450508201016119ea89806119db565b85548984018501529485019488945091830191611a5d565b925050506119ea94925060ff191682840152151560051b820101879289806119db565b346103d25760203660031901126103d2576004356010548110156103d25760209060106000527f1b6847dc741a1b0cd08d278845f9d819d87b734759afb55fe2de5cb82a9ae6720154604051908152f35b346103d25760203660031901126103d257611b1b612453565b600435600755005b346103d25760003660031901126103d2576006546040516001600160a01b039091168152602090f35b346103d25760203660031901126103d257611b6561224e565b611b6d612453565b6001600160a01b039081166000818152600b602052604090205490919060a01c60ff1615611c7f576000828152600b60205260408120805460ff60a01b191690555b600f9081549182821015611c7657839285611bc984612264565b969054600397881b1c1614611bea575050611be59192506124b8565b611baf565b9092916000199180830191908211610cb45761030a84611c0c611c1994612264565b905490891b1c1691612264565b82548015611c60570192611c2c84612264565b81939154921b1b19169055555b7fe1434e25d6611e0db941968fdc97811c982ac1602e951637d206f5fdda9dd8f1600080a2005b634e487b7160e01b600052603160045260246000fd5b50505050611c39565b60405162461bcd60e51b815260206004820152601460248201527356616c696461746f72206e6f742061637469766560601b6044820152606490fd5b346103d25760003660031901126103d257611cd4612453565b60025460ff811615611d135760ff19166002557f5db9ee0a495bf2e6ff9c91a7834c1ba4fdd244a5e8aa4e537bd38aeae4b073aa6020604051338152a1005b60405162461bcd60e51b815260206004820152601460248201527314185d5cd8589b194e881b9bdd081c185d5cd95960621b6044820152606490fd5b346103d25760203660031901126103d2576004356011548110156103d25760116000527f31ecc21a745e3968a04e9570e4425bc18fa8019c68028196b546d1669c200c6801546040516001600160a01b039091168152602090f35b346103d25760203660031901126103d25760043580151580611e44575b611dd09061276f565b600052600860205260e0604060002060048101549060058101549060018060a01b03806001830154169060038301549060068401541691600c60ff600b86015416940154946040519687526020870152604086015260608501526080840152611e38816122b3565b60a083015260c0820152f35b50600354811115611dc7565b346103d25760203660031901126103d257600435600052600d602052602060ff604060002054166040519015158152f35b346103d25760003660031901126103d2576020600754604051908152f35b346103d25760603660031901126103d25767ffffffffffffffff6044358181116103d257366023820112156103d25780600401359182116103d2578160051b9036602483830101116103d257611ef361250b565b611efb6124c7565b6004351515806121bf575b611f0f9061276f565b6004356000526008602052604060002090600160ff600b84015416611f33816122b3565b03612182576005820154460361214f57602435600052600d60205260ff6040600020541661210a576006820154600383015460405190602082019260043584526001600160601b03199060601b166040830152605482015260548152611f9881612313565b519020906007549360405195611fb1602083018861232f565b86526020860160248301915b60248185010183106120f55750505050906000915b845183101561201f5760208360051b860101519081811060001461200b5760005260205261200560406000205b926124b8565b91611fd2565b906000526020526120056040600020611fff565b83036120b95761208390602435600052600d6020526002604060002060ff1990600182825416179055602435600a840155600b8301541617600b82015542600e82015560018060a01b03906003826002830154169260068301541691015491612561565b60405160243581527f340d1a8e9f81f7f526a5395c0a430fcc880d6a35a1b8defbf2532b9f61e4b6a4602060043592a260018055005b60405162461bcd60e51b815260206004820152601460248201527324b73b30b634b21026b2b935b63290383937b7b360611b6044820152606490fd5b60208060249385358152019301929150611fbd565b60405162461bcd60e51b815260206004820152601d60248201527f5472616e73616374696f6e20616c72656164792070726f6365737365640000006044820152606490fd5b60405162461bcd60e51b815260206004820152600b60248201526a2bb937b7339031b430b4b760a91b6044820152606490fd5b60405162461bcd60e51b815260206004820152601560248201527414995c5d595cdd081b9bdd0818dbdb999a5c9b5959605a1b6044820152606490fd5b506003546004351115611f06565b346103d25760203660031901126103d257600435600f548110156103d257610d8c602091612264565b346103d25760403660031901126103d25761220f61224e565b6001600160a01b03166000908152600e60205260409020805460243591908210156103d2576020916122409161229b565b90546040519160031b1c8152f35b600435906001600160a01b03821682036103d257565b600f548110156114a657600f6000527f8d1108e10bcb7c27dddfc02ed9d693a074039d026cf4ea4240b40f7d581ac8020190600090565b80548210156114a65760005260206000200190600090565b600511156118e857565b90600182811c921680156122ed575b60208310146122d757565b634e487b7160e01b600052602260045260246000fd5b91607f16916122cc565b60a0810190811067ffffffffffffffff82111761033257604052565b6080810190811067ffffffffffffffff82111761033257604052565b90601f8019910116810190811067ffffffffffffffff82111761033257604052565b9060068210156118e85752565b919082519283825260005b84811061238a575050826000602080949584010152601f8019910116010190565b602081830181015184830182015201612369565b67ffffffffffffffff811161033257601f01601f191660200190565b9291926123c68261239e565b916123d4604051938461232f565b8294818452818301116103d2578281602093846000960137010152565b9080601f830112156103d25781602061240c933591016123ba565b90565b60606003198201126103d25760043591602435916044359067ffffffffffffffff82116103d257806023830112156103d25781602461240c936004013591016123ba565b6000546001600160a01b0316330361246757565b606460405162461bcd60e51b815260206004820152602060248201527f4f776e61626c653a2063616c6c6572206973206e6f7420746865206f776e65726044820152fd5b91908201809211610cb457565b6000198114610cb45760010190565b60ff600254166124d357565b60405162461bcd60e51b815260206004820152601060248201526f14185d5cd8589b194e881c185d5cd95960821b6044820152606490fd5b60026001541461251c576002600155565b60405162461bcd60e51b815260206004820152601f60248201527f5265656e7472616e637947756172643a207265656e7472616e742063616c6c006044820152606490fd5b60405163a9059cbb60e01b60208201526001600160a01b03909216602483015260448083019390935291815261259f9161259a82612313565b6125a1565b565b60018060a01b031690604051604081019080821067ffffffffffffffff83111761033257612631916040526020938482527f5361666545524332303a206c6f772d6c6576656c2063616c6c206661696c6564858301526000808587829751910182855af13d156126ce573d916126168361239e565b92612624604051948561232f565b83523d868885013e6126d2565b8051918215918483156126a3575b50505090501561264c5750565b6084906040519062461bcd60e51b82526004820152602a60248201527f5361666545524332303a204552433230206f7065726174696f6e20646964206e6044820152691bdd081cdd58d8d9595960b21b6064820152fd5b9193818094500103126126ca578201519081151582036126c757508038808461263f565b80fd5b5080fd5b6060915b9192901561273457508151156126e6575090565b3b156126ef5790565b60405162461bcd60e51b815260206004820152601d60248201527f416464726573733a2063616c6c20746f206e6f6e2d636f6e74726163740000006044820152606490fd5b8251909150156127475750805190602001fd5b60405162461bcd60e51b81526020600482015290819061276b90602483019061235e565b0390fd5b1561277657565b60405162461bcd60e51b8152602060048201526012602482015271125b9d985b1a59081c995c5d595cdd08125160721b6044820152606490fd5b156127b757565b60405162461bcd60e51b815260206004820152601360248201527252657175657374206e6f742070656e64696e6760681b6044820152606490fd5b6127fb816122b3565b806128035750565b61280c816122b3565b600181036128595760405162461bcd60e51b815260206004820152601860248201527f45434453413a20696e76616c6964207369676e617475726500000000000000006044820152606490fd5b612862816122b3565b600281036128af5760405162461bcd60e51b815260206004820152601f60248201527f45434453413a20696e76616c6964207369676e6174757265206c656e677468006044820152606490fd5b806128bb6003926122b3565b146128c257565b60405162461bcd60e51b815260206004820152602260248201527f45434453413a20696e76616c6964207369676e6174757265202773272076616c604482015261756560f01b6064820152608490fd5b9060418151146000146129405761293c916020820151906060604084015193015160001a9061294a565b9091565b5050600090600290565b9291907f7fffffffffffffffffffffffffffffff5d576e7357a4501ddfe92f46681b20a083116129cd5791608094939160ff602094604051948552168484015260408301526060820152600093849182805260015afa156129c05781516001600160a01b038116156129ba579190565b50600190565b50604051903d90823e3d90fd5b50505050600090600390565b6129e1612453565b6129e96124c7565b600160ff1960025416176002557f62e78cea01bee320cd4e420270b5ea74000d11b0c9f74754ebdbfc544b05a2586020604051338152a156fea26469706673582212209b6ea175cb621a5602ae6c2b4763221c3d2a1097a43bd2044c067f68722d80f564736f6c63430008130033",
  "linkReferences": {},
  "deployedLinkReferences": {}
}