{
  "_format": "hh-sol-artifact-1",
  "contractName": "AIPowerRental",
  "sourceName": "contracts/AIPowerRental.sol",
  "abi": [
    {
      "inputs": [
        {
          "internalType": "address",
          "name": "_aitbcToken",
          "type": "address"
        },
        {
          "internalType": "address",
          "name": "_zkVerifier",
          "type": "address"
        },
        {
          "internalType": "address",
          "name": "_groth16Verifier",
          "type": "address"
        }
      ],
      "stateMutability": "nonpayable",
      "type": "constructor"
    },
    {
      "anonymous": false,
      "inputs": [
        {
          "indexed": true,
          "internalType": "uint256",
          "name": "agreementId",
          "type": "uint256"
        },
        {
          "indexed": false,
          "internalType": "uint256",
          "name": "completionTime",
          "type": "uint256"
        },
        {
          "indexed": false,
          "internalType": "bool",
          "name": "withinSLA",
          "type": "bool"
        }
      ],
      "name": "AgreementCompleted",
      "type": "event"
    },
    {
      "anonymous": false,
      "inputs": [
        {
          "indexed": true,
          "internalType": "uint256",
          "name": "agreementId",
          "type": "uint256"
        },
        {
          "indexed": true,
          "internalType": "address",
          "name": "provider",
          "type": "address"
        },
        {
          "indexed": true,
          "internalType": "address",
          "name": "consumer",
          "type": "address"
        },
        {
          "indexed": false,
          "internalType": "uint256",
          "name": "duration",
          "type": "uint256"
        },
        {
          "indexed": false,
          "internalType": "uint256",
          "name": "price",
          "type": "uint256"
        },
        {
          "indexed": false,
          "internalType": "string",
          "name": "gpuModel",
          "type": "string"
        },
        {
          "indexed": false,
          "internalType": "uint256",
          "name": "computeUnits",
          "type": "uint256"
        }
      ],
      "name": "AgreementCreated",
      "type": "event"
    },
    {
      "anonymous": false,
      "inputs": [
        {
          "indexed": true,
          "internalType": "uint256",
          "name": "agreementId",
          "type": "uint256"
        },
        {
          "indexed": false,
          "internalType": "uint256",
          "name": "startTime",
          "type": "uint256"
        },
        {
          "indexed": false,
          "internalType": "uint256",
          "name": "endTime",
          "type": "uint256"
        }
      ],
      "name": "AgreementStarted",
      "type": "event"
    },
    {
      "anonymous": false,
      "inputs": [
        {
          "indexed": true,
          "internalType": "address",
          "name": "consumer",
          "type": "address"
        }
      ],
      "name": "ConsumerAuthorized",
      "type": "event"
    },
    {
      "anonymous": false,
      "inputs": [
        {
          "indexed": true,
          "internalType": "address",
          "name": "consumer",
          "type": "address"
        }
      ],
      "name": "ConsumerRevoked",
      "type": "event"
    },
    {
      "anonymous": false,
      "inputs": [
        {
          "indexed": true,
          "internalType": "uint256",
          "name": "agreementId",
          "type": "uint256"
        },
        {
          "indexed": true,
          "internalType": "address",
          "name": "initiator",
          "type": "address"
        },
        {
          "indexed": false,
          "internalType": "string",
          "name": "reason",
          "type": "string"
        }
      ],
      "name": "DisputeFiled",
      "type": "event"
    },
    {
      "anonymous": false,
      "inputs": [
        {
          "indexed": true,
          "internalType": "uint256",
          "name": "agreementId",
          "type": "uint256"
        },
        {
          "indexed": false,
          "internalType": "uint256",
          "name": "resolutionAmount",
          "type": "uint256"
        },
        {
          "indexed": false,
          "internalType": "bool",
          "name": "resolvedInFavorOfProvider",
          "type": "bool"
        }
      ],
      "name": "DisputeResolved",
      "type": "event"
    },
    {
      "anonymous": false,
      "inputs": [
        {
          "indexed": true,
          "internalType": "address",
          "name": "previousOwner",
          "type": "address"
        },
        {
          "indexed": true,
          "internalType": "address",
          "name": "newOwner",
          "type": "address"
        }
      ],
      "name": "OwnershipTransferred",
      "type": "event"
    },
    {
      "anonymous": false,
      "inputs": [
        {
          "indexed": false,
          "internalType": "address",
          "name": "account",
          "type": "address"
        }
      ],
      "name": "Paused",
      "type": "event"
    },
    {
      "anonymous": false,
      "inputs": [
        {
          "indexed": true,
          "internalType": "uint256",
          "name": "agreementId",
          "type": "uint256"
        },
        {
          "indexed": true,
          "internalType": "address",
          "name": "provider",
          "type": "address"
        },
        {
          "indexed": false,
          "internalType": "uint256",
          "name": "amount",
          "type": "uint256"
        },
        {
          "indexed": false,
          "internalType": "uint256",
          "name": "platformFee",
          "type": "uint256"
        }
      ],
      "name": "PaymentProcessed",
      "type": "event"
    },
    {
      "anonymous": false,
      "inputs": [
        {
          "indexed": true,
          "internalType": "uint256",
          "name": "agreementId",
          "type": "uint256"
        },
        {
          "indexed": false,
          "internalType": "uint256",
          "name": "responseTime",
          "type": "uint256"
        },
        {
          "indexed": false,
          "internalType": "uint256",
          "name": "accuracy",
          "type": "uint256"
        },
        {
          "indexed": false,
          "internalType": "uint256",
          "name": "availability",
          "type": "uint256"
        },
        {
          "indexed": false,
          "internalType": "bool",
          "name": "withinSLA",
          "type": "bool"
        }
      ],
      "name": "PerformanceSubmitted",
      "type": "event"
    },
    {
      "anonymous": false,
      "inputs": [
        {
          "indexed": true,
          "internalType": "address",
          "name": "provider",
          "type": "address"
        }
      ],
      "name": "ProviderAuthorized",
      "type": "event"
    },
    {
      "anonymous": false,
      "inputs": [
        {
          "indexed": true,
          "internalType": "address",
          "name": "provider",
          "type": "address"
        }
      ],
      "name": "ProviderRevoked",
      "type": "event"
    },
    {
      "anonymous": false,
      "inputs": [
        {
          "indexed": false,
          "internalType": "address",
          "name": "account",
          "type": "address"
        }
      ],
      "name": "Unpaused",
      "type": "event"
    },
    {
      "inputs": [],
      "name": "agreementCounter",
      "outputs": [
        {
          "internalType": "uint256",
          "name": "",
          "type": "uint256"
        }
      ],
      "stateMutability": "view",
      "type": "function"
    },
    {
      "inputs": [],
      "name": "aitbcToken",
      "outputs": [
        {
          "internalType": "contract IERC20",
          "name": "",
          "type": "address"
        }
      ],
      "stateMutability": "view",
      "type": "function"
    },
    {
      "inputs": [
        {
          "internalType": "address",
          "name": "_consumer",
          "type": "address"
        }
      ],
      "name": "authorizeConsumer",
      "outputs": [],
      "stateMutability": "nonpayable",
      "type": "function"
    },
    {
      "inputs": [
        {
          "internalType": "address",
          "name": "_provider",
          "type": "address"
        }
      ],
      "name": "authorizeProvider",
      "outputs": [],
      "stateMutability": "nonpayable",
      "type": "function"
    },
    {
      "inputs": [
        {
          "internalType": "address",
          "name": "",
          "type": "address"
        }
      ],
      "name": "authorizedConsumers",
      "outputs": [
        {
          "internalType": "bool",
          "name": "",
          "type": "bool"
        }
      ],
      "stateMutability": "view",
      "type": "function"
    },
    {
      "inputs": [
        {
          "internalType": "address",
          "name": "",
          "type": "address"
        }
      ],
      "name": "authorizedProviders",
      "outputs": [
        {
          "internalType": "bool",
          "name": "",
          "type": "bool"
        }
      ],
      "stateMutability": "view",
      "type": "function"
    },
    {
      "inputs": [
        {
          "internalType": "uint256",
          "name": "_agreementId",
          "type": "uint256"
        }
      ],
      "name": "cancelRental",
      "outputs": [],
      "stateMutability": "nonpayable",
      "type": "function"
    },
    {
      "inputs": [
        {
          "internalType": "uint256",
          "name": "_agreementId",
          "type": "uint256"
        }
      ],
      "name": "completeRental",
      "outputs": [],
      "stateMutability": "nonpayable",
      "type": "function"
    },
    {
      "inputs": [
        {
          "internalType": "address",
          "name": "",
          "type": "address"
        },
        {
          "internalType": "uint256",
          "name": "",
          "type": "uint256"
        }
      ],
      "name": "consumerAgreements",
      "outputs": [
        {
          "internalType": "uint256",
          "name": "",
          "type": "uint256"
        }
      ],
      "stateMutability": "view",
      "type": "function"
    },
    {
      "inputs": [
        {
          "internalType": "address",
          "name": "_provider",
          "type": "address"
        },
        {
          "internalType": "address",
          "name": "_consumer",
          "type": "address"
        },
        {
          "internalType": "uint256",
          "name": "_duration",
          "type": "uint256"
        },
        {
          "internalType": "uint256",
          "name": "_price",
          "type": "uint256"
        },
        {
          "internalType": "string",
          "name": "_gpuModel",
          "type": "string"
        },
        {
          "internalType": "uint256",
          "name": "_computeUnits",
          "type": "uint256"
        }
      ],
      "name": "createRental",
      "outputs": [
        {
          "internalType": "uint256",
          "name": "",
          "type": "uint256"
        }
      ],
      "stateMutability": "nonpayable",
      "type": "function"
    },
    {
      "inputs": [
        {
          "internalType": "uint256",
          "name": "_agreementId",
          "type": "uint256"
        },
        {
          "internalType": "string",
          "name": "_reason",
          "type": "string"
        }
      ],
      "name": "disputeRental",
      "outputs": [],
      "stateMutability": "nonpayable",
      "type": "function"
    },
    {
      "inputs": [
        {
          "internalType": "uint256",
          "name": "",
          "type": "uint256"
        }
      ],
      "name": "disputes",
      "outputs": [
        {
          "internalType": "bool",
          "name": "exists",
          "type": "bool"
        },
        {
          "internalType": "address",
          "name": "initiator",
          "type": "address"
        },
        {
          "internalType": "string",
          "name": "reason",
          "type": "string"
        },
        {
          "internalType": "uint256",
          "name": "disputeTime",
          "type": "uint256"
        },
        {
          "internalType": "bool",
          "name": "resolved",
          "type": "bool"
        },
        {
          "internalType": "uint256",
          "name": "resolutionAmount",
          "type": "uint256"
        }
      ],
      "stateMutability": "view",
      "type": "function"
    },
    {
      "inputs": [
        {
          "internalType": "address",
          "name": "_consumer",
          "type": "address"
        }
      ],
      "name": "getConsumerAgreements",
      "outputs": [
        {
          "internalType": "uint256[]",
          "name": "",
          "type": "uint256[]"
        }
      ],
      "stateMutability": "view",
      "type": "function"
    },
    {
      "inputs": [
        {
          "internalType": "uint256",
          "name": "_agreementId",
          "type": "uint256"
        }
      ],
      "name": "getDisputeInfo",
      "outputs": [
        {
          "components": [
            {
              "internalType": "bool",
              "name": "exists",
              "type": "bool"
            },
            {
              "internalType": "address",
              "name": "initiator",
              "type": "address"
            },
            {
              "internalType": "string",
              "name": "reason",
              "type": "string"
            },
            {
              "internalType": "uint256",
              "name": "disputeTime",
              "type": "uint256"
            },
            {
              "internalType": "bool",
              "name": "resolved",
              "type": "bool"
            },
            {
              "internalType": "uint256",
              "name": "resolutionAmount",
              "type": "uint256"
            }
          ],
          "internalType": "struct AIPowerRental.DisputeInfo",
          "name": "",
          "type": "tuple"
        }
      ],
      "stateMutability": "view",
      "type": "function"
    },
    {
      "inputs": [
        {
          "internalType": "address",
          "name": "_provider",
          "type": "address"
        }
      ],
      "name": "getProviderAgreements",
      "outputs": [
        {
          "internalType": "uint256[]",
          "name": "",
          "type": "uint256[]"
        }
      ],
      "stateMutability": "view",
      "type": "function"
    },
    {
      "inputs": [
        {
          "internalType": "uint256",
          "name": "_agreementId",
          "type": "uint256"
        }
      ],
      "name": "getRentalAgreement",
      "outputs": [
        {
          "components": [
            {
              "internalType": "uint256",
              "name": "agreementId",
              "type": "uint256"
            },
            {
              "internalType": "address",
              "name": "provider",
              "type": "address"
            },
            {
              "internalType": "address",
              "name": "consumer",
              "type": "address"
            },
            {
              "internalType": "uint256",
              "name": "duration",
              "type": "uint256"
            },
            {
              "internalType": "uint256",
              "name": "price",
              "type": "uint256"
            },
            {
              "internalType": "uint256",
              "name": "startTime",
              "type": "uint256"
            },
            {
              "internalType": "uint256",
              "name": "endTime",
              "type": "uint256"
            },
            {
              "internalType": "uint256",
              "name": "platformFee",
              "type": "uint256"
            },
            {
              "internalType": "enum AIPowerRental.RentalStatus",
              "name": "status",
              "type": "uint8"
            },
            {
              "components": [
                {
                  "internalType": "uint256",
                  "name": "responseTime",
                  "type": "uint256"
                },
                {
                  "internalType": "uint256",
                  "name": "accuracy",
                  "type": "uint256"
                },
                {
                  "internalType": "uint256",
                  "name": "availability",
                  "type": "uint256"
                },
                {
                  "internalType": "uint256",
                  "name": "computePower",
                  "type": "uint256"
                },
                {
                  "internalType": "bool",
                  "name": "withinSLA",
                  "type": "bool"
                },
                {
                  "internalType": "uint256",
                  "name": "lastUpdateTime",
                  "type": "uint256"
                }
              ],
              "internalType": "struct AIPowerRental.PerformanceMetrics",
              "name": "performance",
              "type": "tuple"
            },
            {
              "internalType": "string",
              "name": "gpuModel",
              "type": "string"
            },
            {
              "internalType": "uint256",
              "name": "computeUnits",
              "type": "uint256"
            },
            {
              "internalType": "bytes32",
              "name": "performanceProof",
              "type": "bytes32"
            }
          ],
          "internalType": "struct AIPowerRental.RentalAgreement",
          "name": "",
          "type": "tuple"
        }
      ],
      "stateMutability": "view",
      "type": "function"
    },
    {
      "inputs": [],
      "name": "groth16Verifier",
      "outputs": [
        {
          "internalType": "contract Groth16Verifier",
          "name": "",
          "type": "address"
        }
      ],
      "stateMutability": "view",
      "type": "function"
    },
    {
      "inputs": [],
      "name": "maxRentalDuration",
      "outputs": [
        {
          "internalType": "uint256",
          "name": "",
          "type": "uint256"
        }
      ],
      "stateMutability": "view",
      "type": "function"
    },
    {
      "inputs": [],
      "name": "minRentalDuration",
      "outputs": [
        {
          "internalType": "uint256",
          "name": "",
          "type": "uint256"
        }
      ],
      "stateMutability": "view",
      "type": "function"
    },
    {
      "inputs": [],
      "name": "owner",
      "outputs": [
        {
          "internalType": "address",
          "name": "",
          "type": "address"
        }
      ],
      "stateMutability": "view",
      "type": "function"
    },
    {
      "inputs": [],
      "name": "pause",
      "outputs": [],
      "stateMutability": "nonpayable",
      "type": "function"
    },
    {
      "inputs": [],
      "name": "paused",
      "outputs": [
        {
          "internalType": "bool",
          "name": "",
          "type": "bool"
        }
      ],
      "stateMutability": "view",
      "type": "function"
    },
    {
      "inputs": [],
      "name": "platformFeePercentage",
      "outputs": [
        {
          "internalType": "uint256",
          "name": "",
          "type": "uint256"
        }
      ],
      "stateMutability": "view",
      "type": "function"
    },
    {
      "inputs": [
        {
          "internalType": "address",
          "name": "",
          "type": "address"
        },
        {
          "internalType": "uint256",
          "name": "",
          "type": "uint256"
        }
      ],
      "name": "providerAgreements",
      "outputs": [
        {
          "internalType": "uint256",
          "name": "",
          "type": "uint256"
        }
      ],
      "stateMutability": "view",
      "type": "function"
    },
    {
      "inputs": [],
      "name": "renounceOwnership",
      "outputs": [],
      "stateMutability": "nonpayable",
      "type": "function"
    },
    {
      "inputs": [
        {
          "internalType": "uint256",
          "name": "",
          "type": "uint256"
        }
      ],
      "name": "rentalAgreements",
      "outputs": [
        {
          "internalType": "uint256",
          "name": "agreementId",
          "type": "uint256"
        },
        {
          "internalType": "address",
          "name": "provider",
          "type": "address"
        },
        {
          "internalType": "address",
          "name": "consumer",
          "type": "address"
        },
        {
          "internalType": "uint256",
          "name": "duration",
          "type": "uint256"
        },
        {
          "internalType": "uint256",
          "name": "price",
          "type": "uint256"
        },
        {
          "internalType": "uint256",
          "name": "startTime",
          "type": "uint256"
        },
        {
          "internalType": "uint256",
          "name": "endTime",
          "type": "uint256"
        },
        {
          "internalType": "uint256",
          "name": "platformFee",
          "type": "uint256"
        },
        {
          "internalType": "enum AIPowerRental.RentalStatus",
          "name": "status",
          "type": "uint8"
        },
        {
          "components": [
            {
              "internalType": "uint256",
              "name": "responseTime",
              "type": "uint256"
            },
            {
              "internalType": "uint256",
              "name": "accuracy",
              "type": "uint256"
            },
            {
              "internalType": "uint256",
              "name": "availability",
              "type": "uint256"
            },
            {
              "internalType": "uint256",
              "name": "computePower",
              "type": "uint256"
            },
            {
              "internalType": "bool",
              "name": "withinSLA",
              "type": "bool"
            },
            {
              "internalType": "uint256",
              "name": "lastUpdateTime",
              "type": "uint256"
            }
          ],
          "internalType": "struct AIPowerRental.PerformanceMetrics",
          "name": "performance",
          "type": "tuple"
        },
        {
          "internalType": "string",
          "name": "gpuModel",
          "type": "string"
        },
        {
          "internalType": "uint256",
          "name": "computeUnits",
          "type": "uint256"
        },
        {
          "internalType": "bytes32",
          "name": "performanceProof",
          "type": "bytes32"
        }
      ],
      "stateMutability": "view",
      "type": "function"
    },
    {
      "inputs": [
        {
          "internalType": "uint256",
          "name": "_agreementId",
          "type": "uint256"
        },
        {
          "internalType": "uint256",
          "name": "_resolutionAmount",
          "type": "uint256"
        },
        {
          "internalType": "bool",
          "name": "_resolveInFavorOfProvider",
          "type": "bool"
        }
      ],
      "name": "resolveDispute",
      "outputs": [],
      "stateMutability": "nonpayable",
      "type": "function"
    },
    {
      "inputs": [
        {
          "internalType": "address",
          "name": "_consumer",
          "type": "address"
        }
      ],
      "name": "revokeConsumer",
      "outputs": [],
      "stateMutability": "nonpayable",
      "type": "function"
    },
    {
      "inputs": [
        {
          "internalType": "address",
          "name": "_provider",
          "type": "address"
        }
      ],
      "name": "revokeProvider",
      "outputs": [],
      "stateMutability": "nonpayable",
      "type": "function"
    },
    {
      "inputs": [
        {
          "internalType": "uint256",
          "name": "_agreementId",
          "type": "uint256"
        }
      ],
      "name": "startRental",
      "outputs": [],
      "stateMutability": "nonpayable",
      "type": "function"
    },
    {
      "inputs": [
        {
          "internalType": "uint256",
          "name": "_agreementId",
          "type": "uint256"
        },
        {
          "internalType": "uint256",
          "name": "_responseTime",
          "type": "uint256"
        },
        {
          "internalType": "uint256",
          "name": "_accuracy",
          "type": "uint256"
        },
        {
          "internalType": "uint256",
          "name": "_availability",
          "type": "uint256"
        },
        {
          "internalType": "uint256",
          "name": "_computePower",
          "type": "uint256"
        },
        {
          "internalType": "bytes",
          "name": "_zkProof",
          "type": "bytes"
        }
      ],
      "name": "submitPerformance",
      "outputs": [],
      "stateMutability": "nonpayable",
      "type": "function"
    },
    {
      "inputs": [
        {
          "internalType": "address",
          "name": "newOwner",
          "type": "address"
        }
      ],
      "name": "transferOwnership",
      "outputs": [],
      "stateMutability": "nonpayable",
      "type": "function"
    },
    {
      "inputs": [],
      "name": "unpause",
      "outputs": [],
      "stateMutability": "nonpayable",
      "type": "function"
    },
    {
      "inputs": [
        {
          "internalType": "uint256",
          "name": "_newFee",
          "type": "uint256"
        }
      ],
      "name": "updatePlatformFee",
      "outputs": [],
      "stateMutability": "nonpayable",
      "type": "function"
    },
    {
      "inputs": [],
      "name": "zkVerifier",
      "outputs": [
        {
          "internalType": "contract ZKReceiptVerifier",
          "name": "",
          "type": "address"
        }
      ],
      "stateMutability": "view",
      "type": "function"
    }
  ],
  "bytecode": "0x6080346200011757601f6200292338819003918201601f19168301916001600160401b038311848410176200011c5780849260609460405283398101031262000117576200004d8162000132565b620000696040620000616020850162000132565b930162000132565b600080546001600160a01b03198082163390811784556040519691956001600160a01b03959486949192918516907f8be0079c531659141344cd1fd0a4f28419497f9722a3daafe3b4186f6b6457e09080a3600180556002549060fa600655610e1060075562278d00600855610100600160a81b039060081b169060018060a81b03191617600255168360035416176003551690600454161760045560006005556127db9081620001488239f35b600080fd5b634e487b7160e01b600052604160045260246000fd5b51906001600160a01b0382168203620001175756fe608080604052600436101561001357600080fd5b60003560e01c908163070558401461227e575080630c3e1dd0146120a8578063112ea2621461203f57806314e8676b14611fc757806314f79af714611fa957806318a8a6cf14611d4357806319c813be14611d1a578063237a39f914611c9257806334f1a8d314611c745780633500a95314611c2a57806336c47f5f146119fe5780633f4ba83a1461196a57806347bd8b471461137e578063564a565d146112f15780635c975abb146112ce5780635e0dacb4146112175780636169c3081461110c57806369dc3ae2146110cd578063715018a61461107457806374cb438314610d955780637ce4026f14610d775780637e002115146109d95780638456cb591461097f578063896f018f146106195780638cf391b0146105b05780638da5cb5b146105875780639c5d88f21461052f578063aa0b5988146104d1578063ac06b0d8146103ae578063ac1e8b8e14610348578063cdd78cfc1461032a578063ce74da4f146102c4578063d1a7789314610297578063d6df096d1461026e5763f2fde38b146101a057600080fd5b34610269576020366003190112610269576101b96122b9565b6101c1612570565b6001600160a01b0390811690811561021557600054826bffffffffffffffffffffffff60a01b821617600055167f8be0079c531659141344cd1fd0a4f28419497f9722a3daafe3b4186f6b6457e0600080a3005b60405162461bcd60e51b815260206004820152602660248201527f4f776e61626c653a206e6577206f776e657220697320746865207a65726f206160448201526564647265737360d01b6064820152608490fd5b600080fd5b34610269576000366003190112610269576003546040516001600160a01b039091168152602090f35b346102695760003660031901126102695760025460405160089190911c6001600160a01b03168152602090f35b34610269576020366003190112610269576102dd6122b9565b6102e5612570565b6001600160a01b03166000818152600e60205260408120805460ff191690557fba6e324dd75969176df09e0229c0f140ea0fd2261d24992ac14978fae998afe79080a2005b34610269576000366003190112610269576020600654604051908152f35b34610269576020366003190112610269576103616122b9565b610369612570565b6001600160a01b03166000818152600d60205260408120805460ff191690557f0b412438a02a65571b6108c0f39b86056b70529259c52f0a788217c320928c4a9080a2005b3461026957602036600319011261026957600435600052600960205260406000208054600160a01b600190039182600182015416926002820154166003820154600483015460058401546006850154600786015490600887015460ff16926009880161041990612525565b94610426600f8a0161247f565b9660108a01549960110154986040519c8d9c8d5260208d015260408c015260608b015260808a015260a089015260c088015260e0870152610100860161046b9161230a565b8051610120860152602081015161014086015260408101516101608601526060810151610180860152608081015115156101a086015260a001516101c0850152610240806101e086015284016104c091612317565b916102008401526102208301520390f35b34610269576020366003190112610269576004356104ed612570565b6103e881116104fb57600655005b60405162461bcd60e51b815260206004820152600c60248201526b08ccaca40e8dede40d0d2ced60a31b6044820152606490fd5b34610269576040366003190112610269576105486122b9565b6001600160a01b03166000908152600c60205260409020805460243591908210156102695760209161057991612357565b90546040519160031b1c8152f35b34610269576000366003190112610269576000546040516001600160a01b039091168152602090f35b34610269576020366003190112610269576105c96122b9565b6105d1612570565b6001600160a01b03166000818152600e60205260408120805460ff191660011790557fbf15d4f4d8e541f777b81f0c1bf63e67b157e854c646b4ceadd8522ef13c03c09080a2005b34610269576020806003193601126102695760043561063b600554821061269c565b806000526009825260ff600860406000200154169160068310156109695761066660018094146126e8565b60008281526009825260409020838101546001600160a01b0392916106979184163314908115610959575b50612759565b61069f612646565b8260005260098152604060002091600683015442106109145760088301805460ff191660021790556004830154600784015485928261084c575b81610763575b9360ff937f3752d299ee850882ff779a81f3571c4d0952aec5f8fe5b833257fae354ee5c176040600d95899561075c998d7f153faaa46ab16acf5d6a06b5788c28e949b70961ef5b344469ee4c2613cc41c89c015416958351928352820152a3015460408051428152929091161515602083015290918291820190565b0390a28055005b909192506107ac84838360025460081c168460005416600060405180968195829463a9059cbb60e01b84526004840160209093929193604081019460018060a01b031681520152565b03925af190811561084057600091610813575b50156107ce57908592916106df565b60405162461bcd60e51b815260048101859052601c60248201527f506c6174666f726d20666565207472616e73666572206661696c6564000000006044820152606490fd5b6108339150853d8711610839575b61082b81836123be565b810190612741565b886107bf565b503d610821565b6040513d6000823e3d90fd5b6002548887015460405163a9059cbb60e01b81529083166001600160a01b0316600482015260248101859052939450919290918590829060081c8416816000816044810103925af1908115610840576000916108f7575b50156108b257908592916106d9565b60405162461bcd60e51b815260048101859052601760248201527f50726f7669646572207061796d656e74206661696c65640000000000000000006044820152606490fd5b61090e9150853d87116108395761082b81836123be565b886108a3565b60405162461bcd60e51b815260048101839052601760248201527f52656e74616c20706572696f64206e6f7420656e6465640000000000000000006044820152606490fd5b6002015484163314905086610691565b634e487b7160e01b600052602160045260246000fd5b3461026957600036600319011261026957610998612570565b6109a0612602565b600160ff1960025416176002557f62e78cea01bee320cd4e420270b5ea74000d11b0c9f74754ebdbfc544b05a2586020604051338152a1005b346102695760403660031901126102695767ffffffffffffffff60243581811161026957610a0b903690600401612427565b90610a1b6005546004351061269c565b60043560009081526009602052604090206001810154610a5191336001600160a01b0392831614918215610d65575b5050612759565b610a59612646565b600435600052600960205260086040600020019060ff82541660068110156109695760018114908115610d5a575b5015610d1557600435600052600a60205260ff60406000205416610cd757604051610ab1816123a2565b6001815260208101913383526040820185815242606084015260006080840152600060a0840152600435600052600a602052604060002093610b0284511515869060ff801983541691151516179055565b518454610100600160a81b03191660089190911b610100600160a81b0316178455518051918211610cc157610b3a6001850154612445565b601f8111610c7a575b50602090601f8311600114610c055791806004949260a094600092610bfa575b50508160011b916000199060031b1c19161760018501555b60608101516002850155610ba460808201511515600386019060ff801983541691151516179055565b0151910155600360ff1982541617905560405190602082527fe0ac01cfb4d6921fdb713922edaa83c0c9cc03f7cbb949f871f92263401dadb4339280610bf1600435946020830190612317565b0390a360018055005b015190508880610b63565b906001850160005260206000209160005b601f1985168110610c625750926004949260019260a09583601f19811610610c49575b505050811b016001850155610b7b565b015160001960f88460031b161c19169055888080610c39565b91926020600181928685015181550194019201610c16565b600185016000526020600020601f840160051c810160208510610cba575b601f830160051c82018110610cae575050610b43565b60008155600101610c98565b5080610c98565b634e487b7160e01b600052604160045260246000fd5b60405162461bcd60e51b81526020600482015260166024820152754469737075746520616c72656164792065786973747360501b6044820152606490fd5b60405162461bcd60e51b815260206004820152601d60248201527f43616e6e6f74206469737075746520746869732061677265656d656e740000006044820152606490fd5b600291501484610a87565b90915060023392015416148480610a4a565b34610269576000366003190112610269576020600854604051908152f35b346102695760c036600319011261026957600435602480359060643560443560843560a43567ffffffffffffffff8111610269573660238201121561026957610de790369086816004013591016123e0565b93610df5600554881061269c565b33600052602094600d865260ff604060002054161561103057876000526009865260406000209160ff600884015416600681101561101b57600103610fe15760018060a01b036003541687604051809263204c87bf60e21b82528c60048301528b8583015288604483015289606483015287608483015260c060a48301528180610e8260c4820189612317565b03915afa90811561084057600091610fc4575b5015610f815750869492608096949260ff926113887f70f70ebcd48135032ec53b3cb3004775f8f6ba7c17961719045323d9dcea5a539a11159283610f75575b83610f69575b9060119160405194610eec866123a2565b8a8652878a870152886040870152816060870152151594858c82015260a04291015289600985015586600a85015587600b850155600c840155610f3f600d840194859060ff801983541691151516179055565b42600e840155878151910120910155541692604051948552840152604083015215156060820152a2005b60638710159350610edb565b605f8610159350610ed5565b8660196064926040519262461bcd60e51b845260048401528201527f496e76616c696420706572666f726d616e63652070726f6f66000000000000006044820152fd5b610fdb9150883d8a116108395761082b81836123be565b8a610e95565b8660146064926040519262461bcd60e51b845260048401528201527341677265656d656e74206e6f742061637469766560601b6044820152fd5b50634e487b7160e01b60009081526021600452fd5b60405162461bcd60e51b8152600481018790526017818401527f4e6f7420617574686f72697a65642070726f76696465720000000000000000006044820152606490fd5b346102695760003660031901126102695761108d612570565b600080546001600160a01b0319811682556001600160a01b03167f8be0079c531659141344cd1fd0a4f28419497f9722a3daafe3b4186f6b6457e08280a3005b34610269576020366003190112610269576001600160a01b036110ee6122b9565b16600052600d602052602060ff604060002054166040519015158152f35b346102695760208060031936011261026957600435600060a0604051611131816123a2565b828152828582015260606040820152826060820152826080820152015261115b600554821061269c565b600052600a8152604060002060405190611174826123a2565b805460ff81161515835260081c6001600160a01b0390811684840190815290916111fe6111a36001830161247f565b6040860190815260028301549460608701958652600460ff6003860154169460808901951515865201549460a08801958652604051988998818a5251151590890152511660408701525160c0606087015260e0860190612317565b9251608085015251151560a08401525160c08301520390f35b3461026957602036600319011261026957600435611238600554821061269c565b80600052600960205260ff6008604060002001541660068110156109695761126090156126e8565b6000818152600960205260409020600181015461129291336001600160a01b03928316149182156112bc575050612759565b61129a612646565b6000908152600960205260409020600801805460ff1916600417905560018055005b90915060023392015416148380610a4a565b3461026957600036600319011261026957602060ff600254166040519015158152f35b3461026957602036600319011261026957600435600052600a602052604060002080546113206001830161247f565b91600281015490600460ff60038301541691015490611368604051958560ff8897161515875260018060a01b039060081c16602087015260c0604087015260c0860190612317565b9260608501521515608084015260a08301520390f35b346102695760c0366003190112610269576113976122b9565b6024356001600160a01b03811681036102695760843567ffffffffffffffff8111610269576113ca903690600401612427565b9133600052600e60205260ff6040600020541615611925576113ea612646565b6113f2612602565b600754604435106118eb57600854604435116118b25760643515611874576001600160a01b0381166000908152600d602052604090205460ff161561182f57600554916000198314611819576001830160055560065460643580820204810361181957604051611461816123a2565b6000815260006020820152600060408201526000606082015260006080820152600060a08201526127106040519261149884612385565b86845260018060a01b038616602085015260018060a01b038516604085015260443560608501526064356080850152600060a0850152600060c0850152606435020460e083015260006101008301526101208201528461014082015260a4356101608201526000610180820152836000526009602052604060002090805182556001820160018060a01b03602083015116906bffffffffffffffffffffffff60a01b9182825416179055600283019060018060a01b0360408401511690825416179055606081015160038301556080810151600483015560a0810151600583015560c0810151600683015560e08101516007830155610100810151600681101561096957600883019060ff8019835416911617905560a0610120820151805160098501556020810151600a8501556040810151600b8501556060810151600c8501556115f960808201511515600d86019060ff801983541691151516179055565b0151600e83015561014081015180519067ffffffffffffffff8211610cc157611625600f850154612445565b601f81116117d2575b5091869391602098938990601f8311600114611735577f53d6ddb06f51e605d26572dee815ab3a7f2d9611142e8e952e0c89a1938e629c95938361170396946011946101809460009261172a575b50508160011b916000199060031b1c191617600f8501555b6101608101516010850155015191015560018060a01b038616600052600b88526116c28460406000206125c8565b60018060a01b038516600052600c88526116e08460406000206125c8565b60405191829160443583526064358a840152608060408401526080830190612317565b60a43560608301526001600160a01b0395861696909516940390a460018055604051908152f35b015190508e8061167c565b90600f85016000528a6000209160005b601f19851681106117b8575093600184601194610180947f53d6ddb06f51e605d26572dee815ab3a7f2d9611142e8e952e0c89a1938e629c9a986117039a98601f1981161061179f575b505050811b01600f850155611694565b015160001960f88460031b161c191690558e808061178f565b8183015184558b9850600190930192918c01918c01611745565b600f85016000526020600020601f840160051c810160208510611812575b601f830160051c8201811061180657505061162e565b600081556001016117f0565b50806117f0565b634e487b7160e01b600052601160045260246000fd5b60405162461bcd60e51b815260206004820152601760248201527f50726f7669646572206e6f7420617574686f72697a65640000000000000000006044820152606490fd5b60405162461bcd60e51b81526020600482015260166024820152755072696365206d75737420626520706f73697469766560501b6044820152606490fd5b60405162461bcd60e51b81526020600482015260116024820152704475726174696f6e20746f6f206c6f6e6760781b6044820152606490fd5b60405162461bcd60e51b8152602060048201526012602482015271111d5c985d1a5bdb881d1bdbc81cda1bdc9d60721b6044820152606490fd5b60405162461bcd60e51b815260206004820152601760248201527f4e6f7420617574686f72697a656420636f6e73756d65720000000000000000006044820152606490fd5b3461026957600036600319011261026957611983612570565b60025460ff8116156119c25760ff19166002557f5db9ee0a495bf2e6ff9c91a7834c1ba4fdd244a5e8aa4e537bd38aeae4b073aa6020604051338152a1005b60405162461bcd60e51b815260206004820152601460248201527314185d5cd8589b194e881b9bdd081c185d5cd95960621b6044820152606490fd5b3461026957606036600319011261026957602435600435604435801515810361026957611a29612570565b611a36600554831061269c565b81600052602092600a845260ff6040600020541615611bf15782600052600a845260ff60036040600020015416611bac5782600052600984526040600020600a8552816004604060002060038101600160ff19825416179055015582600014611b9a57600101546001600160a01b03165b81611ae3575b506040805191825291151560208201527fc84a77110774854ab237145b108e924962dbaa5191275eb044a6cb09621c4a949190a2005b60025460405163a9059cbb60e01b81526001600160a01b039283166004820152602481018490529186918391604491839160009160081c165af190811561084057600091611b7d575b5015611b385783611aad565b60405162461bcd60e51b815260048101859052601960248201527f5265736f6c7574696f6e207061796d656e74206661696c6564000000000000006044820152606490fd5b611b949150853d87116108395761082b81836123be565b85611b2c565b600201546001600160a01b0316611aa7565b60405162461bcd60e51b815260048101859052601860248201527f4469737075746520616c7265616479207265736f6c76656400000000000000006044820152606490fd5b60405162461bcd60e51b81526004810185905260116024820152704e6f20646973707574652065786973747360781b6044820152606490fd5b3461026957604036600319011261026957611c436122b9565b6001600160a01b03166000908152600b60205260409020805460243591908210156102695760209161057991612357565b34610269576000366003190112610269576020600754604051908152f35b3461026957602080600319360112610269576001600160a01b03611cb46122b9565b16600052600b8152604060002090604051908181845491828152019360005281600020916000905b828210611d0357611cff85611cf3818903826123be565b604051918291826122cf565b0390f35b835486529485019460019384019390910190611cdc565b34610269576000366003190112610269576004546040516001600160a01b039091168152602090f35b34610269576020366003190112610269576004356000610180604051611d6881612385565b8281528260208201528260408201528260608201528260808201528260a08201528260c08201528260e082015282610100820152604051611da8816123a2565b8381528360208201528360408201528360608201528360808201528360a08201526101208201526060610140820152826101608201520152611ded600554821061269c565b6000526009602052604060002060405190611e0782612385565b8054825260018101546001600160a01b03908116602084015260028201541660408301526003810154606083015260048101546080830152600581015460a083015260068082015460c0840152600782015460e0840152600882015460ff16919082101561096957601191610100840152611e8460098201612525565b610120840152611e96600f820161247f565b610140840152601081015461016084015201546101808201526040518091602082528051602083015260018060a01b03602082015116604083015260018060a01b03604082015116606083015260608101516080830152608081015160a083015260a081015160c083015260c081015160e083015260e0810151610100830152611f2a61010082015161012084019061230a565b61012081015180516101408401526020810151610160840152604081015161018084015260608101516101a0840152608081015115156101c084015260a001516101e0830152610140810151610180611f926102409283610200870152610260860190612317565b926101608101516102208601520151908301520390f35b34610269576000366003190112610269576020600554604051908152f35b3461026957602080600319360112610269576001600160a01b03611fe96122b9565b16600052600c8152604060002090604051908181845491828152019360005281600020916000905b82821061202857611cff85611cf3818903826123be565b835486529485019460019384019390910190612011565b34610269576020366003190112610269576120586122b9565b612060612570565b6001600160a01b03166000818152600d60205260408120805460ff191660011790557f30aad5ec8e5ced8ded7e45959f743df649dbc96638aa1a73a56bb0c4e25aab3a9080a2005b346102695760208060031936011261026957600435906120cb600554831061269c565b816000526009815260ff600860406000200154166006811015610969576120f290156126e8565b6120fa612646565b6000828152600982526040902060028101546001600160a01b039081163303612239578260009160646121366004860154600787015490612734565b9160025460081c169160405194859384926323b872dd60e01b845233600485015230602485015260448401525af19081156108405760009161221c575b50156121d7577f6b34ef2e3155dbe54e2714b56159ef657784b893c0bdaea9d14f93390f41864d9160409142600582015560086121b4600383015442612734565b9182600682015501600160ff19825416179055825191428352820152a260018055005b60405162461bcd60e51b815260048101839052601760248201527f5061796d656e74207472616e73666572206661696c65640000000000000000006044820152606490fd5b6122339150833d85116108395761082b81836123be565b84612173565b60405162461bcd60e51b815260048101849052601760248201527f4f6e6c7920636f6e73756d65722063616e2073746172740000000000000000006044820152606490fd5b34610269576020366003190112610269576020906001600160a01b036122a26122b9565b16600052600e825260ff6040600020541615158152f35b600435906001600160a01b038216820361026957565b6020908160408183019282815285518094520193019160005b8281106122f6575050505090565b8351855293810193928101926001016122e8565b9060068210156109695752565b919082519283825260005b848110612343575050826000602080949584010152601f8019910116010190565b602081830181015184830182015201612322565b805482101561236f5760005260206000200190600090565b634e487b7160e01b600052603260045260246000fd5b6101a0810190811067ffffffffffffffff821117610cc157604052565b60c0810190811067ffffffffffffffff821117610cc157604052565b90601f8019910116810190811067ffffffffffffffff821117610cc157604052565b92919267ffffffffffffffff8211610cc1576040519161240a601f8201601f1916602001846123be565b829481845281830111610269578281602093846000960137010152565b9080601f8301121561026957816020612442933591016123e0565b90565b90600182811c92168015612475575b602083101461245f57565b634e487b7160e01b600052602260045260246000fd5b91607f1691612454565b906040519182600082549261249384612445565b90818452600194858116908160001461250257506001146124bf575b50506124bd925003836123be565b565b9093915060005260209081600020936000915b8183106124ea5750506124bd935082010138806124af565b855488840185015294850194879450918301916124d2565b9150506124bd94506020925060ff191682840152151560051b82010138806124af565b90604051612532816123a2565b60a0600582948054845260018101546020850152600281015460408501526003810154606085015260ff600482015416151560808501520154910152565b6000546001600160a01b0316330361258457565b606460405162461bcd60e51b815260206004820152602060248201527f4f776e61626c653a2063616c6c6572206973206e6f7420746865206f776e65726044820152fd5b805468010000000000000000811015610cc1576125ea91600182018155612357565b819291549060031b91821b91600019901b1916179055565b60ff6002541661260e57565b60405162461bcd60e51b815260206004820152601060248201526f14185d5cd8589b194e881c185d5cd95960821b6044820152606490fd5b600260015414612657576002600155565b60405162461bcd60e51b815260206004820152601f60248201527f5265656e7472616e637947756172643a207265656e7472616e742063616c6c006044820152606490fd5b156126a357565b60405162461bcd60e51b815260206004820152601860248201527f41677265656d656e7420646f6573206e6f7420657869737400000000000000006044820152606490fd5b156126ef57565b60405162461bcd60e51b815260206004820152601860248201527f496e76616c69642061677265656d656e742073746174757300000000000000006044820152606490fd5b9190820180921161181957565b90816020910312610269575180151581036102695790565b1561276057565b60405162461bcd60e51b815260206004820152601960248201527f4e6f742061677265656d656e74207061727469636970616e74000000000000006044820152606490fdfea26469706673582212207a650314a78d936a38e2c8d416de9b0c041c505acfa6eb960ee78670949906c164736f6c63430008130033",
  "linkReferences": {},
  "deployedLinkReferences": {}
}