{
  "_format": "hh-sol-artifact-1",
  "contractName": "TreasuryManager",
  "sourceName": "contracts/TreasuryManager.sol",
  "abi": [
    {
      "inputs": [
        {
          "internalType": "address",
          "name": "_treasuryToken",
          "type": "address"
        }
      ],
      "stateMutability": "nonpayable",
      "type": "constructor"
    },
    {
      "inputs": [
        {
          "internalType": "uint256",
          "name": "allocationId",
          "type": "uint256"
        }
      ],
      "name": "AllocationCompletedError",
      "type": "error"
    },
    {
      "inputs": [
        {
          "internalType": "uint256",
          "name": "allocationId",
          "type": "uint256"
        }
      ],
      "name": "AllocationNotFound",
      "type": "error"
    },
    {
      "inputs": [
        {
          "internalType": "uint256",
          "name": "requested",
          "type": "uint256"
        },
        {
          "internalType": "uint256",
          "name": "available",
          "type": "uint256"
        }
      ],
      "name": "InsufficientBalance",
      "type": "error"
    },
    {
      "inputs": [
        {
          "internalType": "string",
          "name": "category",
          "type": "string"
        },
        {
          "internalType": "uint256",
          "name": "requested",
          "type": "uint256"
        },
        {
          "internalType": "uint256",
          "name": "available",
          "type": "uint256"
        }
      ],
      "name": "InsufficientBudget",
      "type": "error"
    },
    {
      "inputs": [
        {
          "internalType": "uint256",
          "name": "amount",
          "type": "uint256"
        }
      ],
      "name": "InvalidAmount",
      "type": "error"
    },
    {
      "inputs": [
        {
          "internalType": "string",
          "name": "category",
          "type": "string"
        }
      ],
      "name": "InvalidCategory",
      "type": "error"
    },
    {
      "inputs": [
        {
          "internalType": "uint256",
          "name": "period",
          "type": "uint256"
        }
      ],
      "name": "InvalidVestingPeriod",
      "type": "error"
    },
    {
      "inputs": [],
      "name": "NotAuthorized",
      "type": "error"
    },
    {
      "inputs": [],
      "name": "RegistryNotSet",
      "type": "error"
    },
    {
      "anonymous": false,
      "inputs": [
        {
          "indexed": true,
          "internalType": "uint256",
          "name": "allocationId",
          "type": "uint256"
        }
      ],
      "name": "AllocationCompletedEvent",
      "type": "event"
    },
    {
      "anonymous": false,
      "inputs": [
        {
          "indexed": true,
          "internalType": "string",
          "name": "category",
          "type": "string"
        },
        {
          "indexed": false,
          "internalType": "uint256",
          "name": "budget",
          "type": "uint256"
        },
        {
          "indexed": true,
          "internalType": "address",
          "name": "creator",
          "type": "address"
        }
      ],
      "name": "BudgetCategoryCreated",
      "type": "event"
    },
    {
      "anonymous": false,
      "inputs": [
        {
          "indexed": true,
          "internalType": "string",
          "name": "category",
          "type": "string"
        },
        {
          "indexed": false,
          "internalType": "uint256",
          "name": "newBudget",
          "type": "uint256"
        }
      ],
      "name": "BudgetCategoryUpdated",
      "type": "event"
    },
    {
      "anonymous": false,
      "inputs": [
        {
          "indexed": true,
          "internalType": "string",
          "name": "category",
          "type": "string"
        }
      ],
      "name": "CategoryDeactivated",
      "type": "event"
    },
    {
      "anonymous": false,
      "inputs": [
        {
          "indexed": true,
          "internalType": "uint256",
          "name": "allocationId",
          "type": "uint256"
        },
        {
          "indexed": true,
          "internalType": "string",
          "name": "category",
          "type": "string"
        },
        {
          "indexed": true,
          "internalType": "address",
          "name": "recipient",
          "type": "address"
        },
        {
          "indexed": false,
          "internalType": "uint256",
          "name": "amount",
          "type": "uint256"
        }
      ],
      "name": "FundsAllocated",
      "type": "event"
    },
    {
      "anonymous": false,
      "inputs": [
        {
          "indexed": true,
          "internalType": "uint256",
          "name": "allocationId",
          "type": "uint256"
        },
        {
          "indexed": true,
          "internalType": "address",
          "name": "recipient",
          "type": "address"
        },
        {
          "indexed": false,
          "internalType": "uint256",
          "name": "amount",
          "type": "uint256"
        }
      ],
      "name": "FundsReleased",
      "type": "event"
    },
    {
      "anonymous": false,
      "inputs": [
        {
          "indexed": true,
          "internalType": "address",
          "name": "previousOwner",
          "type": "address"
        },
        {
          "indexed": true,
          "internalType": "address",
          "name": "newOwner",
          "type": "address"
        }
      ],
      "name": "OwnershipTransferred",
      "type": "event"
    },
    {
      "anonymous": false,
      "inputs": [
        {
          "indexed": false,
          "internalType": "address",
          "name": "account",
          "type": "address"
        }
      ],
      "name": "Paused",
      "type": "event"
    },
    {
      "anonymous": false,
      "inputs": [
        {
          "indexed": true,
          "internalType": "address",
          "name": "depositor",
          "type": "address"
        },
        {
          "indexed": false,
          "internalType": "uint256",
          "name": "amount",
          "type": "uint256"
        }
      ],
      "name": "TreasuryDeposited",
      "type": "event"
    },
    {
      "anonymous": false,
      "inputs": [
        {
          "indexed": true,
          "internalType": "address",
          "name": "recipient",
          "type": "address"
        },
        {
          "indexed": false,
          "internalType": "uint256",
          "name": "amount",
          "type": "uint256"
        }
      ],
      "name": "TreasuryWithdrawn",
      "type": "event"
    },
    {
      "anonymous": false,
      "inputs": [
        {
          "indexed": false,
          "internalType": "address",
          "name": "account",
          "type": "address"
        }
      ],
      "name": "Unpaused",
      "type": "event"
    },
    {
      "inputs": [],
      "name": "DEFAULT_VESTING_PERIOD",
      "outputs": [
        {
          "internalType": "uint256",
          "name": "",
          "type": "uint256"
        }
      ],
      "stateMutability": "view",
      "type": "function"
    },
    {
      "inputs": [],
      "name": "MAX_VESTING_PERIOD",
      "outputs": [
        {
          "internalType": "uint256",
          "name": "",
          "type": "uint256"
        }
      ],
      "stateMutability": "view",
      "type": "function"
    },
    {
      "inputs": [],
      "name": "MIN_ALLOCATION",
      "outputs": [
        {
          "internalType": "uint256",
          "name": "",
          "type": "uint256"
        }
      ],
      "stateMutability": "view",
      "type": "function"
    },
    {
      "inputs": [
        {
          "internalType": "string",
          "name": "category",
          "type": "string"
        },
        {
          "internalType": "address",
          "name": "recipient",
          "type": "address"
        },
        {
          "internalType": "uint256",
          "name": "amount",
          "type": "uint256"
        }
      ],
      "name": "allocateFunds",
      "outputs": [],
      "stateMutability": "nonpayable",
      "type": "function"
    },
    {
      "inputs": [
        {
          "internalType": "string",
          "name": "category",
          "type": "string"
        },
        {
          "internalType": "address",
          "name": "recipient",
          "type": "address"
        },
        {
          "internalType": "uint256",
          "name": "amount",
          "type": "uint256"
        },
        {
          "internalType": "uint256",
          "name": "vestingPeriod",
          "type": "uint256"
        }
      ],
      "name": "allocateFundsWithVesting",
      "outputs": [],
      "stateMutability": "nonpayable",
      "type": "function"
    },
    {
      "inputs": [],
      "name": "allocationCounter",
      "outputs": [
        {
          "internalType": "uint256",
          "name": "",
          "type": "uint256"
        }
      ],
      "stateMutability": "view",
      "type": "function"
    },
    {
      "inputs": [
        {
          "internalType": "uint256",
          "name": "",
          "type": "uint256"
        }
      ],
      "name": "allocations",
      "outputs": [
        {
          "internalType": "uint256",
          "name": "allocationId",
          "type": "uint256"
        },
        {
          "internalType": "string",
          "name": "category",
          "type": "string"
        },
        {
          "internalType": "address",
          "name": "recipient",
          "type": "address"
        },
        {
          "internalType": "uint256",
          "name": "totalAmount",
          "type": "uint256"
        },
        {
          "internalType": "uint256",
          "name": "releasedAmount",
          "type": "uint256"
        },
        {
          "internalType": "uint256",
          "name": "vestingPeriod",
          "type": "uint256"
        },
        {
          "internalType": "uint256",
          "name": "vestingStart",
          "type": "uint256"
        },
        {
          "internalType": "uint256",
          "name": "lastRelease",
          "type": "uint256"
        },
        {
          "internalType": "bool",
          "name": "isCompleted",
          "type": "bool"
        },
        {
          "internalType": "bool",
          "name": "isActive",
          "type": "bool"
        },
        {
          "internalType": "address",
          "name": "allocatedBy",
          "type": "address"
        },
        {
          "internalType": "uint256",
          "name": "createdAt",
          "type": "uint256"
        }
      ],
      "stateMutability": "view",
      "type": "function"
    },
    {
      "inputs": [
        {
          "internalType": "string",
          "name": "",
          "type": "string"
        }
      ],
      "name": "budgetCategories",
      "outputs": [
        {
          "internalType": "string",
          "name": "name",
          "type": "string"
        },
        {
          "internalType": "uint256",
          "name": "totalBudget",
          "type": "uint256"
        },
        {
          "internalType": "uint256",
          "name": "allocatedAmount",
          "type": "uint256"
        },
        {
          "internalType": "uint256",
          "name": "spentAmount",
          "type": "uint256"
        },
        {
          "internalType": "bool",
          "name": "isActive",
          "type": "bool"
        },
        {
          "internalType": "uint256",
          "name": "createdAt",
          "type": "uint256"
        },
        {
          "internalType": "address",
          "name": "creator",
          "type": "address"
        }
      ],
      "stateMutability": "view",
      "type": "function"
    },
    {
      "inputs": [
        {
          "components": [
            {
              "internalType": "uint256",
              "name": "allocationId",
              "type": "uint256"
            },
            {
              "internalType": "string",
              "name": "category",
              "type": "string"
            },
            {
              "internalType": "address",
              "name": "recipient",
              "type": "address"
            },
            {
              "internalType": "uint256",
              "name": "totalAmount",
              "type": "uint256"
            },
            {
              "internalType": "uint256",
              "name": "releasedAmount",
              "type": "uint256"
            },
            {
              "internalType": "uint256",
              "name": "vestingPeriod",
              "type": "uint256"
            },
            {
              "internalType": "uint256",
              "name": "vestingStart",
              "type": "uint256"
            },
            {
              "internalType": "uint256",
              "name": "lastRelease",
              "type": "uint256"
            },
            {
              "internalType": "bool",
              "name": "isCompleted",
              "type": "bool"
            },
            {
              "internalType": "bool",
              "name": "isActive",
              "type": "bool"
            },
            {
              "internalType": "address",
              "name": "allocatedBy",
              "type": "address"
            },
            {
              "internalType": "uint256",
              "name": "createdAt",
              "type": "uint256"
            }
          ],
          "internalType": "struct TreasuryManager.FundAllocation",
          "name": "allocation",
          "type": "tuple"
        }
      ],
      "name": "calculateVestedAmount",
      "outputs": [
        {
          "internalType": "uint256",
          "name": "",
          "type": "uint256"
        }
      ],
      "stateMutability": "view",
      "type": "function"
    },
    {
      "inputs": [
        {
          "internalType": "string",
          "name": "",
          "type": "string"
        },
        {
          "internalType": "uint256",
          "name": "",
          "type": "uint256"
        }
      ],
      "name": "categoryAllocations",
      "outputs": [
        {
          "internalType": "uint256",
          "name": "",
          "type": "uint256"
        }
      ],
      "stateMutability": "view",
      "type": "function"
    },
    {
      "inputs": [],
      "name": "categoryCounter",
      "outputs": [
        {
          "internalType": "uint256",
          "name": "",
          "type": "uint256"
        }
      ],
      "stateMutability": "view",
      "type": "function"
    },
    {
      "inputs": [
        {
          "internalType": "uint256",
          "name": "",
          "type": "uint256"
        }
      ],
      "name": "categoryNames",
      "outputs": [
        {
          "internalType": "string",
          "name": "",
          "type": "string"
        }
      ],
      "stateMutability": "view",
      "type": "function"
    },
    {
      "inputs": [
        {
          "internalType": "string",
          "name": "category",
          "type": "string"
        },
        {
          "internalType": "uint256",
          "name": "budget",
          "type": "uint256"
        }
      ],
      "name": "createBudgetCategory",
      "outputs": [],
      "stateMutability": "nonpayable",
      "type": "function"
    },
    {
      "inputs": [],
      "name": "daoGovernance",
      "outputs": [
        {
          "internalType": "address",
          "name": "",
          "type": "address"
        }
      ],
      "stateMutability": "view",
      "type": "function"
    },
    {
      "inputs": [
        {
          "internalType": "string",
          "name": "category",
          "type": "string"
        }
      ],
      "name": "deactivateCategory",
      "outputs": [],
      "stateMutability": "nonpayable",
      "type": "function"
    },
    {
      "inputs": [
        {
          "internalType": "uint256",
          "name": "amount",
          "type": "uint256"
        }
      ],
      "name": "depositFunds",
      "outputs": [],
      "stateMutability": "nonpayable",
      "type": "function"
    },
    {
      "inputs": [
        {
          "internalType": "address",
          "name": "token",
          "type": "address"
        },
        {
          "internalType": "uint256",
          "name": "amount",
          "type": "uint256"
        }
      ],
      "name": "emergencyWithdraw",
      "outputs": [],
      "stateMutability": "nonpayable",
      "type": "function"
    },
    {
      "inputs": [
        {
          "internalType": "uint256",
          "name": "allocationId",
          "type": "uint256"
        }
      ],
      "name": "getAllocation",
      "outputs": [
        {
          "internalType": "address",
          "name": "",
          "type": "address"
        },
        {
          "internalType": "uint256",
          "name": "",
          "type": "uint256"
        },
        {
          "internalType": "uint256",
          "name": "",
          "type": "uint256"
        }
      ],
      "stateMutability": "view",
      "type": "function"
    },
    {
      "inputs": [
        {
          "internalType": "string",
          "name": "category",
          "type": "string"
        }
      ],
      "name": "getBudgetBalance",
      "outputs": [
        {
          "internalType": "uint256",
          "name": "",
          "type": "uint256"
        }
      ],
      "stateMutability": "view",
      "type": "function"
    },
    {
      "inputs": [],
      "name": "getBudgetCategories",
      "outputs": [
        {
          "internalType": "string[]",
          "name": "",
          "type": "string[]"
        }
      ],
      "stateMutability": "view",
      "type": "function"
    },
    {
      "inputs": [
        {
          "internalType": "string",
          "name": "category",
          "type": "string"
        }
      ],
      "name": "getCategoryAllocations",
      "outputs": [
        {
          "internalType": "uint256[]",
          "name": "",
          "type": "uint256[]"
        }
      ],
      "stateMutability": "view",
      "type": "function"
    },
    {
      "inputs": [
        {
          "internalType": "address",
          "name": "recipient",
          "type": "address"
        }
      ],
      "name": "getRecipientAllocations",
      "outputs": [
        {
          "internalType": "uint256[]",
          "name": "",
          "type": "uint256[]"
        }
      ],
      "stateMutability": "view",
      "type": "function"
    },
    {
      "inputs": [],
      "name": "getTreasuryStats",
      "outputs": [
        {
          "internalType": "uint256",
          "name": "totalBudget",
          "type": "uint256"
        },
        {
          "internalType": "uint256",
          "name": "allocatedAmount",
          "type": "uint256"
        },
        {
          "internalType": "uint256",
          "name": "spentAmount",
          "type": "uint256"
        },
        {
          "internalType": "uint256",
          "name": "availableBalance",
          "type": "uint256"
        },
        {
          "internalType": "uint256",
          "name": "activeCategories",
          "type": "uint256"
        }
      ],
      "stateMutability": "view",
      "type": "function"
    },
    {
      "inputs": [],
      "name": "getVersion",
      "outputs": [
        {
          "internalType": "uint256",
          "name": "",
          "type": "uint256"
        }
      ],
      "stateMutability": "view",
      "type": "function"
    },
    {
      "inputs": [
        {
          "internalType": "uint256",
          "name": "allocationId",
          "type": "uint256"
        }
      ],
      "name": "getVestedAmount",
      "outputs": [
        {
          "internalType": "uint256",
          "name": "",
          "type": "uint256"
        }
      ],
      "stateMutability": "view",
      "type": "function"
    },
    {
      "inputs": [
        {
          "internalType": "address",
          "name": "_registry",
          "type": "address"
        }
      ],
      "name": "initialize",
      "outputs": [],
      "stateMutability": "nonpayable",
      "type": "function"
    },
    {
      "inputs": [],
      "name": "owner",
      "outputs": [
        {
          "internalType": "address",
          "name": "",
          "type": "address"
        }
      ],
      "stateMutability": "view",
      "type": "function"
    },
    {
      "inputs": [],
      "name": "pause",
      "outputs": [],
      "stateMutability": "nonpayable",
      "type": "function"
    },
    {
      "inputs": [],
      "name": "paused",
      "outputs": [
        {
          "internalType": "bool",
          "name": "",
          "type": "bool"
        }
      ],
      "stateMutability": "view",
      "type": "function"
    },
    {
      "inputs": [
        {
          "internalType": "address",
          "name": "",
          "type": "address"
        },
        {
          "internalType": "uint256",
          "name": "",
          "type": "uint256"
        }
      ],
      "name": "recipientAllocations",
      "outputs": [
        {
          "internalType": "uint256",
          "name": "",
          "type": "uint256"
        }
      ],
      "stateMutability": "view",
      "type": "function"
    },
    {
      "inputs": [],
      "name": "registry",
      "outputs": [
        {
          "internalType": "contract ContractRegistry",
          "name": "",
          "type": "address"
        }
      ],
      "stateMutability": "view",
      "type": "function"
    },
    {
      "inputs": [
        {
          "internalType": "uint256",
          "name": "allocationId",
          "type": "uint256"
        }
      ],
      "name": "releaseVestedFunds",
      "outputs": [],
      "stateMutability": "nonpayable",
      "type": "function"
    },
    {
      "inputs": [],
      "name": "renounceOwnership",
      "outputs": [],
      "stateMutability": "nonpayable",
      "type": "function"
    },
    {
      "inputs": [
        {
          "internalType": "address",
          "name": "newOwner",
          "type": "address"
        }
      ],
      "name": "transferOwnership",
      "outputs": [],
      "stateMutability": "nonpayable",
      "type": "function"
    },
    {
      "inputs": [],
      "name": "treasuryToken",
      "outputs": [
        {
          "internalType": "contract IERC20",
          "name": "",
          "type": "address"
        }
      ],
      "stateMutability": "view",
      "type": "function"
    },
    {
      "inputs": [],
      "name": "unpause",
      "outputs": [],
      "stateMutability": "nonpayable",
      "type": "function"
    },
    {
      "inputs": [
        {
          "internalType": "string",
          "name": "category",
          "type": "string"
        },
        {
          "internalType": "uint256",
          "name": "newBudget",
          "type": "uint256"
        }
      ],
      "name": "updateBudgetCategory",
      "outputs": [],
      "stateMutability": "nonpayable",
      "type": "function"
    },
    {
      "inputs": [
        {
          "internalType": "address",
          "name": "newImplementation",
          "type": "address"
        }
      ],
      "name": "upgrade",
      "outputs": [],
      "stateMutability": "nonpayable",
      "type": "function"
    },
    {
      "inputs": [],
      "name": "version",
      "outputs": [
        {
          "internalType": "uint256",
          "name": "",
          "type": "uint256"
        }
      ],
      "stateMutability": "view",
      "type": "function"
    }
  ],
  "bytecode": "0x6080346100ba57601f6129c638819003918201601f19168301916001600160401b038311848410176100bf578084926020946040528339810103126100ba57516001600160a01b0390818116908190036100ba5760005460018060a01b0319903382821617600055604051933391167f8be0079c531659141344cd1fd0a4f28419497f9722a3daafe3b4186f6b6457e0600080a36001805560ff1960025416600255600160035560045416176004556128f090816100d68239f35b600080fd5b634e487b7160e01b600052604160045260246000fdfe6080604052600436101561001257600080fd5b6000803560e01c80630327bd6414611d5b57806303624fc014611d3d5780630900f01014611d09578063098480ec14611ceb5780630a2642bf14611c195780630d8e6e2c1461187d578063159e0f5d14611ba65780632bab378414611b155780633b76594d14611a495780633d4e5ddd14611a205780633dfd7fc7146119305780633f4ba83a1461189b57806354fd4d501461187d5780635a5804b3146118295780635c975abb146118065780636d081ad2146117d2578063715018a61461177857806373604c2d146116cc57806374003cee14611588578063775e097b1461146d578063784940c5146114065780637b103999146113dd5780638456cb59146113825780638ae6296b146111555780638da5cb5b1461112e57806395ccea671461109e578063a47f9f1414610fa0578063b2ce514b14610f77578063bced12b814610f1f578063c4d66de814610d1f578063c8692e3f14610b97578063cafeedf614610b5e578063dd0ca83f146107bf578063e5486bda1461079b578063e5a5e6741461077c578063efa04690146106b5578063f2fde38b146105ef578063f53b057e146105d15763fda675d8146101ca57600080fd5b346105ce5760603660031901126105ce576004356001600160401b0381116105ca576101fa90369060040161204f565b610202611db9565b9060018060a01b03835416331415806105b5575b6105a357610222612170565b60443515610589578051801590811561055a575b50610535576102436122e3565b60405160208183516102588183858801611fb1565b81016007815203019020906102766001830154600284015490612339565b806044351161051057506024602060018060a01b0360045416604051928380926370a0823160e01b82523060048301525afa9081156105055785916104ce575b5080604435116104ae5750610470906102d0600c5461214b565b9283600c556040516102e181611eb3565b84815282602082015260018060a01b0386166040820152604435606082015286608082015262278d0060a08201524260c08201524260e082015286610100820152600161012082015233610140820152426101608201528487526008602052600961016060408920928051845561035f6020820151600186016121b4565b6002840160018060a01b036040830151166001600160601b0360a01b825416179055606081015160038501556080810151600485015560a0810151600585015560c0810151600685015560e08101516007850155600884016103d46101008301511515829060ff801983541691151516179055565b6101208201511515815461ff0062010000600160b01b0361014086015160101b169260081b1690610100600160b01b031916171790550151910155600261042060443582840154612368565b91015561044b83604051602081855161043c8183858a01611fb1565b81016009815203019020612375565b6001600160a01b0384168552600a6020526040852061046b908490612375565b6122c3565b907f4a546ca45be5405b8aca7e98bd774d68423a4da41f94b9cde41d55b588418100602060405194604435865260018060a01b031694a46001805580f35b60405163cf47918160e01b81526044803560048301526024820192909252fd5b90506020813d6020116104fd575b816104e960209383611eea565b810103126104f85751386102b6565b600080fd5b3d91506104dc565b6040513d87823e3d90fd5b604051635e844f5160e01b8152918291610531916044359060048501612346565b0390fd5b60405163be2cdf2560e01b815260206004820152908190610531906024830190611fd4565b60ff9150600490602060405182610575829483858a01611fb1565b810160078152030190200154161538610236565b604051633728b83d60e01b81526044356004820152602490fd5b60405163ea8e4eb560e01b8152600490fd5b506006546001600160a01b0316331415610216565b5080fd5b80fd5b50346105ce57806003193601126105ce576020600c54604051908152f35b50346105ce5760203660031901126105ce57610609611da3565b6106116120d4565b6001600160a01b0390811690811561066157600054826001600160601b0360a01b821617600055167f8be0079c531659141344cd1fd0a4f28419497f9722a3daafe3b4186f6b6457e0600080a380f35b60405162461bcd60e51b815260206004820152602660248201527f4f776e61626c653a206e6577206f776e657220697320746865207a65726f206160448201526564647265737360d01b6064820152608490fd5b50346105ce5760203660031901126105ce57600435906001600160401b0382116105ce5761075761070160206106ee366004870161204f565b8160405193828580945193849201611fb1565b8101600781520301902061071481611f0b565b90600181015490600281015490600381015460ff60048301541690600583015492600660018060a01b03910154169360405197889760e0895260e0890190611fd4565b956020880152604087015260608601521515608085015260a084015260c08301520390f35b50346105ce57806003193601126105ce5760206040516301e133808152f35b50346105ce57806003193601126105ce57602060405168056bc75e2d631000008152f35b50346105ce5760803660031901126105ce576004356001600160401b0381116105ca576107f090369060040161204f565b6107f8611db9565b9060018060a01b0383541633141580610b49575b6105a357610818612170565b604435908115610b305780518015908115610b01575b506105355761083b6122e3565b6301e1338060643511610ae757604051602081835161085d8183858801611fb1565b810160078152030190209061087d60026001840154930192835490612339565b808411610ac957506024602060018060a01b0360045416604051928380926370a0823160e01b82523060048301525afa908115610abe578691610a8c575b50808411610a6e57506020610a5f7f4a546ca45be5405b8aca7e98bd774d68423a4da41f94b9cde41d55b588418100926108f6600c5461214b565b9485600c556040519761090889611eb3565b86895282858a015260018060a01b031697600961016060408301928b8452898d606083018d81526080840190828252604060a0860193606435855260c08701954287524260e0890152816101008901526001610120890152336101408901524289890152815260088e522097855189556109888d87015160018b016121b4565b600289019060018060a01b039051166001600160601b0360a01b82541617905551600388015551600487015551600586015551600685015560e08101516007850155600884016109eb6101008301511515829060ff801983541691151516179055565b6101208201511515815461ff0062010000600160b01b0361014086015160101b169260081b1690610100600160b01b031916171790550151910155610a31878254612368565b9055610a4b856040518581855161043c8183858a01611fb1565b868852600a835261046b8560408a20612375565b93604051908152a46001805580f35b836044916040519163cf47918160e01b835260048301526024820152fd5b90506020813d602011610ab6575b81610aa760209383611eea565b810103126104f85751386108bb565b3d9150610a9a565b6040513d88823e3d90fd5b604051635e844f5160e01b8152938493506105319260048501612346565b60405163087e684760e41b81526064356004820152602490fd5b60ff9150600490602060405182610b1c829483858a01611fb1565b81016007815203019020015416153861082e565b604051633728b83d60e01b815260048101839052602490fd5b506006546001600160a01b031633141561080c565b50346105ce5760203660031901126105ce57610b8f610b8a6040602093600435815260088552206123aa565b61284e565b604051908152f35b50346105ce57806003193601126105ce57808180809181600d54905b818110610c52575050602494602060018060a01b0360045416604051978880926370a0823160e01b82523060048301525afa928315610c465792610c12575b60a095506040519485526020850152604084015260608301526080820152f35b91506020853d8211610c3e575b81610c2c60209383611eea565b810103126104f85760a0945191610bf2565b3d9150610c1f565b604051903d90823e3d90fd5b610c64610c5e82611de3565b50612449565b60405190610c7182611e82565b610c7a81611f0b565b82526001810154806020840152600282015491604084019283526003810154936060810194855260c060ff600484015416151592836080840152600581015460a0840152600660018060a01b0391015416910152610ce4575b505050610cdf9061214b565b610bb3565b94610d08610d16939a610d00610cdf969a98610d10959c612368565b9a5190612368565b995190612368565b9361214b565b94903880610cd3565b50346105ce576020806003193601126105ca57610d3a611da3565b600554916001600160a01b0391828416610ee457821690816001600160601b0360a01b8095161760055584604051828101906e2a3932b0b9bab93ca6b0b730b3b2b960891b8252600f8152610d8e81611ecf565b519020604051631c2d8fb360e31b8082526004820183905294908481602481855afa9081610ec7575b50610ebf57803b15610ebb5760448392604051948593849263322e37d760e11b845260048401523060248401525af18015610abe57610e8c575b505b808360055416926024604051838101906c44414f476f7665726e616e636560981b8252600d8152610e2381611ecf565b519020916040519586938492835260048301525afa9182918693610e5d575b5050610e4c578380f35b169060065416176006553880808380f35b610e7d929350803d10610e85575b610e758183611eea565b81019061212c565b903880610e42565b503d610e6b565b6001600160401b038196929611610ea7576040529338610df1565b634e487b7160e01b82526041600452602482fd5b8280fd5b505050610df3565b610edd90863d8811610e8557610e758183611eea565b5038610db7565b60405162461bcd60e51b8152600481018390526013602482015272105b1c9958591e481a5b9a5d1a585b1a5e9959606a1b6044820152606490fd5b50346105ce57602090610f49610f3436612096565b93908160405193828580945193849201611fb1565b810160098152030190209081548310156105ce576020610f698484611e30565b90546040519160031b1c8152f35b50346105ce57806003193601126105ce576004546040516001600160a01b039091168152602090f35b50346105ce576003196020368201126105ca57600435906001600160401b039081831161109a57610180908336030112610ebb5760405192610fe184611eb3565b8260040135845260248301359182116105ce576020610b8f856101648661100d3688830160040161204f565b8584015261101d60448201611dcf565b6040840152606481013560608401526084810135608084015260a481013560a084015260c481013560c084015260e481013560e084015261106161010482016120c7565b61010084015261107461012482016120c7565b6101208401526110876101448201611dcf565b610140840152013561016082015261284e565b8380fd5b50346105ce5760403660031901126105ce576110b8611da3565b602435906110c46120d4565b6004546001600160a01b03918391908316908316810361111d57506110ee91600454163390612653565b6040519081527f41fdd680478135993bc53fb2ffaf9560951b57ef62ff6badd02b61e018b4f17f60203392a280f35b61112992503390612653565b6110ee565b50346105ce57806003193601126105ce57546040516001600160a01b039091168152602090f35b50346105ce5761116436612096565b825490916001600160a01b0391821633141580611374575b6105a357611188612170565b821561135b576111966122e3565b60405191815160056020948581818701946111b2818388611fb1565b810160078152030190200154611316579060068392604051906111d482611e82565b84825261125d878301898152604084018b815260608501908c82526080860192600184526112336112218d60a08a0198428a5260c08b019d8e339052604051938492839251928391611fb1565b810160078152030190209751886121b4565b516001870155516002860155516003850155511515600484019060ff801983541691151516179055565b516005820155019151166001600160601b0360a01b825416179055600d54600160401b811015611302578060016112979201600d55611de3565b6112ee57816112ca7f76ae4393d867253743a7f0c15ee8be25f009d9b45cb0e05b1d686a3d4d16c33a936112dd936121b4565b6112d5600b5461214b565b600b556122c3565b916040519384523393a36001805580f35b634e487b7160e01b85526004859052602485fd5b634e487b7160e01b85526041600452602485fd5b60405162461bcd60e51b815260048101859052601760248201527f43617465676f727920616c7265616479206578697374730000000000000000006044820152606490fd5b604051633728b83d60e01b815260048101849052602490fd5b50816006541633141561117c565b50346105ce57806003193601126105ce5761139b6120d4565b6113a3612170565b600160ff1960025416176002557f62e78cea01bee320cd4e420270b5ea74000d11b0c9f74754ebdbfc544b05a2586020604051338152a180f35b50346105ce57806003193601126105ce576005546040516001600160a01b039091168152602090f35b50346105ce5760203660031901126105ce57600435600d548110156105ca5761142e90611de3565b9190916114595761145561144183611f0b565b604051918291602083526020830190611fd4565b0390f35b634e487b7160e01b81526004819052602490fd5b50346105ce576020806003193601126105ca576004356001600160401b038111610ebb5761149f90369060040161204f565b8254909190336001600160a01b0391821614159081611579575b506105a3578151801590811561154b575b506115295790600461150292604051908184516114ea8183858901611fb1565b810160078152030190200160ff1981541690556122c3565b7f091efbfc95272b14e2f39e6c21b0f2a7fdf4336002f1674727ef50c6dea12de28280a280f35b61053160405192839263be2cdf2560e01b845260048401526024830190611fd4565b60ff91506004908360405182611565829483858b01611fb1565b8101600781520301902001541615386114ca565b905060065416331415386114b9565b50346105ce5761159736612096565b8254909190336001600160a01b03918216141590816116bd575b506105a3576115be612170565b8115610b30578051801590811561168e575b50610535576115dd6122e3565b60405160208183516115f28183858801611fb1565b8101600781520301902090600282015483106116495761163a6020918460017ff5a8fd915d526f0838d422775149b7068a30009fecabc001c7fa6ea33d80a1349501556122c3565b92604051908152a26001805580f35b60405162461bcd60e51b815260206004820152601d60248201527f4275646765742062656c6f7720616c6c6f636174656420616d6f756e740000006044820152606490fd5b60ff91506004906020604051826116a9829483858a01611fb1565b8101600781520301902001541615386115d0565b905060065416331415386115b1565b50346105ce5760203660031901126105ce57600435906001600160401b0382116105ce576020610b8f611706826106ee366004880161204f565b8101600781520301902060405161171c81611e82565b61172582611f0b565b8152600182015490818582015260c06002840154938460408401526003810154606084015260ff60048201541615156080840152600581015460a0840152600660018060a01b0391015416910152612339565b50346105ce57806003193601126105ce576117916120d4565b80546001600160a01b03198116825581906001600160a01b03167f8be0079c531659141344cd1fd0a4f28419497f9722a3daafe3b4186f6b6457e08280a380f35b50346105ce5760203660031901126105ce576117ec612170565b6117f46122e3565b6117ff6004356124dc565b6001805580f35b50346105ce57806003193601126105ce57602060ff600254166040519015158152f35b50346105ce5760203660031901126105ce57611853604060609260043581526008602052206123aa565b60018060a01b03604082015116906080838201519101519060405192835260208301526040820152f35b50346105ce57806003193601126105ce576020600354604051908152f35b50346105ce57806003193601126105ce576118b46120d4565b60025460ff8116156118f45760ff19166002557f5db9ee0a495bf2e6ff9c91a7834c1ba4fdd244a5e8aa4e537bd38aeae4b073aa6020604051338152a180f35b60405162461bcd60e51b815260206004820152601460248201527314185d5cd8589b194e881b9bdd081c185d5cd95960621b6044820152606490fd5b50346105ce57806003193601126105ce57600d546001600160401b038111610ea75760405190602092611968848360051b0184611eea565b818352600d815283830191817fd7b6990105719101dabeb77144f2a3385c8033acd3af97e9423a695e81ad1eb5845b8383106119fc5750505050604051928484019085855251809152604084019460408260051b8601019392955b8287106119d05785850386f35b9091929382806119ec600193603f198a82030186528851611fd4565b96019201960195929190926119c3565b6001888192611a0e859b9a989b611f0b565b81520192019201919096939596611997565b50346105ce57806003193601126105ce576006546040516001600160a01b039091168152602090f35b50346105ce5760203660031901126105ce57600435611a66612170565b8015611afd57611a746122e3565b6004546040516323b872dd60e01b602082015233602482015230604482015260648082018490528152906001600160a01b031660a082016001600160401b0381118382101761130257604052611aca919061269e565b6040519081527f8283e6b33f7f1cfc32820a5fd82cd9e5224d98c14133977f1e7902ce920e51ce60203392a26001805580f35b60249060405190633728b83d60e01b82526004820152fd5b50346105ce576020806003193601126105ca576004356001600160401b038111610ebb57816106ee611b4b92369060040161204f565b81016009815203019020916040518092808554928381520194835280832092905b828210611b8f5761145585611b8381890382611eea565b60405191829182611ff9565b835486529485019460019384019390910190611b6c565b50346105ce576020806003193601126105ca576001600160a01b03611bc9611da3565b168252600a815260408220916040518092808554928381520194835280832092905b828210611c025761145585611b8381890382611eea565b835486529485019460019384019390910190611beb565b50346105ce5760203660031901126105ce5760409060043581526008602052208054611c4760018301611f0b565b9160018060a01b03908160028201541691600382015491600481015460058201546006830154906007840154926009600886015495015496611c9d6040519b8c9b8c5260208c61018091829101528c0190611fd4565b9860408b015260608a0152608089015260a088015260c087015260e086015260ff8116151561010086015260ff8160081c16151561012086015260101c166101408401526101608301520390f35b50346105ce57806003193601126105ce57602060405162278d008152f35b50346105ce5760203660031901126105ce57611d23611da3565b50611d2c6120d4565b611d3760035461214b565b60035580f35b50346105ce57806003193601126105ce576020600b54604051908152f35b50346105ce5760403660031901126105ce57611d75611da3565b6001600160a01b03168152600a60205260408120805460243592908310156105ce576020610f698484611e30565b600435906001600160a01b03821682036104f857565b602435906001600160a01b03821682036104f857565b35906001600160a01b03821682036104f857565b600d54811015611e1a57600d6000527fd7b6990105719101dabeb77144f2a3385c8033acd3af97e9423a695e81ad1eb50190600090565b634e487b7160e01b600052603260045260246000fd5b8054821015611e1a5760005260206000200190600090565b90600182811c92168015611e78575b6020831014611e6257565b634e487b7160e01b600052602260045260246000fd5b91607f1691611e57565b60e081019081106001600160401b03821117611e9d57604052565b634e487b7160e01b600052604160045260246000fd5b61018081019081106001600160401b03821117611e9d57604052565b604081019081106001600160401b03821117611e9d57604052565b90601f801991011681019081106001600160401b03821117611e9d57604052565b9060405191826000825492611f1f84611e48565b908184526001948581169081600014611f8e5750600114611f4b575b5050611f4992500383611eea565b565b9093915060005260209081600020936000915b818310611f76575050611f4993508201013880611f3b565b85548884018501529485019487945091830191611f5e565b915050611f4994506020925060ff191682840152151560051b8201013880611f3b565b60005b838110611fc45750506000910152565b8181015183820152602001611fb4565b90602091611fed81518092818552858086019101611fb1565b601f01601f1916010190565b6020908160408183019282815285518094520193019160005b828110612020575050505090565b835185529381019392810192600101612012565b6001600160401b038111611e9d57601f01601f191660200190565b81601f820112156104f85780359061206682612034565b926120746040519485611eea565b828452602083830101116104f857816000926020809301838601378301015290565b60406003198201126104f857600435906001600160401b0382116104f8576120c09160040161204f565b9060243590565b359081151582036104f857565b6000546001600160a01b031633036120e857565b606460405162461bcd60e51b815260206004820152602060248201527f4f776e61626c653a2063616c6c6572206973206e6f7420746865206f776e65726044820152fd5b908160209103126104f857516001600160a01b03811681036104f85790565b600019811461215a5760010190565b634e487b7160e01b600052601160045260246000fd5b60ff6002541661217c57565b60405162461bcd60e51b815260206004820152601060248201526f14185d5cd8589b194e881c185d5cd95960821b6044820152606490fd5b91909182516001600160401b038111611e9d576121d18254611e48565b601f811161227b575b50602080601f831160011461221757508192939460009261220c575b50508160011b916000199060031b1c1916179055565b0151905038806121f6565b90601f198316958460005282600020926000905b8882106122635750508360019596971061224a575b505050811b019055565b015160001960f88460031b161c19169055388080612240565b8060018596829496860151815501950193019061222b565b600083815260208120601f840160051c810192602085106122b9575b601f0160051c01915b8281106122ae5750506121da565b8181556001016122a0565b9092508290612297565b6122db90602060405192828480945193849201611fb1565b810103902090565b6002600154146122f4576002600155565b60405162461bcd60e51b815260206004820152601f60248201527f5265656e7472616e637947756172643a207265656e7472616e742063616c6c006044820152606490fd5b9190820391821161215a57565b61235e60409295949395606083526060830190611fd4565b9460208201520152565b9190820180921161215a57565b8054600160401b811015611e9d5761239291600182018155611e30565b819291549060031b91821b91600019901b1916179055565b906040516123b781611eb3565b61016060098294805484526123ce60018201611f0b565b602085015260018060a01b038060028301541660408601526003820154606086015260048201546080860152600582015460a0860152600682015460c0860152600782015460e0860152600882015460ff8116151561010087015260ff8160081c16151561012087015260101c166101408501520154910152565b60405190816000825461245b81611e48565b936001918083169081156124c05750600114612483575b505060209250600781520301902090565b90915060005260209081600020906000915b8583106124ac575050505060209181013880612472565b805487840152869450918301918101612495565b92505050602093915060ff191682528015150281013880612472565b80600052600860205260406000209081541561263b576008820160ff81541661262257600283019060018060a01b038083541633141580612614575b80612606575b6105a35761252e610b8a866123aa565b92600486019261254084548096612339565b9687156125fc5760036020956125778a7f6e3c6096795c8298a218b2cfb8bde42726ff7c9a3d27b4d3ba41ab7f74feb5fb99612368565b81554260078401558161258c60018501612449565b016125988b8254612368565b90555491015411156125c5575b506125b98683600454168484541690612653565b541693604051908152a3565b805460ff19166001179055847ff86ed74bd598729a133c69551edb4de931e197901620af21e20bf7347486a377600080a2386125a5565b5050505050505050565b50806006541633141561251e565b508060005416331415612518565b60405163684acf6b60e11b815260048101839052602490fd5b60249060405190633f82c16b60e01b82526004820152fd5b60405163a9059cbb60e01b60208201526001600160a01b03909216602483015260448083019390935291815260808101916001600160401b03831182841017611e9d57611f49926040525b60018060a01b03169061271b6040516126b681611ecf565b6020938482527f5361666545524332303a206c6f772d6c6576656c2063616c6c206661696c6564858301526000808587829751910182855af13d156127b1573d9161270083612034565b9261270e6040519485611eea565b83523d868885013e6127b5565b80519182159184831561278d575b5050509050156127365750565b6084906040519062461bcd60e51b82526004820152602a60248201527f5361666545524332303a204552433230206f7065726174696f6e20646964206e6044820152691bdd081cdd58d8d9595960b21b6064820152fd5b9193818094500103126105ca578201519081151582036105ce575080388084612729565b6060915b9192901561281757508151156127c9575090565b3b156127d25790565b60405162461bcd60e51b815260206004820152601d60248201527f416464726573733a2063616c6c20746f206e6f6e2d636f6e74726163740000006044820152606490fd5b82519091501561282a5750805190602001fd5b60405162461bcd60e51b815260206004820152908190610531906024830190611fd4565b60c08101518042106128b3576128649042612339565b9060a081019081518310156128a9576060015182810292818404149015171561215a5751908115612893570490565b634e487b7160e01b600052601260045260246000fd5b6060015192915050565b505060009056fea2646970667358221220666a84806558bdad9d79f5b6c3de117033922e15789191b844e79b7192d018e364736f6c63430008130033",
  "linkReferences": {},
  "deployedLinkReferences": {}
}