{
  "_format": "hh-sol-artifact-1",
  "contractName": "PerformanceAggregator",
  "sourceName": "contracts/PerformanceAggregator.sol",
  "abi": [
    {
      "inputs": [],
      "stateMutability": "nonpayable",
      "type": "constructor"
    },
    {
      "inputs": [
        {
          "internalType": "uint256",
          "name": "accuracy",
          "type": "uint256"
        }
      ],
      "name": "InvalidAccuracy",
      "type": "error"
    },
    {
      "inputs": [
        {
          "internalType": "address",
          "name": "agent",
          "type": "address"
        }
      ],
      "name": "InvalidAgent",
      "type": "error"
    },
    {
      "inputs": [
        {
          "internalType": "uint256",
          "name": "score",
          "type": "uint256"
        }
      ],
      "name": "InvalidScore",
      "type": "error"
    },
    {
      "inputs": [
        {
          "internalType": "address",
          "name": "agent",
          "type": "address"
        }
      ],
      "name": "MaxHistoryReached",
      "type": "error"
    },
    {
      "inputs": [],
      "name": "NotAuthorized",
      "type": "error"
    },
    {
      "inputs": [
        {
          "internalType": "uint256",
          "name": "recordId",
          "type": "uint256"
        }
      ],
      "name": "RecordNotFound",
      "type": "error"
    },
    {
      "inputs": [],
      "name": "RegistryNotSet",
      "type": "error"
    },
    {
      "anonymous": false,
      "inputs": [
        {
          "indexed": true,
          "internalType": "address",
          "name": "agent",
          "type": "address"
        },
        {
          "indexed": false,
          "internalType": "uint256",
          "name": "oldTier",
          "type": "uint256"
        },
        {
          "indexed": false,
          "internalType": "uint256",
          "name": "newTier",
          "type": "uint256"
        }
      ],
      "name": "AgentTierChanged",
      "type": "event"
    },
    {
      "anonymous": false,
      "inputs": [
        {
          "indexed": false,
          "internalType": "address[]",
          "name": "agents",
          "type": "address[]"
        },
        {
          "indexed": false,
          "internalType": "uint256[]",
          "name": "scores",
          "type": "uint256[]"
        }
      ],
      "name": "BatchPerformanceUpdated",
      "type": "event"
    },
    {
      "anonymous": false,
      "inputs": [
        {
          "indexed": true,
          "internalType": "address",
          "name": "previousOwner",
          "type": "address"
        },
        {
          "indexed": true,
          "internalType": "address",
          "name": "newOwner",
          "type": "address"
        }
      ],
      "name": "OwnershipTransferred",
      "type": "event"
    },
    {
      "anonymous": false,
      "inputs": [
        {
          "indexed": false,
          "internalType": "address",
          "name": "account",
          "type": "address"
        }
      ],
      "name": "Paused",
      "type": "event"
    },
    {
      "anonymous": false,
      "inputs": [
        {
          "indexed": true,
          "internalType": "uint256",
          "name": "recordId",
          "type": "uint256"
        },
        {
          "indexed": true,
          "internalType": "address",
          "name": "agent",
          "type": "address"
        },
        {
          "indexed": false,
          "internalType": "uint256",
          "name": "score",
          "type": "uint256"
        }
      ],
      "name": "PerformanceRecordAdded",
      "type": "event"
    },
    {
      "anonymous": false,
      "inputs": [
        {
          "indexed": true,
          "internalType": "uint256",
          "name": "tier",
          "type": "uint256"
        },
        {
          "indexed": false,
          "internalType": "uint256",
          "name": "minScore",
          "type": "uint256"
        },
        {
          "indexed": false,
          "internalType": "uint256",
          "name": "maxScore",
          "type": "uint256"
        },
        {
          "indexed": false,
          "internalType": "uint256",
          "name": "multiplier",
          "type": "uint256"
        }
      ],
      "name": "PerformanceTierUpdated",
      "type": "event"
    },
    {
      "anonymous": false,
      "inputs": [
        {
          "indexed": true,
          "internalType": "address",
          "name": "agent",
          "type": "address"
        },
        {
          "indexed": false,
          "internalType": "uint256",
          "name": "score",
          "type": "uint256"
        },
        {
          "indexed": false,
          "internalType": "uint256",
          "name": "reputation",
          "type": "uint256"
        }
      ],
      "name": "PerformanceUpdated",
      "type": "event"
    },
    {
      "anonymous": false,
      "inputs": [
        {
          "indexed": true,
          "internalType": "address",
          "name": "agent",
          "type": "address"
        },
        {
          "indexed": false,
          "internalType": "uint256",
          "name": "reputation",
          "type": "uint256"
        },
        {
          "indexed": false,
          "internalType": "uint256",
          "name": "tier",
          "type": "uint256"
        }
      ],
      "name": "ReputationCalculated",
      "type": "event"
    },
    {
      "anonymous": false,
      "inputs": [
        {
          "indexed": false,
          "internalType": "address",
          "name": "account",
          "type": "address"
        }
      ],
      "name": "Unpaused",
      "type": "event"
    },
    {
      "inputs": [],
      "name": "DECAY_INTERVAL",
      "outputs": [
        {
          "internalType": "uint256",
          "name": "",
          "type": "uint256"
        }
      ],
      "stateMutability": "view",
      "type": "function"
    },
    {
      "inputs": [],
      "name": "INITIAL_REPUTATION",
      "outputs": [
        {
          "internalType": "uint256",
          "name": "",
          "type": "uint256"
        }
      ],
      "stateMutability": "view",
      "type": "function"
    },
    {
      "inputs": [],
      "name": "MAX_HISTORY_RECORDS",
      "outputs": [
        {
          "internalType": "uint256",
          "name": "",
          "type": "uint256"
        }
      ],
      "stateMutability": "view",
      "type": "function"
    },
    {
      "inputs": [],
      "name": "MAX_REPUTATION",
      "outputs": [
        {
          "internalType": "uint256",
          "name": "",
          "type": "uint256"
        }
      ],
      "stateMutability": "view",
      "type": "function"
    },
    {
      "inputs": [],
      "name": "MIN_REPUTATION",
      "outputs": [
        {
          "internalType": "uint256",
          "name": "",
          "type": "uint256"
        }
      ],
      "stateMutability": "view",
      "type": "function"
    },
    {
      "inputs": [],
      "name": "REPUTATION_DECAY_RATE",
      "outputs": [
        {
          "internalType": "uint256",
          "name": "",
          "type": "uint256"
        }
      ],
      "stateMutability": "view",
      "type": "function"
    },
    {
      "inputs": [
        {
          "internalType": "uint256",
          "name": "minScore",
          "type": "uint256"
        },
        {
          "internalType": "uint256",
          "name": "maxScore",
          "type": "uint256"
        },
        {
          "internalType": "uint256",
          "name": "apyMultiplier",
          "type": "uint256"
        },
        {
          "internalType": "string",
          "name": "name",
          "type": "string"
        }
      ],
      "name": "addPerformanceTier",
      "outputs": [],
      "stateMutability": "nonpayable",
      "type": "function"
    },
    {
      "inputs": [],
      "name": "agentBounty",
      "outputs": [
        {
          "internalType": "address",
          "name": "",
          "type": "address"
        }
      ],
      "stateMutability": "view",
      "type": "function"
    },
    {
      "inputs": [
        {
          "internalType": "address",
          "name": "",
          "type": "address"
        }
      ],
      "name": "agentMetrics",
      "outputs": [
        {
          "internalType": "uint256",
          "name": "totalTasks",
          "type": "uint256"
        },
        {
          "internalType": "uint256",
          "name": "completedTasks",
          "type": "uint256"
        },
        {
          "internalType": "uint256",
          "name": "failedTasks",
          "type": "uint256"
        },
        {
          "internalType": "uint256",
          "name": "averageAccuracy",
          "type": "uint256"
        },
        {
          "internalType": "uint256",
          "name": "totalEarnings",
          "type": "uint256"
        },
        {
          "internalType": "uint256",
          "name": "lastUpdated",
          "type": "uint256"
        },
        {
          "internalType": "uint256",
          "name": "reputationScore",
          "type": "uint256"
        },
        {
          "internalType": "uint256",
          "name": "performanceTier",
          "type": "uint256"
        }
      ],
      "stateMutability": "view",
      "type": "function"
    },
    {
      "inputs": [
        {
          "internalType": "address",
          "name": "",
          "type": "address"
        },
        {
          "internalType": "uint256",
          "name": "",
          "type": "uint256"
        }
      ],
      "name": "agentRecords",
      "outputs": [
        {
          "internalType": "uint256",
          "name": "",
          "type": "uint256"
        }
      ],
      "stateMutability": "view",
      "type": "function"
    },
    {
      "inputs": [],
      "name": "agentStaking",
      "outputs": [
        {
          "internalType": "address",
          "name": "",
          "type": "address"
        }
      ],
      "stateMutability": "view",
      "type": "function"
    },
    {
      "inputs": [
        {
          "internalType": "address[]",
          "name": "agents",
          "type": "address[]"
        },
        {
          "internalType": "uint256[]",
          "name": "scores",
          "type": "uint256[]"
        }
      ],
      "name": "batchUpdatePerformance",
      "outputs": [],
      "stateMutability": "nonpayable",
      "type": "function"
    },
    {
      "inputs": [
        {
          "internalType": "uint256",
          "name": "reputation",
          "type": "uint256"
        }
      ],
      "name": "calculateAPYMultiplier",
      "outputs": [
        {
          "internalType": "uint256",
          "name": "",
          "type": "uint256"
        }
      ],
      "stateMutability": "view",
      "type": "function"
    },
    {
      "inputs": [
        {
          "internalType": "address",
          "name": "agent",
          "type": "address"
        }
      ],
      "name": "getAgentMetrics",
      "outputs": [
        {
          "internalType": "uint256",
          "name": "totalTasks",
          "type": "uint256"
        },
        {
          "internalType": "uint256",
          "name": "completedTasks",
          "type": "uint256"
        },
        {
          "internalType": "uint256",
          "name": "failedTasks",
          "type": "uint256"
        },
        {
          "internalType": "uint256",
          "name": "averageAccuracy",
          "type": "uint256"
        },
        {
          "internalType": "uint256",
          "name": "totalEarnings",
          "type": "uint256"
        },
        {
          "internalType": "uint256",
          "name": "reputationScore",
          "type": "uint256"
        },
        {
          "internalType": "uint256",
          "name": "performanceTier",
          "type": "uint256"
        },
        {
          "internalType": "uint256",
          "name": "lastUpdated",
          "type": "uint256"
        }
      ],
      "stateMutability": "view",
      "type": "function"
    },
    {
      "inputs": [],
      "name": "getAggregatorStats",
      "outputs": [
        {
          "internalType": "uint256",
          "name": "totalAgents",
          "type": "uint256"
        },
        {
          "internalType": "uint256",
          "name": "totalRecords",
          "type": "uint256"
        },
        {
          "internalType": "uint256",
          "name": "averageReputation",
          "type": "uint256"
        },
        {
          "internalType": "uint256",
          "name": "activeAgents",
          "type": "uint256"
        }
      ],
      "stateMutability": "view",
      "type": "function"
    },
    {
      "inputs": [],
      "name": "getAllPerformanceTiers",
      "outputs": [
        {
          "internalType": "uint256[]",
          "name": "",
          "type": "uint256[]"
        }
      ],
      "stateMutability": "view",
      "type": "function"
    },
    {
      "inputs": [
        {
          "internalType": "address",
          "name": "agent",
          "type": "address"
        }
      ],
      "name": "getPerformanceHistory",
      "outputs": [
        {
          "internalType": "uint256[]",
          "name": "",
          "type": "uint256[]"
        }
      ],
      "stateMutability": "view",
      "type": "function"
    },
    {
      "inputs": [
        {
          "internalType": "uint256",
          "name": "recordId",
          "type": "uint256"
        }
      ],
      "name": "getPerformanceRecord",
      "outputs": [
        {
          "internalType": "address",
          "name": "agent",
          "type": "address"
        },
        {
          "internalType": "uint256",
          "name": "score",
          "type": "uint256"
        },
        {
          "internalType": "uint256",
          "name": "accuracy",
          "type": "uint256"
        },
        {
          "internalType": "uint256",
          "name": "earnings",
          "type": "uint256"
        },
        {
          "internalType": "uint256",
          "name": "timestamp",
          "type": "uint256"
        },
        {
          "internalType": "string",
          "name": "taskType",
          "type": "string"
        },
        {
          "internalType": "bool",
          "name": "isPositive",
          "type": "bool"
        }
      ],
      "stateMutability": "view",
      "type": "function"
    },
    {
      "inputs": [
        {
          "internalType": "uint256",
          "name": "tierId",
          "type": "uint256"
        }
      ],
      "name": "getPerformanceTier",
      "outputs": [
        {
          "internalType": "uint256",
          "name": "minScore",
          "type": "uint256"
        },
        {
          "internalType": "uint256",
          "name": "maxScore",
          "type": "uint256"
        },
        {
          "internalType": "uint256",
          "name": "apyMultiplier",
          "type": "uint256"
        },
        {
          "internalType": "string",
          "name": "name",
          "type": "string"
        }
      ],
      "stateMutability": "view",
      "type": "function"
    },
    {
      "inputs": [
        {
          "internalType": "address",
          "name": "agent",
          "type": "address"
        }
      ],
      "name": "getReputationScore",
      "outputs": [
        {
          "internalType": "uint256",
          "name": "",
          "type": "uint256"
        }
      ],
      "stateMutability": "view",
      "type": "function"
    },
    {
      "inputs": [],
      "name": "getVersion",
      "outputs": [
        {
          "internalType": "uint256",
          "name": "",
          "type": "uint256"
        }
      ],
      "stateMutability": "view",
      "type": "function"
    },
    {
      "inputs": [
        {
          "internalType": "address",
          "name": "_registry",
          "type": "address"
        }
      ],
      "name": "initialize",
      "outputs": [],
      "stateMutability": "nonpayable",
      "type": "function"
    },
    {
      "inputs": [],
      "name": "owner",
      "outputs": [
        {
          "internalType": "address",
          "name": "",
          "type": "address"
        }
      ],
      "stateMutability": "view",
      "type": "function"
    },
    {
      "inputs": [],
      "name": "pause",
      "outputs": [],
      "stateMutability": "nonpayable",
      "type": "function"
    },
    {
      "inputs": [],
      "name": "paused",
      "outputs": [
        {
          "internalType": "bool",
          "name": "",
          "type": "bool"
        }
      ],
      "stateMutability": "view",
      "type": "function"
    },
    {
      "inputs": [
        {
          "internalType": "uint256",
          "name": "",
          "type": "uint256"
        }
      ],
      "name": "performanceRecords",
      "outputs": [
        {
          "internalType": "uint256",
          "name": "recordId",
          "type": "uint256"
        },
        {
          "internalType": "address",
          "name": "agent",
          "type": "address"
        },
        {
          "internalType": "uint256",
          "name": "score",
          "type": "uint256"
        },
        {
          "internalType": "uint256",
          "name": "accuracy",
          "type": "uint256"
        },
        {
          "internalType": "uint256",
          "name": "earnings",
          "type": "uint256"
        },
        {
          "internalType": "uint256",
          "name": "timestamp",
          "type": "uint256"
        },
        {
          "internalType": "string",
          "name": "taskType",
          "type": "string"
        },
        {
          "internalType": "bool",
          "name": "isPositive",
          "type": "bool"
        }
      ],
      "stateMutability": "view",
      "type": "function"
    },
    {
      "inputs": [
        {
          "internalType": "uint256",
          "name": "",
          "type": "uint256"
        }
      ],
      "name": "performanceTiers",
      "outputs": [
        {
          "internalType": "uint256",
          "name": "minScore",
          "type": "uint256"
        },
        {
          "internalType": "uint256",
          "name": "maxScore",
          "type": "uint256"
        },
        {
          "internalType": "uint256",
          "name": "apyMultiplier",
          "type": "uint256"
        },
        {
          "internalType": "string",
          "name": "name",
          "type": "string"
        }
      ],
      "stateMutability": "view",
      "type": "function"
    },
    {
      "inputs": [],
      "name": "performanceVerifier",
      "outputs": [
        {
          "internalType": "address",
          "name": "",
          "type": "address"
        }
      ],
      "stateMutability": "view",
      "type": "function"
    },
    {
      "inputs": [],
      "name": "recordCounter",
      "outputs": [
        {
          "internalType": "uint256",
          "name": "",
          "type": "uint256"
        }
      ],
      "stateMutability": "view",
      "type": "function"
    },
    {
      "inputs": [
        {
          "internalType": "uint256",
          "name": "",
          "type": "uint256"
        }
      ],
      "name": "recordIds",
      "outputs": [
        {
          "internalType": "uint256",
          "name": "",
          "type": "uint256"
        }
      ],
      "stateMutability": "view",
      "type": "function"
    },
    {
      "inputs": [
        {
          "internalType": "uint256",
          "name": "",
          "type": "uint256"
        }
      ],
      "name": "recordToAgent",
      "outputs": [
        {
          "internalType": "address",
          "name": "",
          "type": "address"
        }
      ],
      "stateMutability": "view",
      "type": "function"
    },
    {
      "inputs": [],
      "name": "registry",
      "outputs": [
        {
          "internalType": "contract ContractRegistry",
          "name": "",
          "type": "address"
        }
      ],
      "stateMutability": "view",
      "type": "function"
    },
    {
      "inputs": [],
      "name": "renounceOwnership",
      "outputs": [],
      "stateMutability": "nonpayable",
      "type": "function"
    },
    {
      "inputs": [],
      "name": "tierCounter",
      "outputs": [
        {
          "internalType": "uint256",
          "name": "",
          "type": "uint256"
        }
      ],
      "stateMutability": "view",
      "type": "function"
    },
    {
      "inputs": [
        {
          "internalType": "address",
          "name": "newOwner",
          "type": "address"
        }
      ],
      "name": "transferOwnership",
      "outputs": [],
      "stateMutability": "nonpayable",
      "type": "function"
    },
    {
      "inputs": [],
      "name": "unpause",
      "outputs": [],
      "stateMutability": "nonpayable",
      "type": "function"
    },
    {
      "inputs": [
        {
          "internalType": "address",
          "name": "agent",
          "type": "address"
        },
        {
          "internalType": "uint256",
          "name": "score",
          "type": "uint256"
        }
      ],
      "name": "updateAgentPerformance",
      "outputs": [],
      "stateMutability": "nonpayable",
      "type": "function"
    },
    {
      "inputs": [
        {
          "internalType": "address",
          "name": "agent",
          "type": "address"
        },
        {
          "internalType": "uint256",
          "name": "score",
          "type": "uint256"
        },
        {
          "internalType": "uint256",
          "name": "accuracy",
          "type": "uint256"
        },
        {
          "internalType": "uint256",
          "name": "earnings",
          "type": "uint256"
        },
        {
          "internalType": "string",
          "name": "taskType",
          "type": "string"
        },
        {
          "internalType": "bool",
          "name": "isPositive",
          "type": "bool"
        }
      ],
      "name": "updateAgentPerformanceDetailed",
      "outputs": [],
      "stateMutability": "nonpayable",
      "type": "function"
    },
    {
      "inputs": [
        {
          "internalType": "uint256",
          "name": "tierId",
          "type": "uint256"
        },
        {
          "internalType": "uint256",
          "name": "minScore",
          "type": "uint256"
        },
        {
          "internalType": "uint256",
          "name": "maxScore",
          "type": "uint256"
        },
        {
          "internalType": "uint256",
          "name": "apyMultiplier",
          "type": "uint256"
        },
        {
          "internalType": "string",
          "name": "name",
          "type": "string"
        }
      ],
      "name": "updatePerformanceTier",
      "outputs": [],
      "stateMutability": "nonpayable",
      "type": "function"
    },
    {
      "inputs": [
        {
          "internalType": "address",
          "name": "newImplementation",
          "type": "address"
        }
      ],
      "name": "upgrade",
      "outputs": [],
      "stateMutability": "nonpayable",
      "type": "function"
    },
    {
      "inputs": [],
      "name": "version",
      "outputs": [
        {
          "internalType": "uint256",
          "name": "",
          "type": "uint256"
        }
      ],
      "stateMutability": "view",
      "type": "function"
    }
  ],
  "bytecode": "0x6080604052346200092d5760008054336001600160a01b0319821681178355916001600160a01b03909116907f8be0079c531659141344cd1fd0a4f28419497f9722a3daafe3b4186f6b6457e09080a36001805560ff196002541660025560016003556200006f600e5462000932565b80600e556200007d62000958565b9060008252602082016107d081526040830190611f4082526200009f62000978565b92600684526542726f6e7a6560d01b602085015260608501938452600052600c602052604060002093518455516001840155516002830155519081519060018060401b038211620005c957600301908154600181811c9116801562000922575b6020821014620005a857601f8111620008d5575b50602092601f82116001146200086c579281929360009262000860575b50508160011b916000199060031b1c19161790555b62000152600e5462000932565b80600e556200016062000958565b906107d1825260208201610fa08152604083019061271082526200018362000978565b92600684526529b4b63b32b960d11b602085015260608501938452600052600c602052604060002093518455516001840155516002830155519081519060018060401b038211620005c957600301908154600181811c9116801562000855575b6020821014620005a857601f811162000808575b506020601f82116001146200079e5781929360009262000792575b50508160011b916000199060031b1c19161790555b62000234600e5462000932565b80600e556200024262000958565b90610fa182526020820161177081526040830190612ee082526200026562000978565b92600484526311dbdb1960e21b602085015260608501938452600052600c6020526040600020935184555160018401555160028301555180519060018060401b038211620005c9576003830154600181811c9116801562000787575b6020821014620005a857601f81116200073a575b50602090601f8311600114620006c6576003929160009183620006ba575b50508160011b9160001990841b1c1916179101555b62000315600e5462000932565b80600e556200032362000958565b906117718252611f406020830152613a9860408301526200034362000978565b6008815267506c6174696e756d60c01b60208201526060830152600052600c6020526060604060002091805183556020810151600184015560408101516002840155015180519060018060401b038211620005c9576003830154600181811c91168015620006af575b6020821014620005a857601f81116200065f575b50602090601f8311600114620005eb576003929160009183620005df575b50508160011b9160001990841b1c1916179101555b62000400600e5462000932565b80600e5560036200041062000958565b611f4181526020810161271081526040820190614e2082526200043262000978565b946007865266111a585b5bdb9960ca1b602087015260608401958652600052600c60205260406000209251835551600183015551600282015501905190815160018060401b038111620005c9578154600181811c91168015620005be575b6020821014620005a857601f81116200055b575b50602092601f8211600114620004f25792819293600092620004e6575b50508160011b916000199060031b1c19161790555b604051612cb09081620009998239f35b015190503880620004c1565b601f198216938360005260206000209160005b86811062000542575083600195961062000528575b505050811b019055620004d6565b015160001960f88460031b161c191690553880806200051a565b9192602060018192868501518155019401920162000505565b826000526020600020601f830160051c810191602084106200059d575b601f0160051c01905b818110620005905750620004a4565b6000815560010162000581565b909150819062000578565b634e487b7160e01b600052602260045260246000fd5b90607f169062000490565b634e487b7160e01b600052604160045260246000fd5b015190503880620003de565b906003840160005260206000209160005b601f1985168110620006465750918391600193600395601f198116106200062d575b505050811b01910155620003f3565b015160001983861b60f8161c191690553880806200061e565b91926020600181928685015181550194019201620005fc565b600384016000526020600020601f840160051c81019160208510620006a4575b601f0160051c01905b818110620006975750620003c0565b6000815560010162000688565b90915081906200067f565b90607f1690620003ac565b015190503880620002f3565b906003840160005260206000209160005b601f1985168110620007215750918391600193600395601f1981161062000708575b505050811b0191015562000308565b015160001983861b60f8161c19169055388080620006f9565b91926020600181928685015181550194019201620006d7565b6003840160005260206000206005601f8501811c8201602086106200077f575b601f8401821c830181106200077257505050620002d5565b600081556001016200075a565b50816200075a565b90607f1690620002c1565b01519050388062000212565b82600052602060002090600094601f198416955b868110620007ef5750836001959610620007d5575b505050811b01905562000227565b015160001960f88460031b161c19169055388080620007c7565b91926020600181928685015181550194019201620007b2565b826000526020600020601f830160051c810191602084106200084a575b601f0160051c01905b8181106200083d5750620001f7565b600081556001016200082e565b909150819062000825565b90607f1690620001e3565b01519050388062000130565b601f198216938360005260206000209160005b868110620008bc5750836001959610620008a2575b505050811b01905562000145565b015160001960f88460031b161c1916905538808062000894565b919260206001819286850151815501940192016200087f565b826000526020600020601f830160051c8101916020841062000917575b601f0160051c01905b8181106200090a575062000113565b60008155600101620008fb565b9091508190620008f2565b90607f1690620000ff565b600080fd5b6000198114620009425760010190565b634e487b7160e01b600052601160045260246000fd5b60405190608082016001600160401b03811183821017620005c957604052565b60408051919082016001600160401b03811183821017620005c95760405256fe608080604052600436101561001357600080fd5b600090813560e01c908163042820ba14611ef1575080630900f01014611ebd5780630d8e6e2c146113045780631162a31314611e4d57806311d6a10714611e2f57806318366ffb14611d935780632475713b14611cfb578063275183bc14611cd457806329fad2a21461143e5780633f4ba83a146113a95780634fff1d151461132257806354fd4d501461130457806358ce022d146112685780635c975abb146112455780636655477c14610fe6578063697c604514610fca578063715018a614610f705780637599be5d14610f5257806375a67d5c14610f155780637b05725814610ef85780637b10399914610ecf5780638350184514610ea65780638456cb5914610e4b5780638817e28414610b935780638da5cb5b14610b6c57806395ffd7f714610b4e57806397ddbef914610afe578063b4c96eb0146108c0578063b55f76af1461081f578063b65c1324146107ec578063b83ab8be146107c3578063bb6afa43146106bc578063c4d66de8146103ff578063d106c9b2146103a9578063d213c0f21461038c578063d27a6f181461035b578063d57d5e121461030e578063d8987642146102f2578063db4ae79c146102c9578063f2fde38b146102035763fe39a059146101e457600080fd5b3461020057806003193601126102005760206040516103e88152f35b80fd5b50346102005760203660031901126102005761021d612011565b61022561229f565b6001600160a01b0390811690811561027557600054826001600160601b0360a01b821617600055167f8be0079c531659141344cd1fd0a4f28419497f9722a3daafe3b4186f6b6457e0600080a380f35b60405162461bcd60e51b815260206004820152602660248201527f4f776e61626c653a206e6577206f776e657220697320746865207a65726f206160448201526564647265737360d01b6064820152608490fd5b50346102005780600319360112610200576006546040516001600160a01b039091168152602090f35b5034610200578060031936011261020057602060405160648152f35b5034610200576020366003190112610200576040906004358152600c60205220805461035760018301549261034a600360028301549201612115565b906040519485948561202c565b0390f35b5034610200578060031936011261020057608090600d54906040519181835260208301528060408301526060820152f35b503461020057806003193601126102005760206040516127108152f35b5034610200576040366003190112610200576103c3612011565b6001600160a01b03168152600a60205260408120805460243592908310156102005760206103f18484612287565b90546040519160031b1c8152f35b5034610200576020806003193601126106b85761041a612011565b600454916001600160a01b039182841661067d5782859116806001600160601b0360a01b8096161760045560405183810190742832b93337b936b0b731b2a0b3b3b932b3b0ba37b960591b825260158152610474816120d9565b51902090803b156106795760448392604051948593849263322e37d760e11b845260048401523060248401525af180156105fa5761064a575b50816004541660405182810190722832b93337b936b0b731b2ab32b934b334b2b960691b8252601381526104e0816120d9565b519020604051631c2d8fb360e31b9182825260048201528381602481865afa8015610622578591889161062d575b5016856005541617600555604051838101906a4167656e74426f756e747960a81b8252600b815261053e816120d9565b519020906040519181835260048301528382602481865afa91821561062257849286918991610605575b50168660065416176006556024604051838101906b4167656e745374616b696e6760a01b8252600c815261059b816120d9565b519020916040519485938492835260048301525afa9182156105fa5785926105cd575b50501690600754161760075580f35b6105ec9250803d106105f3575b6105e481836120f4565b8101906122f7565b38806105be565b503d6105da565b6040513d87823e3d90fd5b61061c9150843d86116105f3576105e481836120f4565b38610568565b6040513d89823e3d90fd5b6106449150853d87116105f3576105e481836120f4565b3861050e565b6001600160401b0381959295116106655760405292386104ad565b634e487b7160e01b82526041600452602482fd5b8280fd5b60405162461bcd60e51b8152600481018390526013602482015272105b1c9958591e481a5b9a5d1a585b1a5e9959606a1b6044820152606490fd5b5080fd5b5034610200576040366003190112610200576106d6612011565b81546024359291906001600160a01b03908116331415806107b5575b806107a7575b80610799575b6107875761070a61233b565b8116801561076f575061271083116107565761074f919261072961237f565b60405191610736836120d9565b600783526619d95b995c985b60ca1b60208401526124ff565b6001805580f35b604051632c870e6b60e11b815260048101849052602490fd5b60249060405190636a4e1e5160e11b82526004820152fd5b60405163ea8e4eb560e01b8152600490fd5b5080600754163314156106fe565b5080600654163314156106f8565b5080600554163314156106f2565b50346102005780600319360112610200576005546040516001600160a01b039091168152602090f35b5034610200576020366003190112610200576020906004358152600b8252604060018060a01b0391205416604051908152f35b503461020057602036600319011261020057610856906040906001600160a01b03610848612011565b168152600860205220612423565b80516103576020830151926040810151906060810151608082015160c08301519160a060e0850151940151946040519889988994919260e0969399989794919961010087019a8752602087015260408601526060850152608084015260a083015260c08201520152565b50346102005760a0366003190112610200576004356001600160401b03604435602435606435608435848111610afa576108fe9036906004016121bb565b61090661229f565b85151580610aee575b15610ab75760405194610921866120be565b8386526020956003878201918783526040810192868452606082019586528a8c52600c8a5260408c2091518255519260019384830155516002820155019251968751928311610aa3576109748454612052565b601f8111610a6a575b5080601f84116001146109ec5750918080926109db969594600080516020612c5b8339815191529a8d946109e1575b50501b916000199060031b1c19161790555b604051938493846040919493926060820195825260208201520152565b0390a280f35b0151925038806109ac565b919394959697601f198416868c52838c20938c905b828210610a5357505091600080516020612c5b833981519152999897959391856109db98969410610a3a575b505050811b0190556109be565b015160001960f88460031b161c19169055388080610a2d565b808886978294978701518155019601940190610a01565b610a9390858c52828c20601f860160051c810191848710610a99575b601f0160051c019061247d565b3861097d565b9091508190610a86565b634e487b7160e01b8a52604160045260248afd5b60405162461bcd60e51b815260206004820152600f60248201526e125b9d985b1a59081d1a595c881251608a1b6044820152606490fd5b50600e5486111561090f565b8680fd5b503461020057602036600319011261020057600435600f548110156106b857600f602092527f8d1108e10bcb7c27dddfc02ed9d693a074039d026cf4ea4240b40f7d581ac8020154604051908152f35b50346102005780600319360112610200576020604051620151808152f35b5034610200578060031936011261020057546040516001600160a01b039091168152602090f35b5034610200576040366003190112610200576004356001600160401b0391828211610200573660238301121561020057816004013592610bd284612245565b91610be060405193846120f4565b848352602092838101918295602493846005998a1b83010191368311610e24578501905b828210610e28575050508235938411610200573660238501121561020057836004013593610c3185612245565b94610c3f60405196876120f4565b80865284878701918a1b83010191368311610e245785889101915b838310610e1457505082546001600160a01b039592508516331415905080610e07575b80610df9575b80610deb575b61078757610c9561233b565b610c9d61237f565b8251855103610db05750805b8251811015610d31578084610cc1610cd493866123d5565b5116151580610d1b575b610cd957612316565b610ca9565b610d1685610ce783876123d5565b5116610cf383896123d5565b5160405191610d01836120d9565b8c8352640c4c2e8c6d60db1b8b8401526124ff565b612316565b50612710610d2982886123d5565b511115610ccb565b509284869293604051946040860190604087525180915260608601949187905b828210610d975787870385890152887fc89a22ddd946cc764fa2c7603046a7b51d4e4c846bb7de81393c7d70e5f6dd368980610d8d8b8b612211565b0390a16001805580f35b8351811687529584019592840192600190910190610d51565b8560156064926040519262461bcd60e51b8452600484015282015274082e4e4c2f240d8cadccee8d040dad2e6dac2e8c6d605b1b6044820152fd5b508360075416331415610c89565b508360065416331415610c83565b5083885416331415610c7d565b8235815291810191889101610c5a565b8380fd5b81356001600160a01b0381168103610e47578152908701908701610c04565b8480fd5b5034610200578060031936011261020057610e6461229f565b610e6c61233b565b600160ff1960025416176002557f62e78cea01bee320cd4e420270b5ea74000d11b0c9f74754ebdbfc544b05a2586020604051338152a180f35b50346102005780600319360112610200576007546040516001600160a01b039091168152602090f35b50346102005780600319360112610200576004546040516001600160a01b039091168152602090f35b503461020057806003193601126102005760206040516113888152f35b5034610200576020366003190112610200576020906006906040906001600160a01b03610f40612011565b16815260088452200154604051908152f35b50346102005780600319360112610200576020600d54604051908152f35b5034610200578060031936011261020057610f8961229f565b80546001600160a01b03198116825581906001600160a01b03167f8be0079c531659141344cd1fd0a4f28419497f9722a3daafe3b4186f6b6457e08280a380f35b5034610200578060031936011261020057602090604051908152f35b5034610200576080366003190112610200576001600160401b0390604435602435600435606435858111610e47576110229036906004016121bb565b61102a61229f565b82821161120a5761c35084116111cf57611045600e54612316565b80600e55604051611055816120be565b83815260036020918281018781526040820194898652606083019687528a52600c845260408a209151825551936001948583015551600282015501925180519889116111bb576110a58454612052565b601f811161118d575b5081601f8a1160011461111b57509780928192899a600080516020612c5b833981519152999a94611110575b50501b916000199060031b1c19161790555b6109db600e5494604051938493846040919493926060820195825260208201520152565b0151925038806110da565b909891601f19831699858a52828a20928a905b8c821061117657505083600080516020612c5b833981519152999a9b1061115d575b505050811b0190556110ec565b015160001960f88460031b161c19169055388080611150565b80878596829496860151815501950193019061112e565b6111b590858a52838a20601f8c0160051c810191858d10610a9957601f0160051c019061247d565b386110ae565b634e487b7160e01b88526041600452602488fd5b60405162461bcd60e51b815260206004820152601360248201527209aead8e8d2e0d8d2cae440e8dede40d0d2ced606b1b6044820152606490fd5b60405162461bcd60e51b8152602060048201526013602482015272496e76616c69642073636f72652072616e676560681b6044820152606490fd5b5034610200578060031936011261020057602060ff600254166040519015158152f35b5034610200578060031936011261020057600e5461128581612245565b9061129360405192836120f4565b808252601f196112a282612245565b0136602084013760015b818111156112ca576040516020808252819061035790820186612211565b60001981018181116112f05790806112e56112eb93866123d5565b52612316565b6112ac565b634e487b7160e01b85526011600452602485fd5b50346102005780600319360112610200576020600354604051908152f35b5034610200576020806003193601126106b8576001600160a01b03611345612011565b168252600a81526040822091604051809384918482549182815201918452848420935b858282106113935750505061137f925003836120f4565b610357604051928284938452830190612211565b8554845260019586019588955093019201611368565b50346102005780600319360112610200576113c261229f565b60025460ff8116156114025760ff19166002557f5db9ee0a495bf2e6ff9c91a7834c1ba4fdd244a5e8aa4e537bd38aeae4b073aa6020604051338152a180f35b60405162461bcd60e51b815260206004820152601460248201527314185d5cd8589b194e881b9bdd081c185d5cd95960621b6044820152606490fd5b50346102005760c036600319011261020057611458612011565b6084356001600160401b038111610679576114779036906004016121bb565b9060a4358015158103610e245783546001600160a01b031633141580611cbf575b80611caa575b80611c95575b610787576114b061233b565b6001600160a01b03821615611c745761271060243511611c5b5761271060443511611c41576114dd61237f565b6001600160a01b0382168452600860205260408420600581015490919015611c13575b61150a8254612316565b82558015611bfe57600182016115208154612316565b90555b604435611bb9575b606435611ba1575b61153c82612423565b805115611b9a576020810151806127108102046127101481151715611b8657815161156a9161271002612403565b905b606081015180159081611b7e576107d091818381020483141715611b43576127109102045b8791608081015180611b57575b5060a06115ad910151426123e9565b80606481020460641481151715611b4357916115df6115e4926115df6201518060646115e998970204956024356123f6565b6123f6565b6123e9565b612710811115611b3e57506127105b60078301549461160782612b96565b93826006820155846007820155600542910155611625600d54612316565b9283600d55604051916116378361208c565b84835260018060a01b03871660208401526024356040840152604435606084015260643560808401524260a084015260c0830152151560e082015282875260096020526040872090805182556001820160018060a01b036020830151166001600160601b0360a01b82541617905560408101516002830155606081015160038301556080810151600483015560a0810151600583015560c08101518051906001600160401b038211610aa3576116f06006850154612052565b601f8111611b0b575b506020908a601f8411600114611a9457928060e09361174c97969360079692611a89575b50508160011b916000199060031b1c19161760068501555b0151151591019060ff801983541691151516179055565b6001600160a01b0384168652600a6020526040862061176c9083906124dc565b818652600b6020526040862080546001600160a01b0319166001600160a01b03861617905561179a82612494565b6001600160a01b0384168652600a6020526040862080546103e8106118c1575b50604080516024358152602081018390526001600160a01b038616917f3d95ef70101318503366efd9e6b901f992f45bf1e94884bb0f4f311fbba3d42591a260408051918252602082018490526001600160a01b038516917f483896e7d5c3db7e9de5e546cd2a57b3f3206eafeec282535c3e0b22f71ffcbe9190a260405160243581526001600160a01b03841691907f30f5288a7b06e0aba7f1aba53b9ef3c82a17499ba7c1e66fbd0df06227b5a48190602090a3808303611880575b836001805580f35b7f28776d0fc163958d87e67c01a740e593ecedf86a9b30ac0a768808dd5731cc85916040918251948552602085015260018060a01b031692a2388080611878565b6118cf90959392919561225c565b90549060031b1c80875260096020528660076040822082815582600182015582600282015582600382015582600482015582600582015582600682016119158154612052565b80611a4c575b50505001558652600b6020526040862080546001600160a01b0319169055855b6001600160a01b0385168752600a602052604087205460001981019081116119da578110156119ee576001600160a01b0385168752600a602052604087206001820182116119da5790610d166119986119d5936001840190612287565b90549060031b1c60018060a01b0388168a52600a6020526119bc8360408c20612287565b90919082549060031b91821b91600019901b1916179055565b61193b565b634e487b7160e01b88526011600452602488fd5b5090919360018060a01b0384168652600a6020526040862080548015611a38576000190190611a31611a208383612287565b8154906000199060031b1b19169055565b55386117ba565b634e487b7160e01b88526031600452602488fd5b82601f8211600114611a64575050555b82388061191b565b9091808252611a82601f60208420940160051c84016001850161247d565b5555611a5c565b01519050388061171d565b5090600685018b5260208b20918b5b601f1985168110611af357508360e09361174c979693600193600797601f19811610611ada575b505050811b016006850155611735565b015160001960f88460031b161c19169055388080611aca565b91926020600181928685015181550194019201611aa3565b611b3890600686018c5260208c20601f850160051c81019160208610610a9957601f0160051c019061247d565b386116f9565b6115f8565b634e487b7160e01b89526011600452602489fd5b611b62919350612aef565b6103e89080820291820403611b435761271090049160a061159e565b505086611591565b634e487b7160e01b87526011600452602487fd5b859061156c565b60048201611bb260643582546123f6565b9055611533565b600382015482549060001982018281116119da5781818102048114821517156119da57611bf49291611bef9160443591026123f6565b612403565b600383015561152b565b60028201611c0c8154612316565b9055611523565b8482558460018301558460028301558460038301558460048301556113886006830155846007830155611500565b60405163b6cdcc1360e01b81526044356004820152602490fd5b604051632c870e6b60e11b815260248035600483015290fd5b604051636a4e1e5160e11b81526001600160a01b0383166004820152602490fd5b506007546001600160a01b03163314156114a4565b506006546001600160a01b031633141561149e565b506005546001600160a01b0316331415611498565b5034610200576020366003190112610200576020611cf3600435612c31565b604051908152f35b5034610200576020366003190112610200576040906001600160a01b03611d20612011565b16815260086020522080546103576001830154926002810154906003810154600482015460058301549160076006850154940154946040519889988994919260e0969399989794919961010087019a8752602087015260408601526060850152608084015260a083015260c08201520152565b5034610200576020366003190112610200576040906004358152600960205220805460018060a01b0360018301541691611e236002820154916003810154600482015460058301549160ff6007611dec60068701612115565b95015416956040519889988952602089015260408801526060870152608086015260a08501526101008060c0860152840190611fd1565b90151560e08301520390f35b50346102005780600319360112610200576020600e54604051908152f35b5034610200576020366003190112610200576040906004358152600c60205220604051611e79816120be565b8154815261035760018301549160208101928352611ea560036002860154956040840196875201612115565b9081606082015251925193516040519485948561202c565b503461020057602036600319011261020057611ed7612011565b50611ee061229f565b611eeb600354612316565b60035580f35b823461020057602036600319011261020057604090600435815260096020522090611f1b8161208c565b8154815260e0611fc760018060a01b0393846001820154166020850190815260028201549460408101958652600383015496606082019788526004840154926080830193845260058501549260a0810193845260ff6007611f7e60068901612115565b978860c08501520154161515978891015251169551965191519051916040519788978852602088015260408701526060860152608085015260e060a085015260e0840190611fd1565b9060c08301520390f35b919082519283825260005b848110611ffd575050826000602080949584010152601f8019910116010190565b602081830181015184830182015201611fdc565b600435906001600160a01b038216820361202757565b600080fd5b909260809261204f95948352602083015260408201528160608201520190611fd1565b90565b90600182811c92168015612082575b602083101461206c57565b634e487b7160e01b600052602260045260246000fd5b91607f1691612061565b61010081019081106001600160401b038211176120a857604052565b634e487b7160e01b600052604160045260246000fd5b608081019081106001600160401b038211176120a857604052565b604081019081106001600160401b038211176120a857604052565b90601f801991011681019081106001600160401b038211176120a857604052565b906040519182600082549261212984612052565b9081845260019485811690816000146121985750600114612155575b5050612153925003836120f4565b565b9093915060005260209081600020936000915b81831061218057505061215393508201013880612145565b85548884018501529485019487945091830191612168565b91505061215394506020925060ff191682840152151560051b8201013880612145565b81601f82011215612027578035906001600160401b0382116120a857604051926121ef601f8401601f1916602001856120f4565b8284526020838301011161202757816000926020809301838601378301015290565b90815180825260208080930193019160005b828110612231575050505090565b835185529381019392810192600101612223565b6001600160401b0381116120a85760051b60200190565b80541561227157600052602060002090600090565b634e487b7160e01b600052603260045260246000fd5b80548210156122715760005260206000200190600090565b6000546001600160a01b031633036122b357565b606460405162461bcd60e51b815260206004820152602060248201527f4f776e61626c653a2063616c6c6572206973206e6f7420746865206f776e65726044820152fd5b9081602091031261202757516001600160a01b03811681036120275790565b60001981146123255760010190565b634e487b7160e01b600052601160045260246000fd5b60ff6002541661234757565b60405162461bcd60e51b815260206004820152601060248201526f14185d5cd8589b194e881c185d5cd95960821b6044820152606490fd5b600260015414612390576002600155565b60405162461bcd60e51b815260206004820152601f60248201527f5265656e7472616e637947756172643a207265656e7472616e742063616c6c006044820152606490fd5b80518210156122715760209160051b010190565b9190820391821161232557565b9190820180921161232557565b811561240d570490565b634e487b7160e01b600052601260045260246000fd5b906040516124308161208c565b60e0600782948054845260018101546020850152600281015460408501526003810154606085015260048101546080850152600581015460a0850152600681015460c08501520154910152565b818110612488575050565b6000815560010161247d565b600f54600160401b8110156120a8576001810180600f5581101561227157600f6000527f8d1108e10bcb7c27dddfc02ed9d693a074039d026cf4ea4240b40f7d581ac8020155565b90815491600160401b8310156120a857826119bc91600161215395018155612287565b909160018060a01b0380831660005260086020526040600020936005850192835415612abb575b6125308654612316565b8655600186016125408154612316565b905561254b86612423565b805190949015612ab45760208501516127109081810291818304149015171561232557855161257991612403565b6060860151801580612aaa576107d0808302928304141715612325576127109004905b600096608081015180612a83575b5060a06125b9910151426123e9565b91606483029280840460641490151715612325576006976115df6115e4926115df620151806125ea9704958a6123f6565b6127109081811115612a7b5750905b60078801978854988361260b81612b96565b98899301555542905561261f600d54612316565b9182600d556040516126308161208c565b8381526020810191868916835260408201868152606083016000815260808401906000825260a085019242845260c08601948552600160e0870152886000526009602052604060002096865188558b600189019151166001600160601b0360a01b825416179055516002870155516003860155516004850155516005840155518051906001600160401b0382116120a8576126ce6006850154612052565b601f8111612a46575b50602090601f83116001146129e757928260079360e0936127289796600092611a895750508160011b916000199060031b1c19161760068501550151151591019060ff801983541691151516179055565b838616600052600a6020526127418260406000206124dc565b6000828152600b6020526040902080546001600160a01b03191687861617905561276a82612494565b838616600052600a60205260406000206103e8815411612865575b506040518381528160208201527f3d95ef70101318503366efd9e6b901f992f45bf1e94884bb0f4f311fbba3d425604086891692a26040519081528460208201527f483896e7d5c3db7e9de5e546cd2a57b3f3206eafeec282535c3e0b22f71ffcbe604085881692a26040519182527f30f5288a7b06e0aba7f1aba53b9ef3c82a17499ba7c1e66fbd0df06227b5a481602084871693a381840361282a575b50505050565b7f28776d0fc163958d87e67c01a740e593ecedf86a9b30ac0a768808dd5731cc8592604092835195865260208601521692a238808080612824565b6128779098959392919794969861225c565b90549060031b1c8060005260096020526000600760408220828155826001820155826002820155826003820155826004820155826005820155600681016128be8154612052565b90816129aa575b505001556000908152600b6020526040812080546001600160a01b03191690555b868916600052600a60205260406000205460001981019081116123255781101561295b57868916600052600a6020526040600020906001810180821161232557612936610d169161295694612287565b90549060031b1c898c16600052600a6020526119bc836040600020612287565b6128e6565b5090919396949295838616600052600a60205260406000208054801561299457600019019061298d611a208383612287565b5538612785565b634e487b7160e01b600052603160045260246000fd5b81601f8693116001146129c15750555b38806128c5565b9080839182526129e0601f60208420940160051c84016001850161247d565b55556129ba565b906006850160005260206000209160005b601f1985168110612a2e57508360e093612728979693600193600797601f19811610611ada57505050811b016006850155611735565b919260206001819286850151815501940192016129f8565b612a7590600686016000526020600020601f850160051c81019160208610610a9957601f0160051c019061247d565b386126d7565b9190506125f9565b612a8e919850612aef565b6103e890808202918204036123255761271090049660a06125aa565b505060009061259c565b6000612579565b6000865560006001870155600060028701556000600387015560006004870155611388600687015560006007870155612526565b8015612b9057600a8110612b905760648110612b8a576103e88110612b84576127108110612b7e57620186a08110612b7857620f42408110612b7257629896808110612b6c576305f5e1008110612b6657633b9aca008110612b60576402540be40011612b5b57600a90565b600990565b50600890565b50600790565b50600690565b50600590565b50600490565b50600390565b50600290565b50600190565b50600090565b90600e54805b612ba7575060009150565b6000818152602090600c8252612be760036040809320835193612bc9856120be565b81548552600182015495850195865260028201549085015201612115565b6060820152518410159081612c25575b50612c21578015612c0c576000190180612b9c565b60246000634e487b7160e01b81526011600452fd5b9150565b90505183111538612bf7565b612c3a90612b96565b80612c46575061271090565b600052600c6020526002604060002001549056fe8756bcb76dfdfc02a1f2b2f156cb8c9e56c015c9ae2904ebd0d200213c35666fa26469706673582212207dd5ff36bfd61299ede92d329a785a8b132d75fa8f817f10952e5668bd93b6e164736f6c63430008130033",
  "linkReferences": {},
  "deployedLinkReferences": {}
}