{
  "_format": "hh-sol-artifact-1",
  "contractName": "AgentMemory",
  "sourceName": "contracts/AgentMemory.sol",
  "abi": [
    {
      "inputs": [
        {
          "internalType": "address",
          "name": "_zkVerifierAddress",
          "type": "address"
        }
      ],
      "stateMutability": "nonpayable",
      "type": "constructor"
    },
    {
      "anonymous": false,
      "inputs": [
        {
          "indexed": true,
          "internalType": "address",
          "name": "agent",
          "type": "address"
        },
        {
          "indexed": false,
          "internalType": "string",
          "name": "cid",
          "type": "string"
        },
        {
          "indexed": false,
          "internalType": "string",
          "name": "memoryType",
          "type": "string"
        },
        {
          "indexed": false,
          "internalType": "bytes32",
          "name": "zkProofHash",
          "type": "bytes32"
        },
        {
          "indexed": false,
          "internalType": "bool",
          "name": "isEncrypted",
          "type": "bool"
        },
        {
          "indexed": false,
          "internalType": "uint256",
          "name": "version",
          "type": "uint256"
        },
        {
          "indexed": false,
          "internalType": "uint256",
          "name": "timestamp",
          "type": "uint256"
        }
      ],
      "name": "MemoryAnchored",
      "type": "event"
    },
    {
      "anonymous": false,
      "inputs": [
        {
          "indexed": true,
          "internalType": "address",
          "name": "previousOwner",
          "type": "address"
        },
        {
          "indexed": true,
          "internalType": "address",
          "name": "newOwner",
          "type": "address"
        }
      ],
      "name": "OwnershipTransferred",
      "type": "event"
    },
    {
      "inputs": [
        {
          "internalType": "address",
          "name": "",
          "type": "address"
        },
        {
          "internalType": "uint256",
          "name": "",
          "type": "uint256"
        }
      ],
      "name": "agentMemories",
      "outputs": [
        {
          "internalType": "string",
          "name": "cid",
          "type": "string"
        },
        {
          "internalType": "string",
          "name": "memoryType",
          "type": "string"
        },
        {
          "internalType": "bytes32",
          "name": "zkProofHash",
          "type": "bytes32"
        },
        {
          "internalType": "bool",
          "name": "isEncrypted",
          "type": "bool"
        },
        {
          "internalType": "uint256",
          "name": "timestamp",
          "type": "uint256"
        },
        {
          "internalType": "uint256",
          "name": "version",
          "type": "uint256"
        }
      ],
      "stateMutability": "view",
      "type": "function"
    },
    {
      "inputs": [
        {
          "internalType": "address",
          "name": "",
          "type": "address"
        }
      ],
      "name": "agentMemoryVersions",
      "outputs": [
        {
          "internalType": "uint256",
          "name": "",
          "type": "uint256"
        }
      ],
      "stateMutability": "view",
      "type": "function"
    },
    {
      "inputs": [
        {
          "internalType": "string",
          "name": "_cid",
          "type": "string"
        },
        {
          "internalType": "string",
          "name": "_memoryType",
          "type": "string"
        },
        {
          "internalType": "bytes32",
          "name": "_zkProofHash",
          "type": "bytes32"
        },
        {
          "internalType": "bytes",
          "name": "_proof",
          "type": "bytes"
        },
        {
          "internalType": "bool",
          "name": "_isEncrypted",
          "type": "bool"
        }
      ],
      "name": "anchorMemory",
      "outputs": [],
      "stateMutability": "nonpayable",
      "type": "function"
    },
    {
      "inputs": [
        {
          "internalType": "address",
          "name": "_agent",
          "type": "address"
        }
      ],
      "name": "getLatestMemory",
      "outputs": [
        {
          "components": [
            {
              "internalType": "string",
              "name": "cid",
              "type": "string"
            },
            {
              "internalType": "string",
              "name": "memoryType",
              "type": "string"
            },
            {
              "internalType": "bytes32",
              "name": "zkProofHash",
              "type": "bytes32"
            },
            {
              "internalType": "bool",
              "name": "isEncrypted",
              "type": "bool"
            },
            {
              "internalType": "uint256",
              "name": "timestamp",
              "type": "uint256"
            },
            {
              "internalType": "uint256",
              "name": "version",
              "type": "uint256"
            }
          ],
          "internalType": "struct AgentMemory.MemoryAnchor",
          "name": "",
          "type": "tuple"
        }
      ],
      "stateMutability": "view",
      "type": "function"
    },
    {
      "inputs": [
        {
          "internalType": "address",
          "name": "_agent",
          "type": "address"
        }
      ],
      "name": "getMemoryCount",
      "outputs": [
        {
          "internalType": "uint256",
          "name": "",
          "type": "uint256"
        }
      ],
      "stateMutability": "view",
      "type": "function"
    },
    {
      "inputs": [],
      "name": "owner",
      "outputs": [
        {
          "internalType": "address",
          "name": "",
          "type": "address"
        }
      ],
      "stateMutability": "view",
      "type": "function"
    },
    {
      "inputs": [],
      "name": "renounceOwnership",
      "outputs": [],
      "stateMutability": "nonpayable",
      "type": "function"
    },
    {
      "inputs": [
        {
          "internalType": "address",
          "name": "newOwner",
          "type": "address"
        }
      ],
      "name": "transferOwnership",
      "outputs": [],
      "stateMutability": "nonpayable",
      "type": "function"
    },
    {
      "inputs": [
        {
          "internalType": "address",
          "name": "_newVerifier",
          "type": "address"
        }
      ],
      "name": "updateZKVerifier",
      "outputs": [],
      "stateMutability": "nonpayable",
      "type": "function"
    },
    {
      "inputs": [],
      "name": "zkVerifier",
      "outputs": [
        {
          "internalType": "contract ZKReceiptVerifier",
          "name": "",
          "type": "address"
        }
      ],
      "stateMutability": "view",
      "type": "function"
    }
  ],
  "bytecode": "0x6080346100b857601f6110c138819003918201601f19168301916001600160401b038311848410176100bd578084926020946040528339810103126100b857516001600160a01b0390818116908190036100b85760005460018060a01b0319903382821617600055604051933391167f8be0079c531659141344cd1fd0a4f28419497f9722a3daafe3b4186f6b6457e0600080a360018055816100a9575b610fed83816100d48239f35b6002541617600255388061009d565b600080fd5b634e487b7160e01b600052604160045260246000fdfe6080604052600436101561001257600080fd5b60003560e01c806301d3888614610c5b5780635730e4c814610ba057806358f2c92014610b66578063715018a614610b0d578063878f469b146109945780638b93ac79146101e45780638da5cb5b146101bb578063afe6645614610181578063d6df096d146101585763f2fde38b1461008a57600080fd5b34610153576020366003190112610153576100a3610cdf565b6100ab610ecf565b6001600160a01b039081169081156100ff57600054826bffffffffffffffffffffffff60a01b821617600055167f8be0079c531659141344cd1fd0a4f28419497f9722a3daafe3b4186f6b6457e0600080a3005b60405162461bcd60e51b815260206004820152602660248201527f4f776e61626c653a206e6577206f776e657220697320746865207a65726f206160448201526564647265737360d01b6064820152608490fd5b600080fd5b34610153576000366003190112610153576002546040516001600160a01b039091168152602090f35b34610153576020366003190112610153576001600160a01b036101a2610cdf565b1660005260036020526020604060002054604051908152f35b34610153576000366003190112610153576000546040516001600160a01b039091168152602090f35b346101535760a03660031901126101535760043567ffffffffffffffff811161015357610215903690600401610ea1565b60243567ffffffffffffffff811161015357610235903690600401610ea1565b929060643567ffffffffffffffff811161015357610257903690600401610ea1565b60843595915085151586036101535760026001541461094f576002600155841561091c5781156108e1576044351515806108cd575b61069a575b5033600052600460205260406000205492600184018411610684573360005260036020526040600020604051906102c782610d61565b6102d2368885610f4f565b82526102df368587610f4f565b6020830152604435604083015287151560608301524260808301526001860160a08301528054680100000000000000008110156105915761032591600182018155610cf5565b91909161066e57805180519067ffffffffffffffff821161059157819061034c8554610d27565b601f811161061e575b50602090601f83116001146105b2576000926105a7575b50508160011b916000199060031b1c19161782555b602081015180519067ffffffffffffffff8211610591576103a56001850154610d27565b601f811161054a575b50602090601f83116001146104a85793600560a07ff57f099d25142a756cc0c271a22807ceab429ce6deafc10468916774bb9bbc7b9b9a989585610467966104759a9660019d9a60009261049d575b5050600019600383901b1c1916908c1b17848c01555b60408101516002850155600384016060820151151560ff801983541691161790556080810151600485015501519101553360005260046020528686016040600020556040519760c0895260c0890191610f96565b918683036020880152610f96565b946044356040850152151560608401520160808201524260a08201528033930390a260018055005b0151905038806103fd565b906001850160005260206000209160005b601f1985168110610532575060a07ff57f099d25142a756cc0c271a22807ceab429ce6deafc10468916774bb9bbc7b9b9a98956001866104759a96829d9a966005966104679a601f19811610610519575b505050811b018b850155610413565b015160001960f88460031b161c1916905538808061050a565b919260206001819286850151815501940192016104b9565b600185016000526020600020601f840160051c81016020851061058a575b601f830160051c8201811061057e5750506103ae565b60008155600101610568565b5080610568565b634e487b7160e01b600052604160045260246000fd5b015190508a8061036c565b9250846000526020600020906000935b601f1984168510610603576001945083601f198116106105ea575b505050811b018255610381565b015160001960f88460031b161c191690558a80806105dd565b818101518355602094850194600190930192909101906105c2565b909150846000526020600020601f840160051c810160208510610667575b90849392915b601f830160051c82018110610658575050610355565b60008155859450600101610642565b508061063c565b634e487b7160e01b600052600060045260246000fd5b634e487b7160e01b600052601160045260246000fd5b1561088857600254604051906001600160a01b03166106b882610d7d565b60008252600060208301526040516106cf81610d7d565b6040516106db81610d7d565b600081526000602082015281526040516106f481610d7d565b6000815260006020820152602082015260405161071081610d7d565b60008152600060208201526040519182602081011067ffffffffffffffff60208501111761059157602083016040908152604435845251635c1158d760e01b8152948593929190610765906004860190610f27565b6000604485015b60028210610862575050506107859060c4840190610f27565b600061010483015b6001821061084857505050610124816020935afa90811561083c57600091610801575b50156107bc5785610291565b60405162461bcd60e51b815260206004820152601c60248201527f5a4b2050726f6f6620766572696669636174696f6e206661696c6564000000006044820152606490fd5b90506020813d602011610834575b8161081c60209383610d99565b810103126101535751801515810361015357866107b0565b3d915061080f565b6040513d6000823e3d90fd5b82935060208091600193945181520193019101849261078d565b829394955060408161087a6020936001959651610f27565b01930191018694939261076c565b60405162461bcd60e51b815260206004820152601760248201527f50726f6f6620726571756972656420666f7220686173680000000000000000006044820152606490fd5b506002546001600160a01b0316151561028c565b60405162461bcd60e51b8152602060048201526013602482015272496e76616c6964206d656d6f7279207479706560681b6044820152606490fd5b60405162461bcd60e51b815260206004820152600b60248201526a125b9d985b1a590810d25160aa1b6044820152606490fd5b60405162461bcd60e51b815260206004820152601f60248201527f5265656e7472616e637947756172643a207265656e7472616e742063616c6c006044820152606490fd5b3461015357602080600319360112610153576109ae610cdf565b600060a06040516109be81610d61565b60608152606085820152826040820152826060820152826080820152015260018060a01b0316806000526003825260406000205415610ad3576000526003815260406000209081549160001983019283116106845760c092610a1f91610cf5565b5060405191610a2d83610d61565b610a3682610dbb565b8352610a4460018301610dbb565b9181840192835260028101549260408501938452610ab460ff60038401541691606087019215158352610aa1600560048601549560808a0196875201549560a08901968752604051998a99828b5251918a015260e0890190610e61565b9051878203601f19016040890152610e61565b9351606086015251151560808501525160a08401525160c08301520390f35b60405162461bcd60e51b8152600481018390526012602482015271139bc81b595b5bdc9e48185b98da1bdc995960721b6044820152606490fd5b3461015357600036600319011261015357610b26610ecf565b600080546001600160a01b0319811682556001600160a01b03167f8be0079c531659141344cd1fd0a4f28419497f9722a3daafe3b4186f6b6457e08280a3005b34610153576020366003190112610153576001600160a01b03610b87610cdf565b1660005260046020526020604060002054604051908152f35b3461015357604036600319011261015357610bb9610cdf565b6001600160a01b031660009081526003602052604090208054602435919082101561015357610c3291610beb91610cf5565b50610bf581610dbb565b90610c0260018201610dbb565b60028201549160ff600382015416610c40600560048401549301549360405197889760c0895260c0890190610e61565b908782036020890152610e61565b93604086015215156060850152608084015260a08301520390f35b3461015357602036600319011261015357610c74610cdf565b610c7c610ecf565b6001600160a01b03168015610ca8576bffffffffffffffffffffffff60a01b6002541617600255600080f35b60405162461bcd60e51b815260206004820152600f60248201526e496e76616c6964206164647265737360881b6044820152606490fd5b600435906001600160a01b038216820361015357565b8054821015610d11576000526006602060002091020190600090565b634e487b7160e01b600052603260045260246000fd5b90600182811c92168015610d57575b6020831014610d4157565b634e487b7160e01b600052602260045260246000fd5b91607f1691610d36565b60c0810190811067ffffffffffffffff82111761059157604052565b6040810190811067ffffffffffffffff82111761059157604052565b90601f8019910116810190811067ffffffffffffffff82111761059157604052565b9060405191826000825492610dcf84610d27565b908184526001948581169081600014610e3e5750600114610dfb575b5050610df992500383610d99565b565b9093915060005260209081600020936000915b818310610e26575050610df993508201013880610deb565b85548884018501529485019487945091830191610e0e565b915050610df994506020925060ff191682840152151560051b8201013880610deb565b919082519283825260005b848110610e8d575050826000602080949584010152601f8019910116010190565b602081830181015184830182015201610e6c565b9181601f840112156101535782359167ffffffffffffffff8311610153576020838186019501011161015357565b6000546001600160a01b03163303610ee357565b606460405162461bcd60e51b815260206004820152602060248201527f4f776e61626c653a2063616c6c6572206973206e6f7420746865206f776e65726044820152fd5b6000915b60028310610f3857505050565b600190825181526020809101920192019190610f2b565b92919267ffffffffffffffff82116105915760405191610f79601f8201601f191660200184610d99565b829481845281830111610153578281602093846000960137010152565b908060209392818452848401376000828201840152601f01601f191601019056fea26469706673582212206444f991545adcc5fc4d20e945fe318a33e023cf2a88d6f4e1b7738efc51c8ce64736f6c63430008130033",
  "linkReferences": {},
  "deployedLinkReferences": {}
}