{"contracts/AIToken.sol":{"AIToken":{"abi":[{"inputs":[{"internalType":"address","name":"admin","type":"address"}],"stateMutability":"nonpayable","type":"constructor"},{"inputs":[],"name":"AccessControlBadConfirmation","type":"error"},{"inputs":[{"internalType":"address","name":"account","type":"address"},{"internalType":"bytes32","name":"neededRole","type":"bytes32"}],"name":"AccessControlUnauthorizedAccount","type":"error"},{"inputs":[],"name":"ECDSAInvalidSignature","type":"error"},{"inputs":[{"internalType":"uint256","name":"length","type":"uint256"}],"name":"ECDSAInvalidSignatureLength","type":"error"},{"inputs":[{"internalType":"bytes32","name":"s","type":"bytes32"}],"name":"ECDSAInvalidSignatureS","type":"error"},{"inputs":[{"internalType":"address","name":"spender","type":"address"},{"internalType":"uint256","name":"allowance","type":"uint256"},{"internalType":"uint256","name":"needed","type":"uint256"}],"name":"ERC20InsufficientAllowance","type":"error"},{"inputs":[{"internalType":"address","name":"sender","type":"address"},{"internalType":"uint256","name":"balance","type":"uint256"},{"internalType":"uint256","name":"needed","type":"uint256"}],"name":"ERC20InsufficientBalance","type":"error"},{"inputs":[{"internalType":"address","name":"approver","type":"address"}],"name":"ERC20InvalidApprover","type":"error"},{"inputs":[{"internalType":"address","name":"receiver","type":"address"}],"name":"ERC20InvalidReceiver","type":"error"},{"inputs":[{"internalType":"address","name":"sender","type":"address"}],"name":"ERC20InvalidSender","type":"error"},{"inputs":[{"internalType":"address","name":"spender","type":"address"}],"name":"ERC20InvalidSpender","type":"error"},{"anonymous":false,"inputs":[{"indexed":true,"internalType":"address","name":"owner","type":"address"},{"indexed":true,"internalType":"address","name":"spender","type":"address"},{"indexed":false,"internalType":"uint256","name":"value","type":"uint256"}],"name":"Approval","type":"event"},{"anonymous":false,"inputs":[{"indexed":true,"internalType":"bytes32","name":"receiptHash","type":"bytes32"},{"indexed":true,"internalType":"address","name":"provider","type":"address"},{"indexed":false,"internalType":"uint256","name":"units","type":"uint256"},{"indexed":true,"internalType":"address","name":"attestor","type":"address"}],"name":"ReceiptConsumed","type":"event"},{"anonymous":false,"inputs":[{"indexed":true,"internalType":"bytes32","name":"role","type":"bytes32"},{"indexed":true,"internalType":"bytes32","name":"previousAdminRole","type":"bytes32"},{"indexed":true,"internalType":"bytes32","name":"newAdminRole","type":"bytes32"}],"name":"RoleAdminChanged","type":"event"},{"anonymous":false,"inputs":[{"indexed":true,"internalType":"bytes32","name":"role","type":"bytes32"},{"indexed":true,"internalType":"address","name":"account","type":"address"},{"indexed":true,"internalType":"address","name":"sender","type":"address"}],"name":"RoleGranted","type":"event"},{"anonymous":false,"inputs":[{"indexed":true,"internalType":"bytes32","name":"role","type":"bytes32"},{"indexed":true,"internalType":"address","name":"account","type":"address"},{"indexed":true,"internalType":"address","name":"sender","type":"address"}],"name":"RoleRevoked","type":"event"},{"anonymous":false,"inputs":[{"indexed":true,"internalType":"address","name":"from","type":"address"},{"indexed":true,"internalType":"address","name":"to","type":"address"},{"indexed":false,"internalType":"uint256","name":"value","type":"uint256"}],"name":"Transfer","type":"event"},{"inputs":[],"name":"ATTESTOR_ROLE","outputs":[{"internalType":"bytes32","name":"","type":"bytes32"}],"stateMutability":"view","type":"function"},{"inputs":[],"name":"COORDINATOR_ROLE","outputs":[{"internalType":"bytes32","name":"","type":"bytes32"}],"stateMutability":"view","type":"function"},{"inputs":[],"name":"DEFAULT_ADMIN_ROLE","outputs":[{"internalType":"bytes32","name":"","type":"bytes32"}],"stateMutability":"view","type":"function"},{"inputs":[{"internalType":"address","name":"owner","type":"address"},{"internalType":"address","name":"spender","type":"address"}],"name":"allowance","outputs":[{"internalType":"uint256","name":"","type":"uint256"}],"stateMutability":"view","type":"function"},{"inputs":[{"internalType":"address","name":"spender","type":"address"},{"internalType":"uint256","name":"value","type":"uint256"}],"name":"approve","outputs":[{"internalType":"bool","name":"","type":"bool"}],"stateMutability":"nonpayable","type":"function"},{"inputs":[{"internalType":"address","name":"account","type":"address"}],"name":"balanceOf","outputs":[{"internalType":"uint256","name":"","type":"uint256"}],"stateMutability":"view","type":"function"},{"inputs":[{"internalType":"bytes32","name":"","type":"bytes32"}],"name":"consumedReceipts","outputs":[{"internalType":"bool","name":"","type":"bool"}],"stateMutability":"view","type":"function"},{"inputs":[],"name":"decimals","outputs":[{"internalType":"uint8","name":"","type":"uint8"}],"stateMutability":"view","type":"function"},{"inputs":[{"internalType":"bytes32","name":"role","type":"bytes32"}],"name":"getRoleAdmin","outputs":[{"internalType":"bytes32","name":"","type":"bytes32"}],"stateMutability":"view","type":"function"},{"inputs":[{"internalType":"bytes32","name":"role","type":"bytes32"},{"internalType":"address","name":"account","type":"address"}],"name":"grantRole","outputs":[],"stateMutability":"nonpayable","type":"function"},{"inputs":[{"internalType":"bytes32","name":"role","type":"bytes32"},{"internalType":"address","name":"account","type":"address"}],"name":"hasRole","outputs":[{"internalType":"bool","name":"","type":"bool"}],"stateMutability":"view","type":"function"},{"inputs":[{"internalType":"address","name":"provider","type":"address"},{"internalType":"uint256","name":"units","type":"uint256"},{"internalType":"bytes32","name":"receiptHash","type":"bytes32"}],"name":"mintDigest","outputs":[{"internalType":"bytes32","name":"","type":"bytes32"}],"stateMutability":"view","type":"function"},{"inputs":[{"internalType":"address","name":"provider","type":"address"},{"internalType":"uint256","name":"units","type":"uint256"},{"internalType":"bytes32","name":"receiptHash","type":"bytes32"},{"internalType":"bytes","name":"signature","type":"bytes"}],"name":"mintWithReceipt","outputs":[],"stateMutability":"nonpayable","type":"function"},{"inputs":[],"name":"name","outputs":[{"internalType":"string","name":"","type":"string"}],"stateMutability":"view","type":"function"},{"inputs":[{"internalType":"bytes32","name":"role","type":"bytes32"},{"internalType":"address","name":"callerConfirmation","type":"address"}],"name":"renounceRole","outputs":[],"stateMutability":"nonpayable","type":"function"},{"inputs":[{"internalType":"bytes32","name":"role","type":"bytes32"},{"internalType":"address","name":"account","type":"address"}],"name":"revokeRole","outputs":[],"stateMutability":"nonpayable","type":"function"},{"inputs":[{"internalType":"bytes4","name":"interfaceId","type":"bytes4"}],"name":"supportsInterface","outputs":[{"internalType":"bool","name":"","type":"bool"}],"stateMutability":"view","type":"function"},{"inputs":[],"name":"symbol","outputs":[{"internalType":"string","name":"","type":"string"}],"stateMutability":"view","type":"function"},{"inputs":[],"name":"totalSupply","outputs":[{"internalType":"uint256","name":"","type":"uint256"}],"stateMutability":"view","type":"function"},{"inputs":[{"internalType":"address","name":"to","type":"address"},{"internalType":"uint256","name":"value","type":"uint256"}],"name":"transfer","outputs":[{"internalType":"bool","name":"","type":"bool"}],"stateMutability":"nonpayable","type":"function"},{"inputs":[{"internalType":"address","name":"from","type":"address"},{"internalType":"address","name":"to","type":"address"},{"internalType":"uint256","name":"value","type":"uint256"}],"name":"transferFrom","outputs":[{"internalType":"bool","name":"","type":"bool"}],"stateMutability":"nonpayable","type":"function"}],"evm":{"bytecode":{"linkReferences":{},"object":"60806040523480156200001157600080fd5b50604051620014833803806200148383398101604081905262000034916200015d565b6040518060400160405280600781526020016620a4aa37b5b2b760c91b8152506040518060400160405280600381526020016210525560ea1b815250816003908162000081919062000236565b50600462000090828262000236565b50620000a291506000905082620000aa565b505062000302565b60008281526005602090815260408083206001600160a01b038516845290915281205460ff16620001535760008381526005602090815260408083206001600160a01b03861684529091529020805460ff191660011790556200010a3390565b6001600160a01b0316826001600160a01b0316847f2f8788117e7eff1d82e926ec794901d17c78024a50270940304540a733656f0d60405160405180910390a450600162000157565b5060005b92915050565b6000602082840312156200017057600080fd5b81516001600160a01b03811681146200018857600080fd5b9392505050565b634e487b7160e01b600052604160045260246000fd5b600181811c90821680620001ba57607f821691505b602082108103620001db57634e487b7160e01b600052602260045260246000fd5b50919050565b601f82111562000231576000816000526020600020601f850160051c810160208610156200020c5750805b601f850160051c820191505b818110156200022d5782815560010162000218565b5050505b505050565b81516001600160401b038111156200025257620002526200018f565b6200026a81620002638454620001a5565b84620001e1565b602080601f831160018114620002a25760008415620002895750858301515b600019600386901b1c1916600185901b1785556200022d565b600085815260208120601f198616915b82811015620002d357888601518255948401946001909101908401620002b2565b5085821015620002f25787850151600019600388901b60f8161c191681555b5050505050600190811b01905550565b61117180620003126000396000f3fe608060405234801561001057600080fd5b50600436106101375760003560e01c806336568abe116100b857806395d89b411161007c57806395d89b41146102bb578063a217fddf146102c3578063a9059cbb146102cb578063d547741f146102de578063dd62ed3e146102f1578063e0e27fa71461032a57600080fd5b806336568abe1461021e57806362723644146102315780636b366cb51461025857806370a082311461027f57806391d14854146102a857600080fd5b8063248a9ca3116100ff578063248a9ca3146101b1578063272a7b79146101d45780632f2ff15d146101e7578063313ce567146101fc578063336c739c1461020b57600080fd5b806301ffc9a71461013c57806306fdde0314610164578063095ea7b31461017957806318160ddd1461018c57806323b872dd1461019e575b600080fd5b61014f61014a366004610e77565b61034d565b60405190151581526020015b60405180910390f35b61016c610384565b60405161015b9190610ea8565b61014f610187366004610f13565b610416565b6002545b60405190815260200161015b565b61014f6101ac366004610f3d565b61042e565b6101906101bf366004610f79565b60009081526005602052604090206001015490565b6101906101e2366004610f92565b610452565b6101fa6101f5366004610fc5565b610467565b005b6040516012815260200161015b565b6101fa610219366004610ff1565b610492565b6101fa61022c366004610fc5565b6106ef565b6101907fa7e0cd0f2772b23ee4c329892293a6bd99d48c306b094d6d008c9a8bb8b731e481565b6101907f2e8b98eef02e8df3bd27d1270ded3bea3d14db99c5234c7b14001a7fff957bcc81565b61019061028d366004611085565b6001600160a01b031660009081526020819052604090205490565b61014f6102b6366004610fc5565b610727565b61016c610752565b610190600081565b61014f6102d9366004610f13565b610761565b6101fa6102ec366004610fc5565b61076f565b6101906102ff3660046110a0565b6001600160a01b03918216600090815260016020908152604080832093909416825291909152205490565b61014f610338366004610f79565b60066020526000908152604090205460ff1681565b60006001600160e01b03198216637965db0b60e01b148061037e57506301ffc9a760e01b6001600160e01b03198316145b92915050565b606060038054610393906110ca565b80601f01602080910402602001604051908101604052809291908181526020018280546103bf906110ca565b801561040c5780601f106103e15761010080835404028352916020019161040c565b820191906000526020600020905b8154815290600101906020018083116103ef57829003601f168201915b5050505050905090565b600033610424818585610794565b5060019392505050565b60003361043c8582856107a1565b61044785858561081a565b506001949350505050565b600061045f848484610879565b949350505050565b600082815260056020526040902060010154610482816108f8565b61048c8383610905565b50505050565b7f2e8b98eef02e8df3bd27d1270ded3bea3d14db99c5234c7b14001a7fff957bcc6104bc816108f8565b6001600160a01b03861661050a5760405162461bcd60e51b815260206004820152601060248201526f34b73b30b634b210383937bb34b232b960811b60448201526064015b60405180910390fd5b6000851161054a5760405162461bcd60e51b815260206004820152600d60248201526c696e76616c696420756e69747360981b6044820152606401610501565b60008481526006602052604090205460ff16156105a95760405162461bcd60e51b815260206004820152601860248201527f7265636569707420616c726561647920636f6e73756d656400000000000000006044820152606401610501565b60006105b6878787610879565b905060006105fc85858080601f01602080910402602001604051908101604052809392919081815260200183838082843760009201919091525086939250506109999050565b90506106287fa7e0cd0f2772b23ee4c329892293a6bd99d48c306b094d6d008c9a8bb8b731e482610727565b6106745760405162461bcd60e51b815260206004820152601a60248201527f696e76616c6964206174746573746f72207369676e61747572650000000000006044820152606401610501565b6000868152600660205260409020805460ff1916600117905561069788886109c3565b806001600160a01b0316886001600160a01b0316877f62bdd9e89a55dce0e95b0356eac19c65ef5afdd870381a93e270dcd072f13f028a6040516106dd91815260200190565b60405180910390a45050505050505050565b6001600160a01b03811633146107185760405163334bd91960e11b815260040160405180910390fd5b61072282826109fd565b505050565b60009182526005602090815260408084206001600160a01b0393909316845291905290205460ff1690565b606060048054610393906110ca565b60003361042481858561081a565b60008281526005602052604090206001015461078a816108f8565b61048c83836109fd565b6107228383836001610a6a565b6001600160a01b0383811660009081526001602090815260408083209386168352929052205460001981101561048c578181101561080b57604051637dc7a0d960e11b81526001600160a01b03841660048201526024810182905260448101839052606401610501565b61048c84848484036000610a6a565b6001600160a01b03831661084457604051634b637e8f60e11b815260006004820152602401610501565b6001600160a01b03821661086e5760405163ec442f0560e01b815260006004820152602401610501565b610722838383610b3f565b604080514660208083019190915230828401526001600160a01b03959095166060820152608081019390935260a0808401929092528051808403909201825260c090920190915280519101207f19457468657265756d205369676e6564204d6573736167653a0a3332000000006000908152601c91909152603c902090565b6109028133610c69565b50565b60006109118383610727565b6109915760008381526005602090815260408083206001600160a01b03861684529091529020805460ff191660011790556109493390565b6001600160a01b0316826001600160a01b0316847f2f8788117e7eff1d82e926ec794901d17c78024a50270940304540a733656f0d60405160405180910390a450600161037e565b50600061037e565b6000806000806109a98686610ca2565b9250925092506109b98282610cef565b5090949350505050565b6001600160a01b0382166109ed5760405163ec442f0560e01b815260006004820152602401610501565b6109f960008383610b3f565b5050565b6000610a098383610727565b156109915760008381526005602090815260408083206001600160a01b0386168085529252808320805460ff1916905551339286917ff6391f5c32d9c69d2a47ea670b442974b53935d1edc7fd64eb21e047a839171b9190a450600161037e565b6001600160a01b038416610a945760405163e602df0560e01b815260006004820152602401610501565b6001600160a01b038316610abe57604051634a1406b160e11b815260006004820152602401610501565b6001600160a01b038085166000908152600160209081526040808320938716835292905220829055801561048c57826001600160a01b0316846001600160a01b03167f8c5be1e5ebec7d5bd14f71427d1e84f3dd0314c0f7b2291e5b200ac8c7c3b92584604051610b3191815260200190565b60405180910390a350505050565b6001600160a01b038316610b6a578060026000828254610b5f9190611104565b90915550610bdc9050565b6001600160a01b03831660009081526020819052604090205481811015610bbd5760405163391434e360e21b81526001600160a01b03851660048201526024810182905260448101839052606401610501565b6001600160a01b03841660009081526020819052604090209082900390555b6001600160a01b038216610bf857600280548290039055610c17565b6001600160a01b03821660009081526020819052604090208054820190555b816001600160a01b0316836001600160a01b03167fddf252ad1be2c89b69c2b068fc378daa952ba7f163c4a11628f55a4df523b3ef83604051610c5c91815260200190565b60405180910390a3505050565b610c738282610727565b6109f95760405163e2517d3f60e01b81526001600160a01b038216600482015260248101839052604401610501565b60008060008351604103610cdc5760208401516040850151606086015160001a610cce88828585610da8565b955095509550505050610ce8565b50508151600091506002905b9250925092565b6000826003811115610d0357610d03611125565b03610d0c575050565b6001826003811115610d2057610d20611125565b03610d3e5760405163f645eedf60e01b815260040160405180910390fd5b6002826003811115610d5257610d52611125565b03610d735760405163fce698f760e01b815260048101829052602401610501565b6003826003811115610d8757610d87611125565b036109f9576040516335e2f38360e21b815260048101829052602401610501565b600080807f7fffffffffffffffffffffffffffffff5d576e7357a4501ddfe92f46681b20a0841115610de35750600091506003905082610e6d565b604080516000808252602082018084528a905260ff891692820192909252606081018790526080810186905260019060a0016020604051602081039080840390855afa158015610e37573d6000803e3d6000fd5b5050604051601f1901519150506001600160a01b038116610e6357506000925060019150829050610e6d565b9250600091508190505b9450945094915050565b600060208284031215610e8957600080fd5b81356001600160e01b031981168114610ea157600080fd5b9392505050565b60006020808352835180602085015260005b81811015610ed657858101830151858201604001528201610eba565b506000604082860101526040601f19601f8301168501019250505092915050565b80356001600160a01b0381168114610f0e57600080fd5b919050565b60008060408385031215610f2657600080fd5b610f2f83610ef7565b946020939093013593505050565b600080600060608486031215610f5257600080fd5b610f5b84610ef7565b9250610f6960208501610ef7565b9150604084013590509250925092565b600060208284031215610f8b57600080fd5b5035919050565b600080600060608486031215610fa757600080fd5b610fb084610ef7565b95602085013595506040909401359392505050565b60008060408385031215610fd857600080fd5b82359150610fe860208401610ef7565b90509250929050565b60008060008060006080868803121561100957600080fd5b61101286610ef7565b94506020860135935060408601359250606086013567ffffffffffffffff8082111561103d57600080fd5b818801915088601f83011261105157600080fd5b81358181111561106057600080fd5b89602082850101111561107257600080fd5b9699959850939650602001949392505050565b60006020828403121561109757600080fd5b610ea182610ef7565b600080604083850312156110b357600080fd5b6110bc83610ef7565b9150610fe860208401610ef7565b600181811c908216806110de57607f821691505b6020821081036110fe57634e487b7160e01b600052602260045260246000fd5b50919050565b8082018082111561037e57634e487b7160e01b600052601160045260246000fd5b634e487b7160e01b600052602160045260246000fdfea2646970667358221220ccbff0a677379c90c9003ba37fbc7f7e7ecff7adecf992224d7bf2788e4cfc4b64736f6c63430008180033","opcodes":"PUSH1 0x80 PUSH1 0x40 MSTORE CALLVALUE DUP1 ISZERO PUSH3 0x11 JUMPI PUSH1 0x0 DUP1 REVERT JUMPDEST POP PUSH1 0x40 MLOAD PUSH3 0x1483 CODESIZE SUB DUP1 PUSH3 0x1483 DUP4 CODECOPY DUP2 ADD PUSH1 0x40 DUP2 SWAP1 MSTORE PUSH3 0x34 SWAP2 PUSH3 0x15D JUMP JUMPDEST PUSH1 0x40 MLOAD DUP1 PUSH1 0x40 ADD PUSH1 0x40 MSTORE DUP1 PUSH1 0x7 DUP2 MSTORE PUSH1 0x20 ADD PUSH7 0x20A4AA37B5B2B7 PUSH1 0xC9 SHL DUP2 MSTORE POP PUSH1 0x40 MLOAD DUP1 PUSH1 0x40 ADD PUSH1 0x40 MSTORE DUP1 PUSH1 0x3 DUP2 MSTORE PUSH1 0x20 ADD PUSH3 0x105255 PUSH1 0xEA SHL DUP2 MSTORE POP DUP2 PUSH1 0x3 SWAP1 DUP2 PUSH3 0x81 SWAP2 SWAP1 PUSH3 0x236 JUMP JUMPDEST POP PUSH1 0x4 PUSH3 0x90 DUP3 DUP3 PUSH3 0x236 JUMP JUMPDEST POP PUSH3 0xA2 SWAP2 POP PUSH1 0x0 SWAP1 POP DUP3 PUSH3 0xAA JUMP JUMPDEST POP POP PUSH3 0x302 JUMP JUMPDEST PUSH1 0x0 DUP3 DUP2 MSTORE PUSH1 0x5 PUSH1 0x20 SWAP1 DUP2 MSTORE PUSH1 0x40 DUP1 DUP4 KECCAK256 PUSH1 0x1 PUSH1 0x1 PUSH1 0xA0 SHL SUB DUP6 AND DUP5 MSTORE SWAP1 SWAP2 MSTORE DUP2 KECCAK256 SLOAD PUSH1 0xFF AND PUSH3 0x153 JUMPI PUSH1 0x0 DUP4 DUP2 MSTORE PUSH1 0x5 PUSH1 0x20 SWAP1 DUP2 MSTORE PUSH1 0x40 DUP1 DUP4 KECCAK256 PUSH1 0x1 PUSH1 0x1 PUSH1 0xA0 SHL SUB DUP7 AND DUP5 MSTORE SWAP1 SWAP2 MSTORE SWAP1 KECCAK256 DUP1 SLOAD PUSH1 0xFF NOT AND PUSH1 0x1 OR SWAP1 SSTORE PUSH3 0x10A CALLER SWAP1 JUMP JUMPDEST PUSH1 0x1 PUSH1 0x1 PUSH1 0xA0 SHL SUB AND DUP3 PUSH1 0x1 PUSH1 0x1 PUSH1 0xA0 SHL SUB AND DUP5 PUSH32 0x2F8788117E7EFF1D82E926EC794901D17C78024A50270940304540A733656F0D PUSH1 0x40 MLOAD PUSH1 0x40 MLOAD DUP1 SWAP2 SUB SWAP1 LOG4 POP PUSH1 0x1 PUSH3 0x157 JUMP JUMPDEST POP PUSH1 0x0 JUMPDEST SWAP3 SWAP2 POP POP JUMP JUMPDEST PUSH1 0x0 PUSH1 0x20 DUP3 DUP5 SUB SLT ISZERO PUSH3 0x170 JUMPI PUSH1 0x0 DUP1 REVERT JUMPDEST DUP2 MLOAD PUSH1 0x1 PUSH1 0x1 PUSH1 0xA0 SHL SUB DUP2 AND DUP2 EQ PUSH3 0x188 JUMPI PUSH1 0x0 DUP1 REVERT JUMPDEST SWAP4 SWAP3 POP POP POP JUMP JUMPDEST PUSH4 0x4E487B71 PUSH1 0xE0 SHL PUSH1 0x0 MSTORE PUSH1 0x41 PUSH1 0x4 MSTORE PUSH1 0x24 PUSH1 0x0 REVERT JUMPDEST PUSH1 0x1 DUP2 DUP2 SHR SWAP1 DUP3 AND DUP1 PUSH3 0x1BA JUMPI PUSH1 0x7F DUP3 AND SWAP2 POP JUMPDEST PUSH1 0x20 DUP3 LT DUP2 SUB PUSH3 0x1DB JUMPI PUSH4 0x4E487B71 PUSH1 0xE0 SHL PUSH1 0x0 MSTORE PUSH1 0x22 PUSH1 0x4 MSTORE PUSH1 0x24 PUSH1 0x0 REVERT JUMPDEST POP SWAP2 SWAP1 POP JUMP JUMPDEST PUSH1 0x1F DUP3 GT ISZERO PUSH3 0x231 JUMPI PUSH1 0x0 DUP2 PUSH1 0x0 MSTORE PUSH1 0x20 PUSH1 0x0 KECCAK256 PUSH1 0x1F DUP6 ADD PUSH1 0x5 SHR DUP2 ADD PUSH1 0x20 DUP7 LT ISZERO PUSH3 0x20C JUMPI POP DUP1 JUMPDEST PUSH1 0x1F DUP6 ADD PUSH1 0x5 SHR DUP3 ADD SWAP2 POP JUMPDEST DUP2 DUP2 LT ISZERO PUSH3 0x22D JUMPI DUP3 DUP2 SSTORE PUSH1 0x1 ADD PUSH3 0x218 JUMP JUMPDEST POP POP POP JUMPDEST POP POP POP JUMP JUMPDEST DUP2 MLOAD PUSH1 0x1 PUSH1 0x1 PUSH1 0x40 SHL SUB DUP2 GT ISZERO PUSH3 0x252 JUMPI PUSH3 0x252 PUSH3 0x18F JUMP JUMPDEST PUSH3 0x26A DUP2 PUSH3 0x263 DUP5 SLOAD PUSH3 0x1A5 JUMP JUMPDEST DUP5 PUSH3 0x1E1 JUMP JUMPDEST PUSH1 0x20 DUP1 PUSH1 0x1F DUP4 GT PUSH1 0x1 DUP2 EQ PUSH3 0x2A2 JUMPI PUSH1 0x0 DUP5 ISZERO PUSH3 0x289 JUMPI POP DUP6 DUP4 ADD MLOAD JUMPDEST PUSH1 0x0 NOT PUSH1 0x3 DUP7 SWAP1 SHL SHR NOT AND PUSH1 0x1 DUP6 SWAP1 SHL OR DUP6 SSTORE PUSH3 0x22D JUMP JUMPDEST PUSH1 0x0 DUP6 DUP2 MSTORE PUSH1 0x20 DUP2 KECCAK256 PUSH1 0x1F NOT DUP7 AND SWAP2 JUMPDEST DUP3 DUP2 LT ISZERO PUSH3 0x2D3 JUMPI DUP9 DUP7 ADD MLOAD DUP3 SSTORE SWAP5 DUP5 ADD SWAP5 PUSH1 0x1 SWAP1 SWAP2 ADD SWAP1 DUP5 ADD PUSH3 0x2B2 JUMP JUMPDEST POP DUP6 DUP3 LT ISZERO PUSH3 0x2F2 JUMPI DUP8 DUP6 ADD MLOAD PUSH1 0x0 NOT PUSH1 0x3 DUP9 SWAP1 SHL PUSH1 0xF8 AND SHR NOT AND DUP2 SSTORE JUMPDEST POP POP POP POP POP PUSH1 0x1 SWAP1 DUP2 SHL ADD SWAP1 SSTORE POP JUMP JUMPDEST PUSH2 0x1171 DUP1 PUSH3 0x312 PUSH1 0x0 CODECOPY PUSH1 0x0 RETURN INVALID PUSH1 0x80 PUSH1 0x40 MSTORE CALLVALUE DUP1 ISZERO PUSH2 0x10 JUMPI PUSH1 0x0 DUP1 REVERT JUMPDEST POP PUSH1 0x4 CALLDATASIZE LT PUSH2 0x137 JUMPI PUSH1 0x0 CALLDATALOAD PUSH1 0xE0 SHR DUP1 PUSH4 0x36568ABE GT PUSH2 0xB8 JUMPI DUP1 PUSH4 0x95D89B41 GT PUSH2 0x7C JUMPI DUP1 PUSH4 0x95D89B41 EQ PUSH2 0x2BB JUMPI DUP1 PUSH4 0xA217FDDF EQ PUSH2 0x2C3 JUMPI DUP1 PUSH4 0xA9059CBB EQ PUSH2 0x2CB JUMPI DUP1 PUSH4 0xD547741F EQ PUSH2 0x2DE JUMPI DUP1 PUSH4 0xDD62ED3E EQ PUSH2 0x2F1 JUMPI DUP1 PUSH4 0xE0E27FA7 EQ PUSH2 0x32A JUMPI PUSH1 0x0 DUP1 REVERT JUMPDEST DUP1 PUSH4 0x36568ABE EQ PUSH2 0x21E JUMPI DUP1 PUSH4 0x62723644 EQ PUSH2 0x231 JUMPI DUP1 PUSH4 0x6B366CB5 EQ PUSH2 0x258 JUMPI DUP1 PUSH4 0x70A08231 EQ PUSH2 0x27F JUMPI DUP1 PUSH4 0x91D14854 EQ PUSH2 0x2A8 JUMPI PUSH1 0x0 DUP1 REVERT JUMPDEST DUP1 PUSH4 0x248A9CA3 GT PUSH2 0xFF JUMPI DUP1 PUSH4 0x248A9CA3 EQ PUSH2 0x1B1 JUMPI DUP1 PUSH4 0x272A7B79 EQ PUSH2 0x1D4 JUMPI DUP1 PUSH4 0x2F2FF15D EQ PUSH2 0x1E7 JUMPI DUP1 PUSH4 0x313CE567 EQ PUSH2 0x1FC JUMPI DUP1 PUSH4 0x336C739C EQ PUSH2 0x20B JUMPI PUSH1 0x0 DUP1 REVERT JUMPDEST DUP1 PUSH4 0x1FFC9A7 EQ PUSH2 0x13C JUMPI DUP1 PUSH4 0x6FDDE03 EQ PUSH2 0x164 JUMPI DUP1 PUSH4 0x95EA7B3 EQ PUSH2 0x179 JUMPI DUP1 PUSH4 0x18160DDD EQ PUSH2 0x18C JUMPI DUP1 PUSH4 0x23B872DD EQ PUSH2 0x19E JUMPI JUMPDEST PUSH1 0x0 DUP1 REVERT JUMPDEST PUSH2 0x14F PUSH2 0x14A CALLDATASIZE PUSH1 0x4 PUSH2 0xE77 JUMP JUMPDEST PUSH2 0x34D JUMP JUMPDEST PUSH1 0x40 MLOAD SWAP1 ISZERO ISZERO DUP2 MSTORE PUSH1 0x20 ADD JUMPDEST PUSH1 0x40 MLOAD DUP1 SWAP2 SUB SWAP1 RETURN JUMPDEST PUSH2 0x16C PUSH2 0x384 JUMP JUMPDEST PUSH1 0x40 MLOAD PUSH2 0x15B SWAP2 SWAP1 PUSH2 0xEA8 JUMP JUMPDEST PUSH2 0x14F PUSH2 0x187 CALLDATASIZE PUSH1 0x4 PUSH2 0xF13 JUMP JUMPDEST PUSH2 0x416 JUMP JUMPDEST PUSH1 0x2 SLOAD JUMPDEST PUSH1 0x40 MLOAD SWAP1 DUP2 MSTORE PUSH1 0x20 ADD PUSH2 0x15B JUMP JUMPDEST PUSH2 0x14F PUSH2 0x1AC CALLDATASIZE PUSH1 0x4 PUSH2 0xF3D JUMP JUMPDEST PUSH2 0x42E JUMP JUMPDEST PUSH2 0x190 PUSH2 0x1BF CALLDATASIZE PUSH1 0x4 PUSH2 0xF79 JUMP JUMPDEST PUSH1 0x0 SWAP1 DUP2 MSTORE PUSH1 0x5 PUSH1 0x20 MSTORE PUSH1 0x40 SWAP1 KECCAK256 PUSH1 0x1 ADD SLOAD SWAP1 JUMP JUMPDEST PUSH2 0x190 PUSH2 0x1E2 CALLDATASIZE PUSH1 0x4 PUSH2 0xF92 JUMP JUMPDEST PUSH2 0x452 JUMP JUMPDEST PUSH2 0x1FA PUSH2 0x1F5 CALLDATASIZE PUSH1 0x4 PUSH2 0xFC5 JUMP JUMPDEST PUSH2 0x467 JUMP JUMPDEST STOP JUMPDEST PUSH1 0x40 MLOAD PUSH1 0x12 DUP2 MSTORE PUSH1 0x20 ADD PUSH2 0x15B JUMP JUMPDEST PUSH2 0x1FA PUSH2 0x219 CALLDATASIZE PUSH1 0x4 PUSH2 0xFF1 JUMP JUMPDEST PUSH2 0x492 JUMP JUMPDEST PUSH2 0x1FA PUSH2 0x22C CALLDATASIZE PUSH1 0x4 PUSH2 0xFC5 JUMP JUMPDEST PUSH2 0x6EF JUMP JUMPDEST PUSH2 0x190 PUSH32 0xA7E0CD0F2772B23EE4C329892293A6BD99D48C306B094D6D008C9A8BB8B731E4 DUP2 JUMP JUMPDEST PUSH2 0x190 PUSH32 0x2E8B98EEF02E8DF3BD27D1270DED3BEA3D14DB99C5234C7B14001A7FFF957BCC DUP2 JUMP JUMPDEST PUSH2 0x190 PUSH2 0x28D CALLDATASIZE PUSH1 0x4 PUSH2 0x1085 JUMP JUMPDEST PUSH1 0x1 PUSH1 0x1 PUSH1 0xA0 SHL SUB AND PUSH1 0x0 SWAP1 DUP2 MSTORE PUSH1 0x20 DUP2 SWAP1 MSTORE PUSH1 0x40 SWAP1 KECCAK256 SLOAD SWAP1 JUMP JUMPDEST PUSH2 0x14F PUSH2 0x2B6 CALLDATASIZE PUSH1 0x4 PUSH2 0xFC5 JUMP JUMPDEST PUSH2 0x727 JUMP JUMPDEST PUSH2 0x16C PUSH2 0x752 JUMP JUMPDEST PUSH2 0x190 PUSH1 0x0 DUP2 JUMP JUMPDEST PUSH2 0x14F PUSH2 0x2D9 CALLDATASIZE PUSH1 0x4 PUSH2 0xF13 JUMP JUMPDEST PUSH2 0x761 JUMP JUMPDEST PUSH2 0x1FA PUSH2 0x2EC CALLDATASIZE PUSH1 0x4 PUSH2 0xFC5 JUMP JUMPDEST PUSH2 0x76F JUMP JUMPDEST PUSH2 0x190 PUSH2 0x2FF CALLDATASIZE PUSH1 0x4 PUSH2 0x10A0 JUMP JUMPDEST PUSH1 0x1 PUSH1 0x1 PUSH1 0xA0 SHL SUB SWAP2 DUP3 AND PUSH1 0x0 SWAP1 DUP2 MSTORE PUSH1 0x1 PUSH1 0x20 SWAP1 DUP2 MSTORE PUSH1 0x40 DUP1 DUP4 KECCAK256 SWAP4 SWAP1 SWAP5 AND DUP3 MSTORE SWAP2 SWAP1 SWAP2 MSTORE KECCAK256 SLOAD SWAP1 JUMP JUMPDEST PUSH2 0x14F PUSH2 0x338 CALLDATASIZE PUSH1 0x4 PUSH2 0xF79 JUMP JUMPDEST PUSH1 0x6 PUSH1 0x20 MSTORE PUSH1 0x0 SWAP1 DUP2 MSTORE PUSH1 0x40 SWAP1 KECCAK256 SLOAD PUSH1 0xFF AND DUP2 JUMP JUMPDEST PUSH1 0x0 PUSH1 0x1 PUSH1 0x1 PUSH1 0xE0 SHL SUB NOT DUP3 AND PUSH4 0x7965DB0B PUSH1 0xE0 SHL EQ DUP1 PUSH2 0x37E JUMPI POP PUSH4 0x1FFC9A7 PUSH1 0xE0 SHL PUSH1 0x1 PUSH1 0x1 PUSH1 0xE0 SHL SUB NOT DUP4 AND EQ JUMPDEST SWAP3 SWAP2 POP POP JUMP JUMPDEST PUSH1 0x60 PUSH1 0x3 DUP1 SLOAD PUSH2 0x393 SWAP1 PUSH2 0x10CA JUMP JUMPDEST DUP1 PUSH1 0x1F ADD PUSH1 0x20 DUP1 SWAP2 DIV MUL PUSH1 0x20 ADD PUSH1 0x40 MLOAD SWAP1 DUP2 ADD PUSH1 0x40 MSTORE DUP1 SWAP3 SWAP2 SWAP1 DUP2 DUP2 MSTORE PUSH1 0x20 ADD DUP3 DUP1 SLOAD PUSH2 0x3BF SWAP1 PUSH2 0x10CA JUMP JUMPDEST DUP1 ISZERO PUSH2 0x40C JUMPI DUP1 PUSH1 0x1F LT PUSH2 0x3E1 JUMPI PUSH2 0x100 DUP1 DUP4 SLOAD DIV MUL DUP4 MSTORE SWAP2 PUSH1 0x20 ADD SWAP2 PUSH2 0x40C JUMP JUMPDEST DUP3 ADD SWAP2 SWAP1 PUSH1 0x0 MSTORE PUSH1 0x20 PUSH1 0x0 KECCAK256 SWAP1 JUMPDEST DUP2 SLOAD DUP2 MSTORE SWAP1 PUSH1 0x1 ADD SWAP1 PUSH1 0x20 ADD DUP1 DUP4 GT PUSH2 0x3EF JUMPI DUP3 SWAP1 SUB PUSH1 0x1F AND DUP3 ADD SWAP2 JUMPDEST POP POP POP POP POP SWAP1 POP SWAP1 JUMP JUMPDEST PUSH1 0x0 CALLER PUSH2 0x424 DUP2 DUP6 DUP6 PUSH2 0x794 JUMP JUMPDEST POP PUSH1 0x1 SWAP4 SWAP3 POP POP POP JUMP JUMPDEST PUSH1 0x0 CALLER PUSH2 0x43C DUP6 DUP3 DUP6 PUSH2 0x7A1 JUMP JUMPDEST PUSH2 0x447 DUP6 DUP6 DUP6 PUSH2 0x81A JUMP JUMPDEST POP PUSH1 0x1 SWAP5 SWAP4 POP POP POP POP JUMP JUMPDEST PUSH1 0x0 PUSH2 0x45F DUP5 DUP5 DUP5 PUSH2 0x879 JUMP JUMPDEST SWAP5 SWAP4 POP POP POP POP JUMP JUMPDEST PUSH1 0x0 DUP3 DUP2 MSTORE PUSH1 0x5 PUSH1 0x20 MSTORE PUSH1 0x40 SWAP1 KECCAK256 PUSH1 0x1 ADD SLOAD PUSH2 0x482 DUP2 PUSH2 0x8F8 JUMP JUMPDEST PUSH2 0x48C DUP4 DUP4 PUSH2 0x905 JUMP JUMPDEST POP POP POP POP JUMP JUMPDEST PUSH32 0x2E8B98EEF02E8DF3BD27D1270DED3BEA3D14DB99C5234C7B14001A7FFF957BCC PUSH2 0x4BC DUP2 PUSH2 0x8F8 JUMP JUMPDEST PUSH1 0x1 PUSH1 0x1 PUSH1 0xA0 SHL SUB DUP7 AND PUSH2 0x50A JUMPI PUSH1 0x40 MLOAD PUSH3 0x461BCD PUSH1 0xE5 SHL DUP2 MSTORE PUSH1 0x20 PUSH1 0x4 DUP3 ADD MSTORE PUSH1 0x10 PUSH1 0x24 DUP3 ADD MSTORE PUSH16 0x34B73B30B634B210383937BB34B232B9 PUSH1 0x81 SHL PUSH1 0x44 DUP3 ADD MSTORE PUSH1 0x64 ADD JUMPDEST PUSH1 0x40 MLOAD DUP1 SWAP2 SUB SWAP1 REVERT JUMPDEST PUSH1 0x0 DUP6 GT PUSH2 0x54A JUMPI PUSH1 0x40 MLOAD PUSH3 0x461BCD PUSH1 0xE5 SHL DUP2 MSTORE PUSH1 0x20 PUSH1 0x4 DUP3 ADD MSTORE PUSH1 0xD PUSH1 0x24 DUP3 ADD MSTORE PUSH13 0x696E76616C696420756E697473 PUSH1 0x98 SHL PUSH1 0x44 DUP3 ADD MSTORE PUSH1 0x64 ADD PUSH2 0x501 JUMP JUMPDEST PUSH1 0x0 DUP5 DUP2 MSTORE PUSH1 0x6 PUSH1 0x20 MSTORE PUSH1 0x40 SWAP1 KECCAK256 SLOAD PUSH1 0xFF AND ISZERO PUSH2 0x5A9 JUMPI PUSH1 0x40 MLOAD PUSH3 0x461BCD PUSH1 0xE5 SHL DUP2 MSTORE PUSH1 0x20 PUSH1 0x4 DUP3 ADD MSTORE PUSH1 0x18 PUSH1 0x24 DUP3 ADD MSTORE PUSH32 0x7265636569707420616C726561647920636F6E73756D65640000000000000000 PUSH1 0x44 DUP3 ADD MSTORE PUSH1 0x64 ADD PUSH2 0x501 JUMP JUMPDEST PUSH1 0x0 PUSH2 0x5B6 DUP8 DUP8 DUP8 PUSH2 0x879 JUMP JUMPDEST SWAP1 POP PUSH1 0x0 PUSH2 0x5FC DUP6 DUP6 DUP1 DUP1 PUSH1 0x1F ADD PUSH1 0x20 DUP1 SWAP2 DIV MUL PUSH1 0x20 ADD PUSH1 0x40 MLOAD SWAP1 DUP2 ADD PUSH1 0x40 MSTORE DUP1 SWAP4 SWAP3 SWAP2 SWAP1 DUP2 DUP2 MSTORE PUSH1 0x20 ADD DUP4 DUP4 DUP1 DUP3 DUP5 CALLDATACOPY PUSH1 0x0 SWAP3 ADD SWAP2 SWAP1 SWAP2 MSTORE POP DUP7 SWAP4 SWAP3 POP POP PUSH2 0x999 SWAP1 POP JUMP JUMPDEST SWAP1 POP PUSH2 0x628 PUSH32 0xA7E0CD0F2772B23EE4C329892293A6BD99D48C306B094D6D008C9A8BB8B731E4 DUP3 PUSH2 0x727 JUMP JUMPDEST PUSH2 0x674 JUMPI PUSH1 0x40 MLOAD PUSH3 0x461BCD PUSH1 0xE5 SHL DUP2 MSTORE PUSH1 0x20 PUSH1 0x4 DUP3 ADD MSTORE PUSH1 0x1A PUSH1 0x24 DUP3 ADD MSTORE PUSH32 0x696E76616C6964206174746573746F72207369676E6174757265000000000000 PUSH1 0x44 DUP3 ADD MSTORE PUSH1 0x64 ADD PUSH2 0x501 JUMP JUMPDEST PUSH1 0x0 DUP7 DUP2 MSTORE PUSH1 0x6 PUSH1 0x20 MSTORE PUSH1 0x40 SWAP1 KECCAK256 DUP1 SLOAD PUSH1 0xFF NOT AND PUSH1 0x1 OR SWAP1 SSTORE PUSH2 0x697 DUP9 DUP9 PUSH2 0x9C3 JUMP JUMPDEST DUP1 PUSH1 0x1 PUSH1 0x1 PUSH1 0xA0 SHL SUB AND DUP9 PUSH1 0x1 PUSH1 0x1 PUSH1 0xA0 SHL SUB AND DUP8 PUSH32 0x62BDD9E89A55DCE0E95B0356EAC19C65EF5AFDD870381A93E270DCD072F13F02 DUP11 PUSH1 0x40 MLOAD PUSH2 0x6DD SWAP2 DUP2 MSTORE PUSH1 0x20 ADD SWAP1 JUMP JUMPDEST PUSH1 0x40 MLOAD DUP1 SWAP2 SUB SWAP1 LOG4 POP POP POP POP POP POP POP POP JUMP JUMPDEST PUSH1 0x1 PUSH1 0x1 PUSH1 0xA0 SHL SUB DUP2 AND CALLER EQ PUSH2 0x718 JUMPI PUSH1 0x40 MLOAD PUSH4 0x334BD919 PUSH1 0xE1 SHL DUP2 MSTORE PUSH1 0x4 ADD PUSH1 0x40 MLOAD DUP1 SWAP2 SUB SWAP1 REVERT JUMPDEST PUSH2 0x722 DUP3 DUP3 PUSH2 0x9FD JUMP JUMPDEST POP POP POP JUMP JUMPDEST PUSH1 0x0 SWAP2 DUP3 MSTORE PUSH1 0x5 PUSH1 0x20 SWAP1 DUP2 MSTORE PUSH1 0x40 DUP1 DUP5 KECCAK256 PUSH1 0x1 PUSH1 0x1 PUSH1 0xA0 SHL SUB SWAP4 SWAP1 SWAP4 AND DUP5 MSTORE SWAP2 SWAP1 MSTORE SWAP1 KECCAK256 SLOAD PUSH1 0xFF AND SWAP1 JUMP JUMPDEST PUSH1 0x60 PUSH1 0x4 DUP1 SLOAD PUSH2 0x393 SWAP1 PUSH2 0x10CA JUMP JUMPDEST PUSH1 0x0 CALLER PUSH2 0x424 DUP2 DUP6 DUP6 PUSH2 0x81A JUMP JUMPDEST PUSH1 0x0 DUP3 DUP2 MSTORE PUSH1 0x5 PUSH1 0x20 MSTORE PUSH1 0x40 SWAP1 KECCAK256 PUSH1 0x1 ADD SLOAD PUSH2 0x78A DUP2 PUSH2 0x8F8 JUMP JUMPDEST PUSH2 0x48C DUP4 DUP4 PUSH2 0x9FD JUMP JUMPDEST PUSH2 0x722 DUP4 DUP4 DUP4 PUSH1 0x1 PUSH2 0xA6A JUMP JUMPDEST PUSH1 0x1 PUSH1 0x1 PUSH1 0xA0 SHL SUB DUP4 DUP2 AND PUSH1 0x0 SWAP1 DUP2 MSTORE PUSH1 0x1 PUSH1 0x20 SWAP1 DUP2 MSTORE PUSH1 0x40 DUP1 DUP4 KECCAK256 SWAP4 DUP7 AND DUP4 MSTORE SWAP3 SWAP1 MSTORE KECCAK256 SLOAD PUSH1 0x0 NOT DUP2 LT ISZERO PUSH2 0x48C JUMPI DUP2 DUP2 LT ISZERO PUSH2 0x80B JUMPI PUSH1 0x40 MLOAD PUSH4 0x7DC7A0D9 PUSH1 0xE1 SHL DUP2 MSTORE PUSH1 0x1 PUSH1 0x1 PUSH1 0xA0 SHL SUB DUP5 AND PUSH1 0x4 DUP3 ADD MSTORE PUSH1 0x24 DUP2 ADD DUP3 SWAP1 MSTORE PUSH1 0x44 DUP2 ADD DUP4 SWAP1 MSTORE PUSH1 0x64 ADD PUSH2 0x501 JUMP JUMPDEST PUSH2 0x48C DUP5 DUP5 DUP5 DUP5 SUB PUSH1 0x0 PUSH2 0xA6A JUMP JUMPDEST PUSH1 0x1 PUSH1 0x1 PUSH1 0xA0 SHL SUB DUP4 AND PUSH2 0x844 JUMPI PUSH1 0x40 MLOAD PUSH4 0x4B637E8F PUSH1 0xE1 SHL DUP2 MSTORE PUSH1 0x0 PUSH1 0x4 DUP3 ADD MSTORE PUSH1 0x24 ADD PUSH2 0x501 JUMP JUMPDEST PUSH1 0x1 PUSH1 0x1 PUSH1 0xA0 SHL SUB DUP3 AND PUSH2 0x86E JUMPI PUSH1 0x40 MLOAD PUSH4 0xEC442F05 PUSH1 0xE0 SHL DUP2 MSTORE PUSH1 0x0 PUSH1 0x4 DUP3 ADD MSTORE PUSH1 0x24 ADD PUSH2 0x501 JUMP JUMPDEST PUSH2 0x722 DUP4 DUP4 DUP4 PUSH2 0xB3F JUMP JUMPDEST PUSH1 0x40 DUP1 MLOAD CHAINID PUSH1 0x20 DUP1 DUP4 ADD SWAP2 SWAP1 SWAP2 MSTORE ADDRESS DUP3 DUP5 ADD MSTORE PUSH1 0x1 PUSH1 0x1 PUSH1 0xA0 SHL SUB SWAP6 SWAP1 SWAP6 AND PUSH1 0x60 DUP3 ADD MSTORE PUSH1 0x80 DUP2 ADD SWAP4 SWAP1 SWAP4 MSTORE PUSH1 0xA0 DUP1 DUP5 ADD SWAP3 SWAP1 SWAP3 MSTORE DUP1 MLOAD DUP1 DUP5 SUB SWAP1 SWAP3 ADD DUP3 MSTORE PUSH1 0xC0 SWAP1 SWAP3 ADD SWAP1 SWAP2 MSTORE DUP1 MLOAD SWAP2 ADD KECCAK256 PUSH32 0x19457468657265756D205369676E6564204D6573736167653A0A333200000000 PUSH1 0x0 SWAP1 DUP2 MSTORE PUSH1 0x1C SWAP2 SWAP1 SWAP2 MSTORE PUSH1 0x3C SWAP1 KECCAK256 SWAP1 JUMP JUMPDEST PUSH2 0x902 DUP2 CALLER PUSH2 0xC69 JUMP JUMPDEST POP JUMP JUMPDEST PUSH1 0x0 PUSH2 0x911 DUP4 DUP4 PUSH2 0x727 JUMP JUMPDEST PUSH2 0x991 JUMPI PUSH1 0x0 DUP4 DUP2 MSTORE PUSH1 0x5 PUSH1 0x20 SWAP1 DUP2 MSTORE PUSH1 0x40 DUP1 DUP4 KECCAK256 PUSH1 0x1 PUSH1 0x1 PUSH1 0xA0 SHL SUB DUP7 AND DUP5 MSTORE SWAP1 SWAP2 MSTORE SWAP1 KECCAK256 DUP1 SLOAD PUSH1 0xFF NOT AND PUSH1 0x1 OR SWAP1 SSTORE PUSH2 0x949 CALLER SWAP1 JUMP JUMPDEST PUSH1 0x1 PUSH1 0x1 PUSH1 0xA0 SHL SUB AND DUP3 PUSH1 0x1 PUSH1 0x1 PUSH1 0xA0 SHL SUB AND DUP5 PUSH32 0x2F8788117E7EFF1D82E926EC794901D17C78024A50270940304540A733656F0D PUSH1 0x40 MLOAD PUSH1 0x40 MLOAD DUP1 SWAP2 SUB SWAP1 LOG4 POP PUSH1 0x1 PUSH2 0x37E JUMP JUMPDEST POP PUSH1 0x0 PUSH2 0x37E JUMP JUMPDEST PUSH1 0x0 DUP1 PUSH1 0x0 DUP1 PUSH2 0x9A9 DUP7 DUP7 PUSH2 0xCA2 JUMP JUMPDEST SWAP3 POP SWAP3 POP SWAP3 POP PUSH2 0x9B9 DUP3 DUP3 PUSH2 0xCEF JUMP JUMPDEST POP SWAP1 SWAP5 SWAP4 POP POP POP POP JUMP JUMPDEST PUSH1 0x1 PUSH1 0x1 PUSH1 0xA0 SHL SUB DUP3 AND PUSH2 0x9ED JUMPI PUSH1 0x40 MLOAD PUSH4 0xEC442F05 PUSH1 0xE0 SHL DUP2 MSTORE PUSH1 0x0 PUSH1 0x4 DUP3 ADD MSTORE PUSH1 0x24 ADD PUSH2 0x501 JUMP JUMPDEST PUSH2 0x9F9 PUSH1 0x0 DUP4 DUP4 PUSH2 0xB3F JUMP JUMPDEST POP POP JUMP JUMPDEST PUSH1 0x0 PUSH2 0xA09 DUP4 DUP4 PUSH2 0x727 JUMP JUMPDEST ISZERO PUSH2 0x991 JUMPI PUSH1 0x0 DUP4 DUP2 MSTORE PUSH1 0x5 PUSH1 0x20 SWAP1 DUP2 MSTORE PUSH1 0x40 DUP1 DUP4 KECCAK256 PUSH1 0x1 PUSH1 0x1 PUSH1 0xA0 SHL SUB DUP7 AND DUP1 DUP6 MSTORE SWAP3 MSTORE DUP1 DUP4 KECCAK256 DUP1 SLOAD PUSH1 0xFF NOT AND SWAP1 SSTORE MLOAD CALLER SWAP3 DUP7 SWAP2 PUSH32 0xF6391F5C32D9C69D2A47EA670B442974B53935D1EDC7FD64EB21E047A839171B SWAP2 SWAP1 LOG4 POP PUSH1 0x1 PUSH2 0x37E JUMP JUMPDEST PUSH1 0x1 PUSH1 0x1 PUSH1 0xA0 SHL SUB DUP5 AND PUSH2 0xA94 JUMPI PUSH1 0x40 MLOAD PUSH4 0xE602DF05 PUSH1 0xE0 SHL DUP2 MSTORE PUSH1 0x0 PUSH1 0x4 DUP3 ADD MSTORE PUSH1 0x24 ADD PUSH2 0x501 JUMP JUMPDEST PUSH1 0x1 PUSH1 0x1 PUSH1 0xA0 SHL SUB DUP4 AND PUSH2 0xABE JUMPI PUSH1 0x40 MLOAD PUSH4 0x4A1406B1 PUSH1 0xE1 SHL DUP2 MSTORE PUSH1 0x0 PUSH1 0x4 DUP3 ADD MSTORE PUSH1 0x24 ADD PUSH2 0x501 JUMP JUMPDEST PUSH1 0x1 PUSH1 0x1 PUSH1 0xA0 SHL SUB DUP1 DUP6 AND PUSH1 0x0 SWAP1 DUP2 MSTORE PUSH1 0x1 PUSH1 0x20 SWAP1 DUP2 MSTORE PUSH1 0x40 DUP1 DUP4 KECCAK256 SWAP4 DUP8 AND DUP4 MSTORE SWAP3 SWAP1 MSTORE KECCAK256 DUP3 SWAP1 SSTORE DUP1 ISZERO PUSH2 0x48C JUMPI DUP3 PUSH1 0x1 PUSH1 0x1 PUSH1 0xA0 SHL SUB AND DUP5 PUSH1 0x1 PUSH1 0x1 PUSH1 0xA0 SHL SUB AND PUSH32 0x8C5BE1E5EBEC7D5BD14F71427D1E84F3DD0314C0F7B2291E5B200AC8C7C3B925 DUP5 PUSH1 0x40 MLOAD PUSH2 0xB31 SWAP2 DUP2 MSTORE PUSH1 0x20 ADD SWAP1 JUMP JUMPDEST PUSH1 0x40 MLOAD DUP1 SWAP2 SUB SWAP1 LOG3 POP POP POP POP JUMP JUMPDEST PUSH1 0x1 PUSH1 0x1 PUSH1 0xA0 SHL SUB DUP4 AND PUSH2 0xB6A JUMPI DUP1 PUSH1 0x2 PUSH1 0x0 DUP3 DUP3 SLOAD PUSH2 0xB5F SWAP2 SWAP1 PUSH2 0x1104 JUMP JUMPDEST SWAP1 SWAP2 SSTORE POP PUSH2 0xBDC SWAP1 POP JUMP JUMPDEST PUSH1 0x1 PUSH1 0x1 PUSH1 0xA0 SHL SUB DUP4 AND PUSH1 0x0 SWAP1 DUP2 MSTORE PUSH1 0x20 DUP2 SWAP1 MSTORE PUSH1 0x40 SWAP1 KECCAK256 SLOAD DUP2 DUP2 LT ISZERO PUSH2 0xBBD JUMPI PUSH1 0x40 MLOAD PUSH4 0x391434E3 PUSH1 0xE2 SHL DUP2 MSTORE PUSH1 0x1 PUSH1 0x1 PUSH1 0xA0 SHL SUB DUP6 AND PUSH1 0x4 DUP3 ADD MSTORE PUSH1 0x24 DUP2 ADD DUP3 SWAP1 MSTORE PUSH1 0x44 DUP2 ADD DUP4 SWAP1 MSTORE PUSH1 0x64 ADD PUSH2 0x501 JUMP JUMPDEST PUSH1 0x1 PUSH1 0x1 PUSH1 0xA0 SHL SUB DUP5 AND PUSH1 0x0 SWAP1 DUP2 MSTORE PUSH1 0x20 DUP2 SWAP1 MSTORE PUSH1 0x40 SWAP1 KECCAK256 SWAP1 DUP3 SWAP1 SUB SWAP1 SSTORE JUMPDEST PUSH1 0x1 PUSH1 0x1 PUSH1 0xA0 SHL SUB DUP3 AND PUSH2 0xBF8 JUMPI PUSH1 0x2 DUP1 SLOAD DUP3 SWAP1 SUB SWAP1 SSTORE PUSH2 0xC17 JUMP JUMPDEST PUSH1 0x1 PUSH1 0x1 PUSH1 0xA0 SHL SUB DUP3 AND PUSH1 0x0 SWAP1 DUP2 MSTORE PUSH1 0x20 DUP2 SWAP1 MSTORE PUSH1 0x40 SWAP1 KECCAK256 DUP1 SLOAD DUP3 ADD SWAP1 SSTORE JUMPDEST DUP2 PUSH1 0x1 PUSH1 0x1 PUSH1 0xA0 SHL SUB AND DUP4 PUSH1 0x1 PUSH1 0x1 PUSH1 0xA0 SHL SUB AND PUSH32 0xDDF252AD1BE2C89B69C2B068FC378DAA952BA7F163C4A11628F55A4DF523B3EF DUP4 PUSH1 0x40 MLOAD PUSH2 0xC5C SWAP2 DUP2 MSTORE PUSH1 0x20 ADD SWAP1 JUMP JUMPDEST PUSH1 0x40 MLOAD DUP1 SWAP2 SUB SWAP1 LOG3 POP POP POP JUMP JUMPDEST PUSH2 0xC73 DUP3 DUP3 PUSH2 0x727 JUMP JUMPDEST PUSH2 0x9F9 JUMPI PUSH1 0x40 MLOAD PUSH4 0xE2517D3F PUSH1 0xE0 SHL DUP2 MSTORE PUSH1 0x1 PUSH1 0x1 PUSH1 0xA0 SHL SUB DUP3 AND PUSH1 0x4 DUP3 ADD MSTORE PUSH1 0x24 DUP2 ADD DUP4 SWAP1 MSTORE PUSH1 0x44 ADD PUSH2 0x501 JUMP JUMPDEST PUSH1 0x0 DUP1 PUSH1 0x0 DUP4 MLOAD PUSH1 0x41 SUB PUSH2 0xCDC JUMPI PUSH1 0x20 DUP5 ADD MLOAD PUSH1 0x40 DUP6 ADD MLOAD PUSH1 0x60 DUP7 ADD MLOAD PUSH1 0x0 BYTE PUSH2 0xCCE DUP9 DUP3 DUP6 DUP6 PUSH2 0xDA8 JUMP JUMPDEST SWAP6 POP SWAP6 POP SWAP6 POP POP POP POP PUSH2 0xCE8 JUMP JUMPDEST POP POP DUP2 MLOAD PUSH1 0x0 SWAP2 POP PUSH1 0x2 SWAP1 JUMPDEST SWAP3 POP SWAP3 POP SWAP3 JUMP JUMPDEST PUSH1 0x0 DUP3 PUSH1 0x3 DUP2 GT ISZERO PUSH2 0xD03 JUMPI PUSH2 0xD03 PUSH2 0x1125 JUMP JUMPDEST SUB PUSH2 0xD0C JUMPI POP POP JUMP JUMPDEST PUSH1 0x1 DUP3 PUSH1 0x3 DUP2 GT ISZERO PUSH2 0xD20 JUMPI PUSH2 0xD20 PUSH2 0x1125 JUMP JUMPDEST SUB PUSH2 0xD3E JUMPI PUSH1 0x40 MLOAD PUSH4 0xF645EEDF PUSH1 0xE0 SHL DUP2 MSTORE PUSH1 0x4 ADD PUSH1 0x40 MLOAD DUP1 SWAP2 SUB SWAP1 REVERT JUMPDEST PUSH1 0x2 DUP3 PUSH1 0x3 DUP2 GT ISZERO PUSH2 0xD52 JUMPI PUSH2 0xD52 PUSH2 0x1125 JUMP JUMPDEST SUB PUSH2 0xD73 JUMPI PUSH1 0x40 MLOAD PUSH4 0xFCE698F7 PUSH1 0xE0 SHL DUP2 MSTORE PUSH1 0x4 DUP2 ADD DUP3 SWAP1 MSTORE PUSH1 0x24 ADD PUSH2 0x501 JUMP JUMPDEST PUSH1 0x3 DUP3 PUSH1 0x3 DUP2 GT ISZERO PUSH2 0xD87 JUMPI PUSH2 0xD87 PUSH2 0x1125 JUMP JUMPDEST SUB PUSH2 0x9F9 JUMPI PUSH1 0x40 MLOAD PUSH4 0x35E2F383 PUSH1 0xE2 SHL DUP2 MSTORE PUSH1 0x4 DUP2 ADD DUP3 SWAP1 MSTORE PUSH1 0x24 ADD PUSH2 0x501 JUMP JUMPDEST PUSH1 0x0 DUP1 DUP1 PUSH32 0x7FFFFFFFFFFFFFFFFFFFFFFFFFFFFFFF5D576E7357A4501DDFE92F46681B20A0 DUP5 GT ISZERO PUSH2 0xDE3 JUMPI POP PUSH1 0x0 SWAP2 POP PUSH1 0x3 SWAP1 POP DUP3 PUSH2 0xE6D JUMP JUMPDEST PUSH1 0x40 DUP1 MLOAD PUSH1 0x0 DUP1 DUP3 MSTORE PUSH1 0x20 DUP3 ADD DUP1 DUP5 MSTORE DUP11 SWAP1 MSTORE PUSH1 0xFF DUP10 AND SWAP3 DUP3 ADD SWAP3 SWAP1 SWAP3 MSTORE PUSH1 0x60 DUP2 ADD DUP8 SWAP1 MSTORE PUSH1 0x80 DUP2 ADD DUP7 SWAP1 MSTORE PUSH1 0x1 SWAP1 PUSH1 0xA0 ADD PUSH1 0x20 PUSH1 0x40 MLOAD PUSH1 0x20 DUP2 SUB SWAP1 DUP1 DUP5 SUB SWAP1 DUP6 GAS STATICCALL ISZERO DUP1 ISZERO PUSH2 0xE37 JUMPI RETURNDATASIZE PUSH1 0x0 DUP1 RETURNDATACOPY RETURNDATASIZE PUSH1 0x0 REVERT JUMPDEST POP POP PUSH1 0x40 MLOAD PUSH1 0x1F NOT ADD MLOAD SWAP2 POP POP PUSH1 0x1 PUSH1 0x1 PUSH1 0xA0 SHL SUB DUP2 AND PUSH2 0xE63 JUMPI POP PUSH1 0x0 SWAP3 POP PUSH1 0x1 SWAP2 POP DUP3 SWAP1 POP PUSH2 0xE6D JUMP JUMPDEST SWAP3 POP PUSH1 0x0 SWAP2 POP DUP2 SWAP1 POP JUMPDEST SWAP5 POP SWAP5 POP SWAP5 SWAP2 POP POP JUMP JUMPDEST PUSH1 0x0 PUSH1 0x20 DUP3 DUP5 SUB SLT ISZERO PUSH2 0xE89 JUMPI PUSH1 0x0 DUP1 REVERT JUMPDEST DUP2 CALLDATALOAD PUSH1 0x1 PUSH1 0x1 PUSH1 0xE0 SHL SUB NOT DUP2 AND DUP2 EQ PUSH2 0xEA1 JUMPI PUSH1 0x0 DUP1 REVERT JUMPDEST SWAP4 SWAP3 POP POP POP JUMP JUMPDEST PUSH1 0x0 PUSH1 0x20 DUP1 DUP4 MSTORE DUP4 MLOAD DUP1 PUSH1 0x20 DUP6 ADD MSTORE PUSH1 0x0 JUMPDEST DUP2 DUP2 LT ISZERO PUSH2 0xED6 JUMPI DUP6 DUP2 ADD DUP4 ADD MLOAD DUP6 DUP3 ADD PUSH1 0x40 ADD MSTORE DUP3 ADD PUSH2 0xEBA JUMP JUMPDEST POP PUSH1 0x0 PUSH1 0x40 DUP3 DUP7 ADD ADD MSTORE PUSH1 0x40 PUSH1 0x1F NOT PUSH1 0x1F DUP4 ADD AND DUP6 ADD ADD SWAP3 POP POP POP SWAP3 SWAP2 POP POP JUMP JUMPDEST DUP1 CALLDATALOAD PUSH1 0x1 PUSH1 0x1 PUSH1 0xA0 SHL SUB DUP2 AND DUP2 EQ PUSH2 0xF0E JUMPI PUSH1 0x0 DUP1 REVERT JUMPDEST SWAP2 SWAP1 POP JUMP JUMPDEST PUSH1 0x0 DUP1 PUSH1 0x40 DUP4 DUP6 SUB SLT ISZERO PUSH2 0xF26 JUMPI PUSH1 0x0 DUP1 REVERT JUMPDEST PUSH2 0xF2F DUP4 PUSH2 0xEF7 JUMP JUMPDEST SWAP5 PUSH1 0x20 SWAP4 SWAP1 SWAP4 ADD CALLDATALOAD SWAP4 POP POP POP JUMP JUMPDEST PUSH1 0x0 DUP1 PUSH1 0x0 PUSH1 0x60 DUP5 DUP7 SUB SLT ISZERO PUSH2 0xF52 JUMPI PUSH1 0x0 DUP1 REVERT JUMPDEST PUSH2 0xF5B DUP5 PUSH2 0xEF7 JUMP JUMPDEST SWAP3 POP PUSH2 0xF69 PUSH1 0x20 DUP6 ADD PUSH2 0xEF7 JUMP JUMPDEST SWAP2 POP PUSH1 0x40 DUP5 ADD CALLDATALOAD SWAP1 POP SWAP3 POP SWAP3 POP SWAP3 JUMP JUMPDEST PUSH1 0x0 PUSH1 0x20 DUP3 DUP5 SUB SLT ISZERO PUSH2 0xF8B JUMPI PUSH1 0x0 DUP1 REVERT JUMPDEST POP CALLDATALOAD SWAP2 SWAP1 POP JUMP JUMPDEST PUSH1 0x0 DUP1 PUSH1 0x0 PUSH1 0x60 DUP5 DUP7 SUB SLT ISZERO PUSH2 0xFA7 JUMPI PUSH1 0x0 DUP1 REVERT JUMPDEST PUSH2 0xFB0 DUP5 PUSH2 0xEF7 JUMP JUMPDEST SWAP6 PUSH1 0x20 DUP6 ADD CALLDATALOAD SWAP6 POP PUSH1 0x40 SWAP1 SWAP5 ADD CALLDATALOAD SWAP4 SWAP3 POP POP POP JUMP JUMPDEST PUSH1 0x0 DUP1 PUSH1 0x40 DUP4 DUP6 SUB SLT ISZERO PUSH2 0xFD8 JUMPI PUSH1 0x0 DUP1 REVERT JUMPDEST DUP3 CALLDATALOAD SWAP2 POP PUSH2 0xFE8 PUSH1 0x20 DUP5 ADD PUSH2 0xEF7 JUMP JUMPDEST SWAP1 POP SWAP3 POP SWAP3 SWAP1 POP JUMP JUMPDEST PUSH1 0x0 DUP1 PUSH1 0x0 DUP1 PUSH1 0x0 PUSH1 0x80 DUP7 DUP9 SUB SLT ISZERO PUSH2 0x1009 JUMPI PUSH1 0x0 DUP1 REVERT JUMPDEST PUSH2 0x1012 DUP7 PUSH2 0xEF7 JUMP JUMPDEST SWAP5 POP PUSH1 0x20 DUP7 ADD CALLDATALOAD SWAP4 POP PUSH1 0x40 DUP7 ADD CALLDATALOAD SWAP3 POP PUSH1 0x60 DUP7 ADD CALLDATALOAD PUSH8 0xFFFFFFFFFFFFFFFF DUP1 DUP3 GT ISZERO PUSH2 0x103D JUMPI PUSH1 0x0 DUP1 REVERT JUMPDEST DUP2 DUP9 ADD SWAP2 POP DUP9 PUSH1 0x1F DUP4 ADD SLT PUSH2 0x1051 JUMPI PUSH1 0x0 DUP1 REVERT JUMPDEST DUP2 CALLDATALOAD DUP2 DUP2 GT ISZERO PUSH2 0x1060 JUMPI PUSH1 0x0 DUP1 REVERT JUMPDEST DUP10 PUSH1 0x20 DUP3 DUP6 ADD ADD GT ISZERO PUSH2 0x1072 JUMPI PUSH1 0x0 DUP1 REVERT JUMPDEST SWAP7 SWAP10 SWAP6 SWAP9 POP SWAP4 SWAP7 POP PUSH1 0x20 ADD SWAP5 SWAP4 SWAP3 POP POP POP JUMP JUMPDEST PUSH1 0x0 PUSH1 0x20 DUP3 DUP5 SUB SLT ISZERO PUSH2 0x1097 JUMPI PUSH1 0x0 DUP1 REVERT JUMPDEST PUSH2 0xEA1 DUP3 PUSH2 0xEF7 JUMP JUMPDEST PUSH1 0x0 DUP1 PUSH1 0x40 DUP4 DUP6 SUB SLT ISZERO PUSH2 0x10B3 JUMPI PUSH1 0x0 DUP1 REVERT JUMPDEST PUSH2 0x10BC DUP4 PUSH2 0xEF7 JUMP JUMPDEST SWAP2 POP PUSH2 0xFE8 PUSH1 0x20 DUP5 ADD PUSH2 0xEF7 JUMP JUMPDEST PUSH1 0x1 DUP2 DUP2 SHR SWAP1 DUP3 AND DUP1 PUSH2 0x10DE JUMPI PUSH1 0x7F DUP3 AND SWAP2 POP JUMPDEST PUSH1 0x20 DUP3 LT DUP2 SUB PUSH2 0x10FE JUMPI PUSH4 0x4E487B71 PUSH1 0xE0 SHL PUSH1 0x0 MSTORE PUSH1 0x22 PUSH1 0x4 MSTORE PUSH1 0x24 PUSH1 0x0 REVERT JUMPDEST POP SWAP2 SWAP1 POP JUMP JUMPDEST DUP1 DUP3 ADD DUP1 DUP3 GT ISZERO PUSH2 0x37E JUMPI PUSH4 0x4E487B71 PUSH1 0xE0 SHL PUSH1 0x0 MSTORE PUSH1 0x11 PUSH1 0x4 MSTORE PUSH1 0x24 PUSH1 0x0 REVERT JUMPDEST PUSH4 0x4E487B71 PUSH1 0xE0 SHL PUSH1 0x0 MSTORE PUSH1 0x21 PUSH1 0x4 MSTORE PUSH1 0x24 PUSH1 0x0 REVERT INVALID LOG2 PUSH5 0x6970667358 0x22 SLT KECCAK256 0xCC 0xBF CREATE 0xA6 PUSH24 0x379C90C9003BA37FBC7F7E7ECFF7ADECF992224D7BF2788E 0x4C 0xFC 0x4B PUSH5 0x736F6C6343 STOP ADDMOD XOR STOP CALLER "},"methodIdentifiers":{"ATTESTOR_ROLE()":"62723644","COORDINATOR_ROLE()":"6b366cb5","DEFAULT_ADMIN_ROLE()":"a217fddf","allowance(address,address)":"dd62ed3e","approve(address,uint256)":"095ea7b3","balanceOf(address)":"70a08231","consumedReceipts(bytes32)":"e0e27fa7","decimals()":"313ce567","getRoleAdmin(bytes32)":"248a9ca3","grantRole(bytes32,address)":"2f2ff15d","hasRole(bytes32,address)":"91d14854","mintDigest(address,uint256,bytes32)":"272a7b79","mintWithReceipt(address,uint256,bytes32,bytes)":"336c739c","name()":"06fdde03","renounceRole(bytes32,address)":"36568abe","revokeRole(bytes32,address)":"d547741f","supportsInterface(bytes4)":"01ffc9a7","symbol()":"95d89b41","totalSupply()":"18160ddd","transfer(address,uint256)":"a9059cbb","transferFrom(address,address,uint256)":"23b872dd"}}}}}