{
  "_format": "hh-sol-artifact-1",
  "contractName": "AIServiceAMM",
  "sourceName": "contracts/AIServiceAMM.sol",
  "abi": [
    {
      "inputs": [
        {
          "internalType": "address",
          "name": "_protocolFeeRecipient",
          "type": "address"
        }
      ],
      "stateMutability": "nonpayable",
      "type": "constructor"
    },
    {
      "anonymous": false,
      "inputs": [
        {
          "indexed": true,
          "internalType": "uint256",
          "name": "poolId",
          "type": "uint256"
        },
        {
          "indexed": false,
          "internalType": "uint256",
          "name": "protocolFees",
          "type": "uint256"
        },
        {
          "indexed": false,
          "internalType": "uint256",
          "name": "lpFees",
          "type": "uint256"
        }
      ],
      "name": "FeesCollected",
      "type": "event"
    },
    {
      "anonymous": false,
      "inputs": [
        {
          "indexed": true,
          "internalType": "uint256",
          "name": "poolId",
          "type": "uint256"
        },
        {
          "indexed": true,
          "internalType": "address",
          "name": "provider",
          "type": "address"
        },
        {
          "indexed": false,
          "internalType": "uint256",
          "name": "amountA",
          "type": "uint256"
        },
        {
          "indexed": false,
          "internalType": "uint256",
          "name": "amountB",
          "type": "uint256"
        },
        {
          "indexed": false,
          "internalType": "uint256",
          "name": "liquidity",
          "type": "uint256"
        }
      ],
      "name": "LiquidityAdded",
      "type": "event"
    },
    {
      "anonymous": false,
      "inputs": [
        {
          "indexed": true,
          "internalType": "uint256",
          "name": "poolId",
          "type": "uint256"
        },
        {
          "indexed": true,
          "internalType": "address",
          "name": "provider",
          "type": "address"
        },
        {
          "indexed": false,
          "internalType": "uint256",
          "name": "amountA",
          "type": "uint256"
        },
        {
          "indexed": false,
          "internalType": "uint256",
          "name": "amountB",
          "type": "uint256"
        },
        {
          "indexed": false,
          "internalType": "uint256",
          "name": "liquidity",
          "type": "uint256"
        }
      ],
      "name": "LiquidityRemoved",
      "type": "event"
    },
    {
      "anonymous": false,
      "inputs": [
        {
          "indexed": true,
          "internalType": "address",
          "name": "previousOwner",
          "type": "address"
        },
        {
          "indexed": true,
          "internalType": "address",
          "name": "newOwner",
          "type": "address"
        }
      ],
      "name": "OwnershipTransferred",
      "type": "event"
    },
    {
      "anonymous": false,
      "inputs": [
        {
          "indexed": false,
          "internalType": "address",
          "name": "account",
          "type": "address"
        }
      ],
      "name": "Paused",
      "type": "event"
    },
    {
      "anonymous": false,
      "inputs": [
        {
          "indexed": true,
          "internalType": "uint256",
          "name": "poolId",
          "type": "uint256"
        },
        {
          "indexed": true,
          "internalType": "address",
          "name": "tokenA",
          "type": "address"
        },
        {
          "indexed": true,
          "internalType": "address",
          "name": "tokenB",
          "type": "address"
        },
        {
          "indexed": false,
          "internalType": "uint256",
          "name": "fee",
          "type": "uint256"
        }
      ],
      "name": "PoolCreated",
      "type": "event"
    },
    {
      "anonymous": false,
      "inputs": [
        {
          "indexed": true,
          "internalType": "uint256",
          "name": "poolId",
          "type": "uint256"
        },
        {
          "indexed": false,
          "internalType": "uint256",
          "name": "reserveA",
          "type": "uint256"
        },
        {
          "indexed": false,
          "internalType": "uint256",
          "name": "reserveB",
          "type": "uint256"
        }
      ],
      "name": "PoolUpdated",
      "type": "event"
    },
    {
      "anonymous": false,
      "inputs": [
        {
          "indexed": true,
          "internalType": "uint256",
          "name": "poolId",
          "type": "uint256"
        },
        {
          "indexed": true,
          "internalType": "address",
          "name": "recipient",
          "type": "address"
        },
        {
          "indexed": false,
          "internalType": "address",
          "name": "tokenIn",
          "type": "address"
        },
        {
          "indexed": false,
          "internalType": "address",
          "name": "tokenOut",
          "type": "address"
        },
        {
          "indexed": false,
          "internalType": "uint256",
          "name": "amountIn",
          "type": "uint256"
        },
        {
          "indexed": false,
          "internalType": "uint256",
          "name": "amountOut",
          "type": "uint256"
        }
      ],
      "name": "SwapExecuted",
      "type": "event"
    },
    {
      "anonymous": false,
      "inputs": [
        {
          "indexed": false,
          "internalType": "address",
          "name": "account",
          "type": "address"
        }
      ],
      "name": "Unpaused",
      "type": "event"
    },
    {
      "inputs": [],
      "name": "BASIS_POINTS",
      "outputs": [
        {
          "internalType": "uint256",
          "name": "",
          "type": "uint256"
        }
      ],
      "stateMutability": "view",
      "type": "function"
    },
    {
      "inputs": [],
      "name": "FEE_PRECISION",
      "outputs": [
        {
          "internalType": "uint256",
          "name": "",
          "type": "uint256"
        }
      ],
      "stateMutability": "view",
      "type": "function"
    },
    {
      "inputs": [],
      "name": "MAX_FEE",
      "outputs": [
        {
          "internalType": "uint256",
          "name": "",
          "type": "uint256"
        }
      ],
      "stateMutability": "view",
      "type": "function"
    },
    {
      "inputs": [],
      "name": "MINIMUM_LIQUIDITY",
      "outputs": [
        {
          "internalType": "uint256",
          "name": "",
          "type": "uint256"
        }
      ],
      "stateMutability": "view",
      "type": "function"
    },
    {
      "inputs": [
        {
          "internalType": "uint256",
          "name": "",
          "type": "uint256"
        }
      ],
      "name": "activePoolIds",
      "outputs": [
        {
          "internalType": "uint256",
          "name": "",
          "type": "uint256"
        }
      ],
      "stateMutability": "view",
      "type": "function"
    },
    {
      "inputs": [
        {
          "internalType": "uint256",
          "name": "poolId",
          "type": "uint256"
        },
        {
          "internalType": "uint256",
          "name": "amountA",
          "type": "uint256"
        },
        {
          "internalType": "uint256",
          "name": "amountB",
          "type": "uint256"
        },
        {
          "internalType": "uint256",
          "name": "minAmountA",
          "type": "uint256"
        },
        {
          "internalType": "uint256",
          "name": "minAmountB",
          "type": "uint256"
        }
      ],
      "name": "addLiquidity",
      "outputs": [
        {
          "internalType": "uint256",
          "name": "liquidityAmount",
          "type": "uint256"
        }
      ],
      "stateMutability": "nonpayable",
      "type": "function"
    },
    {
      "inputs": [
        {
          "internalType": "uint256",
          "name": "poolId",
          "type": "uint256"
        },
        {
          "internalType": "uint256",
          "name": "amountIn",
          "type": "uint256"
        }
      ],
      "name": "calculateOptimalSwap",
      "outputs": [
        {
          "internalType": "uint256",
          "name": "amountOut",
          "type": "uint256"
        }
      ],
      "stateMutability": "view",
      "type": "function"
    },
    {
      "inputs": [
        {
          "internalType": "address",
          "name": "tokenA",
          "type": "address"
        },
        {
          "internalType": "address",
          "name": "tokenB",
          "type": "address"
        },
        {
          "internalType": "uint256",
          "name": "feePercentage",
          "type": "uint256"
        }
      ],
      "name": "createPool",
      "outputs": [
        {
          "internalType": "uint256",
          "name": "",
          "type": "uint256"
        }
      ],
      "stateMutability": "nonpayable",
      "type": "function"
    },
    {
      "inputs": [],
      "name": "defaultFee",
      "outputs": [
        {
          "internalType": "uint256",
          "name": "",
          "type": "uint256"
        }
      ],
      "stateMutability": "view",
      "type": "function"
    },
    {
      "inputs": [],
      "name": "emergencyPause",
      "outputs": [],
      "stateMutability": "nonpayable",
      "type": "function"
    },
    {
      "inputs": [
        {
          "internalType": "address",
          "name": "token",
          "type": "address"
        },
        {
          "internalType": "uint256",
          "name": "amount",
          "type": "uint256"
        }
      ],
      "name": "emergencyWithdraw",
      "outputs": [],
      "stateMutability": "nonpayable",
      "type": "function"
    },
    {
      "inputs": [
        {
          "internalType": "address",
          "name": "provider",
          "type": "address"
        },
        {
          "internalType": "uint256",
          "name": "poolId",
          "type": "uint256"
        }
      ],
      "name": "getLiquidityAmount",
      "outputs": [
        {
          "internalType": "uint256",
          "name": "liquidityAmount",
          "type": "uint256"
        }
      ],
      "stateMutability": "view",
      "type": "function"
    },
    {
      "inputs": [
        {
          "internalType": "uint256",
          "name": "poolId",
          "type": "uint256"
        }
      ],
      "name": "getPoolMetrics",
      "outputs": [
        {
          "components": [
            {
              "internalType": "uint256",
              "name": "totalVolume",
              "type": "uint256"
            },
            {
              "internalType": "uint256",
              "name": "totalFees",
              "type": "uint256"
            },
            {
              "internalType": "uint256",
              "name": "tvl",
              "type": "uint256"
            },
            {
              "internalType": "uint256",
              "name": "apr",
              "type": "uint256"
            },
            {
              "internalType": "uint256",
              "name": "utilizationRate",
              "type": "uint256"
            }
          ],
          "internalType": "struct AIServiceAMM.PoolMetrics",
          "name": "metrics",
          "type": "tuple"
        }
      ],
      "stateMutability": "view",
      "type": "function"
    },
    {
      "inputs": [
        {
          "internalType": "address",
          "name": "",
          "type": "address"
        },
        {
          "internalType": "uint256",
          "name": "",
          "type": "uint256"
        }
      ],
      "name": "liquidityPositions",
      "outputs": [
        {
          "internalType": "uint256",
          "name": "poolId",
          "type": "uint256"
        },
        {
          "internalType": "address",
          "name": "provider",
          "type": "address"
        },
        {
          "internalType": "uint256",
          "name": "liquidityAmount",
          "type": "uint256"
        },
        {
          "internalType": "uint256",
          "name": "sharesOwned",
          "type": "uint256"
        },
        {
          "internalType": "uint256",
          "name": "lastDepositTime",
          "type": "uint256"
        },
        {
          "internalType": "uint256",
          "name": "unclaimedFees",
          "type": "uint256"
        }
      ],
      "stateMutability": "view",
      "type": "function"
    },
    {
      "inputs": [],
      "name": "owner",
      "outputs": [
        {
          "internalType": "address",
          "name": "",
          "type": "address"
        }
      ],
      "stateMutability": "view",
      "type": "function"
    },
    {
      "inputs": [],
      "name": "pause",
      "outputs": [],
      "stateMutability": "nonpayable",
      "type": "function"
    },
    {
      "inputs": [],
      "name": "paused",
      "outputs": [
        {
          "internalType": "bool",
          "name": "",
          "type": "bool"
        }
      ],
      "stateMutability": "view",
      "type": "function"
    },
    {
      "inputs": [
        {
          "internalType": "address",
          "name": "",
          "type": "address"
        },
        {
          "internalType": "address",
          "name": "",
          "type": "address"
        }
      ],
      "name": "poolByTokenPair",
      "outputs": [
        {
          "internalType": "uint256",
          "name": "",
          "type": "uint256"
        }
      ],
      "stateMutability": "view",
      "type": "function"
    },
    {
      "inputs": [],
      "name": "poolCounter",
      "outputs": [
        {
          "internalType": "uint256",
          "name": "",
          "type": "uint256"
        }
      ],
      "stateMutability": "view",
      "type": "function"
    },
    {
      "inputs": [
        {
          "internalType": "uint256",
          "name": "",
          "type": "uint256"
        }
      ],
      "name": "pools",
      "outputs": [
        {
          "internalType": "uint256",
          "name": "poolId",
          "type": "uint256"
        },
        {
          "internalType": "address",
          "name": "tokenA",
          "type": "address"
        },
        {
          "internalType": "address",
          "name": "tokenB",
          "type": "address"
        },
        {
          "internalType": "uint256",
          "name": "reserveA",
          "type": "uint256"
        },
        {
          "internalType": "uint256",
          "name": "reserveB",
          "type": "uint256"
        },
        {
          "internalType": "uint256",
          "name": "totalLiquidity",
          "type": "uint256"
        },
        {
          "internalType": "uint256",
          "name": "feePercentage",
          "type": "uint256"
        },
        {
          "internalType": "address",
          "name": "lpToken",
          "type": "address"
        },
        {
          "internalType": "bool",
          "name": "isActive",
          "type": "bool"
        },
        {
          "internalType": "uint256",
          "name": "created_at",
          "type": "uint256"
        },
        {
          "internalType": "uint256",
          "name": "lastTradeTime",
          "type": "uint256"
        },
        {
          "internalType": "uint256",
          "name": "volume24h",
          "type": "uint256"
        },
        {
          "internalType": "uint256",
          "name": "fee24h",
          "type": "uint256"
        }
      ],
      "stateMutability": "view",
      "type": "function"
    },
    {
      "inputs": [],
      "name": "protocolFeePercentage",
      "outputs": [
        {
          "internalType": "uint256",
          "name": "",
          "type": "uint256"
        }
      ],
      "stateMutability": "view",
      "type": "function"
    },
    {
      "inputs": [],
      "name": "protocolFeeRecipient",
      "outputs": [
        {
          "internalType": "address",
          "name": "",
          "type": "address"
        }
      ],
      "stateMutability": "view",
      "type": "function"
    },
    {
      "inputs": [
        {
          "internalType": "address",
          "name": "",
          "type": "address"
        },
        {
          "internalType": "uint256",
          "name": "",
          "type": "uint256"
        }
      ],
      "name": "providerPools",
      "outputs": [
        {
          "internalType": "uint256",
          "name": "",
          "type": "uint256"
        }
      ],
      "stateMutability": "view",
      "type": "function"
    },
    {
      "inputs": [
        {
          "internalType": "uint256",
          "name": "poolId",
          "type": "uint256"
        },
        {
          "internalType": "uint256",
          "name": "liquidityAmount",
          "type": "uint256"
        },
        {
          "internalType": "uint256",
          "name": "minAmountA",
          "type": "uint256"
        },
        {
          "internalType": "uint256",
          "name": "minAmountB",
          "type": "uint256"
        }
      ],
      "name": "removeLiquidity",
      "outputs": [
        {
          "internalType": "uint256",
          "name": "amountA",
          "type": "uint256"
        },
        {
          "internalType": "uint256",
          "name": "amountB",
          "type": "uint256"
        }
      ],
      "stateMutability": "nonpayable",
      "type": "function"
    },
    {
      "inputs": [],
      "name": "renounceOwnership",
      "outputs": [],
      "stateMutability": "nonpayable",
      "type": "function"
    },
    {
      "inputs": [
        {
          "internalType": "uint256",
          "name": "newFee",
          "type": "uint256"
        }
      ],
      "name": "setDefaultFee",
      "outputs": [],
      "stateMutability": "nonpayable",
      "type": "function"
    },
    {
      "inputs": [
        {
          "internalType": "uint256",
          "name": "newPercentage",
          "type": "uint256"
        }
      ],
      "name": "setProtocolFeePercentage",
      "outputs": [],
      "stateMutability": "nonpayable",
      "type": "function"
    },
    {
      "inputs": [
        {
          "internalType": "address",
          "name": "newRecipient",
          "type": "address"
        }
      ],
      "name": "setProtocolFeeRecipient",
      "outputs": [],
      "stateMutability": "nonpayable",
      "type": "function"
    },
    {
      "inputs": [
        {
          "components": [
            {
              "internalType": "uint256",
              "name": "poolId",
              "type": "uint256"
            },
            {
              "internalType": "address",
              "name": "tokenIn",
              "type": "address"
            },
            {
              "internalType": "address",
              "name": "tokenOut",
              "type": "address"
            },
            {
              "internalType": "uint256",
              "name": "amountIn",
              "type": "uint256"
            },
            {
              "internalType": "uint256",
              "name": "minAmountOut",
              "type": "uint256"
            },
            {
              "internalType": "address",
              "name": "recipient",
              "type": "address"
            },
            {
              "internalType": "uint256",
              "name": "deadline",
              "type": "uint256"
            }
          ],
          "internalType": "struct AIServiceAMM.SwapParams",
          "name": "params",
          "type": "tuple"
        }
      ],
      "name": "swap",
      "outputs": [
        {
          "internalType": "uint256",
          "name": "amountOut",
          "type": "uint256"
        }
      ],
      "stateMutability": "nonpayable",
      "type": "function"
    },
    {
      "inputs": [
        {
          "internalType": "address",
          "name": "newOwner",
          "type": "address"
        }
      ],
      "name": "transferOwnership",
      "outputs": [],
      "stateMutability": "nonpayable",
      "type": "function"
    },
    {
      "inputs": [],
      "name": "unpause",
      "outputs": [],
      "stateMutability": "nonpayable",
      "type": "function"
    }
  ],
  "bytecode": "0x6080346100bf57601f6121c938819003918201601f19168301916001600160401b038311848410176100c4578084926020946040528339810103126100bf57516001600160a01b0390818116908190036100bf5760005460018060a01b0319903382821617600055604051933391167f8be0079c531659141344cd1fd0a4f28419497f9722a3daafe3b4186f6b6457e0600080a36001805560ff1960025416600255601e600455601460055560065416176006556120ee90816100db8239f35b600080fd5b634e487b7160e01b600052604160045260246000fdfe608080604052600436101561001357600080fd5b60003560e01c9081630fe342031461176b575080631f9c324e1461171a5780633f4ba83a1461168657806351810fb51461128357806351858e2714610d005780635a6c72d0146112655780635b7446f3146111e45780635c975abb146111c15780635d75316414610e6857806364df049e14610e3f578063715018a614610de657806379f8e7bd14610d645780637ad9b5ad14610d195780638456cb5914610d005780638da5cb5b14610cd75780638e50e50914610cb957806395ccea6714610c7a5780639e3079cb14610c5c578063a360501c1461086b578063ac4afa38146107a4578063ba9a7a561461079f578063bc063e1a1461079f578063c12e2d3714610634578063c93a6c8414610605578063d8a5e936146105a1578063e1f1c4a714610584578063e521cb9214610505578063e63a391f146104e7578063f2fde38b14610423578063f4868131146103cb5763f88bf15a1461017457600080fd5b346103c65760803660031901126103c65760243560043561019361190b565b61019b6118c7565b801515806103ba575b6101ad90611961565b80600052602091600783526101cf60ff60076040600020015460a01c1661199f565b6101da8115156119dd565b81600052600783526040600020923360005260088152604060002083600052815260406000209260028401936102138486541015611e52565b60038601938454946102258683611a29565b90600589019761023789548094611a3c565b9860048b019384546102528261024d838a611a29565b611a3c565b9a6044358d1015806103ae575b1561037357916102808c89938f6102799061028797611a5c565b8955611a5c565b8755611a5c565b8155610294858354611a5c565b8092556127109182810292818404149015171561035d577f9c27aedc1d1fccd4271dc15980dab26a907cdb41ed08aef747c6d0a9680f55ce61033f60409c966103228c8f998f979b60036102fb8f999e6000805160206120998339815191529f5490611a3c565b91015560018060a01b03610316893383600186015416611e97565b60023392015416611e97565b8751948552602085018c9052604085015233939081906060820190565b0390a3549054825191825285820152a2600180558351928352820152f35b634e487b7160e01b600052601160045260246000fd5b60405162461bcd60e51b8152600481018c9052601360248201527229b634b83830b3b290383937ba32b1ba34b7b760691b6044820152606490fd5b506064358c101561025f565b506003548111156101a4565b600080fd5b346103c65760403660031901126103c6576103e46117b7565b6001600160a01b03166000908152600960205260409020805460243591908210156103c657602091610415916117e3565b90546040519160031b1c8152f35b346103c65760203660031901126103c65761043c6117b7565b610444611818565b6001600160a01b0390811690811561049357600054826001600160601b0360a01b821617600055167f8be0079c531659141344cd1fd0a4f28419497f9722a3daafe3b4186f6b6457e0600080a3005b60405162461bcd60e51b815260206004820152602660248201527f4f776e61626c653a206e6577206f776e657220697320746865207a65726f206160448201526564647265737360d01b6064820152608490fd5b346103c65760003660031901126103c6576020604051620f42408152f35b346103c65760203660031901126103c65761051e6117b7565b610526611818565b6001600160a01b0316801561054d576001600160601b0360a01b6006541617600655600080f35b60405162461bcd60e51b815260206004820152600f60248201526e496e76616c6964206164647265737360881b6044820152606490fd5b346103c65760003660031901126103c65760206040516127108152f35b346103c65760203660031901126103c6576004356105bd611818565b61271081116105cb57600555005b60405162461bcd60e51b8152602060048201526012602482015271496e76616c69642070657263656e7461676560701b6044820152606490fd5b346103c65760203660031901126103c657600435610621611818565b61062f6103e8821115611870565b600455005b346103c6576020806003193601126103c65760043560006080604051610659816118ab565b8281528285820152826040820152826060820152015280151580610793575b61068190611961565b80600052600782526106a060ff60076040600020015460a01c1661199f565b6000526007815260406000206106bf6003820154600483015490611a69565b90600b8101549061016d9283830293838504148315171561035d57600a820154938115610788576237b1d0840290808204612710149015171561035d5761070882600592611a3c565b925b015494851561077c5761271080860290868204148615171561035d5760a09661073291611a3c565b935b6080604051610742816118ab565b8781528381019283526040810194855260608101958652019485526040519586525190850152516040840152516060830152516080820152f35b60a09550600093610734565b50600560009261070a565b50600354811115610678565b6117fb565b346103c65760203660031901126103c65760043560005260076020526101a0604060002080549060018060a01b03908160018201541691806002830154169060ff600384015491600485015490600586015460068701549060078801549360088901549660098a015498600b600a8c01549b01549b60206040519e8f908152015260408d015260608c015260808b015260a08a015260c0890152811660e088015260a01c161515610100860152610120850152610140840152610160830152610180820152f35b346103c65760a03660031901126103c65760443560248035906004359061089061190b565b6108986118c7565b81151580610c50575b6108aa90611961565b81600052602093600785526108cc60ff60076040600020015460a01c1661199f565b6108d78415156119dd565b6108e28115156119dd565b82600052600785526040600020936108fa8185611f75565b91600386019283541580610c44575b15610bf4575b5061093e8160018060a01b0361092f858260018c01541630903390611a76565b3090339060028b015416611a76565b60058601938454968715600014610baf5761096161095c8486611a29565b611d0f565b6103e7198101908111610b9a57976103e88101809111610b9a5786555b8715610b5657600490610992858754611a69565b865501946109a1838754611a69565b86556109ae888254611a69565b815533600052600889526040600020876000528952604060002087815560018101336001600160601b0360a01b82541617905560028101916109f18a8454611a69565b80935561271090818402918483041484151715610b4157928a9492610a1b86938c98965490611a3c565b600382015560044291015514610aa2575b50917f089607a52cca0d390ff7d0ad4e97545804dcc41418e1daee9ec3948596fec94460008051602061209983398151915296949260409694610a8688519283923397846040919493926060820195825260208201520152565b0390a3549054825191825286820152a260018055604051908152f35b9150915033600052600988526040600020805491600160401b831015610b2d57507f089607a52cca0d390ff7d0ad4e97545804dcc41418e1daee9ec3948596fec9448860409694610b0b858b9560016000805160206120998339815191529c9a980181556117e3565b81549060031b9086821b91600019901b19161790559294965092949650610a2c565b634e487b7160e01b60009081526041600452fd5b84634e487b7160e01b60005260116004526000fd5b60405162461bcd60e51b8152600481018a9052601d818401527f496e73756666696369656e74206c6971756964697479206d696e7465640000006044820152606490fd5b82634e487b7160e01b60005260116004526000fd5b96610bdd610bd2610bcb610bc38488611a29565b885490611a3c565b9285611a29565b60048a015490611a3c565b80821015610bed57505b9661097e565b9050610be7565b8110610c00578761090f565b60405162461bcd60e51b815260048101889052601a818601527f496e73756666696369656e7420746f6b656e4220616d6f756e740000000000006044820152606490fd5b50600487015415610909565b506003548211156108a1565b346103c65760003660031901126103c6576020600354604051908152f35b346103c65760403660031901126103c657610cb7610c966117b7565b610c9e611818565b600054602435916001600160a01b039182169116611e97565b005b346103c65760003660031901126103c6576020600554604051908152f35b346103c65760003660031901126103c6576000546040516001600160a01b039091168152602090f35b346103c65760003660031901126103c657610cb761204f565b346103c65760403660031901126103c6576001600160a01b03610d3a6117b7565b16600052600860205260406000206024356000526020526020600260406000200154604051908152f35b346103c65760403660031901126103c6576020610dd260043580151580610dda575b610d8f90611961565b8060005260078352610dae60ff60076040600020015460a01c1661199f565b60008181526007845260409020600101546001600160a01b03169060243590611fab565b604051908152f35b50600354811115610d86565b346103c65760003660031901126103c657610dff611818565b600080546001600160a01b0319811682556001600160a01b03167f8be0079c531659141344cd1fd0a4f28419497f9722a3daafe3b4186f6b6457e08280a3005b346103c65760003660031901126103c6576006546040516001600160a01b039091168152602090f35b346103c65760e03660031901126103c657610e8161190b565b610e896118c7565b600435801515806111b5575b610e9e90611961565b8060005260209060078252610ec060ff60076040600020015460a01c1661199f565b60c435421161117a5760643590610ed88215156119dd565b80600052600783526040600020610eed611ee7565b6001820180549094916001600160a01b0391821690821681148015611161575b156111265781610f1b611efd565b1614801561110d575b156110d157610f31611ee7565b8180610f3b611efd565b1691161461109a5791604091847f7d52dd3ec2b5b193fe77bae34cf749a007f751f47b24c6c175bfa7bf8a4df90e608060008051602061209983398151915296610f8d610f86611ee7565b8686611fab565b99610f9c6084358c1015611f29565b610fb38683610fa9611ee7565b1630903390611a76565b8180610fbd611ee7565b9254169116146000146110735760038601610fd9868254611a69565b905560048601610fea8b8254611a5c565b90555b6110098a82610ffa611efd565b16611003611f13565b90611e97565b426009870155600a860161101e868254611a69565b9055611028611f13565b611030611ee7565b958261103a611efd565b818b5199168952168d880152888701528a60608701521693a360046003820154910154825191825286820152a260018055604051908152f35b60048601611082868254611a69565b9055600386016110938b8254611a5c565b9055610fed565b60405162461bcd60e51b815260048101879052600f60248201526e053616d6520746f6b656e207377617608c1b6044820152606490fd5b60405162461bcd60e51b815260048101879052601460248201527324b73b30b634b21037baba383aba103a37b5b2b760611b6044820152606490fd5b50611116611efd565b8180600286015416911614610f24565b60405162461bcd60e51b815260048101889052601360248201527224b73b30b634b21034b7383aba103a37b5b2b760691b6044820152606490fd5b5061116a611ee7565b8280600287015416911614610f0d565b60405162461bcd60e51b8152600481018390526013602482015272151c985b9cd858dd1a5bdb88195e1c1a5c9959606a1b6044820152606490fd5b50600354811115610e95565b346103c65760003660031901126103c657602060ff600254166040519015158152f35b346103c65760403660031901126103c65760c06001600160a01b03806112086117b7565b166000526008602052604060002060243560005260205260406000208054916001820154169060028101546003820154906005600484015493015493604051958652602086015260408501526060840152608083015260a0820152f35b346103c65760003660031901126103c6576020600454604051908152f35b346103c65760603660031901126103c65761129c6117b7565b6112a46117cd565b6112ac61190b565b6112b46118c7565b9081816001600160a01b0380831690821680821461164e5780151580611645575b15611611576112ea6103e86044351115611870565b80600052600a60205260406000208260005260205260406000205415806115f3575b156115c057116115b5575b505060035490600019821461035d57600182016003556040516101a0810181811067ffffffffffffffff82111761159f5760405260018301815260018060a01b038216602082015260018060a01b03841660408201526000606082015260006080820152600060a082015260443560c08201523060e0820152600161010082015242610120820152600061014082015260006101608201526000610180820152600183016000526007602052600b610180604060002092805184556001840160018060a01b03602083015116906001600160601b0360a01b9182825416179055600285019060018060a01b0360408401511690825416179055606081015160038501556080810151600485015560a0810151600585015560c081015160068501556007840160018060a01b0360e08301511681549060ff60a01b610100850151151560a01b16916affffffffffffffffffffff60a81b161717905561012081015160088501556101408101516009850155610160810151600a850155015191015560018060a01b038116600052600a602052604060002060018060a01b03841660005260205260018201604060002055600a602052604060002060018060a01b03821660005260205260018201604060002055600b5492600160401b84101561159f576001840180600b5584101561158957600b600052600183017f0175b7a638427703f0dbe7bb9bbf987a2551717b34e79f33b5b1008d1fa01db990940184905560405160443581526020946001600160a01b039283169390921691907ff756876565d755443228c555dcee8573d6405d9be751ac121eb5e386ed86913a908690a460018055600160405191018152f35b634e487b7160e01b600052603260045260246000fd5b634e487b7160e01b600052604160045260246000fd5b925090508280611317565b60405162461bcd60e51b815260206004820152600b60248201526a506f6f6c2065786973747360a81b6044820152606490fd5b50600a6020526040600020816000526020526040600020541561130c565b60405162461bcd60e51b815260206004820152600c60248201526b5a65726f206164647265737360a01b6044820152606490fd5b508115156112d5565b60405162461bcd60e51b815260206004820152601060248201526f4964656e746963616c20746f6b656e7360801b6044820152606490fd5b346103c65760003660031901126103c65761169f611818565b60025460ff8116156116de5760ff19166002557f5db9ee0a495bf2e6ff9c91a7834c1ba4fdd244a5e8aa4e537bd38aeae4b073aa6020604051338152a1005b60405162461bcd60e51b815260206004820152601460248201527314185d5cd8589b194e881b9bdd081c185d5cd95960621b6044820152606490fd5b346103c65760203660031901126103c657600435600b548110156103c657602090600b6000527f0175b7a638427703f0dbe7bb9bbf987a2551717b34e79f33b5b1008d1fa01db90154604051908152f35b346103c65760403660031901126103c6576020906117876117b7565b61178f6117cd565b9060018060a01b03809116600052600a84526040600020911660005282526040600020548152f35b600435906001600160a01b03821682036103c657565b602435906001600160a01b03821682036103c657565b80548210156115895760005260206000200190600090565b346103c65760003660031901126103c65760206040516103e88152f35b6000546001600160a01b0316330361182c57565b606460405162461bcd60e51b815260206004820152602060248201527f4f776e61626c653a2063616c6c6572206973206e6f7420746865206f776e65726044820152fd5b1561187757565b60405162461bcd60e51b815260206004820152600c60248201526b08ccaca40e8dede40d0d2ced60a31b6044820152606490fd5b60a0810190811067ffffffffffffffff82111761159f57604052565b60ff600254166118d357565b60405162461bcd60e51b815260206004820152601060248201526f14185d5cd8589b194e881c185d5cd95960821b6044820152606490fd5b60026001541461191c576002600155565b60405162461bcd60e51b815260206004820152601f60248201527f5265656e7472616e637947756172643a207265656e7472616e742063616c6c006044820152606490fd5b1561196857565b60405162461bcd60e51b815260206004820152600f60248201526e125b9d985b1a59081c1bdbdb081251608a1b6044820152606490fd5b156119a657565b60405162461bcd60e51b815260206004820152600f60248201526e506f6f6c206e6f742061637469766560881b6044820152606490fd5b156119e457565b60405162461bcd60e51b815260206004820152601d60248201527f416d6f756e74206d7573742062652067726561746572207468616e20300000006044820152606490fd5b8181029291811591840414171561035d57565b8115611a46570490565b634e487b7160e01b600052601260045260246000fd5b9190820391821161035d57565b9190820180921161035d57565b6040516323b872dd60e01b60208201526001600160a01b039283166024820152929091166044830152606480830193909352918152611abd91611ab8826118ab565b611abf565b565b6040805167ffffffffffffffff94936001600160a01b0390931692908083018681118282101761159f5783526020938482527f5361666545524332303a206c6f772d6c6576656c2063616c6c206661696c6564858301526000808487829651910182855af13d15611c2e573d91888311611c1a57855192601f19603f81601f8401160116840199848b10908b1117611c065786979899611b6996975283528286893d92013e611c3b565b805191821591858315611bdb575b505050905015611b85575050565b60849250519062461bcd60e51b82526004820152602a60248201527f5361666545524332303a204552433230206f7065726174696f6e20646964206e6044820152691bdd081cdd58d8d9595960b21b6064820152fd5b919381809450010312611c0257830151908115158203611bff575080388085611b77565b80fd5b5080fd5b634e487b7160e01b86526041600452602486fd5b634e487b7160e01b85526041600452602485fd5b611b699394959697506060915b91929015611c9d5750815115611c4f575090565b3b15611c585790565b60405162461bcd60e51b815260206004820152601d60248201527f416464726573733a2063616c6c20746f206e6f6e2d636f6e74726163740000006044820152606490fd5b825190915015611cb05750805190602001fd5b6040519062461bcd60e51b82528160208060048301528251908160248401526000935b828510611cf6575050604492506000838284010152601f80199101168101030190fd5b8481018201518686016044015293810193859350611cd3565b8015611e4c57611dda816000908360801c80611e40575b508060401c80611e33575b508060201c80611e26575b508060101c80611e19575b508060081c80611e0c575b508060041c80611dff575b508060021c80611df2575b50600191828092811c611deb575b1c1b611d828185611a3c565b01811c611d8f8185611a3c565b01811c611d9c8185611a3c565b01811c611da98185611a3c565b01811c611db68185611a3c565b01811c611dc38185611a3c565b01811c611dd08185611a3c565b01901c8092611a3c565b80821015611de6575090565b905090565b0181611d76565b6002915091019038611d68565b6004915091019038611d5d565b6008915091019038611d52565b6010915091019038611d47565b6020915091019038611d3c565b6040915091019038611d31565b91505060809038611d26565b50600090565b15611e5957565b60405162461bcd60e51b8152602060048201526016602482015275496e73756666696369656e74206c697175696469747960501b6044820152606490fd5b60405163a9059cbb60e01b60208201526001600160a01b039092166024830152604480830193909352918152608081019167ffffffffffffffff83118284101761159f57611abd92604052611abf565b6024356001600160a01b03811681036103c65790565b6044356001600160a01b03811681036103c65790565b60a4356001600160a01b03811681036103c65790565b15611f3057565b60405162461bcd60e51b815260206004820152601a60248201527f496e73756666696369656e74206f757470757420616d6f756e740000000000006044820152606490fd5b600052600760205260406000206003810154908115611fa357611fa092600461024d92015490611a29565b90565b505050600090565b60009081526007602052604090206001810154909392611abd9261201d9290916001600160a01b0390811691160361203057612017612007600387015492612710612000600660048b01549a5b015483611a29565b0490611a5c565b6120118782611a29565b92611a69565b90611a3c565b809361202a821515611f29565b11611e52565b612017612007600487015492612710612000600660038b01549a611ff8565b612057611818565b61205f6118c7565b600160ff1960025416176002557f62e78cea01bee320cd4e420270b5ea74000d11b0c9f74754ebdbfc544b05a2586020604051338152a156fe17b8644f386d1c7c7138ef98b3c8035622bbe94d7be9b26f71d2654a547c2943a2646970667358221220444f0e6f35a48003fd28fb24b6adcd91ed8aa267a9863e44abdeb9b230f2f3d064736f6c63430008130033",
  "linkReferences": {},
  "deployedLinkReferences": {}
}