{
  "_format": "hh-sol-artifact-1",
  "contractName": "MockVerifier",
  "sourceName": "contracts/MockVerifier.sol",
  "abi": [
    {
      "inputs": [
        {
          "internalType": "uint256",
          "name": "_agentWallet",
          "type": "uint256"
        },
        {
          "internalType": "uint256",
          "name": "_responseTime",
          "type": "uint256"
        },
        {
          "internalType": "uint256",
          "name": "_accuracy",
          "type": "uint256"
        },
        {
          "internalType": "uint256",
          "name": "_availability",
          "type": "uint256"
        },
        {
          "internalType": "uint256",
          "name": "_computePower",
          "type": "uint256"
        },
        {
          "internalType": "bytes",
          "name": "_zkProof",
          "type": "bytes"
        }
      ],
      "name": "verifyPerformance",
      "outputs": [
        {
          "internalType": "bool",
          "name": "",
          "type": "bool"
        }
      ],
      "stateMutability": "pure",
      "type": "function"
    }
  ],
  "bytecode": "0x608080604052346100155760f3908161001b8239f35b600080fdfe60806004361015600e57600080fd5b600090813560e01c63d85a43a414602457600080fd5b3460b95760c036600319011260b95760a4359067ffffffffffffffff9081831160a1573660238401121560a15782600401359180831160a557601f8301601f19908116603f011682019081118282101760a557604052818152366024838501011160a1578160246020940184830137010152602060405160018152f35b8380fd5b634e487b7160e01b85526041600452602485fd5b5080fdfea26469706673582212202d0285659b917d0cb3b11d7dd471dcc5920c2bea8fb87026c07d7a286b742ccb64736f6c63430008130033",
  "linkReferences": {},
  "deployedLinkReferences": {}
}